{
	"data": {
		"bytecode": {
			"linkReferences": {},
			"object": "608060405234801561000f575f80fd5b50335f806101000a81548173ffffffffffffffffffffffffffffffffffffffff021916908373ffffffffffffffffffffffffffffffffffffffff1602179055506111778061005c5f395ff3fe608060405234801561000f575f80fd5b506004361061003f575f3560e01c80630e108d71146100435780638cc151e81461005f578063f846a6771461007b575b5f80fd5b61005d60048036038101906100589190610d3b565b6100b0565b005b61007960048036038101906100749190610de8565b61033d565b005b61009560048036038101906100909190610e13565b61042d565b6040516100a796959493929190610e60565b60405180910390f35b5f8054906101000a900473ffffffffffffffffffffffffffffffffffffffff1673ffffffffffffffffffffffffffffffffffffffff163373ffffffffffffffffffffffffffffffffffffffff161461013d576040517f08c379a000000000000000000000000000000000000000000000000000000000815260040161013490610f19565b60405180910390fd5b5f6107b26301e187e0426101519190610f91565b61015b9190610fc1565b90505f6001600c622820a8426101719190610f91565b61017b9190610ff4565b6101859190610fc1565b90505f81600c846101969190611024565b6101a09190610fc1565b90505f60035f8381526020019081526020015f209050600181601f015f6101000a81548160ff021916908360ff1602179055508581600a015f820151815f019060026101ed9291906109d2565b506020820151816002019060026102059291906109d2565b5060408201518160040190600261021d9291906109d2565b506060820151816006019060026102359291906109d2565b5060808201518160080190600261024d9291906109d2565b5090505086815f015f820151815f0190600261026a9291906109d2565b506020820151816002019060026102829291906109d2565b5060408201518160040190600261029a9291906109d2565b506060820151816006019060026102b29291906109d2565b506080820151816008019060026102ca9291906109d2565b5090505084816014015f820151815f019060026102e89291906109d2565b506020820151816002019060026103009291906109d2565b506040820151816004019060026103189291906109d2565b506060820151816006019060026103309291906109d2565b5090505050505050505050565b5f8054906101000a900473ffffffffffffffffffffffffffffffffffffffff1673ffffffffffffffffffffffffffffffffffffffff163373ffffffffffffffffffffffffffffffffffffffff16146103ca576040517f08c379a00000000000000000000000000000000000000000000000000000000081526004016103c190610f19565b60405180910390fd5b600181908060018154018082558091505060019003905f5260205f20015f9091909190916101000a81548173ffffffffffffffffffffffffffffffffffffffff021916908373ffffffffffffffffffffffffffffffffffffffff16021790555050565b5f805f805f805f805b6001805490508110156104c9576001818154811061045757610456611065565b5b905f5260205f20015f9054906101000a900473ffffffffffffffffffffffffffffffffffffffff1673ffffffffffffffffffffffffffffffffffffffff163373ffffffffffffffffffffffffffffffffffffffff16036104b657600191505b80806104c190611092565b915050610436565b506001151581151514610511576040517f08c379a000000000000000000000000000000000000000000000000000000000815260040161050890611123565b60405180910390fd5b5f8054906101000a900473ffffffffffffffffffffffffffffffffffffffff1673ffffffffffffffffffffffffffffffffffffffff163373ffffffffffffffffffffffffffffffffffffffff161461059e576040517f08c379a000000000000000000000000000000000000000000000000000000000815260040161059590610f19565b60405180910390fd5b5f88600c8b6105ad9190611024565b6105b79190610fc1565b90505f60035f8381526020019081526020015f2090505f815f016008015f600281106105e6576105e5611065565b5b0154825f016006015f60028110610600576105ff611065565b5b0154835f016004015f6002811061061a57610619611065565b5b0154845f016002015f6002811061063457610633611065565b5b0154855f015f015f6002811061064d5761064c611065565b5b01546106599190610fc1565b6106639190610fc1565b61066d9190610fc1565b6106779190610fc1565b90505f825f0160080160016002811061069357610692611065565b5b0154835f016006016001600281106106ae576106ad611065565b5b0154845f016004016001600281106106c9576106c8611065565b5b0154855f016002016001600281106106e4576106e3611065565b5b0154865f015f016001600281106106fe576106fd611065565b5b015461070a9190610fc1565b6107149190610fc1565b61071e9190610fc1565b6107289190610fc1565b90505f83600a016008015f6002811061074457610743611065565b5b015484600a016006015f6002811061075f5761075e611065565b5b015485600a016004015f6002811061077a57610779611065565b5b015486600a016002015f6002811061079557610794611065565b5b015487600a015f015f600281106107af576107ae611065565b5b01546107bb9190610fc1565b6107c59190610fc1565b6107cf9190610fc1565b6107d99190610fc1565b90505f84600a016008016001600281106107f6576107f5611065565b5b015485600a0160060160016002811061081257610811611065565b5b015486600a0160040160016002811061082e5761082d611065565b5b015487600a0160020160016002811061084a57610849611065565b5b015488600a015f0160016002811061086557610864611065565b5b01546108719190610fc1565b61087b9190610fc1565b6108859190610fc1565b61088f9190610fc1565b90505f856014016002015f600281106108ab576108aa611065565b5b0154866014016004015f600281106108c6576108c5611065565b5b0154876014016002015f600281106108e1576108e0611065565b5b0154886014015f015f600281106108fb576108fa611065565b5b01546109079190610fc1565b6109119190610fc1565b61091b9190610fc1565b90505f8660140160020160016002811061093857610937611065565b5b01548760140160040160016002811061095457610953611065565b5b0154886014016002016001600281106109705761096f611065565b5b0154896014015f0160016002811061098b5761098a611065565b5b01546109979190610fc1565b6109a19190610fc1565b6109ab9190610fc1565b90508585858585859e509e509e509e509e509e505050505050505050509295509295509295565b8260028101928215610a01579160200282015b82811115610a005782518255916020019190600101906109e5565b5b509050610a0e9190610a12565b5090565b5b80821115610a29575f815f905550600101610a13565b5090565b5f604051905090565b5f80fd5b5f80fd5b5f601f19601f8301169050919050565b7f4e487b71000000000000000000000000000000000000000000000000000000005f52604160045260245ffd5b610a8482610a3e565b810181811067ffffffffffffffff82111715610aa357610aa2610a4e565b5b80604052505050565b5f610ab5610a2d565b9050610ac18282610a7b565b919050565b5f80fd5b5f67ffffffffffffffff821115610ae457610ae3610a4e565b5b602082029050919050565b5f80fd5b5f819050919050565b610b0581610af3565b8114610b0f575f80fd5b50565b5f81359050610b2081610afc565b92915050565b5f610b38610b3384610aca565b610aac565b90508060208402830185811115610b5257610b51610aef565b5b835b81811015610b7b5780610b678882610b12565b845260208401935050602081019050610b54565b5050509392505050565b5f82601f830112610b9957610b98610ac6565b5b6002610ba6848285610b26565b91505092915050565b5f6101408284031215610bc557610bc4610a3a565b5b610bcf60a0610aac565b90505f610bde84828501610b85565b5f830152506040610bf184828501610b85565b6020830152506080610c0584828501610b85565b60408301525060c0610c1984828501610b85565b606083015250610100610c2e84828501610b85565b60808301525092915050565b5f6101408284031215610c5057610c4f610a3a565b5b610c5a60a0610aac565b90505f610c6984828501610b85565b5f830152506040610c7c84828501610b85565b6020830152506080610c9084828501610b85565b60408301525060c0610ca484828501610b85565b606083015250610100610cb984828501610b85565b60808301525092915050565b5f6101008284031215610cdb57610cda610a3a565b5b610ce56080610aac565b90505f610cf484828501610b85565b5f830152506040610d0784828501610b85565b6020830152506080610d1b84828501610b85565b60408301525060c0610d2f84828501610b85565b60608301525092915050565b5f805f6103808486031215610d5357610d52610a36565b5b5f610d6086828701610baf565b935050610140610d7286828701610c3a565b925050610280610d8486828701610cc5565b9150509250925092565b5f73ffffffffffffffffffffffffffffffffffffffff82169050919050565b5f610db782610d8e565b9050919050565b610dc781610dad565b8114610dd1575f80fd5b50565b5f81359050610de281610dbe565b92915050565b5f60208284031215610dfd57610dfc610a36565b5b5f610e0a84828501610dd4565b91505092915050565b5f8060408385031215610e2957610e28610a36565b5b5f610e3685828601610b12565b9250506020610e4785828601610b12565b9150509250929050565b610e5a81610af3565b82525050565b5f60c082019050610e735f830189610e51565b610e806020830188610e51565b610e8d6040830187610e51565b610e9a6060830186610e51565b610ea76080830185610e51565b610eb460a0830184610e51565b979650505050505050565b5f82825260208201905092915050565b7f50686169206c61207175616e206c7900000000000000000000000000000000005f82015250565b5f610f03600f83610ebf565b9150610f0e82610ecf565b602082019050919050565b5f6020820190508181035f830152610f3081610ef7565b9050919050565b7f4e487b71000000000000000000000000000000000000000000000000000000005f52601260045260245ffd5b7f4e487b71000000000000000000000000000000000000000000000000000000005f52601160045260245ffd5b5f610f9b82610af3565b9150610fa683610af3565b925082610fb657610fb5610f37565b5b828204905092915050565b5f610fcb82610af3565b9150610fd683610af3565b9250828201905080821115610fee57610fed610f64565b5b92915050565b5f610ffe82610af3565b915061100983610af3565b92508261101957611018610f37565b5b828206905092915050565b5f61102e82610af3565b915061103983610af3565b925082820261104781610af3565b9150828204841483151761105e5761105d610f64565b5b5092915050565b7f4e487b71000000000000000000000000000000000000000000000000000000005f52603260045260245ffd5b5f61109c82610af3565b91507fffffffffffffffffffffffffffffffffffffffffffffffffffffffffffffffff82036110ce576110cd610f64565b5b600182019050919050565b7f50686169206c61206b6520746f616e00000000000000000000000000000000005f82015250565b5f61110d600f83610ebf565b9150611118826110d9565b602082019050919050565b5f6020820190508181035f83015261113a81611101565b905091905056fea264697066735822122053a8a8d0006dca96b2c9a8a72582e93ff150c534f15d40612de31e733b00cc7c64736f6c63430008150033",
			"opcodes": "PUSH1 0x80 PUSH1 0x40 MSTORE CALLVALUE DUP1 ISZERO PUSH2 0xF JUMPI PUSH0 DUP1 REVERT JUMPDEST POP CALLER PUSH0 DUP1 PUSH2 0x100 EXP DUP2 SLOAD DUP2 PUSH20 0xFFFFFFFFFFFFFFFFFFFFFFFFFFFFFFFFFFFFFFFF MUL NOT AND SWAP1 DUP4 PUSH20 0xFFFFFFFFFFFFFFFFFFFFFFFFFFFFFFFFFFFFFFFF AND MUL OR SWAP1 SSTORE POP PUSH2 0x1177 DUP1 PUSH2 0x5C PUSH0 CODECOPY PUSH0 RETURN INVALID PUSH1 0x80 PUSH1 0x40 MSTORE CALLVALUE DUP1 ISZERO PUSH2 0xF JUMPI PUSH0 DUP1 REVERT JUMPDEST POP PUSH1 0x4 CALLDATASIZE LT PUSH2 0x3F JUMPI PUSH0 CALLDATALOAD PUSH1 0xE0 SHR DUP1 PUSH4 0xE108D71 EQ PUSH2 0x43 JUMPI DUP1 PUSH4 0x8CC151E8 EQ PUSH2 0x5F JUMPI DUP1 PUSH4 0xF846A677 EQ PUSH2 0x7B JUMPI JUMPDEST PUSH0 DUP1 REVERT JUMPDEST PUSH2 0x5D PUSH1 0x4 DUP1 CALLDATASIZE SUB DUP2 ADD SWAP1 PUSH2 0x58 SWAP2 SWAP1 PUSH2 0xD3B JUMP JUMPDEST PUSH2 0xB0 JUMP JUMPDEST STOP JUMPDEST PUSH2 0x79 PUSH1 0x4 DUP1 CALLDATASIZE SUB DUP2 ADD SWAP1 PUSH2 0x74 SWAP2 SWAP1 PUSH2 0xDE8 JUMP JUMPDEST PUSH2 0x33D JUMP JUMPDEST STOP JUMPDEST PUSH2 0x95 PUSH1 0x4 DUP1 CALLDATASIZE SUB DUP2 ADD SWAP1 PUSH2 0x90 SWAP2 SWAP1 PUSH2 0xE13 JUMP JUMPDEST PUSH2 0x42D JUMP JUMPDEST PUSH1 0x40 MLOAD PUSH2 0xA7 SWAP7 SWAP6 SWAP5 SWAP4 SWAP3 SWAP2 SWAP1 PUSH2 0xE60 JUMP JUMPDEST PUSH1 0x40 MLOAD DUP1 SWAP2 SUB SWAP1 RETURN JUMPDEST PUSH0 DUP1 SLOAD SWAP1 PUSH2 0x100 EXP SWAP1 DIV PUSH20 0xFFFFFFFFFFFFFFFFFFFFFFFFFFFFFFFFFFFFFFFF AND PUSH20 0xFFFFFFFFFFFFFFFFFFFFFFFFFFFFFFFFFFFFFFFF AND CALLER PUSH20 0xFFFFFFFFFFFFFFFFFFFFFFFFFFFFFFFFFFFFFFFF AND EQ PUSH2 0x13D JUMPI PUSH1 0x40 MLOAD PUSH32 0x8C379A000000000000000000000000000000000000000000000000000000000 DUP2 MSTORE PUSH1 0x4 ADD PUSH2 0x134 SWAP1 PUSH2 0xF19 JUMP JUMPDEST PUSH1 0x40 MLOAD DUP1 SWAP2 SUB SWAP1 REVERT JUMPDEST PUSH0 PUSH2 0x7B2 PUSH4 0x1E187E0 TIMESTAMP PUSH2 0x151 SWAP2 SWAP1 PUSH2 0xF91 JUMP JUMPDEST PUSH2 0x15B SWAP2 SWAP1 PUSH2 0xFC1 JUMP JUMPDEST SWAP1 POP PUSH0 PUSH1 0x1 PUSH1 0xC PUSH3 0x2820A8 TIMESTAMP PUSH2 0x171 SWAP2 SWAP1 PUSH2 0xF91 JUMP JUMPDEST PUSH2 0x17B SWAP2 SWAP1 PUSH2 0xFF4 JUMP JUMPDEST PUSH2 0x185 SWAP2 SWAP1 PUSH2 0xFC1 JUMP JUMPDEST SWAP1 POP PUSH0 DUP2 PUSH1 0xC DUP5 PUSH2 0x196 SWAP2 SWAP1 PUSH2 0x1024 JUMP JUMPDEST PUSH2 0x1A0 SWAP2 SWAP1 PUSH2 0xFC1 JUMP JUMPDEST SWAP1 POP PUSH0 PUSH1 0x3 PUSH0 DUP4 DUP2 MSTORE PUSH1 0x20 ADD SWAP1 DUP2 MSTORE PUSH1 0x20 ADD PUSH0 KECCAK256 SWAP1 POP PUSH1 0x1 DUP2 PUSH1 0x1F ADD PUSH0 PUSH2 0x100 EXP DUP2 SLOAD DUP2 PUSH1 0xFF MUL NOT AND SWAP1 DUP4 PUSH1 0xFF AND MUL OR SWAP1 SSTORE POP DUP6 DUP2 PUSH1 0xA ADD PUSH0 DUP3 ADD MLOAD DUP2 PUSH0 ADD SWAP1 PUSH1 0x2 PUSH2 0x1ED SWAP3 SWAP2 SWAP1 PUSH2 0x9D2 JUMP JUMPDEST POP PUSH1 0x20 DUP3 ADD MLOAD DUP2 PUSH1 0x2 ADD SWAP1 PUSH1 0x2 PUSH2 0x205 SWAP3 SWAP2 SWAP1 PUSH2 0x9D2 JUMP JUMPDEST POP PUSH1 0x40 DUP3 ADD MLOAD DUP2 PUSH1 0x4 ADD SWAP1 PUSH1 0x2 PUSH2 0x21D SWAP3 SWAP2 SWAP1 PUSH2 0x9D2 JUMP JUMPDEST POP PUSH1 0x60 DUP3 ADD MLOAD DUP2 PUSH1 0x6 ADD SWAP1 PUSH1 0x2 PUSH2 0x235 SWAP3 SWAP2 SWAP1 PUSH2 0x9D2 JUMP JUMPDEST POP PUSH1 0x80 DUP3 ADD MLOAD DUP2 PUSH1 0x8 ADD SWAP1 PUSH1 0x2 PUSH2 0x24D SWAP3 SWAP2 SWAP1 PUSH2 0x9D2 JUMP JUMPDEST POP SWAP1 POP POP DUP7 DUP2 PUSH0 ADD PUSH0 DUP3 ADD MLOAD DUP2 PUSH0 ADD SWAP1 PUSH1 0x2 PUSH2 0x26A SWAP3 SWAP2 SWAP1 PUSH2 0x9D2 JUMP JUMPDEST POP PUSH1 0x20 DUP3 ADD MLOAD DUP2 PUSH1 0x2 ADD SWAP1 PUSH1 0x2 PUSH2 0x282 SWAP3 SWAP2 SWAP1 PUSH2 0x9D2 JUMP JUMPDEST POP PUSH1 0x40 DUP3 ADD MLOAD DUP2 PUSH1 0x4 ADD SWAP1 PUSH1 0x2 PUSH2 0x29A SWAP3 SWAP2 SWAP1 PUSH2 0x9D2 JUMP JUMPDEST POP PUSH1 0x60 DUP3 ADD MLOAD DUP2 PUSH1 0x6 ADD SWAP1 PUSH1 0x2 PUSH2 0x2B2 SWAP3 SWAP2 SWAP1 PUSH2 0x9D2 JUMP JUMPDEST POP PUSH1 0x80 DUP3 ADD MLOAD DUP2 PUSH1 0x8 ADD SWAP1 PUSH1 0x2 PUSH2 0x2CA SWAP3 SWAP2 SWAP1 PUSH2 0x9D2 JUMP JUMPDEST POP SWAP1 POP POP DUP5 DUP2 PUSH1 0x14 ADD PUSH0 DUP3 ADD MLOAD DUP2 PUSH0 ADD SWAP1 PUSH1 0x2 PUSH2 0x2E8 SWAP3 SWAP2 SWAP1 PUSH2 0x9D2 JUMP JUMPDEST POP PUSH1 0x20 DUP3 ADD MLOAD DUP2 PUSH1 0x2 ADD SWAP1 PUSH1 0x2 PUSH2 0x300 SWAP3 SWAP2 SWAP1 PUSH2 0x9D2 JUMP JUMPDEST POP PUSH1 0x40 DUP3 ADD MLOAD DUP2 PUSH1 0x4 ADD SWAP1 PUSH1 0x2 PUSH2 0x318 SWAP3 SWAP2 SWAP1 PUSH2 0x9D2 JUMP JUMPDEST POP PUSH1 0x60 DUP3 ADD MLOAD DUP2 PUSH1 0x6 ADD SWAP1 PUSH1 0x2 PUSH2 0x330 SWAP3 SWAP2 SWAP1 PUSH2 0x9D2 JUMP JUMPDEST POP SWAP1 POP POP POP POP POP POP POP POP POP JUMP JUMPDEST PUSH0 DUP1 SLOAD SWAP1 PUSH2 0x100 EXP SWAP1 DIV PUSH20 0xFFFFFFFFFFFFFFFFFFFFFFFFFFFFFFFFFFFFFFFF AND PUSH20 0xFFFFFFFFFFFFFFFFFFFFFFFFFFFFFFFFFFFFFFFF AND CALLER PUSH20 0xFFFFFFFFFFFFFFFFFFFFFFFFFFFFFFFFFFFFFFFF AND EQ PUSH2 0x3CA JUMPI PUSH1 0x40 MLOAD PUSH32 0x8C379A000000000000000000000000000000000000000000000000000000000 DUP2 MSTORE PUSH1 0x4 ADD PUSH2 0x3C1 SWAP1 PUSH2 0xF19 JUMP JUMPDEST PUSH1 0x40 MLOAD DUP1 SWAP2 SUB SWAP1 REVERT JUMPDEST PUSH1 0x1 DUP2 SWAP1 DUP1 PUSH1 0x1 DUP2 SLOAD ADD DUP1 DUP3 SSTORE DUP1 SWAP2 POP POP PUSH1 0x1 SWAP1 SUB SWAP1 PUSH0 MSTORE PUSH1 0x20 PUSH0 KECCAK256 ADD PUSH0 SWAP1 SWAP2 SWAP1 SWAP2 SWAP1 SWAP2 PUSH2 0x100 EXP DUP2 SLOAD DUP2 PUSH20 0xFFFFFFFFFFFFFFFFFFFFFFFFFFFFFFFFFFFFFFFF MUL NOT AND SWAP1 DUP4 PUSH20 0xFFFFFFFFFFFFFFFFFFFFFFFFFFFFFFFFFFFFFFFF AND MUL OR SWAP1 SSTORE POP POP JUMP JUMPDEST PUSH0 DUP1 PUSH0 DUP1 PUSH0 DUP1 PUSH0 DUP1 JUMPDEST PUSH1 0x1 DUP1 SLOAD SWAP1 POP DUP2 LT ISZERO PUSH2 0x4C9 JUMPI PUSH1 0x1 DUP2 DUP2 SLOAD DUP2 LT PUSH2 0x457 JUMPI PUSH2 0x456 PUSH2 0x1065 JUMP JUMPDEST JUMPDEST SWAP1 PUSH0 MSTORE PUSH1 0x20 PUSH0 KECCAK256 ADD PUSH0 SWAP1 SLOAD SWAP1 PUSH2 0x100 EXP SWAP1 DIV PUSH20 0xFFFFFFFFFFFFFFFFFFFFFFFFFFFFFFFFFFFFFFFF AND PUSH20 0xFFFFFFFFFFFFFFFFFFFFFFFFFFFFFFFFFFFFFFFF AND CALLER PUSH20 0xFFFFFFFFFFFFFFFFFFFFFFFFFFFFFFFFFFFFFFFF AND SUB PUSH2 0x4B6 JUMPI PUSH1 0x1 SWAP2 POP JUMPDEST DUP1 DUP1 PUSH2 0x4C1 SWAP1 PUSH2 0x1092 JUMP JUMPDEST SWAP2 POP POP PUSH2 0x436 JUMP JUMPDEST POP PUSH1 0x1 ISZERO ISZERO DUP2 ISZERO ISZERO EQ PUSH2 0x511 JUMPI PUSH1 0x40 MLOAD PUSH32 0x8C379A000000000000000000000000000000000000000000000000000000000 DUP2 MSTORE PUSH1 0x4 ADD PUSH2 0x508 SWAP1 PUSH2 0x1123 JUMP JUMPDEST PUSH1 0x40 MLOAD DUP1 SWAP2 SUB SWAP1 REVERT JUMPDEST PUSH0 DUP1 SLOAD SWAP1 PUSH2 0x100 EXP SWAP1 DIV PUSH20 0xFFFFFFFFFFFFFFFFFFFFFFFFFFFFFFFFFFFFFFFF AND PUSH20 0xFFFFFFFFFFFFFFFFFFFFFFFFFFFFFFFFFFFFFFFF AND CALLER PUSH20 0xFFFFFFFFFFFFFFFFFFFFFFFFFFFFFFFFFFFFFFFF AND EQ PUSH2 0x59E JUMPI PUSH1 0x40 MLOAD PUSH32 0x8C379A000000000000000000000000000000000000000000000000000000000 DUP2 MSTORE PUSH1 0x4 ADD PUSH2 0x595 SWAP1 PUSH2 0xF19 JUMP JUMPDEST PUSH1 0x40 MLOAD DUP1 SWAP2 SUB SWAP1 REVERT JUMPDEST PUSH0 DUP9 PUSH1 0xC DUP12 PUSH2 0x5AD SWAP2 SWAP1 PUSH2 0x1024 JUMP JUMPDEST PUSH2 0x5B7 SWAP2 SWAP1 PUSH2 0xFC1 JUMP JUMPDEST SWAP1 POP PUSH0 PUSH1 0x3 PUSH0 DUP4 DUP2 MSTORE PUSH1 0x20 ADD SWAP1 DUP2 MSTORE PUSH1 0x20 ADD PUSH0 KECCAK256 SWAP1 POP PUSH0 DUP2 PUSH0 ADD PUSH1 0x8 ADD PUSH0 PUSH1 0x2 DUP2 LT PUSH2 0x5E6 JUMPI PUSH2 0x5E5 PUSH2 0x1065 JUMP JUMPDEST JUMPDEST ADD SLOAD DUP3 PUSH0 ADD PUSH1 0x6 ADD PUSH0 PUSH1 0x2 DUP2 LT PUSH2 0x600 JUMPI PUSH2 0x5FF PUSH2 0x1065 JUMP JUMPDEST JUMPDEST ADD SLOAD DUP4 PUSH0 ADD PUSH1 0x4 ADD PUSH0 PUSH1 0x2 DUP2 LT PUSH2 0x61A JUMPI PUSH2 0x619 PUSH2 0x1065 JUMP JUMPDEST JUMPDEST ADD SLOAD DUP5 PUSH0 ADD PUSH1 0x2 ADD PUSH0 PUSH1 0x2 DUP2 LT PUSH2 0x634 JUMPI PUSH2 0x633 PUSH2 0x1065 JUMP JUMPDEST JUMPDEST ADD SLOAD DUP6 PUSH0 ADD PUSH0 ADD PUSH0 PUSH1 0x2 DUP2 LT PUSH2 0x64D JUMPI PUSH2 0x64C PUSH2 0x1065 JUMP JUMPDEST JUMPDEST ADD SLOAD PUSH2 0x659 SWAP2 SWAP1 PUSH2 0xFC1 JUMP JUMPDEST PUSH2 0x663 SWAP2 SWAP1 PUSH2 0xFC1 JUMP JUMPDEST PUSH2 0x66D SWAP2 SWAP1 PUSH2 0xFC1 JUMP JUMPDEST PUSH2 0x677 SWAP2 SWAP1 PUSH2 0xFC1 JUMP JUMPDEST SWAP1 POP PUSH0 DUP3 PUSH0 ADD PUSH1 0x8 ADD PUSH1 0x1 PUSH1 0x2 DUP2 LT PUSH2 0x693 JUMPI PUSH2 0x692 PUSH2 0x1065 JUMP JUMPDEST JUMPDEST ADD SLOAD DUP4 PUSH0 ADD PUSH1 0x6 ADD PUSH1 0x1 PUSH1 0x2 DUP2 LT PUSH2 0x6AE JUMPI PUSH2 0x6AD PUSH2 0x1065 JUMP JUMPDEST JUMPDEST ADD SLOAD DUP5 PUSH0 ADD PUSH1 0x4 ADD PUSH1 0x1 PUSH1 0x2 DUP2 LT PUSH2 0x6C9 JUMPI PUSH2 0x6C8 PUSH2 0x1065 JUMP JUMPDEST JUMPDEST ADD SLOAD DUP6 PUSH0 ADD PUSH1 0x2 ADD PUSH1 0x1 PUSH1 0x2 DUP2 LT PUSH2 0x6E4 JUMPI PUSH2 0x6E3 PUSH2 0x1065 JUMP JUMPDEST JUMPDEST ADD SLOAD DUP7 PUSH0 ADD PUSH0 ADD PUSH1 0x1 PUSH1 0x2 DUP2 LT PUSH2 0x6FE JUMPI PUSH2 0x6FD PUSH2 0x1065 JUMP JUMPDEST JUMPDEST ADD SLOAD PUSH2 0x70A SWAP2 SWAP1 PUSH2 0xFC1 JUMP JUMPDEST PUSH2 0x714 SWAP2 SWAP1 PUSH2 0xFC1 JUMP JUMPDEST PUSH2 0x71E SWAP2 SWAP1 PUSH2 0xFC1 JUMP JUMPDEST PUSH2 0x728 SWAP2 SWAP1 PUSH2 0xFC1 JUMP JUMPDEST SWAP1 POP PUSH0 DUP4 PUSH1 0xA ADD PUSH1 0x8 ADD PUSH0 PUSH1 0x2 DUP2 LT PUSH2 0x744 JUMPI PUSH2 0x743 PUSH2 0x1065 JUMP JUMPDEST JUMPDEST ADD SLOAD DUP5 PUSH1 0xA ADD PUSH1 0x6 ADD PUSH0 PUSH1 0x2 DUP2 LT PUSH2 0x75F JUMPI PUSH2 0x75E PUSH2 0x1065 JUMP JUMPDEST JUMPDEST ADD SLOAD DUP6 PUSH1 0xA ADD PUSH1 0x4 ADD PUSH0 PUSH1 0x2 DUP2 LT PUSH2 0x77A JUMPI PUSH2 0x779 PUSH2 0x1065 JUMP JUMPDEST JUMPDEST ADD SLOAD DUP7 PUSH1 0xA ADD PUSH1 0x2 ADD PUSH0 PUSH1 0x2 DUP2 LT PUSH2 0x795 JUMPI PUSH2 0x794 PUSH2 0x1065 JUMP JUMPDEST JUMPDEST ADD SLOAD DUP8 PUSH1 0xA ADD PUSH0 ADD PUSH0 PUSH1 0x2 DUP2 LT PUSH2 0x7AF JUMPI PUSH2 0x7AE PUSH2 0x1065 JUMP JUMPDEST JUMPDEST ADD SLOAD PUSH2 0x7BB SWAP2 SWAP1 PUSH2 0xFC1 JUMP JUMPDEST PUSH2 0x7C5 SWAP2 SWAP1 PUSH2 0xFC1 JUMP JUMPDEST PUSH2 0x7CF SWAP2 SWAP1 PUSH2 0xFC1 JUMP JUMPDEST PUSH2 0x7D9 SWAP2 SWAP1 PUSH2 0xFC1 JUMP JUMPDEST SWAP1 POP PUSH0 DUP5 PUSH1 0xA ADD PUSH1 0x8 ADD PUSH1 0x1 PUSH1 0x2 DUP2 LT PUSH2 0x7F6 JUMPI PUSH2 0x7F5 PUSH2 0x1065 JUMP JUMPDEST JUMPDEST ADD SLOAD DUP6 PUSH1 0xA ADD PUSH1 0x6 ADD PUSH1 0x1 PUSH1 0x2 DUP2 LT PUSH2 0x812 JUMPI PUSH2 0x811 PUSH2 0x1065 JUMP JUMPDEST JUMPDEST ADD SLOAD DUP7 PUSH1 0xA ADD PUSH1 0x4 ADD PUSH1 0x1 PUSH1 0x2 DUP2 LT PUSH2 0x82E JUMPI PUSH2 0x82D PUSH2 0x1065 JUMP JUMPDEST JUMPDEST ADD SLOAD DUP8 PUSH1 0xA ADD PUSH1 0x2 ADD PUSH1 0x1 PUSH1 0x2 DUP2 LT PUSH2 0x84A JUMPI PUSH2 0x849 PUSH2 0x1065 JUMP JUMPDEST JUMPDEST ADD SLOAD DUP9 PUSH1 0xA ADD PUSH0 ADD PUSH1 0x1 PUSH1 0x2 DUP2 LT PUSH2 0x865 JUMPI PUSH2 0x864 PUSH2 0x1065 JUMP JUMPDEST JUMPDEST ADD SLOAD PUSH2 0x871 SWAP2 SWAP1 PUSH2 0xFC1 JUMP JUMPDEST PUSH2 0x87B SWAP2 SWAP1 PUSH2 0xFC1 JUMP JUMPDEST PUSH2 0x885 SWAP2 SWAP1 PUSH2 0xFC1 JUMP JUMPDEST PUSH2 0x88F SWAP2 SWAP1 PUSH2 0xFC1 JUMP JUMPDEST SWAP1 POP PUSH0 DUP6 PUSH1 0x14 ADD PUSH1 0x2 ADD PUSH0 PUSH1 0x2 DUP2 LT PUSH2 0x8AB JUMPI PUSH2 0x8AA PUSH2 0x1065 JUMP JUMPDEST JUMPDEST ADD SLOAD DUP7 PUSH1 0x14 ADD PUSH1 0x4 ADD PUSH0 PUSH1 0x2 DUP2 LT PUSH2 0x8C6 JUMPI PUSH2 0x8C5 PUSH2 0x1065 JUMP JUMPDEST JUMPDEST ADD SLOAD DUP8 PUSH1 0x14 ADD PUSH1 0x2 ADD PUSH0 PUSH1 0x2 DUP2 LT PUSH2 0x8E1 JUMPI PUSH2 0x8E0 PUSH2 0x1065 JUMP JUMPDEST JUMPDEST ADD SLOAD DUP9 PUSH1 0x14 ADD PUSH0 ADD PUSH0 PUSH1 0x2 DUP2 LT PUSH2 0x8FB JUMPI PUSH2 0x8FA PUSH2 0x1065 JUMP JUMPDEST JUMPDEST ADD SLOAD PUSH2 0x907 SWAP2 SWAP1 PUSH2 0xFC1 JUMP JUMPDEST PUSH2 0x911 SWAP2 SWAP1 PUSH2 0xFC1 JUMP JUMPDEST PUSH2 0x91B SWAP2 SWAP1 PUSH2 0xFC1 JUMP JUMPDEST SWAP1 POP PUSH0 DUP7 PUSH1 0x14 ADD PUSH1 0x2 ADD PUSH1 0x1 PUSH1 0x2 DUP2 LT PUSH2 0x938 JUMPI PUSH2 0x937 PUSH2 0x1065 JUMP JUMPDEST JUMPDEST ADD SLOAD DUP8 PUSH1 0x14 ADD PUSH1 0x4 ADD PUSH1 0x1 PUSH1 0x2 DUP2 LT PUSH2 0x954 JUMPI PUSH2 0x953 PUSH2 0x1065 JUMP JUMPDEST JUMPDEST ADD SLOAD DUP9 PUSH1 0x14 ADD PUSH1 0x2 ADD PUSH1 0x1 PUSH1 0x2 DUP2 LT PUSH2 0x970 JUMPI PUSH2 0x96F PUSH2 0x1065 JUMP JUMPDEST JUMPDEST ADD SLOAD DUP10 PUSH1 0x14 ADD PUSH0 ADD PUSH1 0x1 PUSH1 0x2 DUP2 LT PUSH2 0x98B JUMPI PUSH2 0x98A PUSH2 0x1065 JUMP JUMPDEST JUMPDEST ADD SLOAD PUSH2 0x997 SWAP2 SWAP1 PUSH2 0xFC1 JUMP JUMPDEST PUSH2 0x9A1 SWAP2 SWAP1 PUSH2 0xFC1 JUMP JUMPDEST PUSH2 0x9AB SWAP2 SWAP1 PUSH2 0xFC1 JUMP JUMPDEST SWAP1 POP DUP6 DUP6 DUP6 DUP6 DUP6 DUP6 SWAP15 POP SWAP15 POP SWAP15 POP SWAP15 POP SWAP15 POP SWAP15 POP POP POP POP POP POP POP POP POP POP SWAP3 SWAP6 POP SWAP3 SWAP6 POP SWAP3 SWAP6 JUMP JUMPDEST DUP3 PUSH1 0x2 DUP2 ADD SWAP3 DUP3 ISZERO PUSH2 0xA01 JUMPI SWAP2 PUSH1 0x20 MUL DUP3 ADD JUMPDEST DUP3 DUP2 GT ISZERO PUSH2 0xA00 JUMPI DUP3 MLOAD DUP3 SSTORE SWAP2 PUSH1 0x20 ADD SWAP2 SWAP1 PUSH1 0x1 ADD SWAP1 PUSH2 0x9E5 JUMP JUMPDEST JUMPDEST POP SWAP1 POP PUSH2 0xA0E SWAP2 SWAP1 PUSH2 0xA12 JUMP JUMPDEST POP SWAP1 JUMP JUMPDEST JUMPDEST DUP1 DUP3 GT ISZERO PUSH2 0xA29 JUMPI PUSH0 DUP2 PUSH0 SWAP1 SSTORE POP PUSH1 0x1 ADD PUSH2 0xA13 JUMP JUMPDEST POP SWAP1 JUMP JUMPDEST PUSH0 PUSH1 0x40 MLOAD SWAP1 POP SWAP1 JUMP JUMPDEST PUSH0 DUP1 REVERT JUMPDEST PUSH0 DUP1 REVERT JUMPDEST PUSH0 PUSH1 0x1F NOT PUSH1 0x1F DUP4 ADD AND SWAP1 POP SWAP2 SWAP1 POP JUMP JUMPDEST PUSH32 0x4E487B7100000000000000000000000000000000000000000000000000000000 PUSH0 MSTORE PUSH1 0x41 PUSH1 0x4 MSTORE PUSH1 0x24 PUSH0 REVERT JUMPDEST PUSH2 0xA84 DUP3 PUSH2 0xA3E JUMP JUMPDEST DUP2 ADD DUP2 DUP2 LT PUSH8 0xFFFFFFFFFFFFFFFF DUP3 GT OR ISZERO PUSH2 0xAA3 JUMPI PUSH2 0xAA2 PUSH2 0xA4E JUMP JUMPDEST JUMPDEST DUP1 PUSH1 0x40 MSTORE POP POP POP JUMP JUMPDEST PUSH0 PUSH2 0xAB5 PUSH2 0xA2D JUMP JUMPDEST SWAP1 POP PUSH2 0xAC1 DUP3 DUP3 PUSH2 0xA7B JUMP JUMPDEST SWAP2 SWAP1 POP JUMP JUMPDEST PUSH0 DUP1 REVERT JUMPDEST PUSH0 PUSH8 0xFFFFFFFFFFFFFFFF DUP3 GT ISZERO PUSH2 0xAE4 JUMPI PUSH2 0xAE3 PUSH2 0xA4E JUMP JUMPDEST JUMPDEST PUSH1 0x20 DUP3 MUL SWAP1 POP SWAP2 SWAP1 POP JUMP JUMPDEST PUSH0 DUP1 REVERT JUMPDEST PUSH0 DUP2 SWAP1 POP SWAP2 SWAP1 POP JUMP JUMPDEST PUSH2 0xB05 DUP2 PUSH2 0xAF3 JUMP JUMPDEST DUP2 EQ PUSH2 0xB0F JUMPI PUSH0 DUP1 REVERT JUMPDEST POP JUMP JUMPDEST PUSH0 DUP2 CALLDATALOAD SWAP1 POP PUSH2 0xB20 DUP2 PUSH2 0xAFC JUMP JUMPDEST SWAP3 SWAP2 POP POP JUMP JUMPDEST PUSH0 PUSH2 0xB38 PUSH2 0xB33 DUP5 PUSH2 0xACA JUMP JUMPDEST PUSH2 0xAAC JUMP JUMPDEST SWAP1 POP DUP1 PUSH1 0x20 DUP5 MUL DUP4 ADD DUP6 DUP2 GT ISZERO PUSH2 0xB52 JUMPI PUSH2 0xB51 PUSH2 0xAEF JUMP JUMPDEST JUMPDEST DUP4 JUMPDEST DUP2 DUP2 LT ISZERO PUSH2 0xB7B JUMPI DUP1 PUSH2 0xB67 DUP9 DUP3 PUSH2 0xB12 JUMP JUMPDEST DUP5 MSTORE PUSH1 0x20 DUP5 ADD SWAP4 POP POP PUSH1 0x20 DUP2 ADD SWAP1 POP PUSH2 0xB54 JUMP JUMPDEST POP POP POP SWAP4 SWAP3 POP POP POP JUMP JUMPDEST PUSH0 DUP3 PUSH1 0x1F DUP4 ADD SLT PUSH2 0xB99 JUMPI PUSH2 0xB98 PUSH2 0xAC6 JUMP JUMPDEST JUMPDEST PUSH1 0x2 PUSH2 0xBA6 DUP5 DUP3 DUP6 PUSH2 0xB26 JUMP JUMPDEST SWAP2 POP POP SWAP3 SWAP2 POP POP JUMP JUMPDEST PUSH0 PUSH2 0x140 DUP3 DUP5 SUB SLT ISZERO PUSH2 0xBC5 JUMPI PUSH2 0xBC4 PUSH2 0xA3A JUMP JUMPDEST JUMPDEST PUSH2 0xBCF PUSH1 0xA0 PUSH2 0xAAC JUMP JUMPDEST SWAP1 POP PUSH0 PUSH2 0xBDE DUP5 DUP3 DUP6 ADD PUSH2 0xB85 JUMP JUMPDEST PUSH0 DUP4 ADD MSTORE POP PUSH1 0x40 PUSH2 0xBF1 DUP5 DUP3 DUP6 ADD PUSH2 0xB85 JUMP JUMPDEST PUSH1 0x20 DUP4 ADD MSTORE POP PUSH1 0x80 PUSH2 0xC05 DUP5 DUP3 DUP6 ADD PUSH2 0xB85 JUMP JUMPDEST PUSH1 0x40 DUP4 ADD MSTORE POP PUSH1 0xC0 PUSH2 0xC19 DUP5 DUP3 DUP6 ADD PUSH2 0xB85 JUMP JUMPDEST PUSH1 0x60 DUP4 ADD MSTORE POP PUSH2 0x100 PUSH2 0xC2E DUP5 DUP3 DUP6 ADD PUSH2 0xB85 JUMP JUMPDEST PUSH1 0x80 DUP4 ADD MSTORE POP SWAP3 SWAP2 POP POP JUMP JUMPDEST PUSH0 PUSH2 0x140 DUP3 DUP5 SUB SLT ISZERO PUSH2 0xC50 JUMPI PUSH2 0xC4F PUSH2 0xA3A JUMP JUMPDEST JUMPDEST PUSH2 0xC5A PUSH1 0xA0 PUSH2 0xAAC JUMP JUMPDEST SWAP1 POP PUSH0 PUSH2 0xC69 DUP5 DUP3 DUP6 ADD PUSH2 0xB85 JUMP JUMPDEST PUSH0 DUP4 ADD MSTORE POP PUSH1 0x40 PUSH2 0xC7C DUP5 DUP3 DUP6 ADD PUSH2 0xB85 JUMP JUMPDEST PUSH1 0x20 DUP4 ADD MSTORE POP PUSH1 0x80 PUSH2 0xC90 DUP5 DUP3 DUP6 ADD PUSH2 0xB85 JUMP JUMPDEST PUSH1 0x40 DUP4 ADD MSTORE POP PUSH1 0xC0 PUSH2 0xCA4 DUP5 DUP3 DUP6 ADD PUSH2 0xB85 JUMP JUMPDEST PUSH1 0x60 DUP4 ADD MSTORE POP PUSH2 0x100 PUSH2 0xCB9 DUP5 DUP3 DUP6 ADD PUSH2 0xB85 JUMP JUMPDEST PUSH1 0x80 DUP4 ADD MSTORE POP SWAP3 SWAP2 POP POP JUMP JUMPDEST PUSH0 PUSH2 0x100 DUP3 DUP5 SUB SLT ISZERO PUSH2 0xCDB JUMPI PUSH2 0xCDA PUSH2 0xA3A JUMP JUMPDEST JUMPDEST PUSH2 0xCE5 PUSH1 0x80 PUSH2 0xAAC JUMP JUMPDEST SWAP1 POP PUSH0 PUSH2 0xCF4 DUP5 DUP3 DUP6 ADD PUSH2 0xB85 JUMP JUMPDEST PUSH0 DUP4 ADD MSTORE POP PUSH1 0x40 PUSH2 0xD07 DUP5 DUP3 DUP6 ADD PUSH2 0xB85 JUMP JUMPDEST PUSH1 0x20 DUP4 ADD MSTORE POP PUSH1 0x80 PUSH2 0xD1B DUP5 DUP3 DUP6 ADD PUSH2 0xB85 JUMP JUMPDEST PUSH1 0x40 DUP4 ADD MSTORE POP PUSH1 0xC0 PUSH2 0xD2F DUP5 DUP3 DUP6 ADD PUSH2 0xB85 JUMP JUMPDEST PUSH1 0x60 DUP4 ADD MSTORE POP SWAP3 SWAP2 POP POP JUMP JUMPDEST PUSH0 DUP1 PUSH0 PUSH2 0x380 DUP5 DUP7 SUB SLT ISZERO PUSH2 0xD53 JUMPI PUSH2 0xD52 PUSH2 0xA36 JUMP JUMPDEST JUMPDEST PUSH0 PUSH2 0xD60 DUP7 DUP3 DUP8 ADD PUSH2 0xBAF JUMP JUMPDEST SWAP4 POP POP PUSH2 0x140 PUSH2 0xD72 DUP7 DUP3 DUP8 ADD PUSH2 0xC3A JUMP JUMPDEST SWAP3 POP POP PUSH2 0x280 PUSH2 0xD84 DUP7 DUP3 DUP8 ADD PUSH2 0xCC5 JUMP JUMPDEST SWAP2 POP POP SWAP3 POP SWAP3 POP SWAP3 JUMP JUMPDEST PUSH0 PUSH20 0xFFFFFFFFFFFFFFFFFFFFFFFFFFFFFFFFFFFFFFFF DUP3 AND SWAP1 POP SWAP2 SWAP1 POP JUMP JUMPDEST PUSH0 PUSH2 0xDB7 DUP3 PUSH2 0xD8E JUMP JUMPDEST SWAP1 POP SWAP2 SWAP1 POP JUMP JUMPDEST PUSH2 0xDC7 DUP2 PUSH2 0xDAD JUMP JUMPDEST DUP2 EQ PUSH2 0xDD1 JUMPI PUSH0 DUP1 REVERT JUMPDEST POP JUMP JUMPDEST PUSH0 DUP2 CALLDATALOAD SWAP1 POP PUSH2 0xDE2 DUP2 PUSH2 0xDBE JUMP JUMPDEST SWAP3 SWAP2 POP POP JUMP JUMPDEST PUSH0 PUSH1 0x20 DUP3 DUP5 SUB SLT ISZERO PUSH2 0xDFD JUMPI PUSH2 0xDFC PUSH2 0xA36 JUMP JUMPDEST JUMPDEST PUSH0 PUSH2 0xE0A DUP5 DUP3 DUP6 ADD PUSH2 0xDD4 JUMP JUMPDEST SWAP2 POP POP SWAP3 SWAP2 POP POP JUMP JUMPDEST PUSH0 DUP1 PUSH1 0x40 DUP4 DUP6 SUB SLT ISZERO PUSH2 0xE29 JUMPI PUSH2 0xE28 PUSH2 0xA36 JUMP JUMPDEST JUMPDEST PUSH0 PUSH2 0xE36 DUP6 DUP3 DUP7 ADD PUSH2 0xB12 JUMP JUMPDEST SWAP3 POP POP PUSH1 0x20 PUSH2 0xE47 DUP6 DUP3 DUP7 ADD PUSH2 0xB12 JUMP JUMPDEST SWAP2 POP POP SWAP3 POP SWAP3 SWAP1 POP JUMP JUMPDEST PUSH2 0xE5A DUP2 PUSH2 0xAF3 JUMP JUMPDEST DUP3 MSTORE POP POP JUMP JUMPDEST PUSH0 PUSH1 0xC0 DUP3 ADD SWAP1 POP PUSH2 0xE73 PUSH0 DUP4 ADD DUP10 PUSH2 0xE51 JUMP JUMPDEST PUSH2 0xE80 PUSH1 0x20 DUP4 ADD DUP9 PUSH2 0xE51 JUMP JUMPDEST PUSH2 0xE8D PUSH1 0x40 DUP4 ADD DUP8 PUSH2 0xE51 JUMP JUMPDEST PUSH2 0xE9A PUSH1 0x60 DUP4 ADD DUP7 PUSH2 0xE51 JUMP JUMPDEST PUSH2 0xEA7 PUSH1 0x80 DUP4 ADD DUP6 PUSH2 0xE51 JUMP JUMPDEST PUSH2 0xEB4 PUSH1 0xA0 DUP4 ADD DUP5 PUSH2 0xE51 JUMP JUMPDEST SWAP8 SWAP7 POP POP POP POP POP POP POP JUMP JUMPDEST PUSH0 DUP3 DUP3 MSTORE PUSH1 0x20 DUP3 ADD SWAP1 POP SWAP3 SWAP2 POP POP JUMP JUMPDEST PUSH32 0x50686169206C61207175616E206C790000000000000000000000000000000000 PUSH0 DUP3 ADD MSTORE POP JUMP JUMPDEST PUSH0 PUSH2 0xF03 PUSH1 0xF DUP4 PUSH2 0xEBF JUMP JUMPDEST SWAP2 POP PUSH2 0xF0E DUP3 PUSH2 0xECF JUMP JUMPDEST PUSH1 0x20 DUP3 ADD SWAP1 POP SWAP2 SWAP1 POP JUMP JUMPDEST PUSH0 PUSH1 0x20 DUP3 ADD SWAP1 POP DUP2 DUP2 SUB PUSH0 DUP4 ADD MSTORE PUSH2 0xF30 DUP2 PUSH2 0xEF7 JUMP JUMPDEST SWAP1 POP SWAP2 SWAP1 POP JUMP JUMPDEST PUSH32 0x4E487B7100000000000000000000000000000000000000000000000000000000 PUSH0 MSTORE PUSH1 0x12 PUSH1 0x4 MSTORE PUSH1 0x24 PUSH0 REVERT JUMPDEST PUSH32 0x4E487B7100000000000000000000000000000000000000000000000000000000 PUSH0 MSTORE PUSH1 0x11 PUSH1 0x4 MSTORE PUSH1 0x24 PUSH0 REVERT JUMPDEST PUSH0 PUSH2 0xF9B DUP3 PUSH2 0xAF3 JUMP JUMPDEST SWAP2 POP PUSH2 0xFA6 DUP4 PUSH2 0xAF3 JUMP JUMPDEST SWAP3 POP DUP3 PUSH2 0xFB6 JUMPI PUSH2 0xFB5 PUSH2 0xF37 JUMP JUMPDEST JUMPDEST DUP3 DUP3 DIV SWAP1 POP SWAP3 SWAP2 POP POP JUMP JUMPDEST PUSH0 PUSH2 0xFCB DUP3 PUSH2 0xAF3 JUMP JUMPDEST SWAP2 POP PUSH2 0xFD6 DUP4 PUSH2 0xAF3 JUMP JUMPDEST SWAP3 POP DUP3 DUP3 ADD SWAP1 POP DUP1 DUP3 GT ISZERO PUSH2 0xFEE JUMPI PUSH2 0xFED PUSH2 0xF64 JUMP JUMPDEST JUMPDEST SWAP3 SWAP2 POP POP JUMP JUMPDEST PUSH0 PUSH2 0xFFE DUP3 PUSH2 0xAF3 JUMP JUMPDEST SWAP2 POP PUSH2 0x1009 DUP4 PUSH2 0xAF3 JUMP JUMPDEST SWAP3 POP DUP3 PUSH2 0x1019 JUMPI PUSH2 0x1018 PUSH2 0xF37 JUMP JUMPDEST JUMPDEST DUP3 DUP3 MOD SWAP1 POP SWAP3 SWAP2 POP POP JUMP JUMPDEST PUSH0 PUSH2 0x102E DUP3 PUSH2 0xAF3 JUMP JUMPDEST SWAP2 POP PUSH2 0x1039 DUP4 PUSH2 0xAF3 JUMP JUMPDEST SWAP3 POP DUP3 DUP3 MUL PUSH2 0x1047 DUP2 PUSH2 0xAF3 JUMP JUMPDEST SWAP2 POP DUP3 DUP3 DIV DUP5 EQ DUP4 ISZERO OR PUSH2 0x105E JUMPI PUSH2 0x105D PUSH2 0xF64 JUMP JUMPDEST JUMPDEST POP SWAP3 SWAP2 POP POP JUMP JUMPDEST PUSH32 0x4E487B7100000000000000000000000000000000000000000000000000000000 PUSH0 MSTORE PUSH1 0x32 PUSH1 0x4 MSTORE PUSH1 0x24 PUSH0 REVERT JUMPDEST PUSH0 PUSH2 0x109C DUP3 PUSH2 0xAF3 JUMP JUMPDEST SWAP2 POP PUSH32 0xFFFFFFFFFFFFFFFFFFFFFFFFFFFFFFFFFFFFFFFFFFFFFFFFFFFFFFFFFFFFFFFF DUP3 SUB PUSH2 0x10CE JUMPI PUSH2 0x10CD PUSH2 0xF64 JUMP JUMPDEST JUMPDEST PUSH1 0x1 DUP3 ADD SWAP1 POP SWAP2 SWAP1 POP JUMP JUMPDEST PUSH32 0x50686169206C61206B6520746F616E0000000000000000000000000000000000 PUSH0 DUP3 ADD MSTORE POP JUMP JUMPDEST PUSH0 PUSH2 0x110D PUSH1 0xF DUP4 PUSH2 0xEBF JUMP JUMPDEST SWAP2 POP PUSH2 0x1118 DUP3 PUSH2 0x10D9 JUMP JUMPDEST PUSH1 0x20 DUP3 ADD SWAP1 POP SWAP2 SWAP1 POP JUMP JUMPDEST PUSH0 PUSH1 0x20 DUP3 ADD SWAP1 POP DUP2 DUP2 SUB PUSH0 DUP4 ADD MSTORE PUSH2 0x113A DUP2 PUSH2 0x1101 JUMP JUMPDEST SWAP1 POP SWAP2 SWAP1 POP JUMP INVALID LOG2 PUSH5 0x6970667358 0x22 SLT KECCAK256 MSTORE8 0xA8 0xA8 0xD0 STOP PUSH14 0xCA96B2C9A8A72582E93FF150C534 CALL 0x5D BLOCKHASH PUSH2 0x2DE3 0x1E PUSH20 0x3B00CC7C64736F6C634300081500330000000000 "
		},
		"gasEstimates": {
			"creation": {
				"codeDepositCost": "894200",
				"executionCost": "25192",
				"totalCost": "919392"
			},
			"external": {
				"layBaoCao(uint256,uint256)": "infinite",
				"themBaoCao((uint256[2],uint256[2],uint256[2],uint256[2],uint256[2]),(uint256[2],uint256[2],uint256[2],uint256[2],uint256[2]),(uint256[2],uint256[2],uint256[2],uint256[2]))": "infinite",
				"themKeToan(address)": "51191"
			}
		},
		"methodIdentifiers": {
			"layBaoCao(uint256,uint256)": "f846a677",
			"themBaoCao((uint256[2],uint256[2],uint256[2],uint256[2],uint256[2]),(uint256[2],uint256[2],uint256[2],uint256[2],uint256[2]),(uint256[2],uint256[2],uint256[2],uint256[2]))": "0e108d71",
			"themKeToan(address)": "8cc151e8"
		}
	},
	"abi": [
		{
			"inputs": [],
			"stateMutability": "nonpayable",
			"type": "constructor"
		},
		{
			"inputs": [
				{
					"internalType": "uint256",
					"name": "year",
					"type": "uint256"
				},
				{
					"internalType": "uint256",
					"name": "month",
					"type": "uint256"
				}
			],
			"name": "layBaoCao",
			"outputs": [
				{
					"internalType": "uint256",
					"name": "",
					"type": "uint256"
				},
				{
					"internalType": "uint256",
					"name": "",
					"type": "uint256"
				},
				{
					"internalType": "uint256",
					"name": "",
					"type": "uint256"
				},
				{
					"internalType": "uint256",
					"name": "",
					"type": "uint256"
				},
				{
					"internalType": "uint256",
					"name": "",
					"type": "uint256"
				},
				{
					"internalType": "uint256",
					"name": "",
					"type": "uint256"
				}
			],
			"stateMutability": "view",
			"type": "function"
		},
		{
			"inputs": [
				{
					"components": [
						{
							"internalType": "uint256[2]",
							"name": "TienMatVaTuongDuong",
							"type": "uint256[2]"
						},
						{
							"internalType": "uint256[2]",
							"name": "DauTuTaiChinh",
							"type": "uint256[2]"
						},
						{
							"internalType": "uint256[2]",
							"name": "PhaiThuNganHan",
							"type": "uint256[2]"
						},
						{
							"internalType": "uint256[2]",
							"name": "HangTonKhoDauNam",
							"type": "uint256[2]"
						},
						{
							"internalType": "uint256[2]",
							"name": "TaiSanNganHangKhac",
							"type": "uint256[2]"
						}
					],
					"internalType": "struct TaiSanNganHan",
					"name": "_taiSanNganHan",
					"type": "tuple"
				},
				{
					"components": [
						{
							"internalType": "uint256[2]",
							"name": "PhaiThuDaiHan",
							"type": "uint256[2]"
						},
						{
							"internalType": "uint256[2]",
							"name": "TaiSanCoDinh",
							"type": "uint256[2]"
						},
						{
							"internalType": "uint256[2]",
							"name": "BatDongSanDauTu",
							"type": "uint256[2]"
						},
						{
							"internalType": "uint256[2]",
							"name": "TaiSanDoDangDaiHan",
							"type": "uint256[2]"
						},
						{
							"internalType": "uint256[2]",
							"name": "TaiSanDaiHanKhac",
							"type": "uint256[2]"
						}
					],
					"internalType": "struct TaiSanDaiHan",
					"name": "_taiSanDaiHan",
					"type": "tuple"
				},
				{
					"components": [
						{
							"internalType": "uint256[2]",
							"name": "NoNganHan",
							"type": "uint256[2]"
						},
						{
							"internalType": "uint256[2]",
							"name": "PhaiTraNganHan",
							"type": "uint256[2]"
						},
						{
							"internalType": "uint256[2]",
							"name": "NoDaiHan",
							"type": "uint256[2]"
						},
						{
							"internalType": "uint256[2]",
							"name": "VongVonChuSoHuu",
							"type": "uint256[2]"
						}
					],
					"internalType": "struct VongVon",
					"name": "_vongVon",
					"type": "tuple"
				}
			],
			"name": "themBaoCao",
			"outputs": [],
			"stateMutability": "nonpayable",
			"type": "function"
		},
		{
			"inputs": [
				{
					"internalType": "address",
					"name": "newKeToan",
					"type": "address"
				}
			],
			"name": "themKeToan",
			"outputs": [],
			"stateMutability": "nonpayable",
			"type": "function"
		}
	]
}