{
	"data": {
		"bytecode": {
			"linkReferences": {},
			"object": "608060405234801561000f575f80fd5b506105758061001d5f395ff3fe608060405234801561000f575f80fd5b5060043610610034575f3560e01c806327c51330146100385780637744261d1461006c575b5f80fd5b610052600480360381019061004d91906102c8565b610088565b604051610063959493929190610315565b60405180910390f35b61008660048036038101906100819190610366565b6100ea565b005b5f805f805f8086600c8961009c9190610430565b6100a69190610471565b90505f805f8381526020019081526020015f2090508060080154816009015482600a015483600b015484600c01549650965096509650965050509295509295909350565b5f86600c896100f99190610430565b6101039190610471565b90505f805f8381526020019081526020015f209050600181600d015f6101000a81548160ff0219169083151502179055505f5b600180549050811015610221575f60018281548110610158576101576104a4565b5b905f5260205f2001549050600115155f808381526020019081526020015f20600d0160019054906101000a900460ff1615151415801561019757508084145b1561020d575f83600d015f6101000a81548160ff0219169083151502179055503373ffffffffffffffffffffffffffffffffffffffff167f94e9ca73cb43e73a77e296510f72f0d08a0ca19574b50c1b728f524f8f1507e48c8c6040516101ff9291906104d1565b60405180910390a250610221565b508080610219906104f8565b915050610136565b5088815f01819055508781600101819055508681600801819055508581600901819055508481600a01819055508381600b01819055508281600c0181905550600182908060018154018082558091505060019003905f5260205f20015f9091909190915055505050505050505050565b5f80fd5b5f819050919050565b6102a781610295565b81146102b1575f80fd5b50565b5f813590506102c28161029e565b92915050565b5f80604083850312156102de576102dd610291565b5b5f6102eb858286016102b4565b92505060206102fc858286016102b4565b9150509250929050565b61030f81610295565b82525050565b5f60a0820190506103285f830188610306565b6103356020830187610306565b6103426040830186610306565b61034f6060830185610306565b61035c6080830184610306565b9695505050505050565b5f805f805f805f60e0888a03121561038157610380610291565b5b5f61038e8a828b016102b4565b975050602061039f8a828b016102b4565b96505060406103b08a828b016102b4565b95505060606103c18a828b016102b4565b94505060806103d28a828b016102b4565b93505060a06103e38a828b016102b4565b92505060c06103f48a828b016102b4565b91505092959891949750929550565b7f4e487b71000000000000000000000000000000000000000000000000000000005f52601160045260245ffd5b5f61043a82610295565b915061044583610295565b925082820261045381610295565b9150828204841483151761046a57610469610403565b5b5092915050565b5f61047b82610295565b915061048683610295565b925082820190508082111561049e5761049d610403565b5b92915050565b7f4e487b71000000000000000000000000000000000000000000000000000000005f52603260045260245ffd5b5f6040820190506104e45f830185610306565b6104f16020830184610306565b9392505050565b5f61050282610295565b91507fffffffffffffffffffffffffffffffffffffffffffffffffffffffffffffffff820361053457610533610403565b5b60018201905091905056fea26469706673582212206c41d9babdab3b48b29a0858b2729291d5dd41a00f7c3419839bd0919ae6a45d64736f6c63430008150033",
			"opcodes": "PUSH1 0x80 PUSH1 0x40 MSTORE CALLVALUE DUP1 ISZERO PUSH2 0xF JUMPI PUSH0 DUP1 REVERT JUMPDEST POP PUSH2 0x575 DUP1 PUSH2 0x1D PUSH0 CODECOPY PUSH0 RETURN INVALID PUSH1 0x80 PUSH1 0x40 MSTORE CALLVALUE DUP1 ISZERO PUSH2 0xF JUMPI PUSH0 DUP1 REVERT JUMPDEST POP PUSH1 0x4 CALLDATASIZE LT PUSH2 0x34 JUMPI PUSH0 CALLDATALOAD PUSH1 0xE0 SHR DUP1 PUSH4 0x27C51330 EQ PUSH2 0x38 JUMPI DUP1 PUSH4 0x7744261D EQ PUSH2 0x6C JUMPI JUMPDEST PUSH0 DUP1 REVERT JUMPDEST PUSH2 0x52 PUSH1 0x4 DUP1 CALLDATASIZE SUB DUP2 ADD SWAP1 PUSH2 0x4D SWAP2 SWAP1 PUSH2 0x2C8 JUMP JUMPDEST PUSH2 0x88 JUMP JUMPDEST PUSH1 0x40 MLOAD PUSH2 0x63 SWAP6 SWAP5 SWAP4 SWAP3 SWAP2 SWAP1 PUSH2 0x315 JUMP JUMPDEST PUSH1 0x40 MLOAD DUP1 SWAP2 SUB SWAP1 RETURN JUMPDEST PUSH2 0x86 PUSH1 0x4 DUP1 CALLDATASIZE SUB DUP2 ADD SWAP1 PUSH2 0x81 SWAP2 SWAP1 PUSH2 0x366 JUMP JUMPDEST PUSH2 0xEA JUMP JUMPDEST STOP JUMPDEST PUSH0 DUP1 PUSH0 DUP1 PUSH0 DUP1 DUP7 PUSH1 0xC DUP10 PUSH2 0x9C SWAP2 SWAP1 PUSH2 0x430 JUMP JUMPDEST PUSH2 0xA6 SWAP2 SWAP1 PUSH2 0x471 JUMP JUMPDEST SWAP1 POP PUSH0 DUP1 PUSH0 DUP4 DUP2 MSTORE PUSH1 0x20 ADD SWAP1 DUP2 MSTORE PUSH1 0x20 ADD PUSH0 KECCAK256 SWAP1 POP DUP1 PUSH1 0x8 ADD SLOAD DUP2 PUSH1 0x9 ADD SLOAD DUP3 PUSH1 0xA ADD SLOAD DUP4 PUSH1 0xB ADD SLOAD DUP5 PUSH1 0xC ADD SLOAD SWAP7 POP SWAP7 POP SWAP7 POP SWAP7 POP SWAP7 POP POP POP SWAP3 SWAP6 POP SWAP3 SWAP6 SWAP1 SWAP4 POP JUMP JUMPDEST PUSH0 DUP7 PUSH1 0xC DUP10 PUSH2 0xF9 SWAP2 SWAP1 PUSH2 0x430 JUMP JUMPDEST PUSH2 0x103 SWAP2 SWAP1 PUSH2 0x471 JUMP JUMPDEST SWAP1 POP PUSH0 DUP1 PUSH0 DUP4 DUP2 MSTORE PUSH1 0x20 ADD SWAP1 DUP2 MSTORE PUSH1 0x20 ADD PUSH0 KECCAK256 SWAP1 POP PUSH1 0x1 DUP2 PUSH1 0xD ADD PUSH0 PUSH2 0x100 EXP DUP2 SLOAD DUP2 PUSH1 0xFF MUL NOT AND SWAP1 DUP4 ISZERO ISZERO MUL OR SWAP1 SSTORE POP PUSH0 JUMPDEST PUSH1 0x1 DUP1 SLOAD SWAP1 POP DUP2 LT ISZERO PUSH2 0x221 JUMPI PUSH0 PUSH1 0x1 DUP3 DUP2 SLOAD DUP2 LT PUSH2 0x158 JUMPI PUSH2 0x157 PUSH2 0x4A4 JUMP JUMPDEST JUMPDEST SWAP1 PUSH0 MSTORE PUSH1 0x20 PUSH0 KECCAK256 ADD SLOAD SWAP1 POP PUSH1 0x1 ISZERO ISZERO PUSH0 DUP1 DUP4 DUP2 MSTORE PUSH1 0x20 ADD SWAP1 DUP2 MSTORE PUSH1 0x20 ADD PUSH0 KECCAK256 PUSH1 0xD ADD PUSH1 0x1 SWAP1 SLOAD SWAP1 PUSH2 0x100 EXP SWAP1 DIV PUSH1 0xFF AND ISZERO ISZERO EQ ISZERO DUP1 ISZERO PUSH2 0x197 JUMPI POP DUP1 DUP5 EQ JUMPDEST ISZERO PUSH2 0x20D JUMPI PUSH0 DUP4 PUSH1 0xD ADD PUSH0 PUSH2 0x100 EXP DUP2 SLOAD DUP2 PUSH1 0xFF MUL NOT AND SWAP1 DUP4 ISZERO ISZERO MUL OR SWAP1 SSTORE POP CALLER PUSH20 0xFFFFFFFFFFFFFFFFFFFFFFFFFFFFFFFFFFFFFFFF AND PUSH32 0x94E9CA73CB43E73A77E296510F72F0D08A0CA19574B50C1B728F524F8F1507E4 DUP13 DUP13 PUSH1 0x40 MLOAD PUSH2 0x1FF SWAP3 SWAP2 SWAP1 PUSH2 0x4D1 JUMP JUMPDEST PUSH1 0x40 MLOAD DUP1 SWAP2 SUB SWAP1 LOG2 POP PUSH2 0x221 JUMP JUMPDEST POP DUP1 DUP1 PUSH2 0x219 SWAP1 PUSH2 0x4F8 JUMP JUMPDEST SWAP2 POP POP PUSH2 0x136 JUMP JUMPDEST POP DUP9 DUP2 PUSH0 ADD DUP2 SWAP1 SSTORE POP DUP8 DUP2 PUSH1 0x1 ADD DUP2 SWAP1 SSTORE POP DUP7 DUP2 PUSH1 0x8 ADD DUP2 SWAP1 SSTORE POP DUP6 DUP2 PUSH1 0x9 ADD DUP2 SWAP1 SSTORE POP DUP5 DUP2 PUSH1 0xA ADD DUP2 SWAP1 SSTORE POP DUP4 DUP2 PUSH1 0xB ADD DUP2 SWAP1 SSTORE POP DUP3 DUP2 PUSH1 0xC ADD DUP2 SWAP1 SSTORE POP PUSH1 0x1 DUP3 SWAP1 DUP1 PUSH1 0x1 DUP2 SLOAD ADD DUP1 DUP3 SSTORE DUP1 SWAP2 POP POP PUSH1 0x1 SWAP1 SUB SWAP1 PUSH0 MSTORE PUSH1 0x20 PUSH0 KECCAK256 ADD PUSH0 SWAP1 SWAP2 SWAP1 SWAP2 SWAP1 SWAP2 POP SSTORE POP POP POP POP POP POP POP POP POP JUMP JUMPDEST PUSH0 DUP1 REVERT JUMPDEST PUSH0 DUP2 SWAP1 POP SWAP2 SWAP1 POP JUMP JUMPDEST PUSH2 0x2A7 DUP2 PUSH2 0x295 JUMP JUMPDEST DUP2 EQ PUSH2 0x2B1 JUMPI PUSH0 DUP1 REVERT JUMPDEST POP JUMP JUMPDEST PUSH0 DUP2 CALLDATALOAD SWAP1 POP PUSH2 0x2C2 DUP2 PUSH2 0x29E JUMP JUMPDEST SWAP3 SWAP2 POP POP JUMP JUMPDEST PUSH0 DUP1 PUSH1 0x40 DUP4 DUP6 SUB SLT ISZERO PUSH2 0x2DE JUMPI PUSH2 0x2DD PUSH2 0x291 JUMP JUMPDEST JUMPDEST PUSH0 PUSH2 0x2EB DUP6 DUP3 DUP7 ADD PUSH2 0x2B4 JUMP JUMPDEST SWAP3 POP POP PUSH1 0x20 PUSH2 0x2FC DUP6 DUP3 DUP7 ADD PUSH2 0x2B4 JUMP JUMPDEST SWAP2 POP POP SWAP3 POP SWAP3 SWAP1 POP JUMP JUMPDEST PUSH2 0x30F DUP2 PUSH2 0x295 JUMP JUMPDEST DUP3 MSTORE POP POP JUMP JUMPDEST PUSH0 PUSH1 0xA0 DUP3 ADD SWAP1 POP PUSH2 0x328 PUSH0 DUP4 ADD DUP9 PUSH2 0x306 JUMP JUMPDEST PUSH2 0x335 PUSH1 0x20 DUP4 ADD DUP8 PUSH2 0x306 JUMP JUMPDEST PUSH2 0x342 PUSH1 0x40 DUP4 ADD DUP7 PUSH2 0x306 JUMP JUMPDEST PUSH2 0x34F PUSH1 0x60 DUP4 ADD DUP6 PUSH2 0x306 JUMP JUMPDEST PUSH2 0x35C PUSH1 0x80 DUP4 ADD DUP5 PUSH2 0x306 JUMP JUMPDEST SWAP7 SWAP6 POP POP POP POP POP POP JUMP JUMPDEST PUSH0 DUP1 PUSH0 DUP1 PUSH0 DUP1 PUSH0 PUSH1 0xE0 DUP9 DUP11 SUB SLT ISZERO PUSH2 0x381 JUMPI PUSH2 0x380 PUSH2 0x291 JUMP JUMPDEST JUMPDEST PUSH0 PUSH2 0x38E DUP11 DUP3 DUP12 ADD PUSH2 0x2B4 JUMP JUMPDEST SWAP8 POP POP PUSH1 0x20 PUSH2 0x39F DUP11 DUP3 DUP12 ADD PUSH2 0x2B4 JUMP JUMPDEST SWAP7 POP POP PUSH1 0x40 PUSH2 0x3B0 DUP11 DUP3 DUP12 ADD PUSH2 0x2B4 JUMP JUMPDEST SWAP6 POP POP PUSH1 0x60 PUSH2 0x3C1 DUP11 DUP3 DUP12 ADD PUSH2 0x2B4 JUMP JUMPDEST SWAP5 POP POP PUSH1 0x80 PUSH2 0x3D2 DUP11 DUP3 DUP12 ADD PUSH2 0x2B4 JUMP JUMPDEST SWAP4 POP POP PUSH1 0xA0 PUSH2 0x3E3 DUP11 DUP3 DUP12 ADD PUSH2 0x2B4 JUMP JUMPDEST SWAP3 POP POP PUSH1 0xC0 PUSH2 0x3F4 DUP11 DUP3 DUP12 ADD PUSH2 0x2B4 JUMP JUMPDEST SWAP2 POP POP SWAP3 SWAP6 SWAP9 SWAP2 SWAP5 SWAP8 POP SWAP3 SWAP6 POP JUMP JUMPDEST PUSH32 0x4E487B7100000000000000000000000000000000000000000000000000000000 PUSH0 MSTORE PUSH1 0x11 PUSH1 0x4 MSTORE PUSH1 0x24 PUSH0 REVERT JUMPDEST PUSH0 PUSH2 0x43A DUP3 PUSH2 0x295 JUMP JUMPDEST SWAP2 POP PUSH2 0x445 DUP4 PUSH2 0x295 JUMP JUMPDEST SWAP3 POP DUP3 DUP3 MUL PUSH2 0x453 DUP2 PUSH2 0x295 JUMP JUMPDEST SWAP2 POP DUP3 DUP3 DIV DUP5 EQ DUP4 ISZERO OR PUSH2 0x46A JUMPI PUSH2 0x469 PUSH2 0x403 JUMP JUMPDEST JUMPDEST POP SWAP3 SWAP2 POP POP JUMP JUMPDEST PUSH0 PUSH2 0x47B DUP3 PUSH2 0x295 JUMP JUMPDEST SWAP2 POP PUSH2 0x486 DUP4 PUSH2 0x295 JUMP JUMPDEST SWAP3 POP DUP3 DUP3 ADD SWAP1 POP DUP1 DUP3 GT ISZERO PUSH2 0x49E JUMPI PUSH2 0x49D PUSH2 0x403 JUMP JUMPDEST JUMPDEST SWAP3 SWAP2 POP POP JUMP JUMPDEST PUSH32 0x4E487B7100000000000000000000000000000000000000000000000000000000 PUSH0 MSTORE PUSH1 0x32 PUSH1 0x4 MSTORE PUSH1 0x24 PUSH0 REVERT JUMPDEST PUSH0 PUSH1 0x40 DUP3 ADD SWAP1 POP PUSH2 0x4E4 PUSH0 DUP4 ADD DUP6 PUSH2 0x306 JUMP JUMPDEST PUSH2 0x4F1 PUSH1 0x20 DUP4 ADD DUP5 PUSH2 0x306 JUMP JUMPDEST SWAP4 SWAP3 POP POP POP JUMP JUMPDEST PUSH0 PUSH2 0x502 DUP3 PUSH2 0x295 JUMP JUMPDEST SWAP2 POP PUSH32 0xFFFFFFFFFFFFFFFFFFFFFFFFFFFFFFFFFFFFFFFFFFFFFFFFFFFFFFFFFFFFFFFF DUP3 SUB PUSH2 0x534 JUMPI PUSH2 0x533 PUSH2 0x403 JUMP JUMPDEST JUMPDEST PUSH1 0x1 DUP3 ADD SWAP1 POP SWAP2 SWAP1 POP JUMP INVALID LOG2 PUSH5 0x6970667358 0x22 SLT KECCAK256 PUSH13 0x41D9BABDAB3B48B29A0858B272 SWAP3 SWAP2 0xD5 0xDD COINBASE LOG0 0xF PUSH29 0x3419839BD0919AE6A45D64736F6C634300081500330000000000000000 "
		},
		"gasEstimates": {
			"creation": {
				"codeDepositCost": "279400",
				"executionCost": "316",
				"totalCost": "279716"
			},
			"external": {
				"themBaoCao(uint256,uint256,uint256,uint256,uint256,uint256,uint256)": "infinite",
				"xemBaoCao(uint256,uint256)": "infinite"
			}
		},
		"methodIdentifiers": {
			"themBaoCao(uint256,uint256,uint256,uint256,uint256,uint256,uint256)": "7744261d",
			"xemBaoCao(uint256,uint256)": "27c51330"
		}
	},
	"abi": [
		{
			"anonymous": false,
			"inputs": [
				{
					"indexed": true,
					"internalType": "address",
					"name": "_from",
					"type": "address"
				},
				{
					"indexed": false,
					"internalType": "uint256",
					"name": "year",
					"type": "uint256"
				},
				{
					"indexed": false,
					"internalType": "uint256",
					"name": "month",
					"type": "uint256"
				}
			],
			"name": "baoCaoDangNgo",
			"type": "event"
		},
		{
			"inputs": [
				{
					"internalType": "uint256",
					"name": "year",
					"type": "uint256"
				},
				{
					"internalType": "uint256",
					"name": "month",
					"type": "uint256"
				},
				{
					"internalType": "uint256",
					"name": "taiSan",
					"type": "uint256"
				},
				{
					"internalType": "uint256",
					"name": "noPhaiTra",
					"type": "uint256"
				},
				{
					"internalType": "uint256",
					"name": "vonChuSoHuu",
					"type": "uint256"
				},
				{
					"internalType": "uint256",
					"name": "doanhThu",
					"type": "uint256"
				},
				{
					"internalType": "uint256",
					"name": "chiPhi",
					"type": "uint256"
				}
			],
			"name": "themBaoCao",
			"outputs": [],
			"stateMutability": "nonpayable",
			"type": "function"
		},
		{
			"inputs": [
				{
					"internalType": "uint256",
					"name": "year",
					"type": "uint256"
				},
				{
					"internalType": "uint256",
					"name": "month",
					"type": "uint256"
				}
			],
			"name": "xemBaoCao",
			"outputs": [
				{
					"internalType": "uint256",
					"name": "",
					"type": "uint256"
				},
				{
					"internalType": "uint256",
					"name": "",
					"type": "uint256"
				},
				{
					"internalType": "uint256",
					"name": "",
					"type": "uint256"
				},
				{
					"internalType": "uint256",
					"name": "",
					"type": "uint256"
				},
				{
					"internalType": "uint256",
					"name": "",
					"type": "uint256"
				}
			],
			"stateMutability": "view",
			"type": "function"
		}
	]
}