{
	"data": {
		"bytecode": {
			"linkReferences": {},
			"object": "608060405234801562000010575f80fd5b506040516200130638038062001306833981810160405281019062000036919062000279565b835f908162000046919062000573565b50826001908162000058919062000573565b5081600290816200006a919062000573565b50806003819055503360045f6101000a81548173ffffffffffffffffffffffffffffffffffffffff021916908373ffffffffffffffffffffffffffffffffffffffff1602179055505050505062000657565b5f604051905090565b5f80fd5b5f80fd5b5f80fd5b5f80fd5b5f601f19601f8301169050919050565b7f4e487b71000000000000000000000000000000000000000000000000000000005f52604160045260245ffd5b6200011d82620000d5565b810181811067ffffffffffffffff821117156200013f576200013e620000e5565b5b80604052505050565b5f62000153620000bc565b905062000161828262000112565b919050565b5f67ffffffffffffffff821115620001835762000182620000e5565b5b6200018e82620000d5565b9050602081019050919050565b5f5b83811015620001ba5780820151818401526020810190506200019d565b5f8484015250505050565b5f620001db620001d58462000166565b62000148565b905082815260208101848484011115620001fa57620001f9620000d1565b5b620002078482856200019b565b509392505050565b5f82601f830112620002265762000225620000cd565b5b815162000238848260208601620001c5565b91505092915050565b5f819050919050565b620002558162000241565b811462000260575f80fd5b50565b5f8151905062000273816200024a565b92915050565b5f805f8060808587031215620002945762000293620000c5565b5b5f85015167ffffffffffffffff811115620002b457620002b3620000c9565b5b620002c2878288016200020f565b945050602085015167ffffffffffffffff811115620002e657620002e5620000c9565b5b620002f4878288016200020f565b935050604085015167ffffffffffffffff811115620003185762000317620000c9565b5b62000326878288016200020f565b9250506060620003398782880162000263565b91505092959194509250565b5f81519050919050565b7f4e487b71000000000000000000000000000000000000000000000000000000005f52602260045260245ffd5b5f60028204905060018216806200039457607f821691505b602082108103620003aa57620003a96200034f565b5b50919050565b5f819050815f5260205f209050919050565b5f6020601f8301049050919050565b5f82821b905092915050565b5f600883026200040e7fffffffffffffffffffffffffffffffffffffffffffffffffffffffffffffffff82620003d1565b6200041a8683620003d1565b95508019841693508086168417925050509392505050565b5f819050919050565b5f6200045b620004556200044f8462000241565b62000432565b62000241565b9050919050565b5f819050919050565b62000476836200043b565b6200048e620004858262000462565b848454620003dd565b825550505050565b5f90565b620004a462000496565b620004b18184846200046b565b505050565b5b81811015620004d857620004cc5f826200049a565b600181019050620004b7565b5050565b601f8211156200052757620004f181620003b0565b620004fc84620003c2565b810160208510156200050c578190505b620005246200051b85620003c2565b830182620004b6565b50505b505050565b5f82821c905092915050565b5f620005495f19846008026200052c565b1980831691505092915050565b5f62000563838362000538565b9150826002028217905092915050565b6200057e8262000345565b67ffffffffffffffff8111156200059a5762000599620000e5565b5b620005a682546200037c565b620005b3828285620004dc565b5f60209050601f831160018114620005e9575f8415620005d4578287015190505b620005e0858262000556565b8655506200064f565b601f198416620005f986620003b0565b5f5b828110156200062257848901518255600182019150602085019450602081019050620005fb565b868310156200064257848901516200063e601f89168262000538565b8355505b6001600288020188555050505b505050505050565b610ca180620006655f395ff3fe608060405234801561000f575f80fd5b5060043610610055575f3560e01c806317d7de7c14610059578063302cffb81461007757806339a6df3d14610093578063775a25e3146100c3578063ab9dbd07146100e1575b5f80fd5b6100616100ff565b60405161006e9190610853565b60405180910390f35b610091600480360381019061008c91906108aa565b61018e565b005b6100ad60048036038101906100a89190610921565b610447565b6040516100ba9190610980565b60405180910390f35b6100cb610640565b6040516100d89190610980565b60405180910390f35b6100e96106db565b6040516100f69190610853565b60405180910390f35b60605f805461010d906109c6565b80601f0160208091040260200160405190810160405280929190818152602001828054610139906109c6565b80156101845780601f1061015b57610100808354040283529160200191610184565b820191905f5260205f20905b81548152906001019060200180831161016757829003601f168201915b5050505050905090565b848484600181101580156101a3575060018210155b80156101b05750600c8211155b80156101bd575060018310155b6101fc576040517f08c379a00000000000000000000000000000000000000000000000000000000081526004016101f390610a40565b60405180910390fd5b6002820361026f575f61020e8261076b565b9050601d841115801561022a575080806102295750601c8411155b5b610269576040517f08c379a000000000000000000000000000000000000000000000000000000000815260040161026090610a40565b60405180910390fd5b50610328565b600482148061027e5750600682145b806102895750600982145b806102945750600b82145b156102e257601e8311156102dd576040517f08c379a00000000000000000000000000000000000000000000000000000000081526004016102d490610a40565b60405180910390fd5b610327565b601f831115610326576040517f08c379a000000000000000000000000000000000000000000000000000000000815260040161031d90610a40565b60405180910390fd5b5b5b60045f9054906101000a900473ffffffffffffffffffffffffffffffffffffffff1673ffffffffffffffffffffffffffffffffffffffff163373ffffffffffffffffffffffffffffffffffffffff16146103b7576040517f08c379a00000000000000000000000000000000000000000000000000000000081526004016103ae90610aa8565b60405180910390fd5b5f6040518060a001604052808a8152602001898152602001888152602001878152602001868152509050600581908060018154018082558091505060019003905f5260205f2090600502015f909190919091505f820151815f0155602082015181600101556040820151816002015560608201518160030155608082015181600401555050505050505050505050565b5f8383836001811015801561045d575060018210155b801561046a5750600c8211155b8015610477575060018310155b6104b6576040517f08c379a00000000000000000000000000000000000000000000000000000000081526004016104ad90610a40565b60405180910390fd5b60028203610529575f6104c88261076b565b9050601d84111580156104e4575080806104e35750601c8411155b5b610523576040517f08c379a000000000000000000000000000000000000000000000000000000000815260040161051a90610a40565b60405180910390fd5b506105e2565b60048214806105385750600682145b806105435750600982145b8061054e5750600b82145b1561059c57601e831115610597576040517f08c379a000000000000000000000000000000000000000000000000000000000815260040161058e90610a40565b60405180910390fd5b6105e1565b601f8311156105e0576040517f08c379a00000000000000000000000000000000000000000000000000000000081526004016105d790610a40565b60405180910390fd5b5b5b600587815481106105f6576105f5610ac6565b5b905f5260205f209060050201600301546005888154811061061a57610619610ac6565b5b905f5260205f209060050201600401546106349190610b20565b93505050509392505050565b5f805f90505f5b6005805490508110156106c6576005818154811061066857610667610ac6565b5b905f5260205f209060050201600301546005828154811061068c5761068b610ac6565b5b905f5260205f209060050201600401546106a69190610b20565b826106b19190610b53565b915080806106be90610b86565b915050610647565b50600354816106d59190610bcd565b91505090565b6060600280546106ea906109c6565b80601f0160208091040260200160405190810160405280929190818152602001828054610716906109c6565b80156107615780601f1061073857610100808354040283529160200191610761565b820191905f5260205f20905b81548152906001019060200180831161074457829003601f168201915b5050505050905090565b5f8060048361077a9190610c3b565b14610787575f90506107c4565b5f6064836107959190610c3b565b146107a357600190506107c4565b5f610190836107b29190610c3b565b146107bf575f90506107c4565b600190505b919050565b5f81519050919050565b5f82825260208201905092915050565b5f5b838110156108005780820151818401526020810190506107e5565b5f8484015250505050565b5f601f19601f8301169050919050565b5f610825826107c9565b61082f81856107d3565b935061083f8185602086016107e3565b6108488161080b565b840191505092915050565b5f6020820190508181035f83015261086b818461081b565b905092915050565b5f80fd5b5f819050919050565b61088981610877565b8114610893575f80fd5b50565b5f813590506108a481610880565b92915050565b5f805f805f60a086880312156108c3576108c2610873565b5b5f6108d088828901610896565b95505060206108e188828901610896565b94505060406108f288828901610896565b935050606061090388828901610896565b925050608061091488828901610896565b9150509295509295909350565b5f805f6060848603121561093857610937610873565b5b5f61094586828701610896565b935050602061095686828701610896565b925050604061096786828701610896565b9150509250925092565b61097a81610877565b82525050565b5f6020820190506109935f830184610971565b92915050565b7f4e487b71000000000000000000000000000000000000000000000000000000005f52602260045260245ffd5b5f60028204905060018216806109dd57607f821691505b6020821081036109f0576109ef610999565b5b50919050565b7f496e76616c6964206461746500000000000000000000000000000000000000005f82015250565b5f610a2a600c836107d3565b9150610a35826109f6565b602082019050919050565b5f6020820190508181035f830152610a5781610a1e565b9050919050565b7f4f6e6c79204469726563746f72000000000000000000000000000000000000005f82015250565b5f610a92600d836107d3565b9150610a9d82610a5e565b602082019050919050565b5f6020820190508181035f830152610abf81610a86565b9050919050565b7f4e487b71000000000000000000000000000000000000000000000000000000005f52603260045260245ffd5b7f4e487b71000000000000000000000000000000000000000000000000000000005f52601160045260245ffd5b5f610b2a82610877565b9150610b3583610877565b9250828203905081811115610b4d57610b4c610af3565b5b92915050565b5f610b5d82610877565b9150610b6883610877565b9250828201905080821115610b8057610b7f610af3565b5b92915050565b5f610b9082610877565b91507fffffffffffffffffffffffffffffffffffffffffffffffffffffffffffffffff8203610bc257610bc1610af3565b5b600182019050919050565b5f610bd782610877565b9150610be283610877565b9250828202610bf081610877565b91508282048414831517610c0757610c06610af3565b5b5092915050565b7f4e487b71000000000000000000000000000000000000000000000000000000005f52601260045260245ffd5b5f610c4582610877565b9150610c5083610877565b925082610c6057610c5f610c0e565b5b82820690509291505056fea26469706673582212209ca4ab190f8cc292c400e207b444b280f04c95a748108f7ed6b75a58a04cbda764736f6c63430008150033",
			"opcodes": "PUSH1 0x80 PUSH1 0x40 MSTORE CALLVALUE DUP1 ISZERO PUSH3 0x10 JUMPI PUSH0 DUP1 REVERT JUMPDEST POP PUSH1 0x40 MLOAD PUSH3 0x1306 CODESIZE SUB DUP1 PUSH3 0x1306 DUP4 CODECOPY DUP2 DUP2 ADD PUSH1 0x40 MSTORE DUP2 ADD SWAP1 PUSH3 0x36 SWAP2 SWAP1 PUSH3 0x279 JUMP JUMPDEST DUP4 PUSH0 SWAP1 DUP2 PUSH3 0x46 SWAP2 SWAP1 PUSH3 0x573 JUMP JUMPDEST POP DUP3 PUSH1 0x1 SWAP1 DUP2 PUSH3 0x58 SWAP2 SWAP1 PUSH3 0x573 JUMP JUMPDEST POP DUP2 PUSH1 0x2 SWAP1 DUP2 PUSH3 0x6A SWAP2 SWAP1 PUSH3 0x573 JUMP JUMPDEST POP DUP1 PUSH1 0x3 DUP2 SWAP1 SSTORE POP CALLER PUSH1 0x4 PUSH0 PUSH2 0x100 EXP DUP2 SLOAD DUP2 PUSH20 0xFFFFFFFFFFFFFFFFFFFFFFFFFFFFFFFFFFFFFFFF MUL NOT AND SWAP1 DUP4 PUSH20 0xFFFFFFFFFFFFFFFFFFFFFFFFFFFFFFFFFFFFFFFF AND MUL OR SWAP1 SSTORE POP POP POP POP POP PUSH3 0x657 JUMP JUMPDEST PUSH0 PUSH1 0x40 MLOAD SWAP1 POP SWAP1 JUMP JUMPDEST PUSH0 DUP1 REVERT JUMPDEST PUSH0 DUP1 REVERT JUMPDEST PUSH0 DUP1 REVERT JUMPDEST PUSH0 DUP1 REVERT JUMPDEST PUSH0 PUSH1 0x1F NOT PUSH1 0x1F DUP4 ADD AND SWAP1 POP SWAP2 SWAP1 POP JUMP JUMPDEST PUSH32 0x4E487B7100000000000000000000000000000000000000000000000000000000 PUSH0 MSTORE PUSH1 0x41 PUSH1 0x4 MSTORE PUSH1 0x24 PUSH0 REVERT JUMPDEST PUSH3 0x11D DUP3 PUSH3 0xD5 JUMP JUMPDEST DUP2 ADD DUP2 DUP2 LT PUSH8 0xFFFFFFFFFFFFFFFF DUP3 GT OR ISZERO PUSH3 0x13F JUMPI PUSH3 0x13E PUSH3 0xE5 JUMP JUMPDEST JUMPDEST DUP1 PUSH1 0x40 MSTORE POP POP POP JUMP JUMPDEST PUSH0 PUSH3 0x153 PUSH3 0xBC JUMP JUMPDEST SWAP1 POP PUSH3 0x161 DUP3 DUP3 PUSH3 0x112 JUMP JUMPDEST SWAP2 SWAP1 POP JUMP JUMPDEST PUSH0 PUSH8 0xFFFFFFFFFFFFFFFF DUP3 GT ISZERO PUSH3 0x183 JUMPI PUSH3 0x182 PUSH3 0xE5 JUMP JUMPDEST JUMPDEST PUSH3 0x18E DUP3 PUSH3 0xD5 JUMP JUMPDEST SWAP1 POP PUSH1 0x20 DUP2 ADD SWAP1 POP SWAP2 SWAP1 POP JUMP JUMPDEST PUSH0 JUMPDEST DUP4 DUP2 LT ISZERO PUSH3 0x1BA JUMPI DUP1 DUP3 ADD MLOAD DUP2 DUP5 ADD MSTORE PUSH1 0x20 DUP2 ADD SWAP1 POP PUSH3 0x19D JUMP JUMPDEST PUSH0 DUP5 DUP5 ADD MSTORE POP POP POP POP JUMP JUMPDEST PUSH0 PUSH3 0x1DB PUSH3 0x1D5 DUP5 PUSH3 0x166 JUMP JUMPDEST PUSH3 0x148 JUMP JUMPDEST SWAP1 POP DUP3 DUP2 MSTORE PUSH1 0x20 DUP2 ADD DUP5 DUP5 DUP5 ADD GT ISZERO PUSH3 0x1FA JUMPI PUSH3 0x1F9 PUSH3 0xD1 JUMP JUMPDEST JUMPDEST PUSH3 0x207 DUP5 DUP3 DUP6 PUSH3 0x19B JUMP JUMPDEST POP SWAP4 SWAP3 POP POP POP JUMP JUMPDEST PUSH0 DUP3 PUSH1 0x1F DUP4 ADD SLT PUSH3 0x226 JUMPI PUSH3 0x225 PUSH3 0xCD JUMP JUMPDEST JUMPDEST DUP2 MLOAD PUSH3 0x238 DUP5 DUP3 PUSH1 0x20 DUP7 ADD PUSH3 0x1C5 JUMP JUMPDEST SWAP2 POP POP SWAP3 SWAP2 POP POP JUMP JUMPDEST PUSH0 DUP2 SWAP1 POP SWAP2 SWAP1 POP JUMP JUMPDEST PUSH3 0x255 DUP2 PUSH3 0x241 JUMP JUMPDEST DUP2 EQ PUSH3 0x260 JUMPI PUSH0 DUP1 REVERT JUMPDEST POP JUMP JUMPDEST PUSH0 DUP2 MLOAD SWAP1 POP PUSH3 0x273 DUP2 PUSH3 0x24A JUMP JUMPDEST SWAP3 SWAP2 POP POP JUMP JUMPDEST PUSH0 DUP1 PUSH0 DUP1 PUSH1 0x80 DUP6 DUP8 SUB SLT ISZERO PUSH3 0x294 JUMPI PUSH3 0x293 PUSH3 0xC5 JUMP JUMPDEST JUMPDEST PUSH0 DUP6 ADD MLOAD PUSH8 0xFFFFFFFFFFFFFFFF DUP2 GT ISZERO PUSH3 0x2B4 JUMPI PUSH3 0x2B3 PUSH3 0xC9 JUMP JUMPDEST JUMPDEST PUSH3 0x2C2 DUP8 DUP3 DUP9 ADD PUSH3 0x20F JUMP JUMPDEST SWAP5 POP POP PUSH1 0x20 DUP6 ADD MLOAD PUSH8 0xFFFFFFFFFFFFFFFF DUP2 GT ISZERO PUSH3 0x2E6 JUMPI PUSH3 0x2E5 PUSH3 0xC9 JUMP JUMPDEST JUMPDEST PUSH3 0x2F4 DUP8 DUP3 DUP9 ADD PUSH3 0x20F JUMP JUMPDEST SWAP4 POP POP PUSH1 0x40 DUP6 ADD MLOAD PUSH8 0xFFFFFFFFFFFFFFFF DUP2 GT ISZERO PUSH3 0x318 JUMPI PUSH3 0x317 PUSH3 0xC9 JUMP JUMPDEST JUMPDEST PUSH3 0x326 DUP8 DUP3 DUP9 ADD PUSH3 0x20F JUMP JUMPDEST SWAP3 POP POP PUSH1 0x60 PUSH3 0x339 DUP8 DUP3 DUP9 ADD PUSH3 0x263 JUMP JUMPDEST SWAP2 POP POP SWAP3 SWAP6 SWAP2 SWAP5 POP SWAP3 POP JUMP JUMPDEST PUSH0 DUP2 MLOAD SWAP1 POP SWAP2 SWAP1 POP JUMP JUMPDEST PUSH32 0x4E487B7100000000000000000000000000000000000000000000000000000000 PUSH0 MSTORE PUSH1 0x22 PUSH1 0x4 MSTORE PUSH1 0x24 PUSH0 REVERT JUMPDEST PUSH0 PUSH1 0x2 DUP3 DIV SWAP1 POP PUSH1 0x1 DUP3 AND DUP1 PUSH3 0x394 JUMPI PUSH1 0x7F DUP3 AND SWAP2 POP JUMPDEST PUSH1 0x20 DUP3 LT DUP2 SUB PUSH3 0x3AA JUMPI PUSH3 0x3A9 PUSH3 0x34F JUMP JUMPDEST JUMPDEST POP SWAP2 SWAP1 POP JUMP JUMPDEST PUSH0 DUP2 SWAP1 POP DUP2 PUSH0 MSTORE PUSH1 0x20 PUSH0 KECCAK256 SWAP1 POP SWAP2 SWAP1 POP JUMP JUMPDEST PUSH0 PUSH1 0x20 PUSH1 0x1F DUP4 ADD DIV SWAP1 POP SWAP2 SWAP1 POP JUMP JUMPDEST PUSH0 DUP3 DUP3 SHL SWAP1 POP SWAP3 SWAP2 POP POP JUMP JUMPDEST PUSH0 PUSH1 0x8 DUP4 MUL PUSH3 0x40E PUSH32 0xFFFFFFFFFFFFFFFFFFFFFFFFFFFFFFFFFFFFFFFFFFFFFFFFFFFFFFFFFFFFFFFF DUP3 PUSH3 0x3D1 JUMP JUMPDEST PUSH3 0x41A DUP7 DUP4 PUSH3 0x3D1 JUMP JUMPDEST SWAP6 POP DUP1 NOT DUP5 AND SWAP4 POP DUP1 DUP7 AND DUP5 OR SWAP3 POP POP POP SWAP4 SWAP3 POP POP POP JUMP JUMPDEST PUSH0 DUP2 SWAP1 POP SWAP2 SWAP1 POP JUMP JUMPDEST PUSH0 PUSH3 0x45B PUSH3 0x455 PUSH3 0x44F DUP5 PUSH3 0x241 JUMP JUMPDEST PUSH3 0x432 JUMP JUMPDEST PUSH3 0x241 JUMP JUMPDEST SWAP1 POP SWAP2 SWAP1 POP JUMP JUMPDEST PUSH0 DUP2 SWAP1 POP SWAP2 SWAP1 POP JUMP JUMPDEST PUSH3 0x476 DUP4 PUSH3 0x43B JUMP JUMPDEST PUSH3 0x48E PUSH3 0x485 DUP3 PUSH3 0x462 JUMP JUMPDEST DUP5 DUP5 SLOAD PUSH3 0x3DD JUMP JUMPDEST DUP3 SSTORE POP POP POP POP JUMP JUMPDEST PUSH0 SWAP1 JUMP JUMPDEST PUSH3 0x4A4 PUSH3 0x496 JUMP JUMPDEST PUSH3 0x4B1 DUP2 DUP5 DUP5 PUSH3 0x46B JUMP JUMPDEST POP POP POP JUMP JUMPDEST JUMPDEST DUP2 DUP2 LT ISZERO PUSH3 0x4D8 JUMPI PUSH3 0x4CC PUSH0 DUP3 PUSH3 0x49A JUMP JUMPDEST PUSH1 0x1 DUP2 ADD SWAP1 POP PUSH3 0x4B7 JUMP JUMPDEST POP POP JUMP JUMPDEST PUSH1 0x1F DUP3 GT ISZERO PUSH3 0x527 JUMPI PUSH3 0x4F1 DUP2 PUSH3 0x3B0 JUMP JUMPDEST PUSH3 0x4FC DUP5 PUSH3 0x3C2 JUMP JUMPDEST DUP2 ADD PUSH1 0x20 DUP6 LT ISZERO PUSH3 0x50C JUMPI DUP2 SWAP1 POP JUMPDEST PUSH3 0x524 PUSH3 0x51B DUP6 PUSH3 0x3C2 JUMP JUMPDEST DUP4 ADD DUP3 PUSH3 0x4B6 JUMP JUMPDEST POP POP JUMPDEST POP POP POP JUMP JUMPDEST PUSH0 DUP3 DUP3 SHR SWAP1 POP SWAP3 SWAP2 POP POP JUMP JUMPDEST PUSH0 PUSH3 0x549 PUSH0 NOT DUP5 PUSH1 0x8 MUL PUSH3 0x52C JUMP JUMPDEST NOT DUP1 DUP4 AND SWAP2 POP POP SWAP3 SWAP2 POP POP JUMP JUMPDEST PUSH0 PUSH3 0x563 DUP4 DUP4 PUSH3 0x538 JUMP JUMPDEST SWAP2 POP DUP3 PUSH1 0x2 MUL DUP3 OR SWAP1 POP SWAP3 SWAP2 POP POP JUMP JUMPDEST PUSH3 0x57E DUP3 PUSH3 0x345 JUMP JUMPDEST PUSH8 0xFFFFFFFFFFFFFFFF DUP2 GT ISZERO PUSH3 0x59A JUMPI PUSH3 0x599 PUSH3 0xE5 JUMP JUMPDEST JUMPDEST PUSH3 0x5A6 DUP3 SLOAD PUSH3 0x37C JUMP JUMPDEST PUSH3 0x5B3 DUP3 DUP3 DUP6 PUSH3 0x4DC JUMP JUMPDEST PUSH0 PUSH1 0x20 SWAP1 POP PUSH1 0x1F DUP4 GT PUSH1 0x1 DUP2 EQ PUSH3 0x5E9 JUMPI PUSH0 DUP5 ISZERO PUSH3 0x5D4 JUMPI DUP3 DUP8 ADD MLOAD SWAP1 POP JUMPDEST PUSH3 0x5E0 DUP6 DUP3 PUSH3 0x556 JUMP JUMPDEST DUP7 SSTORE POP PUSH3 0x64F JUMP JUMPDEST PUSH1 0x1F NOT DUP5 AND PUSH3 0x5F9 DUP7 PUSH3 0x3B0 JUMP JUMPDEST PUSH0 JUMPDEST DUP3 DUP2 LT ISZERO PUSH3 0x622 JUMPI DUP5 DUP10 ADD MLOAD DUP3 SSTORE PUSH1 0x1 DUP3 ADD SWAP2 POP PUSH1 0x20 DUP6 ADD SWAP5 POP PUSH1 0x20 DUP2 ADD SWAP1 POP PUSH3 0x5FB JUMP JUMPDEST DUP7 DUP4 LT ISZERO PUSH3 0x642 JUMPI DUP5 DUP10 ADD MLOAD PUSH3 0x63E PUSH1 0x1F DUP10 AND DUP3 PUSH3 0x538 JUMP JUMPDEST DUP4 SSTORE POP JUMPDEST PUSH1 0x1 PUSH1 0x2 DUP9 MUL ADD DUP9 SSTORE POP POP POP JUMPDEST POP POP POP POP POP POP JUMP JUMPDEST PUSH2 0xCA1 DUP1 PUSH3 0x665 PUSH0 CODECOPY PUSH0 RETURN INVALID PUSH1 0x80 PUSH1 0x40 MSTORE CALLVALUE DUP1 ISZERO PUSH2 0xF JUMPI PUSH0 DUP1 REVERT JUMPDEST POP PUSH1 0x4 CALLDATASIZE LT PUSH2 0x55 JUMPI PUSH0 CALLDATALOAD PUSH1 0xE0 SHR DUP1 PUSH4 0x17D7DE7C EQ PUSH2 0x59 JUMPI DUP1 PUSH4 0x302CFFB8 EQ PUSH2 0x77 JUMPI DUP1 PUSH4 0x39A6DF3D EQ PUSH2 0x93 JUMPI DUP1 PUSH4 0x775A25E3 EQ PUSH2 0xC3 JUMPI DUP1 PUSH4 0xAB9DBD07 EQ PUSH2 0xE1 JUMPI JUMPDEST PUSH0 DUP1 REVERT JUMPDEST PUSH2 0x61 PUSH2 0xFF JUMP JUMPDEST PUSH1 0x40 MLOAD PUSH2 0x6E SWAP2 SWAP1 PUSH2 0x853 JUMP JUMPDEST PUSH1 0x40 MLOAD DUP1 SWAP2 SUB SWAP1 RETURN JUMPDEST PUSH2 0x91 PUSH1 0x4 DUP1 CALLDATASIZE SUB DUP2 ADD SWAP1 PUSH2 0x8C SWAP2 SWAP1 PUSH2 0x8AA JUMP JUMPDEST PUSH2 0x18E JUMP JUMPDEST STOP JUMPDEST PUSH2 0xAD PUSH1 0x4 DUP1 CALLDATASIZE SUB DUP2 ADD SWAP1 PUSH2 0xA8 SWAP2 SWAP1 PUSH2 0x921 JUMP JUMPDEST PUSH2 0x447 JUMP JUMPDEST PUSH1 0x40 MLOAD PUSH2 0xBA SWAP2 SWAP1 PUSH2 0x980 JUMP JUMPDEST PUSH1 0x40 MLOAD DUP1 SWAP2 SUB SWAP1 RETURN JUMPDEST PUSH2 0xCB PUSH2 0x640 JUMP JUMPDEST PUSH1 0x40 MLOAD PUSH2 0xD8 SWAP2 SWAP1 PUSH2 0x980 JUMP JUMPDEST PUSH1 0x40 MLOAD DUP1 SWAP2 SUB SWAP1 RETURN JUMPDEST PUSH2 0xE9 PUSH2 0x6DB JUMP JUMPDEST PUSH1 0x40 MLOAD PUSH2 0xF6 SWAP2 SWAP1 PUSH2 0x853 JUMP JUMPDEST PUSH1 0x40 MLOAD DUP1 SWAP2 SUB SWAP1 RETURN JUMPDEST PUSH1 0x60 PUSH0 DUP1 SLOAD PUSH2 0x10D SWAP1 PUSH2 0x9C6 JUMP JUMPDEST DUP1 PUSH1 0x1F ADD PUSH1 0x20 DUP1 SWAP2 DIV MUL PUSH1 0x20 ADD PUSH1 0x40 MLOAD SWAP1 DUP2 ADD PUSH1 0x40 MSTORE DUP1 SWAP3 SWAP2 SWAP1 DUP2 DUP2 MSTORE PUSH1 0x20 ADD DUP3 DUP1 SLOAD PUSH2 0x139 SWAP1 PUSH2 0x9C6 JUMP JUMPDEST DUP1 ISZERO PUSH2 0x184 JUMPI DUP1 PUSH1 0x1F LT PUSH2 0x15B JUMPI PUSH2 0x100 DUP1 DUP4 SLOAD DIV MUL DUP4 MSTORE SWAP2 PUSH1 0x20 ADD SWAP2 PUSH2 0x184 JUMP JUMPDEST DUP3 ADD SWAP2 SWAP1 PUSH0 MSTORE PUSH1 0x20 PUSH0 KECCAK256 SWAP1 JUMPDEST DUP2 SLOAD DUP2 MSTORE SWAP1 PUSH1 0x1 ADD SWAP1 PUSH1 0x20 ADD DUP1 DUP4 GT PUSH2 0x167 JUMPI DUP3 SWAP1 SUB PUSH1 0x1F AND DUP3 ADD SWAP2 JUMPDEST POP POP POP POP POP SWAP1 POP SWAP1 JUMP JUMPDEST DUP5 DUP5 DUP5 PUSH1 0x1 DUP2 LT ISZERO DUP1 ISZERO PUSH2 0x1A3 JUMPI POP PUSH1 0x1 DUP3 LT ISZERO JUMPDEST DUP1 ISZERO PUSH2 0x1B0 JUMPI POP PUSH1 0xC DUP3 GT ISZERO JUMPDEST DUP1 ISZERO PUSH2 0x1BD JUMPI POP PUSH1 0x1 DUP4 LT ISZERO JUMPDEST PUSH2 0x1FC JUMPI PUSH1 0x40 MLOAD PUSH32 0x8C379A000000000000000000000000000000000000000000000000000000000 DUP2 MSTORE PUSH1 0x4 ADD PUSH2 0x1F3 SWAP1 PUSH2 0xA40 JUMP JUMPDEST PUSH1 0x40 MLOAD DUP1 SWAP2 SUB SWAP1 REVERT JUMPDEST PUSH1 0x2 DUP3 SUB PUSH2 0x26F JUMPI PUSH0 PUSH2 0x20E DUP3 PUSH2 0x76B JUMP JUMPDEST SWAP1 POP PUSH1 0x1D DUP5 GT ISZERO DUP1 ISZERO PUSH2 0x22A JUMPI POP DUP1 DUP1 PUSH2 0x229 JUMPI POP PUSH1 0x1C DUP5 GT ISZERO JUMPDEST JUMPDEST PUSH2 0x269 JUMPI PUSH1 0x40 MLOAD PUSH32 0x8C379A000000000000000000000000000000000000000000000000000000000 DUP2 MSTORE PUSH1 0x4 ADD PUSH2 0x260 SWAP1 PUSH2 0xA40 JUMP JUMPDEST PUSH1 0x40 MLOAD DUP1 SWAP2 SUB SWAP1 REVERT JUMPDEST POP PUSH2 0x328 JUMP JUMPDEST PUSH1 0x4 DUP3 EQ DUP1 PUSH2 0x27E JUMPI POP PUSH1 0x6 DUP3 EQ JUMPDEST DUP1 PUSH2 0x289 JUMPI POP PUSH1 0x9 DUP3 EQ JUMPDEST DUP1 PUSH2 0x294 JUMPI POP PUSH1 0xB DUP3 EQ JUMPDEST ISZERO PUSH2 0x2E2 JUMPI PUSH1 0x1E DUP4 GT ISZERO PUSH2 0x2DD JUMPI PUSH1 0x40 MLOAD PUSH32 0x8C379A000000000000000000000000000000000000000000000000000000000 DUP2 MSTORE PUSH1 0x4 ADD PUSH2 0x2D4 SWAP1 PUSH2 0xA40 JUMP JUMPDEST PUSH1 0x40 MLOAD DUP1 SWAP2 SUB SWAP1 REVERT JUMPDEST PUSH2 0x327 JUMP JUMPDEST PUSH1 0x1F DUP4 GT ISZERO PUSH2 0x326 JUMPI PUSH1 0x40 MLOAD PUSH32 0x8C379A000000000000000000000000000000000000000000000000000000000 DUP2 MSTORE PUSH1 0x4 ADD PUSH2 0x31D SWAP1 PUSH2 0xA40 JUMP JUMPDEST PUSH1 0x40 MLOAD DUP1 SWAP2 SUB SWAP1 REVERT JUMPDEST JUMPDEST JUMPDEST PUSH1 0x4 PUSH0 SWAP1 SLOAD SWAP1 PUSH2 0x100 EXP SWAP1 DIV PUSH20 0xFFFFFFFFFFFFFFFFFFFFFFFFFFFFFFFFFFFFFFFF AND PUSH20 0xFFFFFFFFFFFFFFFFFFFFFFFFFFFFFFFFFFFFFFFF AND CALLER PUSH20 0xFFFFFFFFFFFFFFFFFFFFFFFFFFFFFFFFFFFFFFFF AND EQ PUSH2 0x3B7 JUMPI PUSH1 0x40 MLOAD PUSH32 0x8C379A000000000000000000000000000000000000000000000000000000000 DUP2 MSTORE PUSH1 0x4 ADD PUSH2 0x3AE SWAP1 PUSH2 0xAA8 JUMP JUMPDEST PUSH1 0x40 MLOAD DUP1 SWAP2 SUB SWAP1 REVERT JUMPDEST PUSH0 PUSH1 0x40 MLOAD DUP1 PUSH1 0xA0 ADD PUSH1 0x40 MSTORE DUP1 DUP11 DUP2 MSTORE PUSH1 0x20 ADD DUP10 DUP2 MSTORE PUSH1 0x20 ADD DUP9 DUP2 MSTORE PUSH1 0x20 ADD DUP8 DUP2 MSTORE PUSH1 0x20 ADD DUP7 DUP2 MSTORE POP SWAP1 POP PUSH1 0x5 DUP2 SWAP1 DUP1 PUSH1 0x1 DUP2 SLOAD ADD DUP1 DUP3 SSTORE DUP1 SWAP2 POP POP PUSH1 0x1 SWAP1 SUB SWAP1 PUSH0 MSTORE PUSH1 0x20 PUSH0 KECCAK256 SWAP1 PUSH1 0x5 MUL ADD PUSH0 SWAP1 SWAP2 SWAP1 SWAP2 SWAP1 SWAP2 POP PUSH0 DUP3 ADD MLOAD DUP2 PUSH0 ADD SSTORE PUSH1 0x20 DUP3 ADD MLOAD DUP2 PUSH1 0x1 ADD SSTORE PUSH1 0x40 DUP3 ADD MLOAD DUP2 PUSH1 0x2 ADD SSTORE PUSH1 0x60 DUP3 ADD MLOAD DUP2 PUSH1 0x3 ADD SSTORE PUSH1 0x80 DUP3 ADD MLOAD DUP2 PUSH1 0x4 ADD SSTORE POP POP POP POP POP POP POP POP POP POP POP JUMP JUMPDEST PUSH0 DUP4 DUP4 DUP4 PUSH1 0x1 DUP2 LT ISZERO DUP1 ISZERO PUSH2 0x45D JUMPI POP PUSH1 0x1 DUP3 LT ISZERO JUMPDEST DUP1 ISZERO PUSH2 0x46A JUMPI POP PUSH1 0xC DUP3 GT ISZERO JUMPDEST DUP1 ISZERO PUSH2 0x477 JUMPI POP PUSH1 0x1 DUP4 LT ISZERO JUMPDEST PUSH2 0x4B6 JUMPI PUSH1 0x40 MLOAD PUSH32 0x8C379A000000000000000000000000000000000000000000000000000000000 DUP2 MSTORE PUSH1 0x4 ADD PUSH2 0x4AD SWAP1 PUSH2 0xA40 JUMP JUMPDEST PUSH1 0x40 MLOAD DUP1 SWAP2 SUB SWAP1 REVERT JUMPDEST PUSH1 0x2 DUP3 SUB PUSH2 0x529 JUMPI PUSH0 PUSH2 0x4C8 DUP3 PUSH2 0x76B JUMP JUMPDEST SWAP1 POP PUSH1 0x1D DUP5 GT ISZERO DUP1 ISZERO PUSH2 0x4E4 JUMPI POP DUP1 DUP1 PUSH2 0x4E3 JUMPI POP PUSH1 0x1C DUP5 GT ISZERO JUMPDEST JUMPDEST PUSH2 0x523 JUMPI PUSH1 0x40 MLOAD PUSH32 0x8C379A000000000000000000000000000000000000000000000000000000000 DUP2 MSTORE PUSH1 0x4 ADD PUSH2 0x51A SWAP1 PUSH2 0xA40 JUMP JUMPDEST PUSH1 0x40 MLOAD DUP1 SWAP2 SUB SWAP1 REVERT JUMPDEST POP PUSH2 0x5E2 JUMP JUMPDEST PUSH1 0x4 DUP3 EQ DUP1 PUSH2 0x538 JUMPI POP PUSH1 0x6 DUP3 EQ JUMPDEST DUP1 PUSH2 0x543 JUMPI POP PUSH1 0x9 DUP3 EQ JUMPDEST DUP1 PUSH2 0x54E JUMPI POP PUSH1 0xB DUP3 EQ JUMPDEST ISZERO PUSH2 0x59C JUMPI PUSH1 0x1E DUP4 GT ISZERO PUSH2 0x597 JUMPI PUSH1 0x40 MLOAD PUSH32 0x8C379A000000000000000000000000000000000000000000000000000000000 DUP2 MSTORE PUSH1 0x4 ADD PUSH2 0x58E SWAP1 PUSH2 0xA40 JUMP JUMPDEST PUSH1 0x40 MLOAD DUP1 SWAP2 SUB SWAP1 REVERT JUMPDEST PUSH2 0x5E1 JUMP JUMPDEST PUSH1 0x1F DUP4 GT ISZERO PUSH2 0x5E0 JUMPI PUSH1 0x40 MLOAD PUSH32 0x8C379A000000000000000000000000000000000000000000000000000000000 DUP2 MSTORE PUSH1 0x4 ADD PUSH2 0x5D7 SWAP1 PUSH2 0xA40 JUMP JUMPDEST PUSH1 0x40 MLOAD DUP1 SWAP2 SUB SWAP1 REVERT JUMPDEST JUMPDEST JUMPDEST PUSH1 0x5 DUP8 DUP2 SLOAD DUP2 LT PUSH2 0x5F6 JUMPI PUSH2 0x5F5 PUSH2 0xAC6 JUMP JUMPDEST JUMPDEST SWAP1 PUSH0 MSTORE PUSH1 0x20 PUSH0 KECCAK256 SWAP1 PUSH1 0x5 MUL ADD PUSH1 0x3 ADD SLOAD PUSH1 0x5 DUP9 DUP2 SLOAD DUP2 LT PUSH2 0x61A JUMPI PUSH2 0x619 PUSH2 0xAC6 JUMP JUMPDEST JUMPDEST SWAP1 PUSH0 MSTORE PUSH1 0x20 PUSH0 KECCAK256 SWAP1 PUSH1 0x5 MUL ADD PUSH1 0x4 ADD SLOAD PUSH2 0x634 SWAP2 SWAP1 PUSH2 0xB20 JUMP JUMPDEST SWAP4 POP POP POP POP SWAP4 SWAP3 POP POP POP JUMP JUMPDEST PUSH0 DUP1 PUSH0 SWAP1 POP PUSH0 JUMPDEST PUSH1 0x5 DUP1 SLOAD SWAP1 POP DUP2 LT ISZERO PUSH2 0x6C6 JUMPI PUSH1 0x5 DUP2 DUP2 SLOAD DUP2 LT PUSH2 0x668 JUMPI PUSH2 0x667 PUSH2 0xAC6 JUMP JUMPDEST JUMPDEST SWAP1 PUSH0 MSTORE PUSH1 0x20 PUSH0 KECCAK256 SWAP1 PUSH1 0x5 MUL ADD PUSH1 0x3 ADD SLOAD PUSH1 0x5 DUP3 DUP2 SLOAD DUP2 LT PUSH2 0x68C JUMPI PUSH2 0x68B PUSH2 0xAC6 JUMP JUMPDEST JUMPDEST SWAP1 PUSH0 MSTORE PUSH1 0x20 PUSH0 KECCAK256 SWAP1 PUSH1 0x5 MUL ADD PUSH1 0x4 ADD SLOAD PUSH2 0x6A6 SWAP2 SWAP1 PUSH2 0xB20 JUMP JUMPDEST DUP3 PUSH2 0x6B1 SWAP2 SWAP1 PUSH2 0xB53 JUMP JUMPDEST SWAP2 POP DUP1 DUP1 PUSH2 0x6BE SWAP1 PUSH2 0xB86 JUMP JUMPDEST SWAP2 POP POP PUSH2 0x647 JUMP JUMPDEST POP PUSH1 0x3 SLOAD DUP2 PUSH2 0x6D5 SWAP2 SWAP1 PUSH2 0xBCD JUMP JUMPDEST SWAP2 POP POP SWAP1 JUMP JUMPDEST PUSH1 0x60 PUSH1 0x2 DUP1 SLOAD PUSH2 0x6EA SWAP1 PUSH2 0x9C6 JUMP JUMPDEST DUP1 PUSH1 0x1F ADD PUSH1 0x20 DUP1 SWAP2 DIV MUL PUSH1 0x20 ADD PUSH1 0x40 MLOAD SWAP1 DUP2 ADD PUSH1 0x40 MSTORE DUP1 SWAP3 SWAP2 SWAP1 DUP2 DUP2 MSTORE PUSH1 0x20 ADD DUP3 DUP1 SLOAD PUSH2 0x716 SWAP1 PUSH2 0x9C6 JUMP JUMPDEST DUP1 ISZERO PUSH2 0x761 JUMPI DUP1 PUSH1 0x1F LT PUSH2 0x738 JUMPI PUSH2 0x100 DUP1 DUP4 SLOAD DIV MUL DUP4 MSTORE SWAP2 PUSH1 0x20 ADD SWAP2 PUSH2 0x761 JUMP JUMPDEST DUP3 ADD SWAP2 SWAP1 PUSH0 MSTORE PUSH1 0x20 PUSH0 KECCAK256 SWAP1 JUMPDEST DUP2 SLOAD DUP2 MSTORE SWAP1 PUSH1 0x1 ADD SWAP1 PUSH1 0x20 ADD DUP1 DUP4 GT PUSH2 0x744 JUMPI DUP3 SWAP1 SUB PUSH1 0x1F AND DUP3 ADD SWAP2 JUMPDEST POP POP POP POP POP SWAP1 POP SWAP1 JUMP JUMPDEST PUSH0 DUP1 PUSH1 0x4 DUP4 PUSH2 0x77A SWAP2 SWAP1 PUSH2 0xC3B JUMP JUMPDEST EQ PUSH2 0x787 JUMPI PUSH0 SWAP1 POP PUSH2 0x7C4 JUMP JUMPDEST PUSH0 PUSH1 0x64 DUP4 PUSH2 0x795 SWAP2 SWAP1 PUSH2 0xC3B JUMP JUMPDEST EQ PUSH2 0x7A3 JUMPI PUSH1 0x1 SWAP1 POP PUSH2 0x7C4 JUMP JUMPDEST PUSH0 PUSH2 0x190 DUP4 PUSH2 0x7B2 SWAP2 SWAP1 PUSH2 0xC3B JUMP JUMPDEST EQ PUSH2 0x7BF JUMPI PUSH0 SWAP1 POP PUSH2 0x7C4 JUMP JUMPDEST PUSH1 0x1 SWAP1 POP JUMPDEST SWAP2 SWAP1 POP JUMP JUMPDEST PUSH0 DUP2 MLOAD SWAP1 POP SWAP2 SWAP1 POP JUMP JUMPDEST PUSH0 DUP3 DUP3 MSTORE PUSH1 0x20 DUP3 ADD SWAP1 POP SWAP3 SWAP2 POP POP JUMP JUMPDEST PUSH0 JUMPDEST DUP4 DUP2 LT ISZERO PUSH2 0x800 JUMPI DUP1 DUP3 ADD MLOAD DUP2 DUP5 ADD MSTORE PUSH1 0x20 DUP2 ADD SWAP1 POP PUSH2 0x7E5 JUMP JUMPDEST PUSH0 DUP5 DUP5 ADD MSTORE POP POP POP POP JUMP JUMPDEST PUSH0 PUSH1 0x1F NOT PUSH1 0x1F DUP4 ADD AND SWAP1 POP SWAP2 SWAP1 POP JUMP JUMPDEST PUSH0 PUSH2 0x825 DUP3 PUSH2 0x7C9 JUMP JUMPDEST PUSH2 0x82F DUP2 DUP6 PUSH2 0x7D3 JUMP JUMPDEST SWAP4 POP PUSH2 0x83F DUP2 DUP6 PUSH1 0x20 DUP7 ADD PUSH2 0x7E3 JUMP JUMPDEST PUSH2 0x848 DUP2 PUSH2 0x80B JUMP JUMPDEST DUP5 ADD SWAP2 POP POP SWAP3 SWAP2 POP POP JUMP JUMPDEST PUSH0 PUSH1 0x20 DUP3 ADD SWAP1 POP DUP2 DUP2 SUB PUSH0 DUP4 ADD MSTORE PUSH2 0x86B DUP2 DUP5 PUSH2 0x81B JUMP JUMPDEST SWAP1 POP SWAP3 SWAP2 POP POP JUMP JUMPDEST PUSH0 DUP1 REVERT JUMPDEST PUSH0 DUP2 SWAP1 POP SWAP2 SWAP1 POP JUMP JUMPDEST PUSH2 0x889 DUP2 PUSH2 0x877 JUMP JUMPDEST DUP2 EQ PUSH2 0x893 JUMPI PUSH0 DUP1 REVERT JUMPDEST POP JUMP JUMPDEST PUSH0 DUP2 CALLDATALOAD SWAP1 POP PUSH2 0x8A4 DUP2 PUSH2 0x880 JUMP JUMPDEST SWAP3 SWAP2 POP POP JUMP JUMPDEST PUSH0 DUP1 PUSH0 DUP1 PUSH0 PUSH1 0xA0 DUP7 DUP9 SUB SLT ISZERO PUSH2 0x8C3 JUMPI PUSH2 0x8C2 PUSH2 0x873 JUMP JUMPDEST JUMPDEST PUSH0 PUSH2 0x8D0 DUP9 DUP3 DUP10 ADD PUSH2 0x896 JUMP JUMPDEST SWAP6 POP POP PUSH1 0x20 PUSH2 0x8E1 DUP9 DUP3 DUP10 ADD PUSH2 0x896 JUMP JUMPDEST SWAP5 POP POP PUSH1 0x40 PUSH2 0x8F2 DUP9 DUP3 DUP10 ADD PUSH2 0x896 JUMP JUMPDEST SWAP4 POP POP PUSH1 0x60 PUSH2 0x903 DUP9 DUP3 DUP10 ADD PUSH2 0x896 JUMP JUMPDEST SWAP3 POP POP PUSH1 0x80 PUSH2 0x914 DUP9 DUP3 DUP10 ADD PUSH2 0x896 JUMP JUMPDEST SWAP2 POP POP SWAP3 SWAP6 POP SWAP3 SWAP6 SWAP1 SWAP4 POP JUMP JUMPDEST PUSH0 DUP1 PUSH0 PUSH1 0x60 DUP5 DUP7 SUB SLT ISZERO PUSH2 0x938 JUMPI PUSH2 0x937 PUSH2 0x873 JUMP JUMPDEST JUMPDEST PUSH0 PUSH2 0x945 DUP7 DUP3 DUP8 ADD PUSH2 0x896 JUMP JUMPDEST SWAP4 POP POP PUSH1 0x20 PUSH2 0x956 DUP7 DUP3 DUP8 ADD PUSH2 0x896 JUMP JUMPDEST SWAP3 POP POP PUSH1 0x40 PUSH2 0x967 DUP7 DUP3 DUP8 ADD PUSH2 0x896 JUMP JUMPDEST SWAP2 POP POP SWAP3 POP SWAP3 POP SWAP3 JUMP JUMPDEST PUSH2 0x97A DUP2 PUSH2 0x877 JUMP JUMPDEST DUP3 MSTORE POP POP JUMP JUMPDEST PUSH0 PUSH1 0x20 DUP3 ADD SWAP1 POP PUSH2 0x993 PUSH0 DUP4 ADD DUP5 PUSH2 0x971 JUMP JUMPDEST SWAP3 SWAP2 POP POP JUMP JUMPDEST PUSH32 0x4E487B7100000000000000000000000000000000000000000000000000000000 PUSH0 MSTORE PUSH1 0x22 PUSH1 0x4 MSTORE PUSH1 0x24 PUSH0 REVERT JUMPDEST PUSH0 PUSH1 0x2 DUP3 DIV SWAP1 POP PUSH1 0x1 DUP3 AND DUP1 PUSH2 0x9DD JUMPI PUSH1 0x7F DUP3 AND SWAP2 POP JUMPDEST PUSH1 0x20 DUP3 LT DUP2 SUB PUSH2 0x9F0 JUMPI PUSH2 0x9EF PUSH2 0x999 JUMP JUMPDEST JUMPDEST POP SWAP2 SWAP1 POP JUMP JUMPDEST PUSH32 0x496E76616C696420646174650000000000000000000000000000000000000000 PUSH0 DUP3 ADD MSTORE POP JUMP JUMPDEST PUSH0 PUSH2 0xA2A PUSH1 0xC DUP4 PUSH2 0x7D3 JUMP JUMPDEST SWAP2 POP PUSH2 0xA35 DUP3 PUSH2 0x9F6 JUMP JUMPDEST PUSH1 0x20 DUP3 ADD SWAP1 POP SWAP2 SWAP1 POP JUMP JUMPDEST PUSH0 PUSH1 0x20 DUP3 ADD SWAP1 POP DUP2 DUP2 SUB PUSH0 DUP4 ADD MSTORE PUSH2 0xA57 DUP2 PUSH2 0xA1E JUMP JUMPDEST SWAP1 POP SWAP2 SWAP1 POP JUMP JUMPDEST PUSH32 0x4F6E6C79204469726563746F7200000000000000000000000000000000000000 PUSH0 DUP3 ADD MSTORE POP JUMP JUMPDEST PUSH0 PUSH2 0xA92 PUSH1 0xD DUP4 PUSH2 0x7D3 JUMP JUMPDEST SWAP2 POP PUSH2 0xA9D DUP3 PUSH2 0xA5E JUMP JUMPDEST PUSH1 0x20 DUP3 ADD SWAP1 POP SWAP2 SWAP1 POP JUMP JUMPDEST PUSH0 PUSH1 0x20 DUP3 ADD SWAP1 POP DUP2 DUP2 SUB PUSH0 DUP4 ADD MSTORE PUSH2 0xABF DUP2 PUSH2 0xA86 JUMP JUMPDEST SWAP1 POP SWAP2 SWAP1 POP JUMP JUMPDEST PUSH32 0x4E487B7100000000000000000000000000000000000000000000000000000000 PUSH0 MSTORE PUSH1 0x32 PUSH1 0x4 MSTORE PUSH1 0x24 PUSH0 REVERT JUMPDEST PUSH32 0x4E487B7100000000000000000000000000000000000000000000000000000000 PUSH0 MSTORE PUSH1 0x11 PUSH1 0x4 MSTORE PUSH1 0x24 PUSH0 REVERT JUMPDEST PUSH0 PUSH2 0xB2A DUP3 PUSH2 0x877 JUMP JUMPDEST SWAP2 POP PUSH2 0xB35 DUP4 PUSH2 0x877 JUMP JUMPDEST SWAP3 POP DUP3 DUP3 SUB SWAP1 POP DUP2 DUP2 GT ISZERO PUSH2 0xB4D JUMPI PUSH2 0xB4C PUSH2 0xAF3 JUMP JUMPDEST JUMPDEST SWAP3 SWAP2 POP POP JUMP JUMPDEST PUSH0 PUSH2 0xB5D DUP3 PUSH2 0x877 JUMP JUMPDEST SWAP2 POP PUSH2 0xB68 DUP4 PUSH2 0x877 JUMP JUMPDEST SWAP3 POP DUP3 DUP3 ADD SWAP1 POP DUP1 DUP3 GT ISZERO PUSH2 0xB80 JUMPI PUSH2 0xB7F PUSH2 0xAF3 JUMP JUMPDEST JUMPDEST SWAP3 SWAP2 POP POP JUMP JUMPDEST PUSH0 PUSH2 0xB90 DUP3 PUSH2 0x877 JUMP JUMPDEST SWAP2 POP PUSH32 0xFFFFFFFFFFFFFFFFFFFFFFFFFFFFFFFFFFFFFFFFFFFFFFFFFFFFFFFFFFFFFFFF DUP3 SUB PUSH2 0xBC2 JUMPI PUSH2 0xBC1 PUSH2 0xAF3 JUMP JUMPDEST JUMPDEST PUSH1 0x1 DUP3 ADD SWAP1 POP SWAP2 SWAP1 POP JUMP JUMPDEST PUSH0 PUSH2 0xBD7 DUP3 PUSH2 0x877 JUMP JUMPDEST SWAP2 POP PUSH2 0xBE2 DUP4 PUSH2 0x877 JUMP JUMPDEST SWAP3 POP DUP3 DUP3 MUL PUSH2 0xBF0 DUP2 PUSH2 0x877 JUMP JUMPDEST SWAP2 POP DUP3 DUP3 DIV DUP5 EQ DUP4 ISZERO OR PUSH2 0xC07 JUMPI PUSH2 0xC06 PUSH2 0xAF3 JUMP JUMPDEST JUMPDEST POP SWAP3 SWAP2 POP POP JUMP JUMPDEST PUSH32 0x4E487B7100000000000000000000000000000000000000000000000000000000 PUSH0 MSTORE PUSH1 0x12 PUSH1 0x4 MSTORE PUSH1 0x24 PUSH0 REVERT JUMPDEST PUSH0 PUSH2 0xC45 DUP3 PUSH2 0x877 JUMP JUMPDEST SWAP2 POP PUSH2 0xC50 DUP4 PUSH2 0x877 JUMP JUMPDEST SWAP3 POP DUP3 PUSH2 0xC60 JUMPI PUSH2 0xC5F PUSH2 0xC0E JUMP JUMPDEST JUMPDEST DUP3 DUP3 MOD SWAP1 POP SWAP3 SWAP2 POP POP JUMP INVALID LOG2 PUSH5 0x6970667358 0x22 SLT KECCAK256 SWAP13 LOG4 0xAB NOT 0xF DUP13 0xC2 SWAP3 0xC4 STOP 0xE2 SMOD 0xB4 PREVRANDAO 0xB2 DUP1 CREATE 0x4C SWAP6 0xA7 BASEFEE LT DUP16 PUSH31 0xD6B75A58A04CBDA764736F6C63430008150033000000000000000000000000 "
		},
		"gasEstimates": {
			"creation": {
				"codeDepositCost": "646600",
				"executionCost": "infinite",
				"totalCost": "infinite"
			},
			"external": {
				"addDate(uint256,uint256,uint256,uint256,uint256)": "infinite",
				"getHourAtDate(uint256,uint256,uint256)": "infinite",
				"getID()": "infinite",
				"getName()": "infinite",
				"getTotal()": "infinite"
			},
			"internal": {
				"isLeapYear(uint256)": "infinite"
			}
		},
		"methodIdentifiers": {
			"addDate(uint256,uint256,uint256,uint256,uint256)": "302cffb8",
			"getHourAtDate(uint256,uint256,uint256)": "39a6df3d",
			"getID()": "ab9dbd07",
			"getName()": "17d7de7c",
			"getTotal()": "775a25e3"
		}
	},
	"abi": [
		{
			"inputs": [
				{
					"internalType": "string",
					"name": "_name",
					"type": "string"
				},
				{
					"internalType": "string",
					"name": "_position",
					"type": "string"
				},
				{
					"internalType": "string",
					"name": "_id",
					"type": "string"
				},
				{
					"internalType": "uint256",
					"name": "_salaryPerHour",
					"type": "uint256"
				}
			],
			"stateMutability": "nonpayable",
			"type": "constructor"
		},
		{
			"inputs": [
				{
					"internalType": "uint256",
					"name": "day",
					"type": "uint256"
				},
				{
					"internalType": "uint256",
					"name": "month",
					"type": "uint256"
				},
				{
					"internalType": "uint256",
					"name": "year",
					"type": "uint256"
				},
				{
					"internalType": "uint256",
					"name": "startHour",
					"type": "uint256"
				},
				{
					"internalType": "uint256",
					"name": "endHour",
					"type": "uint256"
				}
			],
			"name": "addDate",
			"outputs": [],
			"stateMutability": "nonpayable",
			"type": "function"
		},
		{
			"inputs": [
				{
					"internalType": "uint256",
					"name": "day",
					"type": "uint256"
				},
				{
					"internalType": "uint256",
					"name": "month",
					"type": "uint256"
				},
				{
					"internalType": "uint256",
					"name": "year",
					"type": "uint256"
				}
			],
			"name": "getHourAtDate",
			"outputs": [
				{
					"internalType": "uint256",
					"name": "",
					"type": "uint256"
				}
			],
			"stateMutability": "view",
			"type": "function"
		},
		{
			"inputs": [],
			"name": "getID",
			"outputs": [
				{
					"internalType": "string",
					"name": "",
					"type": "string"
				}
			],
			"stateMutability": "view",
			"type": "function"
		},
		{
			"inputs": [],
			"name": "getName",
			"outputs": [
				{
					"internalType": "string",
					"name": "",
					"type": "string"
				}
			],
			"stateMutability": "view",
			"type": "function"
		},
		{
			"inputs": [],
			"name": "getTotal",
			"outputs": [
				{
					"internalType": "uint256",
					"name": "",
					"type": "uint256"
				}
			],
			"stateMutability": "view",
			"type": "function"
		}
	]
}