{
	"data": {
		"bytecode": {
			"linkReferences": {},
			"object": "608060405234801561000f575f80fd5b506104128061001d5f395ff3fe608060405234801561000f575f80fd5b5060043610610029575f3560e01c80633a3a736a1461002d575b5f80fd5b61004760048036038101906100429190610395565b610049565b005b50565b5f604051905090565b5f80fd5b5f80fd5b5f80fd5b5f601f19601f8301169050919050565b7f4e487b71000000000000000000000000000000000000000000000000000000005f52604160045260245ffd5b6100a782610061565b810181811067ffffffffffffffff821117156100c6576100c5610071565b5b80604052505050565b5f6100d861004c565b90506100e4828261009e565b919050565b5f80fd5b5f80fd5b5f80fd5b5f67ffffffffffffffff82111561010f5761010e610071565b5b61011882610061565b9050602081019050919050565b828183375f83830152505050565b5f610145610140846100f5565b6100cf565b905082815260208101848484011115610161576101606100f1565b5b61016c848285610125565b509392505050565b5f82601f830112610188576101876100ed565b5b8135610198848260208601610133565b91505092915050565b5f606082840312156101b6576101b561005d565b5b6101c060606100cf565b90505f82013567ffffffffffffffff8111156101df576101de6100e9565b5b6101eb84828501610174565b5f83015250602082013567ffffffffffffffff81111561020e5761020d6100e9565b5b61021a84828501610174565b602083015250604082013567ffffffffffffffff81111561023e5761023d6100e9565b5b61024a84828501610174565b60408301525092915050565b5f819050919050565b61026881610256565b8114610272575f80fd5b50565b5f813590506102838161025f565b92915050565b60048110610295575f80fd5b50565b5f813590506102a681610289565b92915050565b5f60e082840312156102c1576102c061005d565b5b6102cb60e06100cf565b90505f82013567ffffffffffffffff8111156102ea576102e96100e9565b5b6102f6848285016101a1565b5f83015250602061030984828501610275565b602083015250604061031d84828501610298565b604083015250606082013567ffffffffffffffff811115610341576103406100e9565b5b61034d84828501610174565b606083015250608061036184828501610275565b60808301525060a061037584828501610275565b60a08301525060c061038984828501610275565b60c08301525092915050565b5f602082840312156103aa576103a9610055565b5b5f82013567ffffffffffffffff8111156103c7576103c6610059565b5b6103d3848285016102ac565b9150509291505056fea2646970667358221220198974692d34afcc77d99fc800c9cba305c259dfde78363fa172895d9ebbdc6164736f6c63430008150033",
			"opcodes": "PUSH1 0x80 PUSH1 0x40 MSTORE CALLVALUE DUP1 ISZERO PUSH2 0xF JUMPI PUSH0 DUP1 REVERT JUMPDEST POP PUSH2 0x412 DUP1 PUSH2 0x1D PUSH0 CODECOPY PUSH0 RETURN INVALID PUSH1 0x80 PUSH1 0x40 MSTORE CALLVALUE DUP1 ISZERO PUSH2 0xF JUMPI PUSH0 DUP1 REVERT JUMPDEST POP PUSH1 0x4 CALLDATASIZE LT PUSH2 0x29 JUMPI PUSH0 CALLDATALOAD PUSH1 0xE0 SHR DUP1 PUSH4 0x3A3A736A EQ PUSH2 0x2D JUMPI JUMPDEST PUSH0 DUP1 REVERT JUMPDEST PUSH2 0x47 PUSH1 0x4 DUP1 CALLDATASIZE SUB DUP2 ADD SWAP1 PUSH2 0x42 SWAP2 SWAP1 PUSH2 0x395 JUMP JUMPDEST PUSH2 0x49 JUMP JUMPDEST STOP JUMPDEST POP JUMP JUMPDEST PUSH0 PUSH1 0x40 MLOAD SWAP1 POP SWAP1 JUMP JUMPDEST PUSH0 DUP1 REVERT JUMPDEST PUSH0 DUP1 REVERT JUMPDEST PUSH0 DUP1 REVERT JUMPDEST PUSH0 PUSH1 0x1F NOT PUSH1 0x1F DUP4 ADD AND SWAP1 POP SWAP2 SWAP1 POP JUMP JUMPDEST PUSH32 0x4E487B7100000000000000000000000000000000000000000000000000000000 PUSH0 MSTORE PUSH1 0x41 PUSH1 0x4 MSTORE PUSH1 0x24 PUSH0 REVERT JUMPDEST PUSH2 0xA7 DUP3 PUSH2 0x61 JUMP JUMPDEST DUP2 ADD DUP2 DUP2 LT PUSH8 0xFFFFFFFFFFFFFFFF DUP3 GT OR ISZERO PUSH2 0xC6 JUMPI PUSH2 0xC5 PUSH2 0x71 JUMP JUMPDEST JUMPDEST DUP1 PUSH1 0x40 MSTORE POP POP POP JUMP JUMPDEST PUSH0 PUSH2 0xD8 PUSH2 0x4C JUMP JUMPDEST SWAP1 POP PUSH2 0xE4 DUP3 DUP3 PUSH2 0x9E JUMP JUMPDEST SWAP2 SWAP1 POP JUMP JUMPDEST PUSH0 DUP1 REVERT JUMPDEST PUSH0 DUP1 REVERT JUMPDEST PUSH0 DUP1 REVERT JUMPDEST PUSH0 PUSH8 0xFFFFFFFFFFFFFFFF DUP3 GT ISZERO PUSH2 0x10F JUMPI PUSH2 0x10E PUSH2 0x71 JUMP JUMPDEST JUMPDEST PUSH2 0x118 DUP3 PUSH2 0x61 JUMP JUMPDEST SWAP1 POP PUSH1 0x20 DUP2 ADD SWAP1 POP SWAP2 SWAP1 POP JUMP JUMPDEST DUP3 DUP2 DUP4 CALLDATACOPY PUSH0 DUP4 DUP4 ADD MSTORE POP POP POP JUMP JUMPDEST PUSH0 PUSH2 0x145 PUSH2 0x140 DUP5 PUSH2 0xF5 JUMP JUMPDEST PUSH2 0xCF JUMP JUMPDEST SWAP1 POP DUP3 DUP2 MSTORE PUSH1 0x20 DUP2 ADD DUP5 DUP5 DUP5 ADD GT ISZERO PUSH2 0x161 JUMPI PUSH2 0x160 PUSH2 0xF1 JUMP JUMPDEST JUMPDEST PUSH2 0x16C DUP5 DUP3 DUP6 PUSH2 0x125 JUMP JUMPDEST POP SWAP4 SWAP3 POP POP POP JUMP JUMPDEST PUSH0 DUP3 PUSH1 0x1F DUP4 ADD SLT PUSH2 0x188 JUMPI PUSH2 0x187 PUSH2 0xED JUMP JUMPDEST JUMPDEST DUP2 CALLDATALOAD PUSH2 0x198 DUP5 DUP3 PUSH1 0x20 DUP7 ADD PUSH2 0x133 JUMP JUMPDEST SWAP2 POP POP SWAP3 SWAP2 POP POP JUMP JUMPDEST PUSH0 PUSH1 0x60 DUP3 DUP5 SUB SLT ISZERO PUSH2 0x1B6 JUMPI PUSH2 0x1B5 PUSH2 0x5D JUMP JUMPDEST JUMPDEST PUSH2 0x1C0 PUSH1 0x60 PUSH2 0xCF JUMP JUMPDEST SWAP1 POP PUSH0 DUP3 ADD CALLDATALOAD PUSH8 0xFFFFFFFFFFFFFFFF DUP2 GT ISZERO PUSH2 0x1DF JUMPI PUSH2 0x1DE PUSH2 0xE9 JUMP JUMPDEST JUMPDEST PUSH2 0x1EB DUP5 DUP3 DUP6 ADD PUSH2 0x174 JUMP JUMPDEST PUSH0 DUP4 ADD MSTORE POP PUSH1 0x20 DUP3 ADD CALLDATALOAD PUSH8 0xFFFFFFFFFFFFFFFF DUP2 GT ISZERO PUSH2 0x20E JUMPI PUSH2 0x20D PUSH2 0xE9 JUMP JUMPDEST JUMPDEST PUSH2 0x21A DUP5 DUP3 DUP6 ADD PUSH2 0x174 JUMP JUMPDEST PUSH1 0x20 DUP4 ADD MSTORE POP PUSH1 0x40 DUP3 ADD CALLDATALOAD PUSH8 0xFFFFFFFFFFFFFFFF DUP2 GT ISZERO PUSH2 0x23E JUMPI PUSH2 0x23D PUSH2 0xE9 JUMP JUMPDEST JUMPDEST PUSH2 0x24A DUP5 DUP3 DUP6 ADD PUSH2 0x174 JUMP JUMPDEST PUSH1 0x40 DUP4 ADD MSTORE POP SWAP3 SWAP2 POP POP JUMP JUMPDEST PUSH0 DUP2 SWAP1 POP SWAP2 SWAP1 POP JUMP JUMPDEST PUSH2 0x268 DUP2 PUSH2 0x256 JUMP JUMPDEST DUP2 EQ PUSH2 0x272 JUMPI PUSH0 DUP1 REVERT JUMPDEST POP JUMP JUMPDEST PUSH0 DUP2 CALLDATALOAD SWAP1 POP PUSH2 0x283 DUP2 PUSH2 0x25F JUMP JUMPDEST SWAP3 SWAP2 POP POP JUMP JUMPDEST PUSH1 0x4 DUP2 LT PUSH2 0x295 JUMPI PUSH0 DUP1 REVERT JUMPDEST POP JUMP JUMPDEST PUSH0 DUP2 CALLDATALOAD SWAP1 POP PUSH2 0x2A6 DUP2 PUSH2 0x289 JUMP JUMPDEST SWAP3 SWAP2 POP POP JUMP JUMPDEST PUSH0 PUSH1 0xE0 DUP3 DUP5 SUB SLT ISZERO PUSH2 0x2C1 JUMPI PUSH2 0x2C0 PUSH2 0x5D JUMP JUMPDEST JUMPDEST PUSH2 0x2CB PUSH1 0xE0 PUSH2 0xCF JUMP JUMPDEST SWAP1 POP PUSH0 DUP3 ADD CALLDATALOAD PUSH8 0xFFFFFFFFFFFFFFFF DUP2 GT ISZERO PUSH2 0x2EA JUMPI PUSH2 0x2E9 PUSH2 0xE9 JUMP JUMPDEST JUMPDEST PUSH2 0x2F6 DUP5 DUP3 DUP6 ADD PUSH2 0x1A1 JUMP JUMPDEST PUSH0 DUP4 ADD MSTORE POP PUSH1 0x20 PUSH2 0x309 DUP5 DUP3 DUP6 ADD PUSH2 0x275 JUMP JUMPDEST PUSH1 0x20 DUP4 ADD MSTORE POP PUSH1 0x40 PUSH2 0x31D DUP5 DUP3 DUP6 ADD PUSH2 0x298 JUMP JUMPDEST PUSH1 0x40 DUP4 ADD MSTORE POP PUSH1 0x60 DUP3 ADD CALLDATALOAD PUSH8 0xFFFFFFFFFFFFFFFF DUP2 GT ISZERO PUSH2 0x341 JUMPI PUSH2 0x340 PUSH2 0xE9 JUMP JUMPDEST JUMPDEST PUSH2 0x34D DUP5 DUP3 DUP6 ADD PUSH2 0x174 JUMP JUMPDEST PUSH1 0x60 DUP4 ADD MSTORE POP PUSH1 0x80 PUSH2 0x361 DUP5 DUP3 DUP6 ADD PUSH2 0x275 JUMP JUMPDEST PUSH1 0x80 DUP4 ADD MSTORE POP PUSH1 0xA0 PUSH2 0x375 DUP5 DUP3 DUP6 ADD PUSH2 0x275 JUMP JUMPDEST PUSH1 0xA0 DUP4 ADD MSTORE POP PUSH1 0xC0 PUSH2 0x389 DUP5 DUP3 DUP6 ADD PUSH2 0x275 JUMP JUMPDEST PUSH1 0xC0 DUP4 ADD MSTORE POP SWAP3 SWAP2 POP POP JUMP JUMPDEST PUSH0 PUSH1 0x20 DUP3 DUP5 SUB SLT ISZERO PUSH2 0x3AA JUMPI PUSH2 0x3A9 PUSH2 0x55 JUMP JUMPDEST JUMPDEST PUSH0 DUP3 ADD CALLDATALOAD PUSH8 0xFFFFFFFFFFFFFFFF DUP2 GT ISZERO PUSH2 0x3C7 JUMPI PUSH2 0x3C6 PUSH2 0x59 JUMP JUMPDEST JUMPDEST PUSH2 0x3D3 DUP5 DUP3 DUP6 ADD PUSH2 0x2AC JUMP JUMPDEST SWAP2 POP POP SWAP3 SWAP2 POP POP JUMP INVALID LOG2 PUSH5 0x6970667358 0x22 SLT KECCAK256 NOT DUP10 PUSH21 0x692D34AFCC77D99FC800C9CBA305C259DFDE78363F LOG1 PUSH19 0x895D9EBBDC6164736F6C634300081500330000 "
		},
		"gasEstimates": {
			"creation": {
				"codeDepositCost": "208400",
				"executionCost": "249",
				"totalCost": "208649"
			},
			"external": {
				"addTransaction(((string,string,string),uint256,uint8,string,uint256,uint256,uint256))": "infinite"
			}
		},
		"methodIdentifiers": {
			"addTransaction(((string,string,string),uint256,uint8,string,uint256,uint256,uint256))": "3a3a736a"
		}
	},
	"abi": [
		{
			"inputs": [
				{
					"components": [
						{
							"components": [
								{
									"internalType": "string",
									"name": "name",
									"type": "string"
								},
								{
									"internalType": "string",
									"name": "add",
									"type": "string"
								},
								{
									"internalType": "string",
									"name": "contact",
									"type": "string"
								}
							],
							"internalType": "struct Nhap.Ben",
							"name": "b",
							"type": "tuple"
						},
						{
							"internalType": "uint256",
							"name": "amount",
							"type": "uint256"
						},
						{
							"internalType": "enum Nhap.TYPE",
							"name": "t",
							"type": "uint8"
						},
						{
							"internalType": "string",
							"name": "description",
							"type": "string"
						},
						{
							"internalType": "uint256",
							"name": "day",
							"type": "uint256"
						},
						{
							"internalType": "uint256",
							"name": "month",
							"type": "uint256"
						},
						{
							"internalType": "uint256",
							"name": "year",
							"type": "uint256"
						}
					],
					"internalType": "struct Nhap.Transaction",
					"name": "newTransaction",
					"type": "tuple"
				}
			],
			"name": "addTransaction",
			"outputs": [],
			"stateMutability": "nonpayable",
			"type": "function"
		}
	]
}