{
	"data": {
		"bytecode": {
			"linkReferences": {},
			"object": "608060405234801561000f575f80fd5b50335f806101000a81548173ffffffffffffffffffffffffffffffffffffffff021916908373ffffffffffffffffffffffffffffffffffffffff160217905550610e1d8061005c5f395ff3fe608060405234801561000f575f80fd5b506004361061004a575f3560e01c8063592130a51461004e5780638a66deb6146100865780638cc151e8146100a4578063eddb4542146100c0575b5f80fd5b6100686004803603810190610063919061058e565b6100dc565b60405161007d99989796959493929190610691565b60405180910390f35b61008e610278565b60405161009b919061072a565b60405180910390f35b6100be60048036038101906100b9919061076d565b61029b565b005b6100da60048036038101906100d591906108c4565b61038b565b005b5f805f8060605f8060605f8060035f8c81526020019081526020015f2090508060040154815f015482600101548360020154846003018560050154866006015487600701886008015f9054906101000a900473ffffffffffffffffffffffffffffffffffffffff16848054610150906109da565b80601f016020809104026020016040519081016040528092919081815260200182805461017c906109da565b80156101c75780601f1061019e576101008083540402835291602001916101c7565b820191905f5260205f20905b8154815290600101906020018083116101aa57829003601f168201915b505050505094508180546101da906109da565b80601f0160208091040260200160405190810160405280929190818152602001828054610206906109da565b80156102515780601f1061022857610100808354040283529160200191610251565b820191905f5260205f20905b81548152906001019060200180831161023457829003601f168201915b50505050509150995099509950995099509950995099509950509193959799909294969850565b5f8054906101000a900473ffffffffffffffffffffffffffffffffffffffff1681565b5f8054906101000a900473ffffffffffffffffffffffffffffffffffffffff1673ffffffffffffffffffffffffffffffffffffffff163373ffffffffffffffffffffffffffffffffffffffff1614610328576040517f08c379a000000000000000000000000000000000000000000000000000000000815260040161031f90610a54565b60405180910390fd5b600181908060018154018082558091505060019003905f5260205f20015f9091909190916101000a81548173ffffffffffffffffffffffffffffffffffffffff021916908373ffffffffffffffffffffffffffffffffffffffff16021790555050565b5f805b60018054905081101561042157600181815481106103af576103ae610a72565b5b905f5260205f20015f9054906101000a900473ffffffffffffffffffffffffffffffffffffffff1673ffffffffffffffffffffffffffffffffffffffff163373ffffffffffffffffffffffffffffffffffffffff160361040e57600191505b808061041990610acc565b91505061038e565b506001151581151514610469576040517f08c379a000000000000000000000000000000000000000000000000000000000815260040161046090610b5d565b60405180910390fd5b5f60035f8481526020019081526020015f20905089815f0181905550888160010181905550878160020181905550868160030190816104a89190610d18565b50858160050181905550848160060181905550838160070190816104cc9190610d18565b5033816008015f6101000a81548173ffffffffffffffffffffffffffffffffffffffff021916908373ffffffffffffffffffffffffffffffffffffffff160217905550428160040181905550600283908060018154018082558091505060019003905f5260205f20015f909190919091505550505050505050505050565b5f604051905090565b5f80fd5b5f80fd5b5f819050919050565b61056d8161055b565b8114610577575f80fd5b50565b5f8135905061058881610564565b92915050565b5f602082840312156105a3576105a2610553565b5b5f6105b08482850161057a565b91505092915050565b6105c28161055b565b82525050565b5f81519050919050565b5f82825260208201905092915050565b5f5b838110156105ff5780820151818401526020810190506105e4565b5f8484015250505050565b5f601f19601f8301169050919050565b5f610624826105c8565b61062e81856105d2565b935061063e8185602086016105e2565b6106478161060a565b840191505092915050565b5f73ffffffffffffffffffffffffffffffffffffffff82169050919050565b5f61067b82610652565b9050919050565b61068b81610671565b82525050565b5f610120820190506106a55f83018c6105b9565b6106b2602083018b6105b9565b6106bf604083018a6105b9565b6106cc60608301896105b9565b81810360808301526106de818861061a565b90506106ed60a08301876105b9565b6106fa60c08301866105b9565b81810360e083015261070c818561061a565b905061071c610100830184610682565b9a9950505050505050505050565b5f60208201905061073d5f830184610682565b92915050565b61074c81610671565b8114610756575f80fd5b50565b5f8135905061076781610743565b92915050565b5f6020828403121561078257610781610553565b5b5f61078f84828501610759565b91505092915050565b5f80fd5b5f80fd5b7f4e487b71000000000000000000000000000000000000000000000000000000005f52604160045260245ffd5b6107d68261060a565b810181811067ffffffffffffffff821117156107f5576107f46107a0565b5b80604052505050565b5f61080761054a565b905061081382826107cd565b919050565b5f67ffffffffffffffff821115610832576108316107a0565b5b61083b8261060a565b9050602081019050919050565b828183375f83830152505050565b5f61086861086384610818565b6107fe565b9050828152602081018484840111156108845761088361079c565b5b61088f848285610848565b509392505050565b5f82601f8301126108ab576108aa610798565b5b81356108bb848260208601610856565b91505092915050565b5f805f805f805f80610100898b0312156108e1576108e0610553565b5b5f6108ee8b828c0161057a565b98505060206108ff8b828c0161057a565b97505060406109108b828c0161057a565b965050606089013567ffffffffffffffff81111561093157610930610557565b5b61093d8b828c01610897565b955050608061094e8b828c0161057a565b94505060a061095f8b828c0161057a565b93505060c089013567ffffffffffffffff8111156109805761097f610557565b5b61098c8b828c01610897565b92505060e061099d8b828c0161057a565b9150509295985092959890939650565b7f4e487b71000000000000000000000000000000000000000000000000000000005f52602260045260245ffd5b5f60028204905060018216806109f157607f821691505b602082108103610a0457610a036109ad565b5b50919050565b7f50686169206c61207175616e206c7900000000000000000000000000000000005f82015250565b5f610a3e600f836105d2565b9150610a4982610a0a565b602082019050919050565b5f6020820190508181035f830152610a6b81610a32565b9050919050565b7f4e487b71000000000000000000000000000000000000000000000000000000005f52603260045260245ffd5b7f4e487b71000000000000000000000000000000000000000000000000000000005f52601160045260245ffd5b5f610ad68261055b565b91507fffffffffffffffffffffffffffffffffffffffffffffffffffffffffffffffff8203610b0857610b07610a9f565b5b600182019050919050565b7f50686169206c61206b6520746f616e00000000000000000000000000000000005f82015250565b5f610b47600f836105d2565b9150610b5282610b13565b602082019050919050565b5f6020820190508181035f830152610b7481610b3b565b9050919050565b5f819050815f5260205f209050919050565b5f6020601f8301049050919050565b5f82821b905092915050565b5f60088302610bd77fffffffffffffffffffffffffffffffffffffffffffffffffffffffffffffffff82610b9c565b610be18683610b9c565b95508019841693508086168417925050509392505050565b5f819050919050565b5f610c1c610c17610c128461055b565b610bf9565b61055b565b9050919050565b5f819050919050565b610c3583610c02565b610c49610c4182610c23565b848454610ba8565b825550505050565b5f90565b610c5d610c51565b610c68818484610c2c565b505050565b5b81811015610c8b57610c805f82610c55565b600181019050610c6e565b5050565b601f821115610cd057610ca181610b7b565b610caa84610b8d565b81016020851015610cb9578190505b610ccd610cc585610b8d565b830182610c6d565b50505b505050565b5f82821c905092915050565b5f610cf05f1984600802610cd5565b1980831691505092915050565b5f610d088383610ce1565b9150826002028217905092915050565b610d21826105c8565b67ffffffffffffffff811115610d3a57610d396107a0565b5b610d4482546109da565b610d4f828285610c8f565b5f60209050601f831160018114610d80575f8415610d6e578287015190505b610d788582610cfd565b865550610ddf565b601f198416610d8e86610b7b565b5f5b82811015610db557848901518255600182019150602085019450602081019050610d90565b86831015610dd25784890151610dce601f891682610ce1565b8355505b6001600288020188555050505b50505050505056fea2646970667358221220b0ee80633ab065d9c5e7cdf5b87ff315fa0c0eae8c0afedafe156b57d9ef240e64736f6c63430008150033",
			"opcodes": "PUSH1 0x80 PUSH1 0x40 MSTORE CALLVALUE DUP1 ISZERO PUSH2 0xF JUMPI PUSH0 DUP1 REVERT JUMPDEST POP CALLER PUSH0 DUP1 PUSH2 0x100 EXP DUP2 SLOAD DUP2 PUSH20 0xFFFFFFFFFFFFFFFFFFFFFFFFFFFFFFFFFFFFFFFF MUL NOT AND SWAP1 DUP4 PUSH20 0xFFFFFFFFFFFFFFFFFFFFFFFFFFFFFFFFFFFFFFFF AND MUL OR SWAP1 SSTORE POP PUSH2 0xE1D DUP1 PUSH2 0x5C PUSH0 CODECOPY PUSH0 RETURN INVALID PUSH1 0x80 PUSH1 0x40 MSTORE CALLVALUE DUP1 ISZERO PUSH2 0xF JUMPI PUSH0 DUP1 REVERT JUMPDEST POP PUSH1 0x4 CALLDATASIZE LT PUSH2 0x4A JUMPI PUSH0 CALLDATALOAD PUSH1 0xE0 SHR DUP1 PUSH4 0x592130A5 EQ PUSH2 0x4E JUMPI DUP1 PUSH4 0x8A66DEB6 EQ PUSH2 0x86 JUMPI DUP1 PUSH4 0x8CC151E8 EQ PUSH2 0xA4 JUMPI DUP1 PUSH4 0xEDDB4542 EQ PUSH2 0xC0 JUMPI JUMPDEST PUSH0 DUP1 REVERT JUMPDEST PUSH2 0x68 PUSH1 0x4 DUP1 CALLDATASIZE SUB DUP2 ADD SWAP1 PUSH2 0x63 SWAP2 SWAP1 PUSH2 0x58E JUMP JUMPDEST PUSH2 0xDC JUMP JUMPDEST PUSH1 0x40 MLOAD PUSH2 0x7D SWAP10 SWAP9 SWAP8 SWAP7 SWAP6 SWAP5 SWAP4 SWAP3 SWAP2 SWAP1 PUSH2 0x691 JUMP JUMPDEST PUSH1 0x40 MLOAD DUP1 SWAP2 SUB SWAP1 RETURN JUMPDEST PUSH2 0x8E PUSH2 0x278 JUMP JUMPDEST PUSH1 0x40 MLOAD PUSH2 0x9B SWAP2 SWAP1 PUSH2 0x72A JUMP JUMPDEST PUSH1 0x40 MLOAD DUP1 SWAP2 SUB SWAP1 RETURN JUMPDEST PUSH2 0xBE PUSH1 0x4 DUP1 CALLDATASIZE SUB DUP2 ADD SWAP1 PUSH2 0xB9 SWAP2 SWAP1 PUSH2 0x76D JUMP JUMPDEST PUSH2 0x29B JUMP JUMPDEST STOP JUMPDEST PUSH2 0xDA PUSH1 0x4 DUP1 CALLDATASIZE SUB DUP2 ADD SWAP1 PUSH2 0xD5 SWAP2 SWAP1 PUSH2 0x8C4 JUMP JUMPDEST PUSH2 0x38B JUMP JUMPDEST STOP JUMPDEST PUSH0 DUP1 PUSH0 DUP1 PUSH1 0x60 PUSH0 DUP1 PUSH1 0x60 PUSH0 DUP1 PUSH1 0x3 PUSH0 DUP13 DUP2 MSTORE PUSH1 0x20 ADD SWAP1 DUP2 MSTORE PUSH1 0x20 ADD PUSH0 KECCAK256 SWAP1 POP DUP1 PUSH1 0x4 ADD SLOAD DUP2 PUSH0 ADD SLOAD DUP3 PUSH1 0x1 ADD SLOAD DUP4 PUSH1 0x2 ADD SLOAD DUP5 PUSH1 0x3 ADD DUP6 PUSH1 0x5 ADD SLOAD DUP7 PUSH1 0x6 ADD SLOAD DUP8 PUSH1 0x7 ADD DUP9 PUSH1 0x8 ADD PUSH0 SWAP1 SLOAD SWAP1 PUSH2 0x100 EXP SWAP1 DIV PUSH20 0xFFFFFFFFFFFFFFFFFFFFFFFFFFFFFFFFFFFFFFFF AND DUP5 DUP1 SLOAD PUSH2 0x150 SWAP1 PUSH2 0x9DA JUMP JUMPDEST DUP1 PUSH1 0x1F ADD PUSH1 0x20 DUP1 SWAP2 DIV MUL PUSH1 0x20 ADD PUSH1 0x40 MLOAD SWAP1 DUP2 ADD PUSH1 0x40 MSTORE DUP1 SWAP3 SWAP2 SWAP1 DUP2 DUP2 MSTORE PUSH1 0x20 ADD DUP3 DUP1 SLOAD PUSH2 0x17C SWAP1 PUSH2 0x9DA JUMP JUMPDEST DUP1 ISZERO PUSH2 0x1C7 JUMPI DUP1 PUSH1 0x1F LT PUSH2 0x19E JUMPI PUSH2 0x100 DUP1 DUP4 SLOAD DIV MUL DUP4 MSTORE SWAP2 PUSH1 0x20 ADD SWAP2 PUSH2 0x1C7 JUMP JUMPDEST DUP3 ADD SWAP2 SWAP1 PUSH0 MSTORE PUSH1 0x20 PUSH0 KECCAK256 SWAP1 JUMPDEST DUP2 SLOAD DUP2 MSTORE SWAP1 PUSH1 0x1 ADD SWAP1 PUSH1 0x20 ADD DUP1 DUP4 GT PUSH2 0x1AA JUMPI DUP3 SWAP1 SUB PUSH1 0x1F AND DUP3 ADD SWAP2 JUMPDEST POP POP POP POP POP SWAP5 POP DUP2 DUP1 SLOAD PUSH2 0x1DA SWAP1 PUSH2 0x9DA JUMP JUMPDEST DUP1 PUSH1 0x1F ADD PUSH1 0x20 DUP1 SWAP2 DIV MUL PUSH1 0x20 ADD PUSH1 0x40 MLOAD SWAP1 DUP2 ADD PUSH1 0x40 MSTORE DUP1 SWAP3 SWAP2 SWAP1 DUP2 DUP2 MSTORE PUSH1 0x20 ADD DUP3 DUP1 SLOAD PUSH2 0x206 SWAP1 PUSH2 0x9DA JUMP JUMPDEST DUP1 ISZERO PUSH2 0x251 JUMPI DUP1 PUSH1 0x1F LT PUSH2 0x228 JUMPI PUSH2 0x100 DUP1 DUP4 SLOAD DIV MUL DUP4 MSTORE SWAP2 PUSH1 0x20 ADD SWAP2 PUSH2 0x251 JUMP JUMPDEST DUP3 ADD SWAP2 SWAP1 PUSH0 MSTORE PUSH1 0x20 PUSH0 KECCAK256 SWAP1 JUMPDEST DUP2 SLOAD DUP2 MSTORE SWAP1 PUSH1 0x1 ADD SWAP1 PUSH1 0x20 ADD DUP1 DUP4 GT PUSH2 0x234 JUMPI DUP3 SWAP1 SUB PUSH1 0x1F AND DUP3 ADD SWAP2 JUMPDEST POP POP POP POP POP SWAP2 POP SWAP10 POP SWAP10 POP SWAP10 POP SWAP10 POP SWAP10 POP SWAP10 POP SWAP10 POP SWAP10 POP SWAP10 POP POP SWAP2 SWAP4 SWAP6 SWAP8 SWAP10 SWAP1 SWAP3 SWAP5 SWAP7 SWAP9 POP JUMP JUMPDEST PUSH0 DUP1 SLOAD SWAP1 PUSH2 0x100 EXP SWAP1 DIV PUSH20 0xFFFFFFFFFFFFFFFFFFFFFFFFFFFFFFFFFFFFFFFF AND DUP2 JUMP JUMPDEST PUSH0 DUP1 SLOAD SWAP1 PUSH2 0x100 EXP SWAP1 DIV PUSH20 0xFFFFFFFFFFFFFFFFFFFFFFFFFFFFFFFFFFFFFFFF AND PUSH20 0xFFFFFFFFFFFFFFFFFFFFFFFFFFFFFFFFFFFFFFFF AND CALLER PUSH20 0xFFFFFFFFFFFFFFFFFFFFFFFFFFFFFFFFFFFFFFFF AND EQ PUSH2 0x328 JUMPI PUSH1 0x40 MLOAD PUSH32 0x8C379A000000000000000000000000000000000000000000000000000000000 DUP2 MSTORE PUSH1 0x4 ADD PUSH2 0x31F SWAP1 PUSH2 0xA54 JUMP JUMPDEST PUSH1 0x40 MLOAD DUP1 SWAP2 SUB SWAP1 REVERT JUMPDEST PUSH1 0x1 DUP2 SWAP1 DUP1 PUSH1 0x1 DUP2 SLOAD ADD DUP1 DUP3 SSTORE DUP1 SWAP2 POP POP PUSH1 0x1 SWAP1 SUB SWAP1 PUSH0 MSTORE PUSH1 0x20 PUSH0 KECCAK256 ADD PUSH0 SWAP1 SWAP2 SWAP1 SWAP2 SWAP1 SWAP2 PUSH2 0x100 EXP DUP2 SLOAD DUP2 PUSH20 0xFFFFFFFFFFFFFFFFFFFFFFFFFFFFFFFFFFFFFFFF MUL NOT AND SWAP1 DUP4 PUSH20 0xFFFFFFFFFFFFFFFFFFFFFFFFFFFFFFFFFFFFFFFF AND MUL OR SWAP1 SSTORE POP POP JUMP JUMPDEST PUSH0 DUP1 JUMPDEST PUSH1 0x1 DUP1 SLOAD SWAP1 POP DUP2 LT ISZERO PUSH2 0x421 JUMPI PUSH1 0x1 DUP2 DUP2 SLOAD DUP2 LT PUSH2 0x3AF JUMPI PUSH2 0x3AE PUSH2 0xA72 JUMP JUMPDEST JUMPDEST SWAP1 PUSH0 MSTORE PUSH1 0x20 PUSH0 KECCAK256 ADD PUSH0 SWAP1 SLOAD SWAP1 PUSH2 0x100 EXP SWAP1 DIV PUSH20 0xFFFFFFFFFFFFFFFFFFFFFFFFFFFFFFFFFFFFFFFF AND PUSH20 0xFFFFFFFFFFFFFFFFFFFFFFFFFFFFFFFFFFFFFFFF AND CALLER PUSH20 0xFFFFFFFFFFFFFFFFFFFFFFFFFFFFFFFFFFFFFFFF AND SUB PUSH2 0x40E JUMPI PUSH1 0x1 SWAP2 POP JUMPDEST DUP1 DUP1 PUSH2 0x419 SWAP1 PUSH2 0xACC JUMP JUMPDEST SWAP2 POP POP PUSH2 0x38E JUMP JUMPDEST POP PUSH1 0x1 ISZERO ISZERO DUP2 ISZERO ISZERO EQ PUSH2 0x469 JUMPI PUSH1 0x40 MLOAD PUSH32 0x8C379A000000000000000000000000000000000000000000000000000000000 DUP2 MSTORE PUSH1 0x4 ADD PUSH2 0x460 SWAP1 PUSH2 0xB5D JUMP JUMPDEST PUSH1 0x40 MLOAD DUP1 SWAP2 SUB SWAP1 REVERT JUMPDEST PUSH0 PUSH1 0x3 PUSH0 DUP5 DUP2 MSTORE PUSH1 0x20 ADD SWAP1 DUP2 MSTORE PUSH1 0x20 ADD PUSH0 KECCAK256 SWAP1 POP DUP10 DUP2 PUSH0 ADD DUP2 SWAP1 SSTORE POP DUP9 DUP2 PUSH1 0x1 ADD DUP2 SWAP1 SSTORE POP DUP8 DUP2 PUSH1 0x2 ADD DUP2 SWAP1 SSTORE POP DUP7 DUP2 PUSH1 0x3 ADD SWAP1 DUP2 PUSH2 0x4A8 SWAP2 SWAP1 PUSH2 0xD18 JUMP JUMPDEST POP DUP6 DUP2 PUSH1 0x5 ADD DUP2 SWAP1 SSTORE POP DUP5 DUP2 PUSH1 0x6 ADD DUP2 SWAP1 SSTORE POP DUP4 DUP2 PUSH1 0x7 ADD SWAP1 DUP2 PUSH2 0x4CC SWAP2 SWAP1 PUSH2 0xD18 JUMP JUMPDEST POP CALLER DUP2 PUSH1 0x8 ADD PUSH0 PUSH2 0x100 EXP DUP2 SLOAD DUP2 PUSH20 0xFFFFFFFFFFFFFFFFFFFFFFFFFFFFFFFFFFFFFFFF MUL NOT AND SWAP1 DUP4 PUSH20 0xFFFFFFFFFFFFFFFFFFFFFFFFFFFFFFFFFFFFFFFF AND MUL OR SWAP1 SSTORE POP TIMESTAMP DUP2 PUSH1 0x4 ADD DUP2 SWAP1 SSTORE POP PUSH1 0x2 DUP4 SWAP1 DUP1 PUSH1 0x1 DUP2 SLOAD ADD DUP1 DUP3 SSTORE DUP1 SWAP2 POP POP PUSH1 0x1 SWAP1 SUB SWAP1 PUSH0 MSTORE PUSH1 0x20 PUSH0 KECCAK256 ADD PUSH0 SWAP1 SWAP2 SWAP1 SWAP2 SWAP1 SWAP2 POP SSTORE POP POP POP POP POP POP POP POP POP POP JUMP JUMPDEST PUSH0 PUSH1 0x40 MLOAD SWAP1 POP SWAP1 JUMP JUMPDEST PUSH0 DUP1 REVERT JUMPDEST PUSH0 DUP1 REVERT JUMPDEST PUSH0 DUP2 SWAP1 POP SWAP2 SWAP1 POP JUMP JUMPDEST PUSH2 0x56D DUP2 PUSH2 0x55B JUMP JUMPDEST DUP2 EQ PUSH2 0x577 JUMPI PUSH0 DUP1 REVERT JUMPDEST POP JUMP JUMPDEST PUSH0 DUP2 CALLDATALOAD SWAP1 POP PUSH2 0x588 DUP2 PUSH2 0x564 JUMP JUMPDEST SWAP3 SWAP2 POP POP JUMP JUMPDEST PUSH0 PUSH1 0x20 DUP3 DUP5 SUB SLT ISZERO PUSH2 0x5A3 JUMPI PUSH2 0x5A2 PUSH2 0x553 JUMP JUMPDEST JUMPDEST PUSH0 PUSH2 0x5B0 DUP5 DUP3 DUP6 ADD PUSH2 0x57A JUMP JUMPDEST SWAP2 POP POP SWAP3 SWAP2 POP POP JUMP JUMPDEST PUSH2 0x5C2 DUP2 PUSH2 0x55B JUMP JUMPDEST DUP3 MSTORE POP POP JUMP JUMPDEST PUSH0 DUP2 MLOAD SWAP1 POP SWAP2 SWAP1 POP JUMP JUMPDEST PUSH0 DUP3 DUP3 MSTORE PUSH1 0x20 DUP3 ADD SWAP1 POP SWAP3 SWAP2 POP POP JUMP JUMPDEST PUSH0 JUMPDEST DUP4 DUP2 LT ISZERO PUSH2 0x5FF JUMPI DUP1 DUP3 ADD MLOAD DUP2 DUP5 ADD MSTORE PUSH1 0x20 DUP2 ADD SWAP1 POP PUSH2 0x5E4 JUMP JUMPDEST PUSH0 DUP5 DUP5 ADD MSTORE POP POP POP POP JUMP JUMPDEST PUSH0 PUSH1 0x1F NOT PUSH1 0x1F DUP4 ADD AND SWAP1 POP SWAP2 SWAP1 POP JUMP JUMPDEST PUSH0 PUSH2 0x624 DUP3 PUSH2 0x5C8 JUMP JUMPDEST PUSH2 0x62E DUP2 DUP6 PUSH2 0x5D2 JUMP JUMPDEST SWAP4 POP PUSH2 0x63E DUP2 DUP6 PUSH1 0x20 DUP7 ADD PUSH2 0x5E2 JUMP JUMPDEST PUSH2 0x647 DUP2 PUSH2 0x60A JUMP JUMPDEST DUP5 ADD SWAP2 POP POP SWAP3 SWAP2 POP POP JUMP JUMPDEST PUSH0 PUSH20 0xFFFFFFFFFFFFFFFFFFFFFFFFFFFFFFFFFFFFFFFF DUP3 AND SWAP1 POP SWAP2 SWAP1 POP JUMP JUMPDEST PUSH0 PUSH2 0x67B DUP3 PUSH2 0x652 JUMP JUMPDEST SWAP1 POP SWAP2 SWAP1 POP JUMP JUMPDEST PUSH2 0x68B DUP2 PUSH2 0x671 JUMP JUMPDEST DUP3 MSTORE POP POP JUMP JUMPDEST PUSH0 PUSH2 0x120 DUP3 ADD SWAP1 POP PUSH2 0x6A5 PUSH0 DUP4 ADD DUP13 PUSH2 0x5B9 JUMP JUMPDEST PUSH2 0x6B2 PUSH1 0x20 DUP4 ADD DUP12 PUSH2 0x5B9 JUMP JUMPDEST PUSH2 0x6BF PUSH1 0x40 DUP4 ADD DUP11 PUSH2 0x5B9 JUMP JUMPDEST PUSH2 0x6CC PUSH1 0x60 DUP4 ADD DUP10 PUSH2 0x5B9 JUMP JUMPDEST DUP2 DUP2 SUB PUSH1 0x80 DUP4 ADD MSTORE PUSH2 0x6DE DUP2 DUP9 PUSH2 0x61A JUMP JUMPDEST SWAP1 POP PUSH2 0x6ED PUSH1 0xA0 DUP4 ADD DUP8 PUSH2 0x5B9 JUMP JUMPDEST PUSH2 0x6FA PUSH1 0xC0 DUP4 ADD DUP7 PUSH2 0x5B9 JUMP JUMPDEST DUP2 DUP2 SUB PUSH1 0xE0 DUP4 ADD MSTORE PUSH2 0x70C DUP2 DUP6 PUSH2 0x61A JUMP JUMPDEST SWAP1 POP PUSH2 0x71C PUSH2 0x100 DUP4 ADD DUP5 PUSH2 0x682 JUMP JUMPDEST SWAP11 SWAP10 POP POP POP POP POP POP POP POP POP POP JUMP JUMPDEST PUSH0 PUSH1 0x20 DUP3 ADD SWAP1 POP PUSH2 0x73D PUSH0 DUP4 ADD DUP5 PUSH2 0x682 JUMP JUMPDEST SWAP3 SWAP2 POP POP JUMP JUMPDEST PUSH2 0x74C DUP2 PUSH2 0x671 JUMP JUMPDEST DUP2 EQ PUSH2 0x756 JUMPI PUSH0 DUP1 REVERT JUMPDEST POP JUMP JUMPDEST PUSH0 DUP2 CALLDATALOAD SWAP1 POP PUSH2 0x767 DUP2 PUSH2 0x743 JUMP JUMPDEST SWAP3 SWAP2 POP POP JUMP JUMPDEST PUSH0 PUSH1 0x20 DUP3 DUP5 SUB SLT ISZERO PUSH2 0x782 JUMPI PUSH2 0x781 PUSH2 0x553 JUMP JUMPDEST JUMPDEST PUSH0 PUSH2 0x78F DUP5 DUP3 DUP6 ADD PUSH2 0x759 JUMP JUMPDEST SWAP2 POP POP SWAP3 SWAP2 POP POP JUMP JUMPDEST PUSH0 DUP1 REVERT JUMPDEST PUSH0 DUP1 REVERT JUMPDEST PUSH32 0x4E487B7100000000000000000000000000000000000000000000000000000000 PUSH0 MSTORE PUSH1 0x41 PUSH1 0x4 MSTORE PUSH1 0x24 PUSH0 REVERT JUMPDEST PUSH2 0x7D6 DUP3 PUSH2 0x60A JUMP JUMPDEST DUP2 ADD DUP2 DUP2 LT PUSH8 0xFFFFFFFFFFFFFFFF DUP3 GT OR ISZERO PUSH2 0x7F5 JUMPI PUSH2 0x7F4 PUSH2 0x7A0 JUMP JUMPDEST JUMPDEST DUP1 PUSH1 0x40 MSTORE POP POP POP JUMP JUMPDEST PUSH0 PUSH2 0x807 PUSH2 0x54A JUMP JUMPDEST SWAP1 POP PUSH2 0x813 DUP3 DUP3 PUSH2 0x7CD JUMP JUMPDEST SWAP2 SWAP1 POP JUMP JUMPDEST PUSH0 PUSH8 0xFFFFFFFFFFFFFFFF DUP3 GT ISZERO PUSH2 0x832 JUMPI PUSH2 0x831 PUSH2 0x7A0 JUMP JUMPDEST JUMPDEST PUSH2 0x83B DUP3 PUSH2 0x60A JUMP JUMPDEST SWAP1 POP PUSH1 0x20 DUP2 ADD SWAP1 POP SWAP2 SWAP1 POP JUMP JUMPDEST DUP3 DUP2 DUP4 CALLDATACOPY PUSH0 DUP4 DUP4 ADD MSTORE POP POP POP JUMP JUMPDEST PUSH0 PUSH2 0x868 PUSH2 0x863 DUP5 PUSH2 0x818 JUMP JUMPDEST PUSH2 0x7FE JUMP JUMPDEST SWAP1 POP DUP3 DUP2 MSTORE PUSH1 0x20 DUP2 ADD DUP5 DUP5 DUP5 ADD GT ISZERO PUSH2 0x884 JUMPI PUSH2 0x883 PUSH2 0x79C JUMP JUMPDEST JUMPDEST PUSH2 0x88F DUP5 DUP3 DUP6 PUSH2 0x848 JUMP JUMPDEST POP SWAP4 SWAP3 POP POP POP JUMP JUMPDEST PUSH0 DUP3 PUSH1 0x1F DUP4 ADD SLT PUSH2 0x8AB JUMPI PUSH2 0x8AA PUSH2 0x798 JUMP JUMPDEST JUMPDEST DUP2 CALLDATALOAD PUSH2 0x8BB DUP5 DUP3 PUSH1 0x20 DUP7 ADD PUSH2 0x856 JUMP JUMPDEST SWAP2 POP POP SWAP3 SWAP2 POP POP JUMP JUMPDEST PUSH0 DUP1 PUSH0 DUP1 PUSH0 DUP1 PUSH0 DUP1 PUSH2 0x100 DUP10 DUP12 SUB SLT ISZERO PUSH2 0x8E1 JUMPI PUSH2 0x8E0 PUSH2 0x553 JUMP JUMPDEST JUMPDEST PUSH0 PUSH2 0x8EE DUP12 DUP3 DUP13 ADD PUSH2 0x57A JUMP JUMPDEST SWAP9 POP POP PUSH1 0x20 PUSH2 0x8FF DUP12 DUP3 DUP13 ADD PUSH2 0x57A JUMP JUMPDEST SWAP8 POP POP PUSH1 0x40 PUSH2 0x910 DUP12 DUP3 DUP13 ADD PUSH2 0x57A JUMP JUMPDEST SWAP7 POP POP PUSH1 0x60 DUP10 ADD CALLDATALOAD PUSH8 0xFFFFFFFFFFFFFFFF DUP2 GT ISZERO PUSH2 0x931 JUMPI PUSH2 0x930 PUSH2 0x557 JUMP JUMPDEST JUMPDEST PUSH2 0x93D DUP12 DUP3 DUP13 ADD PUSH2 0x897 JUMP JUMPDEST SWAP6 POP POP PUSH1 0x80 PUSH2 0x94E DUP12 DUP3 DUP13 ADD PUSH2 0x57A JUMP JUMPDEST SWAP5 POP POP PUSH1 0xA0 PUSH2 0x95F DUP12 DUP3 DUP13 ADD PUSH2 0x57A JUMP JUMPDEST SWAP4 POP POP PUSH1 0xC0 DUP10 ADD CALLDATALOAD PUSH8 0xFFFFFFFFFFFFFFFF DUP2 GT ISZERO PUSH2 0x980 JUMPI PUSH2 0x97F PUSH2 0x557 JUMP JUMPDEST JUMPDEST PUSH2 0x98C DUP12 DUP3 DUP13 ADD PUSH2 0x897 JUMP JUMPDEST SWAP3 POP POP PUSH1 0xE0 PUSH2 0x99D DUP12 DUP3 DUP13 ADD PUSH2 0x57A JUMP JUMPDEST SWAP2 POP POP SWAP3 SWAP6 SWAP9 POP SWAP3 SWAP6 SWAP9 SWAP1 SWAP4 SWAP7 POP JUMP JUMPDEST PUSH32 0x4E487B7100000000000000000000000000000000000000000000000000000000 PUSH0 MSTORE PUSH1 0x22 PUSH1 0x4 MSTORE PUSH1 0x24 PUSH0 REVERT JUMPDEST PUSH0 PUSH1 0x2 DUP3 DIV SWAP1 POP PUSH1 0x1 DUP3 AND DUP1 PUSH2 0x9F1 JUMPI PUSH1 0x7F DUP3 AND SWAP2 POP JUMPDEST PUSH1 0x20 DUP3 LT DUP2 SUB PUSH2 0xA04 JUMPI PUSH2 0xA03 PUSH2 0x9AD JUMP JUMPDEST JUMPDEST POP SWAP2 SWAP1 POP JUMP JUMPDEST PUSH32 0x50686169206C61207175616E206C790000000000000000000000000000000000 PUSH0 DUP3 ADD MSTORE POP JUMP JUMPDEST PUSH0 PUSH2 0xA3E PUSH1 0xF DUP4 PUSH2 0x5D2 JUMP JUMPDEST SWAP2 POP PUSH2 0xA49 DUP3 PUSH2 0xA0A JUMP JUMPDEST PUSH1 0x20 DUP3 ADD SWAP1 POP SWAP2 SWAP1 POP JUMP JUMPDEST PUSH0 PUSH1 0x20 DUP3 ADD SWAP1 POP DUP2 DUP2 SUB PUSH0 DUP4 ADD MSTORE PUSH2 0xA6B DUP2 PUSH2 0xA32 JUMP JUMPDEST SWAP1 POP SWAP2 SWAP1 POP JUMP JUMPDEST PUSH32 0x4E487B7100000000000000000000000000000000000000000000000000000000 PUSH0 MSTORE PUSH1 0x32 PUSH1 0x4 MSTORE PUSH1 0x24 PUSH0 REVERT JUMPDEST PUSH32 0x4E487B7100000000000000000000000000000000000000000000000000000000 PUSH0 MSTORE PUSH1 0x11 PUSH1 0x4 MSTORE PUSH1 0x24 PUSH0 REVERT JUMPDEST PUSH0 PUSH2 0xAD6 DUP3 PUSH2 0x55B JUMP JUMPDEST SWAP2 POP PUSH32 0xFFFFFFFFFFFFFFFFFFFFFFFFFFFFFFFFFFFFFFFFFFFFFFFFFFFFFFFFFFFFFFFF DUP3 SUB PUSH2 0xB08 JUMPI PUSH2 0xB07 PUSH2 0xA9F JUMP JUMPDEST JUMPDEST PUSH1 0x1 DUP3 ADD SWAP1 POP SWAP2 SWAP1 POP JUMP JUMPDEST PUSH32 0x50686169206C61206B6520746F616E0000000000000000000000000000000000 PUSH0 DUP3 ADD MSTORE POP JUMP JUMPDEST PUSH0 PUSH2 0xB47 PUSH1 0xF DUP4 PUSH2 0x5D2 JUMP JUMPDEST SWAP2 POP PUSH2 0xB52 DUP3 PUSH2 0xB13 JUMP JUMPDEST PUSH1 0x20 DUP3 ADD SWAP1 POP SWAP2 SWAP1 POP JUMP JUMPDEST PUSH0 PUSH1 0x20 DUP3 ADD SWAP1 POP DUP2 DUP2 SUB PUSH0 DUP4 ADD MSTORE PUSH2 0xB74 DUP2 PUSH2 0xB3B JUMP JUMPDEST SWAP1 POP SWAP2 SWAP1 POP JUMP JUMPDEST PUSH0 DUP2 SWAP1 POP DUP2 PUSH0 MSTORE PUSH1 0x20 PUSH0 KECCAK256 SWAP1 POP SWAP2 SWAP1 POP JUMP JUMPDEST PUSH0 PUSH1 0x20 PUSH1 0x1F DUP4 ADD DIV SWAP1 POP SWAP2 SWAP1 POP JUMP JUMPDEST PUSH0 DUP3 DUP3 SHL SWAP1 POP SWAP3 SWAP2 POP POP JUMP JUMPDEST PUSH0 PUSH1 0x8 DUP4 MUL PUSH2 0xBD7 PUSH32 0xFFFFFFFFFFFFFFFFFFFFFFFFFFFFFFFFFFFFFFFFFFFFFFFFFFFFFFFFFFFFFFFF DUP3 PUSH2 0xB9C JUMP JUMPDEST PUSH2 0xBE1 DUP7 DUP4 PUSH2 0xB9C JUMP JUMPDEST SWAP6 POP DUP1 NOT DUP5 AND SWAP4 POP DUP1 DUP7 AND DUP5 OR SWAP3 POP POP POP SWAP4 SWAP3 POP POP POP JUMP JUMPDEST PUSH0 DUP2 SWAP1 POP SWAP2 SWAP1 POP JUMP JUMPDEST PUSH0 PUSH2 0xC1C PUSH2 0xC17 PUSH2 0xC12 DUP5 PUSH2 0x55B JUMP JUMPDEST PUSH2 0xBF9 JUMP JUMPDEST PUSH2 0x55B JUMP JUMPDEST SWAP1 POP SWAP2 SWAP1 POP JUMP JUMPDEST PUSH0 DUP2 SWAP1 POP SWAP2 SWAP1 POP JUMP JUMPDEST PUSH2 0xC35 DUP4 PUSH2 0xC02 JUMP JUMPDEST PUSH2 0xC49 PUSH2 0xC41 DUP3 PUSH2 0xC23 JUMP JUMPDEST DUP5 DUP5 SLOAD PUSH2 0xBA8 JUMP JUMPDEST DUP3 SSTORE POP POP POP POP JUMP JUMPDEST PUSH0 SWAP1 JUMP JUMPDEST PUSH2 0xC5D PUSH2 0xC51 JUMP JUMPDEST PUSH2 0xC68 DUP2 DUP5 DUP5 PUSH2 0xC2C JUMP JUMPDEST POP POP POP JUMP JUMPDEST JUMPDEST DUP2 DUP2 LT ISZERO PUSH2 0xC8B JUMPI PUSH2 0xC80 PUSH0 DUP3 PUSH2 0xC55 JUMP JUMPDEST PUSH1 0x1 DUP2 ADD SWAP1 POP PUSH2 0xC6E JUMP JUMPDEST POP POP JUMP JUMPDEST PUSH1 0x1F DUP3 GT ISZERO PUSH2 0xCD0 JUMPI PUSH2 0xCA1 DUP2 PUSH2 0xB7B JUMP JUMPDEST PUSH2 0xCAA DUP5 PUSH2 0xB8D JUMP JUMPDEST DUP2 ADD PUSH1 0x20 DUP6 LT ISZERO PUSH2 0xCB9 JUMPI DUP2 SWAP1 POP JUMPDEST PUSH2 0xCCD PUSH2 0xCC5 DUP6 PUSH2 0xB8D JUMP JUMPDEST DUP4 ADD DUP3 PUSH2 0xC6D JUMP JUMPDEST POP POP JUMPDEST POP POP POP JUMP JUMPDEST PUSH0 DUP3 DUP3 SHR SWAP1 POP SWAP3 SWAP2 POP POP JUMP JUMPDEST PUSH0 PUSH2 0xCF0 PUSH0 NOT DUP5 PUSH1 0x8 MUL PUSH2 0xCD5 JUMP JUMPDEST NOT DUP1 DUP4 AND SWAP2 POP POP SWAP3 SWAP2 POP POP JUMP JUMPDEST PUSH0 PUSH2 0xD08 DUP4 DUP4 PUSH2 0xCE1 JUMP JUMPDEST SWAP2 POP DUP3 PUSH1 0x2 MUL DUP3 OR SWAP1 POP SWAP3 SWAP2 POP POP JUMP JUMPDEST PUSH2 0xD21 DUP3 PUSH2 0x5C8 JUMP JUMPDEST PUSH8 0xFFFFFFFFFFFFFFFF DUP2 GT ISZERO PUSH2 0xD3A JUMPI PUSH2 0xD39 PUSH2 0x7A0 JUMP JUMPDEST JUMPDEST PUSH2 0xD44 DUP3 SLOAD PUSH2 0x9DA JUMP JUMPDEST PUSH2 0xD4F DUP3 DUP3 DUP6 PUSH2 0xC8F JUMP JUMPDEST PUSH0 PUSH1 0x20 SWAP1 POP PUSH1 0x1F DUP4 GT PUSH1 0x1 DUP2 EQ PUSH2 0xD80 JUMPI PUSH0 DUP5 ISZERO PUSH2 0xD6E JUMPI DUP3 DUP8 ADD MLOAD SWAP1 POP JUMPDEST PUSH2 0xD78 DUP6 DUP3 PUSH2 0xCFD JUMP JUMPDEST DUP7 SSTORE POP PUSH2 0xDDF JUMP JUMPDEST PUSH1 0x1F NOT DUP5 AND PUSH2 0xD8E DUP7 PUSH2 0xB7B JUMP JUMPDEST PUSH0 JUMPDEST DUP3 DUP2 LT ISZERO PUSH2 0xDB5 JUMPI DUP5 DUP10 ADD MLOAD DUP3 SSTORE PUSH1 0x1 DUP3 ADD SWAP2 POP PUSH1 0x20 DUP6 ADD SWAP5 POP PUSH1 0x20 DUP2 ADD SWAP1 POP PUSH2 0xD90 JUMP JUMPDEST DUP7 DUP4 LT ISZERO PUSH2 0xDD2 JUMPI DUP5 DUP10 ADD MLOAD PUSH2 0xDCE PUSH1 0x1F DUP10 AND DUP3 PUSH2 0xCE1 JUMP JUMPDEST DUP4 SSTORE POP JUMPDEST PUSH1 0x1 PUSH1 0x2 DUP9 MUL ADD DUP9 SSTORE POP POP POP JUMPDEST POP POP POP POP POP POP JUMP INVALID LOG2 PUSH5 0x6970667358 0x22 SLT KECCAK256 0xB0 0xEE DUP1 PUSH4 0x3AB065D9 0xC5 0xE7 0xCD CREATE2 0xB8 PUSH32 0xF315FA0C0EAE8C0AFEDAFE156B57D9EF240E64736F6C63430008150033000000 "
		},
		"gasEstimates": {
			"creation": {
				"codeDepositCost": "722600",
				"executionCost": "25016",
				"totalCost": "747616"
			},
			"external": {
				"layGiaoDich(uint256)": "infinite",
				"quanLy()": "2505",
				"themGiaoDich(uint256,uint256,uint256,string,uint256,uint256,string,uint256)": "infinite",
				"themKeToan(address)": "51213"
			}
		},
		"methodIdentifiers": {
			"layGiaoDich(uint256)": "592130a5",
			"quanLy()": "8a66deb6",
			"themGiaoDich(uint256,uint256,uint256,string,uint256,uint256,string,uint256)": "eddb4542",
			"themKeToan(address)": "8cc151e8"
		}
	},
	"abi": [
		{
			"inputs": [],
			"stateMutability": "nonpayable",
			"type": "constructor"
		},
		{
			"inputs": [
				{
					"internalType": "uint256",
					"name": "id",
					"type": "uint256"
				}
			],
			"name": "layGiaoDich",
			"outputs": [
				{
					"internalType": "uint256",
					"name": "",
					"type": "uint256"
				},
				{
					"internalType": "uint256",
					"name": "",
					"type": "uint256"
				},
				{
					"internalType": "uint256",
					"name": "",
					"type": "uint256"
				},
				{
					"internalType": "uint256",
					"name": "",
					"type": "uint256"
				},
				{
					"internalType": "string",
					"name": "",
					"type": "string"
				},
				{
					"internalType": "uint256",
					"name": "",
					"type": "uint256"
				},
				{
					"internalType": "uint256",
					"name": "",
					"type": "uint256"
				},
				{
					"internalType": "string",
					"name": "",
					"type": "string"
				},
				{
					"internalType": "address",
					"name": "",
					"type": "address"
				}
			],
			"stateMutability": "view",
			"type": "function"
		},
		{
			"inputs": [],
			"name": "quanLy",
			"outputs": [
				{
					"internalType": "address",
					"name": "",
					"type": "address"
				}
			],
			"stateMutability": "view",
			"type": "function"
		},
		{
			"inputs": [
				{
					"internalType": "uint256",
					"name": "day",
					"type": "uint256"
				},
				{
					"internalType": "uint256",
					"name": "month",
					"type": "uint256"
				},
				{
					"internalType": "uint256",
					"name": "year",
					"type": "uint256"
				},
				{
					"internalType": "string",
					"name": "moTa",
					"type": "string"
				},
				{
					"internalType": "uint256",
					"name": "no",
					"type": "uint256"
				},
				{
					"internalType": "uint256",
					"name": "co",
					"type": "uint256"
				},
				{
					"internalType": "string",
					"name": "ghiChu",
					"type": "string"
				},
				{
					"internalType": "uint256",
					"name": "id",
					"type": "uint256"
				}
			],
			"name": "themGiaoDich",
			"outputs": [],
			"stateMutability": "nonpayable",
			"type": "function"
		},
		{
			"inputs": [
				{
					"internalType": "address",
					"name": "newKeToan",
					"type": "address"
				}
			],
			"name": "themKeToan",
			"outputs": [],
			"stateMutability": "nonpayable",
			"type": "function"
		}
	]
}