{
	"contract/HoaDon.sol": {
		"DanhSachBaoCaoTaiChinh": {
			"abi": [
				{
					"inputs": [
						{
							"internalType": "uint256",
							"name": "year",
							"type": "uint256"
						},
						{
							"internalType": "uint256",
							"name": "month",
							"type": "uint256"
						}
					],
					"name": "layBaoCao",
					"outputs": [
						{
							"internalType": "uint256",
							"name": "",
							"type": "uint256"
						},
						{
							"internalType": "uint256",
							"name": "",
							"type": "uint256"
						},
						{
							"internalType": "uint256",
							"name": "",
							"type": "uint256"
						},
						{
							"internalType": "uint256",
							"name": "",
							"type": "uint256"
						},
						{
							"internalType": "uint256",
							"name": "",
							"type": "uint256"
						},
						{
							"internalType": "uint256",
							"name": "",
							"type": "uint256"
						}
					],
					"stateMutability": "view",
					"type": "function"
				},
				{
					"inputs": [],
					"name": "themBaoCao",
					"outputs": [],
					"stateMutability": "nonpayable",
					"type": "function"
				},
				{
					"inputs": [
						{
							"internalType": "address",
							"name": "newKeToan",
							"type": "address"
						}
					],
					"name": "themKeToan",
					"outputs": [],
					"stateMutability": "nonpayable",
					"type": "function"
				}
			],
			"devdoc": {
				"kind": "dev",
				"methods": {},
				"version": 1
			},
			"evm": {
				"assembly": "    /* \"contract/HoaDon.sol\":945:4156  contract DanhSachBaoCaoTaiChinh {... */\n  mstore(0x40, 0x80)\n  callvalue\n  dup1\n  iszero\n  tag_1\n  jumpi\n  0x00\n  dup1\n  revert\ntag_1:\n  pop\n  dataSize(sub_0)\n  dup1\n  dataOffset(sub_0)\n  0x00\n  codecopy\n  0x00\n  return\nstop\n\nsub_0: assembly {\n        /* \"contract/HoaDon.sol\":945:4156  contract DanhSachBaoCaoTaiChinh {... */\n      mstore(0x40, 0x80)\n      callvalue\n      dup1\n      iszero\n      tag_1\n      jumpi\n      0x00\n      dup1\n      revert\n    tag_1:\n      pop\n      jumpi(tag_2, lt(calldatasize, 0x04))\n      shr(0xe0, calldataload(0x00))\n      dup1\n      0x84178c2d\n      eq\n      tag_3\n      jumpi\n      dup1\n      0x8cc151e8\n      eq\n      tag_4\n      jumpi\n      dup1\n      0xf846a677\n      eq\n      tag_5\n      jumpi\n    tag_2:\n      0x00\n      dup1\n      revert\n        /* \"contract/HoaDon.sol\":1571:1872  function themBaoCao() external chiQuanLy() {... */\n    tag_3:\n      tag_6\n      tag_7\n      jump\t// in\n    tag_6:\n      stop\n        /* \"contract/HoaDon.sol\":1465:1563  function themKeToan(address newKeToan) external chiQuanLy{... */\n    tag_4:\n      tag_8\n      0x04\n      dup1\n      calldatasize\n      sub\n      dup2\n      add\n      swap1\n      tag_9\n      swap2\n      swap1\n      tag_10\n      jump\t// in\n    tag_9:\n      tag_11\n      jump\t// in\n    tag_8:\n      stop\n        /* \"contract/HoaDon.sol\":1880:4153  function layBaoCao(uint year, uint month) external view returns (uint, uint, uint, uint, uint, uint) {... */\n    tag_5:\n      tag_12\n      0x04\n      dup1\n      calldatasize\n      sub\n      dup2\n      add\n      swap1\n      tag_13\n      swap2\n      swap1\n      tag_14\n      jump\t// in\n    tag_13:\n      tag_15\n      jump\t// in\n    tag_12:\n      mload(0x40)\n      tag_16\n      swap7\n      swap6\n      swap5\n      swap4\n      swap3\n      swap2\n      swap1\n      tag_17\n      jump\t// in\n    tag_16:\n      mload(0x40)\n      dup1\n      swap2\n      sub\n      swap1\n      return\n        /* \"contract/HoaDon.sol\":1571:1872  function themBaoCao() external chiQuanLy() {... */\n    tag_7:\n        /* \"contract/HoaDon.sol\":1162:1168  quanLy */\n      0x00\n      dup1\n      sload\n      swap1\n      0x0100\n      exp\n      swap1\n      div\n      0xffffffffffffffffffffffffffffffffffffffff\n      and\n        /* \"contract/HoaDon.sol\":1148:1168  msg.sender == quanLy */\n      0xffffffffffffffffffffffffffffffffffffffff\n      and\n        /* \"contract/HoaDon.sol\":1148:1158  msg.sender */\n      caller\n        /* \"contract/HoaDon.sol\":1148:1168  msg.sender == quanLy */\n      0xffffffffffffffffffffffffffffffffffffffff\n      and\n      eq\n        /* \"contract/HoaDon.sol\":1140:1188  require(msg.sender == quanLy, \"Phai la quan ly\") */\n      tag_19\n      jumpi\n      mload(0x40)\n      0x08c379a000000000000000000000000000000000000000000000000000000000\n      dup2\n      mstore\n      0x04\n      add\n      tag_20\n      swap1\n      tag_21\n      jump\t// in\n    tag_20:\n      mload(0x40)\n      dup1\n      swap2\n      sub\n      swap1\n      revert\n    tag_19:\n        /* \"contract/HoaDon.sol\":1625:1634  uint year */\n      0x00\n        /* \"contract/HoaDon.sol\":1668:1672  1970 */\n      0x07b2\n        /* \"contract/HoaDon.sol\":1656:1664  31557600 */\n      0x01e187e0\n        /* \"contract/HoaDon.sol\":1638:1653  block.timestamp */\n      timestamp\n        /* \"contract/HoaDon.sol\":1638:1664  block.timestamp / 31557600 */\n      tag_23\n      swap2\n      swap1\n      tag_24\n      jump\t// in\n    tag_23:\n        /* \"contract/HoaDon.sol\":1637:1672  (block.timestamp / 31557600) + 1970 */\n      tag_25\n      swap2\n      swap1\n      tag_26\n      jump\t// in\n    tag_25:\n        /* \"contract/HoaDon.sol\":1625:1672  uint year = (block.timestamp / 31557600) + 1970 */\n      swap1\n      pop\n        /* \"contract/HoaDon.sol\":1683:1693  uint month */\n      0x00\n        /* \"contract/HoaDon.sol\":1731:1732  1 */\n      0x01\n        /* \"contract/HoaDon.sol\":1726:1728  12 */\n      0x0c\n        /* \"contract/HoaDon.sol\":1715:1722  2629800 */\n      0x2820a8\n        /* \"contract/HoaDon.sol\":1697:1712  block.timestamp */\n      timestamp\n        /* \"contract/HoaDon.sol\":1697:1722  block.timestamp / 2629800 */\n      tag_27\n      swap2\n      swap1\n      tag_24\n      jump\t// in\n    tag_27:\n        /* \"contract/HoaDon.sol\":1696:1728  (block.timestamp / 2629800) % 12 */\n      tag_28\n      swap2\n      swap1\n      tag_29\n      jump\t// in\n    tag_28:\n        /* \"contract/HoaDon.sol\":1696:1732  (block.timestamp / 2629800) % 12 + 1 */\n      tag_30\n      swap2\n      swap1\n      tag_26\n      jump\t// in\n    tag_30:\n        /* \"contract/HoaDon.sol\":1683:1732  uint month = (block.timestamp / 2629800) % 12 + 1 */\n      swap1\n      pop\n        /* \"contract/HoaDon.sol\":1743:1750  uint id */\n      0x00\n        /* \"contract/HoaDon.sol\":1765:1770  month */\n      dup2\n        /* \"contract/HoaDon.sol\":1760:1762  12 */\n      0x0c\n        /* \"contract/HoaDon.sol\":1753:1757  year */\n      dup5\n        /* \"contract/HoaDon.sol\":1753:1762  year * 12 */\n      tag_31\n      swap2\n      swap1\n      tag_32\n      jump\t// in\n    tag_31:\n        /* \"contract/HoaDon.sol\":1753:1770  year * 12 + month */\n      tag_33\n      swap2\n      swap1\n      tag_26\n      jump\t// in\n    tag_33:\n        /* \"contract/HoaDon.sol\":1743:1770  uint id = year * 12 + month */\n      swap1\n      pop\n        /* \"contract/HoaDon.sol\":1781:1813  BaoCaoTaiChinh storage baoCaoMoi */\n      0x00\n        /* \"contract/HoaDon.sol\":1816:1828  danhSachBCTC */\n      0x03\n        /* \"contract/HoaDon.sol\":1816:1832  danhSachBCTC[id] */\n      0x00\n        /* \"contract/HoaDon.sol\":1829:1831  id */\n      dup4\n        /* \"contract/HoaDon.sol\":1816:1832  danhSachBCTC[id] */\n      dup2\n      mstore\n      0x20\n      add\n      swap1\n      dup2\n      mstore\n      0x20\n      add\n      0x00\n      keccak256\n        /* \"contract/HoaDon.sol\":1781:1832  BaoCaoTaiChinh storage baoCaoMoi = danhSachBCTC[id] */\n      swap1\n      pop\n        /* \"contract/HoaDon.sol\":1863:1864  1 */\n      0x01\n        /* \"contract/HoaDon.sol\":1843:1852  baoCaoMoi */\n      dup2\n        /* \"contract/HoaDon.sol\":1843:1860  baoCaoMoi.notNull */\n      0x1f\n      add\n      0x00\n        /* \"contract/HoaDon.sol\":1843:1864  baoCaoMoi.notNull = 1 */\n      0x0100\n      exp\n      dup2\n      sload\n      dup2\n      0xff\n      mul\n      not\n      and\n      swap1\n      dup4\n      0xff\n      and\n      mul\n      or\n      swap1\n      sstore\n      pop\n        /* \"contract/HoaDon.sol\":1614:1872  {... */\n      pop\n      pop\n      pop\n      pop\n        /* \"contract/HoaDon.sol\":1571:1872  function themBaoCao() external chiQuanLy() {... */\n      jump\t// out\n        /* \"contract/HoaDon.sol\":1465:1563  function themKeToan(address newKeToan) external chiQuanLy{... */\n    tag_11:\n        /* \"contract/HoaDon.sol\":1162:1168  quanLy */\n      0x00\n      dup1\n      sload\n      swap1\n      0x0100\n      exp\n      swap1\n      div\n      0xffffffffffffffffffffffffffffffffffffffff\n      and\n        /* \"contract/HoaDon.sol\":1148:1168  msg.sender == quanLy */\n      0xffffffffffffffffffffffffffffffffffffffff\n      and\n        /* \"contract/HoaDon.sol\":1148:1158  msg.sender */\n      caller\n        /* \"contract/HoaDon.sol\":1148:1168  msg.sender == quanLy */\n      0xffffffffffffffffffffffffffffffffffffffff\n      and\n      eq\n        /* \"contract/HoaDon.sol\":1140:1188  require(msg.sender == quanLy, \"Phai la quan ly\") */\n      tag_35\n      jumpi\n      mload(0x40)\n      0x08c379a000000000000000000000000000000000000000000000000000000000\n      dup2\n      mstore\n      0x04\n      add\n      tag_36\n      swap1\n      tag_21\n      jump\t// in\n    tag_36:\n      mload(0x40)\n      dup1\n      swap2\n      sub\n      swap1\n      revert\n    tag_35:\n        /* \"contract/HoaDon.sol\":1533:1539  keToan */\n      0x01\n        /* \"contract/HoaDon.sol\":1545:1554  newKeToan */\n      dup2\n        /* \"contract/HoaDon.sol\":1533:1555  keToan.push(newKeToan) */\n      swap1\n      dup1\n      0x01\n      dup2\n      sload\n      add\n      dup1\n      dup3\n      sstore\n      dup1\n      swap2\n      pop\n      pop\n      0x01\n      swap1\n      sub\n      swap1\n      0x00\n      mstore\n      keccak256(0x00, 0x20)\n      add\n      0x00\n      swap1\n      swap2\n      swap1\n      swap2\n      swap1\n      swap2\n      0x0100\n      exp\n      dup2\n      sload\n      dup2\n      0xffffffffffffffffffffffffffffffffffffffff\n      mul\n      not\n      and\n      swap1\n      dup4\n      0xffffffffffffffffffffffffffffffffffffffff\n      and\n      mul\n      or\n      swap1\n      sstore\n      pop\n        /* \"contract/HoaDon.sol\":1465:1563  function themKeToan(address newKeToan) external chiQuanLy{... */\n      pop\n      jump\t// out\n        /* \"contract/HoaDon.sol\":1880:4153  function layBaoCao(uint year, uint month) external view returns (uint, uint, uint, uint, uint, uint) {... */\n    tag_15:\n        /* \"contract/HoaDon.sol\":1945:1949  uint */\n      0x00\n        /* \"contract/HoaDon.sol\":1951:1955  uint */\n      dup1\n        /* \"contract/HoaDon.sol\":1957:1961  uint */\n      0x00\n        /* \"contract/HoaDon.sol\":1963:1967  uint */\n      dup1\n        /* \"contract/HoaDon.sol\":1969:1973  uint */\n      0x00\n        /* \"contract/HoaDon.sol\":1975:1979  uint */\n      dup1\n        /* \"contract/HoaDon.sol\":1992:1999  uint id */\n      0x00\n        /* \"contract/HoaDon.sol\":2014:2019  month */\n      dup8\n        /* \"contract/HoaDon.sol\":2009:2011  12 */\n      0x0c\n        /* \"contract/HoaDon.sol\":2002:2006  year */\n      dup11\n        /* \"contract/HoaDon.sol\":2002:2011  year * 12 */\n      tag_40\n      swap2\n      swap1\n      tag_32\n      jump\t// in\n    tag_40:\n        /* \"contract/HoaDon.sol\":2002:2019  year * 12 + month */\n      tag_41\n      swap2\n      swap1\n      tag_26\n      jump\t// in\n    tag_41:\n        /* \"contract/HoaDon.sol\":1992:2019  uint id = year * 12 + month */\n      swap1\n      pop\n        /* \"contract/HoaDon.sol\":2030:2057  BaoCaoTaiChinh storage temp */\n      0x00\n        /* \"contract/HoaDon.sol\":2060:2072  danhSachBCTC */\n      0x03\n        /* \"contract/HoaDon.sol\":2060:2076  danhSachBCTC[id] */\n      0x00\n        /* \"contract/HoaDon.sol\":2073:2075  id */\n      dup4\n        /* \"contract/HoaDon.sol\":2060:2076  danhSachBCTC[id] */\n      dup2\n      mstore\n      0x20\n      add\n      swap1\n      dup2\n      mstore\n      0x20\n      add\n      0x00\n      keccak256\n        /* \"contract/HoaDon.sol\":2030:2076  BaoCaoTaiChinh storage temp = danhSachBCTC[id] */\n      swap1\n      pop\n        /* \"contract/HoaDon.sol\":2087:2105  uint nganHanDauNam */\n      0x00\n        /* \"contract/HoaDon.sol\":2328:2332  temp */\n      dup2\n        /* \"contract/HoaDon.sol\":2328:2346  temp.taiSanNganHan */\n      0x00\n      add\n        /* \"contract/HoaDon.sol\":2328:2365  temp.taiSanNganHan.TaiSanNganHangKhac */\n      0x08\n      add\n        /* \"contract/HoaDon.sol\":2366:2367  0 */\n      0x00\n        /* \"contract/HoaDon.sol\":2328:2368  temp.taiSanNganHan.TaiSanNganHangKhac[0] */\n      0x02\n      dup2\n      lt\n      tag_42\n      jumpi\n      tag_43\n      tag_44\n      jump\t// in\n    tag_43:\n    tag_42:\n      add\n      sload\n        /* \"contract/HoaDon.sol\":2258:2262  temp */\n      dup3\n        /* \"contract/HoaDon.sol\":2258:2276  temp.taiSanNganHan */\n      0x00\n      add\n        /* \"contract/HoaDon.sol\":2258:2293  temp.taiSanNganHan.HangTonKhoDauNam */\n      0x06\n      add\n        /* \"contract/HoaDon.sol\":2294:2295  0 */\n      0x00\n        /* \"contract/HoaDon.sol\":2258:2296  temp.taiSanNganHan.HangTonKhoDauNam[0] */\n      0x02\n      dup2\n      lt\n      tag_46\n      jumpi\n      tag_47\n      tag_44\n      jump\t// in\n    tag_47:\n    tag_46:\n      add\n      sload\n        /* \"contract/HoaDon.sol\":2219:2223  temp */\n      dup4\n        /* \"contract/HoaDon.sol\":2219:2237  temp.taiSanNganHan */\n      0x00\n      add\n        /* \"contract/HoaDon.sol\":2219:2252  temp.taiSanNganHan.PhaiThuNganHan */\n      0x04\n      add\n        /* \"contract/HoaDon.sol\":2253:2254  0 */\n      0x00\n        /* \"contract/HoaDon.sol\":2219:2255  temp.taiSanNganHan.PhaiThuNganHan[0] */\n      0x02\n      dup2\n      lt\n      tag_49\n      jumpi\n      tag_50\n      tag_44\n      jump\t// in\n    tag_50:\n    tag_49:\n      add\n      sload\n        /* \"contract/HoaDon.sol\":2152:2156  temp */\n      dup5\n        /* \"contract/HoaDon.sol\":2152:2170  temp.taiSanNganHan */\n      0x00\n      add\n        /* \"contract/HoaDon.sol\":2152:2184  temp.taiSanNganHan.DauTuTaiChinh */\n      0x02\n      add\n        /* \"contract/HoaDon.sol\":2185:2186  0 */\n      0x00\n        /* \"contract/HoaDon.sol\":2152:2187  temp.taiSanNganHan.DauTuTaiChinh[0] */\n      0x02\n      dup2\n      lt\n      tag_52\n      jumpi\n      tag_53\n      tag_44\n      jump\t// in\n    tag_53:\n    tag_52:\n      add\n      sload\n        /* \"contract/HoaDon.sol\":2108:2112  temp */\n      dup6\n        /* \"contract/HoaDon.sol\":2108:2126  temp.taiSanNganHan */\n      0x00\n      add\n        /* \"contract/HoaDon.sol\":2108:2146  temp.taiSanNganHan.TienMatVaTuongDuong */\n      0x00\n      add\n        /* \"contract/HoaDon.sol\":2147:2148  0 */\n      0x00\n        /* \"contract/HoaDon.sol\":2108:2149  temp.taiSanNganHan.TienMatVaTuongDuong[0] */\n      0x02\n      dup2\n      lt\n      tag_55\n      jumpi\n      tag_56\n      tag_44\n      jump\t// in\n    tag_56:\n    tag_55:\n      add\n      sload\n        /* \"contract/HoaDon.sol\":2108:2187  temp.taiSanNganHan.TienMatVaTuongDuong[0] + temp.taiSanNganHan.DauTuTaiChinh[0] */\n      tag_58\n      swap2\n      swap1\n      tag_26\n      jump\t// in\n    tag_58:\n        /* \"contract/HoaDon.sol\":2108:2255  temp.taiSanNganHan.TienMatVaTuongDuong[0] + temp.taiSanNganHan.DauTuTaiChinh[0]... */\n      tag_59\n      swap2\n      swap1\n      tag_26\n      jump\t// in\n    tag_59:\n        /* \"contract/HoaDon.sol\":2108:2296  temp.taiSanNganHan.TienMatVaTuongDuong[0] + temp.taiSanNganHan.DauTuTaiChinh[0]... */\n      tag_60\n      swap2\n      swap1\n      tag_26\n      jump\t// in\n    tag_60:\n        /* \"contract/HoaDon.sol\":2108:2368  temp.taiSanNganHan.TienMatVaTuongDuong[0] + temp.taiSanNganHan.DauTuTaiChinh[0]... */\n      tag_61\n      swap2\n      swap1\n      tag_26\n      jump\t// in\n    tag_61:\n        /* \"contract/HoaDon.sol\":2087:2368  uint nganHanDauNam = temp.taiSanNganHan.TienMatVaTuongDuong[0] + temp.taiSanNganHan.DauTuTaiChinh[0]... */\n      swap1\n      pop\n        /* \"contract/HoaDon.sol\":2389:2408  uint nganHanCuoiNam */\n      0x00\n        /* \"contract/HoaDon.sol\":2631:2635  temp */\n      dup3\n        /* \"contract/HoaDon.sol\":2631:2649  temp.taiSanNganHan */\n      0x00\n      add\n        /* \"contract/HoaDon.sol\":2631:2668  temp.taiSanNganHan.TaiSanNganHangKhac */\n      0x08\n      add\n        /* \"contract/HoaDon.sol\":2669:2670  1 */\n      0x01\n        /* \"contract/HoaDon.sol\":2631:2671  temp.taiSanNganHan.TaiSanNganHangKhac[1] */\n      0x02\n      dup2\n      lt\n      tag_62\n      jumpi\n      tag_63\n      tag_44\n      jump\t// in\n    tag_63:\n    tag_62:\n      add\n      sload\n        /* \"contract/HoaDon.sol\":2561:2565  temp */\n      dup4\n        /* \"contract/HoaDon.sol\":2561:2579  temp.taiSanNganHan */\n      0x00\n      add\n        /* \"contract/HoaDon.sol\":2561:2596  temp.taiSanNganHan.HangTonKhoDauNam */\n      0x06\n      add\n        /* \"contract/HoaDon.sol\":2597:2598  1 */\n      0x01\n        /* \"contract/HoaDon.sol\":2561:2599  temp.taiSanNganHan.HangTonKhoDauNam[1] */\n      0x02\n      dup2\n      lt\n      tag_65\n      jumpi\n      tag_66\n      tag_44\n      jump\t// in\n    tag_66:\n    tag_65:\n      add\n      sload\n        /* \"contract/HoaDon.sol\":2522:2526  temp */\n      dup5\n        /* \"contract/HoaDon.sol\":2522:2540  temp.taiSanNganHan */\n      0x00\n      add\n        /* \"contract/HoaDon.sol\":2522:2555  temp.taiSanNganHan.PhaiThuNganHan */\n      0x04\n      add\n        /* \"contract/HoaDon.sol\":2556:2557  1 */\n      0x01\n        /* \"contract/HoaDon.sol\":2522:2558  temp.taiSanNganHan.PhaiThuNganHan[1] */\n      0x02\n      dup2\n      lt\n      tag_68\n      jumpi\n      tag_69\n      tag_44\n      jump\t// in\n    tag_69:\n    tag_68:\n      add\n      sload\n        /* \"contract/HoaDon.sol\":2455:2459  temp */\n      dup6\n        /* \"contract/HoaDon.sol\":2455:2473  temp.taiSanNganHan */\n      0x00\n      add\n        /* \"contract/HoaDon.sol\":2455:2487  temp.taiSanNganHan.DauTuTaiChinh */\n      0x02\n      add\n        /* \"contract/HoaDon.sol\":2488:2489  1 */\n      0x01\n        /* \"contract/HoaDon.sol\":2455:2490  temp.taiSanNganHan.DauTuTaiChinh[1] */\n      0x02\n      dup2\n      lt\n      tag_71\n      jumpi\n      tag_72\n      tag_44\n      jump\t// in\n    tag_72:\n    tag_71:\n      add\n      sload\n        /* \"contract/HoaDon.sol\":2411:2415  temp */\n      dup7\n        /* \"contract/HoaDon.sol\":2411:2429  temp.taiSanNganHan */\n      0x00\n      add\n        /* \"contract/HoaDon.sol\":2411:2449  temp.taiSanNganHan.TienMatVaTuongDuong */\n      0x00\n      add\n        /* \"contract/HoaDon.sol\":2450:2451  1 */\n      0x01\n        /* \"contract/HoaDon.sol\":2411:2452  temp.taiSanNganHan.TienMatVaTuongDuong[1] */\n      0x02\n      dup2\n      lt\n      tag_74\n      jumpi\n      tag_75\n      tag_44\n      jump\t// in\n    tag_75:\n    tag_74:\n      add\n      sload\n        /* \"contract/HoaDon.sol\":2411:2490  temp.taiSanNganHan.TienMatVaTuongDuong[1] + temp.taiSanNganHan.DauTuTaiChinh[1] */\n      tag_77\n      swap2\n      swap1\n      tag_26\n      jump\t// in\n    tag_77:\n        /* \"contract/HoaDon.sol\":2411:2558  temp.taiSanNganHan.TienMatVaTuongDuong[1] + temp.taiSanNganHan.DauTuTaiChinh[1]... */\n      tag_78\n      swap2\n      swap1\n      tag_26\n      jump\t// in\n    tag_78:\n        /* \"contract/HoaDon.sol\":2411:2599  temp.taiSanNganHan.TienMatVaTuongDuong[1] + temp.taiSanNganHan.DauTuTaiChinh[1]... */\n      tag_79\n      swap2\n      swap1\n      tag_26\n      jump\t// in\n    tag_79:\n        /* \"contract/HoaDon.sol\":2411:2671  temp.taiSanNganHan.TienMatVaTuongDuong[1] + temp.taiSanNganHan.DauTuTaiChinh[1]... */\n      tag_80\n      swap2\n      swap1\n      tag_26\n      jump\t// in\n    tag_80:\n        /* \"contract/HoaDon.sol\":2389:2671  uint nganHanCuoiNam = temp.taiSanNganHan.TienMatVaTuongDuong[1] + temp.taiSanNganHan.DauTuTaiChinh[1]... */\n      swap1\n      pop\n        /* \"contract/HoaDon.sol\":2898:2915  uint daiHanDauNam */\n      0x00\n        /* \"contract/HoaDon.sol\":3140:3144  temp */\n      dup4\n        /* \"contract/HoaDon.sol\":3140:3157  temp.taiSanDaiHan */\n      0x0a\n      add\n        /* \"contract/HoaDon.sol\":3140:3174  temp.taiSanDaiHan.TaiSanDaiHanKhac */\n      0x08\n      add\n        /* \"contract/HoaDon.sol\":3175:3176  0 */\n      0x00\n        /* \"contract/HoaDon.sol\":3140:3177  temp.taiSanDaiHan.TaiSanDaiHanKhac[0] */\n      0x02\n      dup2\n      lt\n      tag_81\n      jumpi\n      tag_82\n      tag_44\n      jump\t// in\n    tag_82:\n    tag_81:\n      add\n      sload\n        /* \"contract/HoaDon.sol\":3064:3068  temp */\n      dup5\n        /* \"contract/HoaDon.sol\":3064:3081  temp.taiSanDaiHan */\n      0x0a\n      add\n        /* \"contract/HoaDon.sol\":3064:3100  temp.taiSanDaiHan.TaiSanDoDangDaiHan */\n      0x06\n      add\n        /* \"contract/HoaDon.sol\":3101:3102  0 */\n      0x00\n        /* \"contract/HoaDon.sol\":3064:3103  temp.taiSanDaiHan.TaiSanDoDangDaiHan[0] */\n      0x02\n      dup2\n      lt\n      tag_84\n      jumpi\n      tag_85\n      tag_44\n      jump\t// in\n    tag_85:\n    tag_84:\n      add\n      sload\n        /* \"contract/HoaDon.sol\":3025:3029  temp */\n      dup6\n        /* \"contract/HoaDon.sol\":3025:3042  temp.taiSanDaiHan */\n      0x0a\n      add\n        /* \"contract/HoaDon.sol\":3025:3058  temp.taiSanDaiHan.BatDongSanDauTu */\n      0x04\n      add\n        /* \"contract/HoaDon.sol\":3059:3060  0 */\n      0x00\n        /* \"contract/HoaDon.sol\":3025:3061  temp.taiSanDaiHan.BatDongSanDauTu[0] */\n      0x02\n      dup2\n      lt\n      tag_87\n      jumpi\n      tag_88\n      tag_44\n      jump\t// in\n    tag_88:\n    tag_87:\n      add\n      sload\n        /* \"contract/HoaDon.sol\":2955:2959  temp */\n      dup7\n        /* \"contract/HoaDon.sol\":2955:2972  temp.taiSanDaiHan */\n      0x0a\n      add\n        /* \"contract/HoaDon.sol\":2955:2985  temp.taiSanDaiHan.TaiSanCoDinh */\n      0x02\n      add\n        /* \"contract/HoaDon.sol\":2986:2987  0 */\n      0x00\n        /* \"contract/HoaDon.sol\":2955:2988  temp.taiSanDaiHan.TaiSanCoDinh[0] */\n      0x02\n      dup2\n      lt\n      tag_90\n      jumpi\n      tag_91\n      tag_44\n      jump\t// in\n    tag_91:\n    tag_90:\n      add\n      sload\n        /* \"contract/HoaDon.sol\":2918:2922  temp */\n      dup8\n        /* \"contract/HoaDon.sol\":2918:2935  temp.taiSanDaiHan */\n      0x0a\n      add\n        /* \"contract/HoaDon.sol\":2918:2949  temp.taiSanDaiHan.PhaiThuDaiHan */\n      0x00\n      add\n        /* \"contract/HoaDon.sol\":2950:2951  0 */\n      0x00\n        /* \"contract/HoaDon.sol\":2918:2952  temp.taiSanDaiHan.PhaiThuDaiHan[0] */\n      0x02\n      dup2\n      lt\n      tag_93\n      jumpi\n      tag_94\n      tag_44\n      jump\t// in\n    tag_94:\n    tag_93:\n      add\n      sload\n        /* \"contract/HoaDon.sol\":2918:2988  temp.taiSanDaiHan.PhaiThuDaiHan[0] + temp.taiSanDaiHan.TaiSanCoDinh[0] */\n      tag_96\n      swap2\n      swap1\n      tag_26\n      jump\t// in\n    tag_96:\n        /* \"contract/HoaDon.sol\":2918:3061  temp.taiSanDaiHan.PhaiThuDaiHan[0] + temp.taiSanDaiHan.TaiSanCoDinh[0] + ... */\n      tag_97\n      swap2\n      swap1\n      tag_26\n      jump\t// in\n    tag_97:\n        /* \"contract/HoaDon.sol\":2918:3103  temp.taiSanDaiHan.PhaiThuDaiHan[0] + temp.taiSanDaiHan.TaiSanCoDinh[0] + ... */\n      tag_98\n      swap2\n      swap1\n      tag_26\n      jump\t// in\n    tag_98:\n        /* \"contract/HoaDon.sol\":2918:3177  temp.taiSanDaiHan.PhaiThuDaiHan[0] + temp.taiSanDaiHan.TaiSanCoDinh[0] + ... */\n      tag_99\n      swap2\n      swap1\n      tag_26\n      jump\t// in\n    tag_99:\n        /* \"contract/HoaDon.sol\":2898:3177  uint daiHanDauNam = temp.taiSanDaiHan.PhaiThuDaiHan[0] + temp.taiSanDaiHan.TaiSanCoDinh[0] + ... */\n      swap1\n      pop\n        /* \"contract/HoaDon.sol\":3190:3208  uint daiHanCuoiNam */\n      0x00\n        /* \"contract/HoaDon.sol\":3433:3437  temp */\n      dup5\n        /* \"contract/HoaDon.sol\":3433:3450  temp.taiSanDaiHan */\n      0x0a\n      add\n        /* \"contract/HoaDon.sol\":3433:3467  temp.taiSanDaiHan.TaiSanDaiHanKhac */\n      0x08\n      add\n        /* \"contract/HoaDon.sol\":3468:3469  1 */\n      0x01\n        /* \"contract/HoaDon.sol\":3433:3470  temp.taiSanDaiHan.TaiSanDaiHanKhac[1] */\n      0x02\n      dup2\n      lt\n      tag_100\n      jumpi\n      tag_101\n      tag_44\n      jump\t// in\n    tag_101:\n    tag_100:\n      add\n      sload\n        /* \"contract/HoaDon.sol\":3357:3361  temp */\n      dup6\n        /* \"contract/HoaDon.sol\":3357:3374  temp.taiSanDaiHan */\n      0x0a\n      add\n        /* \"contract/HoaDon.sol\":3357:3393  temp.taiSanDaiHan.TaiSanDoDangDaiHan */\n      0x06\n      add\n        /* \"contract/HoaDon.sol\":3394:3395  1 */\n      0x01\n        /* \"contract/HoaDon.sol\":3357:3396  temp.taiSanDaiHan.TaiSanDoDangDaiHan[1] */\n      0x02\n      dup2\n      lt\n      tag_103\n      jumpi\n      tag_104\n      tag_44\n      jump\t// in\n    tag_104:\n    tag_103:\n      add\n      sload\n        /* \"contract/HoaDon.sol\":3318:3322  temp */\n      dup7\n        /* \"contract/HoaDon.sol\":3318:3335  temp.taiSanDaiHan */\n      0x0a\n      add\n        /* \"contract/HoaDon.sol\":3318:3351  temp.taiSanDaiHan.BatDongSanDauTu */\n      0x04\n      add\n        /* \"contract/HoaDon.sol\":3352:3353  1 */\n      0x01\n        /* \"contract/HoaDon.sol\":3318:3354  temp.taiSanDaiHan.BatDongSanDauTu[1] */\n      0x02\n      dup2\n      lt\n      tag_106\n      jumpi\n      tag_107\n      tag_44\n      jump\t// in\n    tag_107:\n    tag_106:\n      add\n      sload\n        /* \"contract/HoaDon.sol\":3248:3252  temp */\n      dup8\n        /* \"contract/HoaDon.sol\":3248:3265  temp.taiSanDaiHan */\n      0x0a\n      add\n        /* \"contract/HoaDon.sol\":3248:3278  temp.taiSanDaiHan.TaiSanCoDinh */\n      0x02\n      add\n        /* \"contract/HoaDon.sol\":3279:3280  1 */\n      0x01\n        /* \"contract/HoaDon.sol\":3248:3281  temp.taiSanDaiHan.TaiSanCoDinh[1] */\n      0x02\n      dup2\n      lt\n      tag_109\n      jumpi\n      tag_110\n      tag_44\n      jump\t// in\n    tag_110:\n    tag_109:\n      add\n      sload\n        /* \"contract/HoaDon.sol\":3211:3215  temp */\n      dup9\n        /* \"contract/HoaDon.sol\":3211:3228  temp.taiSanDaiHan */\n      0x0a\n      add\n        /* \"contract/HoaDon.sol\":3211:3242  temp.taiSanDaiHan.PhaiThuDaiHan */\n      0x00\n      add\n        /* \"contract/HoaDon.sol\":3243:3244  1 */\n      0x01\n        /* \"contract/HoaDon.sol\":3211:3245  temp.taiSanDaiHan.PhaiThuDaiHan[1] */\n      0x02\n      dup2\n      lt\n      tag_112\n      jumpi\n      tag_113\n      tag_44\n      jump\t// in\n    tag_113:\n    tag_112:\n      add\n      sload\n        /* \"contract/HoaDon.sol\":3211:3281  temp.taiSanDaiHan.PhaiThuDaiHan[1] + temp.taiSanDaiHan.TaiSanCoDinh[1] */\n      tag_115\n      swap2\n      swap1\n      tag_26\n      jump\t// in\n    tag_115:\n        /* \"contract/HoaDon.sol\":3211:3354  temp.taiSanDaiHan.PhaiThuDaiHan[1] + temp.taiSanDaiHan.TaiSanCoDinh[1] + ... */\n      tag_116\n      swap2\n      swap1\n      tag_26\n      jump\t// in\n    tag_116:\n        /* \"contract/HoaDon.sol\":3211:3396  temp.taiSanDaiHan.PhaiThuDaiHan[1] + temp.taiSanDaiHan.TaiSanCoDinh[1] + ... */\n      tag_117\n      swap2\n      swap1\n      tag_26\n      jump\t// in\n    tag_117:\n        /* \"contract/HoaDon.sol\":3211:3470  temp.taiSanDaiHan.PhaiThuDaiHan[1] + temp.taiSanDaiHan.TaiSanCoDinh[1] + ... */\n      tag_118\n      swap2\n      swap1\n      tag_26\n      jump\t// in\n    tag_118:\n        /* \"contract/HoaDon.sol\":3190:3470  uint daiHanCuoiNam = temp.taiSanDaiHan.PhaiThuDaiHan[1] + temp.taiSanDaiHan.TaiSanCoDinh[1] + ... */\n      swap1\n      pop\n        /* \"contract/HoaDon.sol\":3680:3698  uint vongVonDauNam */\n      0x00\n        /* \"contract/HoaDon.sol\":3824:3828  temp */\n      dup6\n        /* \"contract/HoaDon.sol\":3824:3836  temp.vongVon */\n      0x14\n      add\n        /* \"contract/HoaDon.sol\":3824:3851  temp.vongVon.PhaiTraNganHan */\n      0x02\n      add\n        /* \"contract/HoaDon.sol\":3852:3853  0 */\n      0x00\n        /* \"contract/HoaDon.sol\":3824:3854  temp.vongVon.PhaiTraNganHan[0] */\n      0x02\n      dup2\n      lt\n      tag_119\n      jumpi\n      tag_120\n      tag_44\n      jump\t// in\n    tag_120:\n    tag_119:\n      add\n      sload\n        /* \"contract/HoaDon.sol\":3763:3767  temp */\n      dup7\n        /* \"contract/HoaDon.sol\":3763:3775  temp.vongVon */\n      0x14\n      add\n        /* \"contract/HoaDon.sol\":3763:3784  temp.vongVon.NoDaiHan */\n      0x04\n      add\n        /* \"contract/HoaDon.sol\":3785:3786  0 */\n      0x00\n        /* \"contract/HoaDon.sol\":3763:3787  temp.vongVon.NoDaiHan[0] */\n      0x02\n      dup2\n      lt\n      tag_122\n      jumpi\n      tag_123\n      tag_44\n      jump\t// in\n    tag_123:\n    tag_122:\n      add\n      sload\n        /* \"contract/HoaDon.sol\":3730:3734  temp */\n      dup8\n        /* \"contract/HoaDon.sol\":3730:3742  temp.vongVon */\n      0x14\n      add\n        /* \"contract/HoaDon.sol\":3730:3757  temp.vongVon.PhaiTraNganHan */\n      0x02\n      add\n        /* \"contract/HoaDon.sol\":3758:3759  0 */\n      0x00\n        /* \"contract/HoaDon.sol\":3730:3760  temp.vongVon.PhaiTraNganHan[0] */\n      0x02\n      dup2\n      lt\n      tag_125\n      jumpi\n      tag_126\n      tag_44\n      jump\t// in\n    tag_126:\n    tag_125:\n      add\n      sload\n        /* \"contract/HoaDon.sol\":3701:3705  temp */\n      dup9\n        /* \"contract/HoaDon.sol\":3701:3713  temp.vongVon */\n      0x14\n      add\n        /* \"contract/HoaDon.sol\":3701:3723  temp.vongVon.NoNganHan */\n      0x00\n      add\n        /* \"contract/HoaDon.sol\":3724:3725  0 */\n      0x00\n        /* \"contract/HoaDon.sol\":3701:3726  temp.vongVon.NoNganHan[0] */\n      0x02\n      dup2\n      lt\n      tag_128\n      jumpi\n      tag_129\n      tag_44\n      jump\t// in\n    tag_129:\n    tag_128:\n      add\n      sload\n        /* \"contract/HoaDon.sol\":3701:3760  temp.vongVon.NoNganHan[0] +  temp.vongVon.PhaiTraNganHan[0] */\n      tag_131\n      swap2\n      swap1\n      tag_26\n      jump\t// in\n    tag_131:\n        /* \"contract/HoaDon.sol\":3701:3787  temp.vongVon.NoNganHan[0] +  temp.vongVon.PhaiTraNganHan[0] + temp.vongVon.NoDaiHan[0] */\n      tag_132\n      swap2\n      swap1\n      tag_26\n      jump\t// in\n    tag_132:\n        /* \"contract/HoaDon.sol\":3701:3854  temp.vongVon.NoNganHan[0] +  temp.vongVon.PhaiTraNganHan[0] + temp.vongVon.NoDaiHan[0] + ... */\n      tag_133\n      swap2\n      swap1\n      tag_26\n      jump\t// in\n    tag_133:\n        /* \"contract/HoaDon.sol\":3680:3854  uint vongVonDauNam = temp.vongVon.NoNganHan[0] +  temp.vongVon.PhaiTraNganHan[0] + temp.vongVon.NoDaiHan[0] + ... */\n      swap1\n      pop\n        /* \"contract/HoaDon.sol\":3865:3884  uint vongVonCuoiNam */\n      0x00\n        /* \"contract/HoaDon.sol\":4010:4014  temp */\n      dup7\n        /* \"contract/HoaDon.sol\":4010:4022  temp.vongVon */\n      0x14\n      add\n        /* \"contract/HoaDon.sol\":4010:4037  temp.vongVon.PhaiTraNganHan */\n      0x02\n      add\n        /* \"contract/HoaDon.sol\":4038:4039  1 */\n      0x01\n        /* \"contract/HoaDon.sol\":4010:4040  temp.vongVon.PhaiTraNganHan[1] */\n      0x02\n      dup2\n      lt\n      tag_134\n      jumpi\n      tag_135\n      tag_44\n      jump\t// in\n    tag_135:\n    tag_134:\n      add\n      sload\n        /* \"contract/HoaDon.sol\":3949:3953  temp */\n      dup8\n        /* \"contract/HoaDon.sol\":3949:3961  temp.vongVon */\n      0x14\n      add\n        /* \"contract/HoaDon.sol\":3949:3970  temp.vongVon.NoDaiHan */\n      0x04\n      add\n        /* \"contract/HoaDon.sol\":3971:3972  1 */\n      0x01\n        /* \"contract/HoaDon.sol\":3949:3973  temp.vongVon.NoDaiHan[1] */\n      0x02\n      dup2\n      lt\n      tag_137\n      jumpi\n      tag_138\n      tag_44\n      jump\t// in\n    tag_138:\n    tag_137:\n      add\n      sload\n        /* \"contract/HoaDon.sol\":3916:3920  temp */\n      dup9\n        /* \"contract/HoaDon.sol\":3916:3928  temp.vongVon */\n      0x14\n      add\n        /* \"contract/HoaDon.sol\":3916:3943  temp.vongVon.PhaiTraNganHan */\n      0x02\n      add\n        /* \"contract/HoaDon.sol\":3944:3945  1 */\n      0x01\n        /* \"contract/HoaDon.sol\":3916:3946  temp.vongVon.PhaiTraNganHan[1] */\n      0x02\n      dup2\n      lt\n      tag_140\n      jumpi\n      tag_141\n      tag_44\n      jump\t// in\n    tag_141:\n    tag_140:\n      add\n      sload\n        /* \"contract/HoaDon.sol\":3887:3891  temp */\n      dup10\n        /* \"contract/HoaDon.sol\":3887:3899  temp.vongVon */\n      0x14\n      add\n        /* \"contract/HoaDon.sol\":3887:3909  temp.vongVon.NoNganHan */\n      0x00\n      add\n        /* \"contract/HoaDon.sol\":3910:3911  1 */\n      0x01\n        /* \"contract/HoaDon.sol\":3887:3912  temp.vongVon.NoNganHan[1] */\n      0x02\n      dup2\n      lt\n      tag_143\n      jumpi\n      tag_144\n      tag_44\n      jump\t// in\n    tag_144:\n    tag_143:\n      add\n      sload\n        /* \"contract/HoaDon.sol\":3887:3946  temp.vongVon.NoNganHan[1] +  temp.vongVon.PhaiTraNganHan[1] */\n      tag_146\n      swap2\n      swap1\n      tag_26\n      jump\t// in\n    tag_146:\n        /* \"contract/HoaDon.sol\":3887:3973  temp.vongVon.NoNganHan[1] +  temp.vongVon.PhaiTraNganHan[1] + temp.vongVon.NoDaiHan[1] */\n      tag_147\n      swap2\n      swap1\n      tag_26\n      jump\t// in\n    tag_147:\n        /* \"contract/HoaDon.sol\":3887:4040  temp.vongVon.NoNganHan[1] +  temp.vongVon.PhaiTraNganHan[1] + temp.vongVon.NoDaiHan[1] + ... */\n      tag_148\n      swap2\n      swap1\n      tag_26\n      jump\t// in\n    tag_148:\n        /* \"contract/HoaDon.sol\":3865:4040  uint vongVonCuoiNam = temp.vongVon.NoNganHan[1] +  temp.vongVon.PhaiTraNganHan[1] + temp.vongVon.NoDaiHan[1] + ... */\n      swap1\n      pop\n        /* \"contract/HoaDon.sol\":4059:4072  nganHanDauNam */\n      dup6\n        /* \"contract/HoaDon.sol\":4074:4088  nganHanCuoiNam */\n      dup6\n        /* \"contract/HoaDon.sol\":4089:4101  daiHanDauNam */\n      dup6\n        /* \"contract/HoaDon.sol\":4102:4115  daiHanCuoiNam */\n      dup6\n        /* \"contract/HoaDon.sol\":4116:4129  vongVonDauNam */\n      dup6\n        /* \"contract/HoaDon.sol\":4130:4144  vongVonCuoiNam */\n      dup6\n        /* \"contract/HoaDon.sol\":4051:4145  return (nganHanDauNam, nganHanCuoiNam,daiHanDauNam,daiHanCuoiNam,vongVonDauNam,vongVonCuoiNam) */\n      swap14\n      pop\n      swap14\n      pop\n      swap14\n      pop\n      swap14\n      pop\n      swap14\n      pop\n      swap14\n      pop\n      pop\n      pop\n      pop\n      pop\n      pop\n      pop\n      pop\n      pop\n        /* \"contract/HoaDon.sol\":1880:4153  function layBaoCao(uint year, uint month) external view returns (uint, uint, uint, uint, uint, uint) {... */\n      swap3\n      swap6\n      pop\n      swap3\n      swap6\n      pop\n      swap3\n      swap6\n      jump\t// out\n        /* \"#utility.yul\":88:205   */\n    tag_150:\n        /* \"#utility.yul\":197:198   */\n      0x00\n        /* \"#utility.yul\":194:195   */\n      dup1\n        /* \"#utility.yul\":187:199   */\n      revert\n        /* \"#utility.yul\":334:460   */\n    tag_152:\n        /* \"#utility.yul\":371:378   */\n      0x00\n        /* \"#utility.yul\":411:453   */\n      0xffffffffffffffffffffffffffffffffffffffff\n        /* \"#utility.yul\":404:409   */\n      dup3\n        /* \"#utility.yul\":400:454   */\n      and\n        /* \"#utility.yul\":389:454   */\n      swap1\n      pop\n        /* \"#utility.yul\":334:460   */\n      swap2\n      swap1\n      pop\n      jump\t// out\n        /* \"#utility.yul\":466:562   */\n    tag_153:\n        /* \"#utility.yul\":503:510   */\n      0x00\n        /* \"#utility.yul\":532:556   */\n      tag_171\n        /* \"#utility.yul\":550:555   */\n      dup3\n        /* \"#utility.yul\":532:556   */\n      tag_152\n      jump\t// in\n    tag_171:\n        /* \"#utility.yul\":521:556   */\n      swap1\n      pop\n        /* \"#utility.yul\":466:562   */\n      swap2\n      swap1\n      pop\n      jump\t// out\n        /* \"#utility.yul\":568:690   */\n    tag_154:\n        /* \"#utility.yul\":641:665   */\n      tag_173\n        /* \"#utility.yul\":659:664   */\n      dup2\n        /* \"#utility.yul\":641:665   */\n      tag_153\n      jump\t// in\n    tag_173:\n        /* \"#utility.yul\":634:639   */\n      dup2\n        /* \"#utility.yul\":631:666   */\n      eq\n        /* \"#utility.yul\":621:684   */\n      tag_174\n      jumpi\n        /* \"#utility.yul\":680:681   */\n      0x00\n        /* \"#utility.yul\":677:678   */\n      dup1\n        /* \"#utility.yul\":670:682   */\n      revert\n        /* \"#utility.yul\":621:684   */\n    tag_174:\n        /* \"#utility.yul\":568:690   */\n      pop\n      jump\t// out\n        /* \"#utility.yul\":696:835   */\n    tag_155:\n        /* \"#utility.yul\":742:747   */\n      0x00\n        /* \"#utility.yul\":780:786   */\n      dup2\n        /* \"#utility.yul\":767:787   */\n      calldataload\n        /* \"#utility.yul\":758:787   */\n      swap1\n      pop\n        /* \"#utility.yul\":796:829   */\n      tag_176\n        /* \"#utility.yul\":823:828   */\n      dup2\n        /* \"#utility.yul\":796:829   */\n      tag_154\n      jump\t// in\n    tag_176:\n        /* \"#utility.yul\":696:835   */\n      swap3\n      swap2\n      pop\n      pop\n      jump\t// out\n        /* \"#utility.yul\":841:1170   */\n    tag_10:\n        /* \"#utility.yul\":900:906   */\n      0x00\n        /* \"#utility.yul\":949:951   */\n      0x20\n        /* \"#utility.yul\":937:946   */\n      dup3\n        /* \"#utility.yul\":928:935   */\n      dup5\n        /* \"#utility.yul\":924:947   */\n      sub\n        /* \"#utility.yul\":920:952   */\n      slt\n        /* \"#utility.yul\":917:1036   */\n      iszero\n      tag_178\n      jumpi\n        /* \"#utility.yul\":955:1034   */\n      tag_179\n      tag_150\n      jump\t// in\n    tag_179:\n        /* \"#utility.yul\":917:1036   */\n    tag_178:\n        /* \"#utility.yul\":1075:1076   */\n      0x00\n        /* \"#utility.yul\":1100:1153   */\n      tag_180\n        /* \"#utility.yul\":1145:1152   */\n      dup5\n        /* \"#utility.yul\":1136:1142   */\n      dup3\n        /* \"#utility.yul\":1125:1134   */\n      dup6\n        /* \"#utility.yul\":1121:1143   */\n      add\n        /* \"#utility.yul\":1100:1153   */\n      tag_155\n      jump\t// in\n    tag_180:\n        /* \"#utility.yul\":1090:1153   */\n      swap2\n      pop\n        /* \"#utility.yul\":1046:1163   */\n      pop\n        /* \"#utility.yul\":841:1170   */\n      swap3\n      swap2\n      pop\n      pop\n      jump\t// out\n        /* \"#utility.yul\":1176:1253   */\n    tag_156:\n        /* \"#utility.yul\":1213:1220   */\n      0x00\n        /* \"#utility.yul\":1242:1247   */\n      dup2\n        /* \"#utility.yul\":1231:1247   */\n      swap1\n      pop\n        /* \"#utility.yul\":1176:1253   */\n      swap2\n      swap1\n      pop\n      jump\t// out\n        /* \"#utility.yul\":1259:1381   */\n    tag_157:\n        /* \"#utility.yul\":1332:1356   */\n      tag_183\n        /* \"#utility.yul\":1350:1355   */\n      dup2\n        /* \"#utility.yul\":1332:1356   */\n      tag_156\n      jump\t// in\n    tag_183:\n        /* \"#utility.yul\":1325:1330   */\n      dup2\n        /* \"#utility.yul\":1322:1357   */\n      eq\n        /* \"#utility.yul\":1312:1375   */\n      tag_184\n      jumpi\n        /* \"#utility.yul\":1371:1372   */\n      0x00\n        /* \"#utility.yul\":1368:1369   */\n      dup1\n        /* \"#utility.yul\":1361:1373   */\n      revert\n        /* \"#utility.yul\":1312:1375   */\n    tag_184:\n        /* \"#utility.yul\":1259:1381   */\n      pop\n      jump\t// out\n        /* \"#utility.yul\":1387:1526   */\n    tag_158:\n        /* \"#utility.yul\":1433:1438   */\n      0x00\n        /* \"#utility.yul\":1471:1477   */\n      dup2\n        /* \"#utility.yul\":1458:1478   */\n      calldataload\n        /* \"#utility.yul\":1449:1478   */\n      swap1\n      pop\n        /* \"#utility.yul\":1487:1520   */\n      tag_186\n        /* \"#utility.yul\":1514:1519   */\n      dup2\n        /* \"#utility.yul\":1487:1520   */\n      tag_157\n      jump\t// in\n    tag_186:\n        /* \"#utility.yul\":1387:1526   */\n      swap3\n      swap2\n      pop\n      pop\n      jump\t// out\n        /* \"#utility.yul\":1532:2006   */\n    tag_14:\n        /* \"#utility.yul\":1600:1606   */\n      0x00\n        /* \"#utility.yul\":1608:1614   */\n      dup1\n        /* \"#utility.yul\":1657:1659   */\n      0x40\n        /* \"#utility.yul\":1645:1654   */\n      dup4\n        /* \"#utility.yul\":1636:1643   */\n      dup6\n        /* \"#utility.yul\":1632:1655   */\n      sub\n        /* \"#utility.yul\":1628:1660   */\n      slt\n        /* \"#utility.yul\":1625:1744   */\n      iszero\n      tag_188\n      jumpi\n        /* \"#utility.yul\":1663:1742   */\n      tag_189\n      tag_150\n      jump\t// in\n    tag_189:\n        /* \"#utility.yul\":1625:1744   */\n    tag_188:\n        /* \"#utility.yul\":1783:1784   */\n      0x00\n        /* \"#utility.yul\":1808:1861   */\n      tag_190\n        /* \"#utility.yul\":1853:1860   */\n      dup6\n        /* \"#utility.yul\":1844:1850   */\n      dup3\n        /* \"#utility.yul\":1833:1842   */\n      dup7\n        /* \"#utility.yul\":1829:1851   */\n      add\n        /* \"#utility.yul\":1808:1861   */\n      tag_158\n      jump\t// in\n    tag_190:\n        /* \"#utility.yul\":1798:1861   */\n      swap3\n      pop\n        /* \"#utility.yul\":1754:1871   */\n      pop\n        /* \"#utility.yul\":1910:1912   */\n      0x20\n        /* \"#utility.yul\":1936:1989   */\n      tag_191\n        /* \"#utility.yul\":1981:1988   */\n      dup6\n        /* \"#utility.yul\":1972:1978   */\n      dup3\n        /* \"#utility.yul\":1961:1970   */\n      dup7\n        /* \"#utility.yul\":1957:1979   */\n      add\n        /* \"#utility.yul\":1936:1989   */\n      tag_158\n      jump\t// in\n    tag_191:\n        /* \"#utility.yul\":1926:1989   */\n      swap2\n      pop\n        /* \"#utility.yul\":1881:1999   */\n      pop\n        /* \"#utility.yul\":1532:2006   */\n      swap3\n      pop\n      swap3\n      swap1\n      pop\n      jump\t// out\n        /* \"#utility.yul\":2012:2130   */\n    tag_159:\n        /* \"#utility.yul\":2099:2123   */\n      tag_193\n        /* \"#utility.yul\":2117:2122   */\n      dup2\n        /* \"#utility.yul\":2099:2123   */\n      tag_156\n      jump\t// in\n    tag_193:\n        /* \"#utility.yul\":2094:2097   */\n      dup3\n        /* \"#utility.yul\":2087:2124   */\n      mstore\n        /* \"#utility.yul\":2012:2130   */\n      pop\n      pop\n      jump\t// out\n        /* \"#utility.yul\":2136:2911   */\n    tag_17:\n        /* \"#utility.yul\":2369:2373   */\n      0x00\n        /* \"#utility.yul\":2407:2410   */\n      0xc0\n        /* \"#utility.yul\":2396:2405   */\n      dup3\n        /* \"#utility.yul\":2392:2411   */\n      add\n        /* \"#utility.yul\":2384:2411   */\n      swap1\n      pop\n        /* \"#utility.yul\":2421:2492   */\n      tag_195\n        /* \"#utility.yul\":2489:2490   */\n      0x00\n        /* \"#utility.yul\":2478:2487   */\n      dup4\n        /* \"#utility.yul\":2474:2491   */\n      add\n        /* \"#utility.yul\":2465:2471   */\n      dup10\n        /* \"#utility.yul\":2421:2492   */\n      tag_159\n      jump\t// in\n    tag_195:\n        /* \"#utility.yul\":2502:2574   */\n      tag_196\n        /* \"#utility.yul\":2570:2572   */\n      0x20\n        /* \"#utility.yul\":2559:2568   */\n      dup4\n        /* \"#utility.yul\":2555:2573   */\n      add\n        /* \"#utility.yul\":2546:2552   */\n      dup9\n        /* \"#utility.yul\":2502:2574   */\n      tag_159\n      jump\t// in\n    tag_196:\n        /* \"#utility.yul\":2584:2656   */\n      tag_197\n        /* \"#utility.yul\":2652:2654   */\n      0x40\n        /* \"#utility.yul\":2641:2650   */\n      dup4\n        /* \"#utility.yul\":2637:2655   */\n      add\n        /* \"#utility.yul\":2628:2634   */\n      dup8\n        /* \"#utility.yul\":2584:2656   */\n      tag_159\n      jump\t// in\n    tag_197:\n        /* \"#utility.yul\":2666:2738   */\n      tag_198\n        /* \"#utility.yul\":2734:2736   */\n      0x60\n        /* \"#utility.yul\":2723:2732   */\n      dup4\n        /* \"#utility.yul\":2719:2737   */\n      add\n        /* \"#utility.yul\":2710:2716   */\n      dup7\n        /* \"#utility.yul\":2666:2738   */\n      tag_159\n      jump\t// in\n    tag_198:\n        /* \"#utility.yul\":2748:2821   */\n      tag_199\n        /* \"#utility.yul\":2816:2819   */\n      0x80\n        /* \"#utility.yul\":2805:2814   */\n      dup4\n        /* \"#utility.yul\":2801:2820   */\n      add\n        /* \"#utility.yul\":2792:2798   */\n      dup6\n        /* \"#utility.yul\":2748:2821   */\n      tag_159\n      jump\t// in\n    tag_199:\n        /* \"#utility.yul\":2831:2904   */\n      tag_200\n        /* \"#utility.yul\":2899:2902   */\n      0xa0\n        /* \"#utility.yul\":2888:2897   */\n      dup4\n        /* \"#utility.yul\":2884:2903   */\n      add\n        /* \"#utility.yul\":2875:2881   */\n      dup5\n        /* \"#utility.yul\":2831:2904   */\n      tag_159\n      jump\t// in\n    tag_200:\n        /* \"#utility.yul\":2136:2911   */\n      swap8\n      swap7\n      pop\n      pop\n      pop\n      pop\n      pop\n      pop\n      pop\n      jump\t// out\n        /* \"#utility.yul\":2917:3086   */\n    tag_160:\n        /* \"#utility.yul\":3001:3012   */\n      0x00\n        /* \"#utility.yul\":3035:3041   */\n      dup3\n        /* \"#utility.yul\":3030:3033   */\n      dup3\n        /* \"#utility.yul\":3023:3042   */\n      mstore\n        /* \"#utility.yul\":3075:3079   */\n      0x20\n        /* \"#utility.yul\":3070:3073   */\n      dup3\n        /* \"#utility.yul\":3066:3080   */\n      add\n        /* \"#utility.yul\":3051:3080   */\n      swap1\n      pop\n        /* \"#utility.yul\":2917:3086   */\n      swap3\n      swap2\n      pop\n      pop\n      jump\t// out\n        /* \"#utility.yul\":3092:3257   */\n    tag_161:\n        /* \"#utility.yul\":3232:3249   */\n      0x50686169206c61207175616e206c790000000000000000000000000000000000\n        /* \"#utility.yul\":3228:3229   */\n      0x00\n        /* \"#utility.yul\":3220:3226   */\n      dup3\n        /* \"#utility.yul\":3216:3230   */\n      add\n        /* \"#utility.yul\":3209:3250   */\n      mstore\n        /* \"#utility.yul\":3092:3257   */\n      pop\n      jump\t// out\n        /* \"#utility.yul\":3263:3629   */\n    tag_162:\n        /* \"#utility.yul\":3405:3408   */\n      0x00\n        /* \"#utility.yul\":3426:3493   */\n      tag_204\n        /* \"#utility.yul\":3490:3492   */\n      0x0f\n        /* \"#utility.yul\":3485:3488   */\n      dup4\n        /* \"#utility.yul\":3426:3493   */\n      tag_160\n      jump\t// in\n    tag_204:\n        /* \"#utility.yul\":3419:3493   */\n      swap2\n      pop\n        /* \"#utility.yul\":3502:3595   */\n      tag_205\n        /* \"#utility.yul\":3591:3594   */\n      dup3\n        /* \"#utility.yul\":3502:3595   */\n      tag_161\n      jump\t// in\n    tag_205:\n        /* \"#utility.yul\":3620:3622   */\n      0x20\n        /* \"#utility.yul\":3615:3618   */\n      dup3\n        /* \"#utility.yul\":3611:3623   */\n      add\n        /* \"#utility.yul\":3604:3623   */\n      swap1\n      pop\n        /* \"#utility.yul\":3263:3629   */\n      swap2\n      swap1\n      pop\n      jump\t// out\n        /* \"#utility.yul\":3635:4054   */\n    tag_21:\n        /* \"#utility.yul\":3801:3805   */\n      0x00\n        /* \"#utility.yul\":3839:3841   */\n      0x20\n        /* \"#utility.yul\":3828:3837   */\n      dup3\n        /* \"#utility.yul\":3824:3842   */\n      add\n        /* \"#utility.yul\":3816:3842   */\n      swap1\n      pop\n        /* \"#utility.yul\":3888:3897   */\n      dup2\n        /* \"#utility.yul\":3882:3886   */\n      dup2\n        /* \"#utility.yul\":3878:3898   */\n      sub\n        /* \"#utility.yul\":3874:3875   */\n      0x00\n        /* \"#utility.yul\":3863:3872   */\n      dup4\n        /* \"#utility.yul\":3859:3876   */\n      add\n        /* \"#utility.yul\":3852:3899   */\n      mstore\n        /* \"#utility.yul\":3916:4047   */\n      tag_207\n        /* \"#utility.yul\":4042:4046   */\n      dup2\n        /* \"#utility.yul\":3916:4047   */\n      tag_162\n      jump\t// in\n    tag_207:\n        /* \"#utility.yul\":3908:4047   */\n      swap1\n      pop\n        /* \"#utility.yul\":3635:4054   */\n      swap2\n      swap1\n      pop\n      jump\t// out\n        /* \"#utility.yul\":4060:4240   */\n    tag_163:\n        /* \"#utility.yul\":4108:4185   */\n      0x4e487b7100000000000000000000000000000000000000000000000000000000\n        /* \"#utility.yul\":4105:4106   */\n      0x00\n        /* \"#utility.yul\":4098:4186   */\n      mstore\n        /* \"#utility.yul\":4205:4209   */\n      0x12\n        /* \"#utility.yul\":4202:4203   */\n      0x04\n        /* \"#utility.yul\":4195:4210   */\n      mstore\n        /* \"#utility.yul\":4229:4233   */\n      0x24\n        /* \"#utility.yul\":4226:4227   */\n      0x00\n        /* \"#utility.yul\":4219:4234   */\n      revert\n        /* \"#utility.yul\":4246:4426   */\n    tag_164:\n        /* \"#utility.yul\":4294:4371   */\n      0x4e487b7100000000000000000000000000000000000000000000000000000000\n        /* \"#utility.yul\":4291:4292   */\n      0x00\n        /* \"#utility.yul\":4284:4372   */\n      mstore\n        /* \"#utility.yul\":4391:4395   */\n      0x11\n        /* \"#utility.yul\":4388:4389   */\n      0x04\n        /* \"#utility.yul\":4381:4396   */\n      mstore\n        /* \"#utility.yul\":4415:4419   */\n      0x24\n        /* \"#utility.yul\":4412:4413   */\n      0x00\n        /* \"#utility.yul\":4405:4420   */\n      revert\n        /* \"#utility.yul\":4432:4617   */\n    tag_24:\n        /* \"#utility.yul\":4472:4473   */\n      0x00\n        /* \"#utility.yul\":4489:4509   */\n      tag_211\n        /* \"#utility.yul\":4507:4508   */\n      dup3\n        /* \"#utility.yul\":4489:4509   */\n      tag_156\n      jump\t// in\n    tag_211:\n        /* \"#utility.yul\":4484:4509   */\n      swap2\n      pop\n        /* \"#utility.yul\":4523:4543   */\n      tag_212\n        /* \"#utility.yul\":4541:4542   */\n      dup4\n        /* \"#utility.yul\":4523:4543   */\n      tag_156\n      jump\t// in\n    tag_212:\n        /* \"#utility.yul\":4518:4543   */\n      swap3\n      pop\n        /* \"#utility.yul\":4562:4563   */\n      dup3\n        /* \"#utility.yul\":4552:4587   */\n      tag_213\n      jumpi\n        /* \"#utility.yul\":4567:4585   */\n      tag_214\n      tag_163\n      jump\t// in\n    tag_214:\n        /* \"#utility.yul\":4552:4587   */\n    tag_213:\n        /* \"#utility.yul\":4609:4610   */\n      dup3\n        /* \"#utility.yul\":4606:4607   */\n      dup3\n        /* \"#utility.yul\":4602:4611   */\n      div\n        /* \"#utility.yul\":4597:4611   */\n      swap1\n      pop\n        /* \"#utility.yul\":4432:4617   */\n      swap3\n      swap2\n      pop\n      pop\n      jump\t// out\n        /* \"#utility.yul\":4623:4814   */\n    tag_26:\n        /* \"#utility.yul\":4663:4666   */\n      0x00\n        /* \"#utility.yul\":4682:4702   */\n      tag_216\n        /* \"#utility.yul\":4700:4701   */\n      dup3\n        /* \"#utility.yul\":4682:4702   */\n      tag_156\n      jump\t// in\n    tag_216:\n        /* \"#utility.yul\":4677:4702   */\n      swap2\n      pop\n        /* \"#utility.yul\":4716:4736   */\n      tag_217\n        /* \"#utility.yul\":4734:4735   */\n      dup4\n        /* \"#utility.yul\":4716:4736   */\n      tag_156\n      jump\t// in\n    tag_217:\n        /* \"#utility.yul\":4711:4736   */\n      swap3\n      pop\n        /* \"#utility.yul\":4759:4760   */\n      dup3\n        /* \"#utility.yul\":4756:4757   */\n      dup3\n        /* \"#utility.yul\":4752:4761   */\n      add\n        /* \"#utility.yul\":4745:4761   */\n      swap1\n      pop\n        /* \"#utility.yul\":4780:4783   */\n      dup1\n        /* \"#utility.yul\":4777:4778   */\n      dup3\n        /* \"#utility.yul\":4774:4784   */\n      gt\n        /* \"#utility.yul\":4771:4807   */\n      iszero\n      tag_218\n      jumpi\n        /* \"#utility.yul\":4787:4805   */\n      tag_219\n      tag_164\n      jump\t// in\n    tag_219:\n        /* \"#utility.yul\":4771:4807   */\n    tag_218:\n        /* \"#utility.yul\":4623:4814   */\n      swap3\n      swap2\n      pop\n      pop\n      jump\t// out\n        /* \"#utility.yul\":4820:4996   */\n    tag_29:\n        /* \"#utility.yul\":4852:4853   */\n      0x00\n        /* \"#utility.yul\":4869:4889   */\n      tag_221\n        /* \"#utility.yul\":4887:4888   */\n      dup3\n        /* \"#utility.yul\":4869:4889   */\n      tag_156\n      jump\t// in\n    tag_221:\n        /* \"#utility.yul\":4864:4889   */\n      swap2\n      pop\n        /* \"#utility.yul\":4903:4923   */\n      tag_222\n        /* \"#utility.yul\":4921:4922   */\n      dup4\n        /* \"#utility.yul\":4903:4923   */\n      tag_156\n      jump\t// in\n    tag_222:\n        /* \"#utility.yul\":4898:4923   */\n      swap3\n      pop\n        /* \"#utility.yul\":4942:4943   */\n      dup3\n        /* \"#utility.yul\":4932:4967   */\n      tag_223\n      jumpi\n        /* \"#utility.yul\":4947:4965   */\n      tag_224\n      tag_163\n      jump\t// in\n    tag_224:\n        /* \"#utility.yul\":4932:4967   */\n    tag_223:\n        /* \"#utility.yul\":4988:4989   */\n      dup3\n        /* \"#utility.yul\":4985:4986   */\n      dup3\n        /* \"#utility.yul\":4981:4990   */\n      mod\n        /* \"#utility.yul\":4976:4990   */\n      swap1\n      pop\n        /* \"#utility.yul\":4820:4996   */\n      swap3\n      swap2\n      pop\n      pop\n      jump\t// out\n        /* \"#utility.yul\":5002:5412   */\n    tag_32:\n        /* \"#utility.yul\":5042:5049   */\n      0x00\n        /* \"#utility.yul\":5065:5085   */\n      tag_226\n        /* \"#utility.yul\":5083:5084   */\n      dup3\n        /* \"#utility.yul\":5065:5085   */\n      tag_156\n      jump\t// in\n    tag_226:\n        /* \"#utility.yul\":5060:5085   */\n      swap2\n      pop\n        /* \"#utility.yul\":5099:5119   */\n      tag_227\n        /* \"#utility.yul\":5117:5118   */\n      dup4\n        /* \"#utility.yul\":5099:5119   */\n      tag_156\n      jump\t// in\n    tag_227:\n        /* \"#utility.yul\":5094:5119   */\n      swap3\n      pop\n        /* \"#utility.yul\":5154:5155   */\n      dup3\n        /* \"#utility.yul\":5151:5152   */\n      dup3\n        /* \"#utility.yul\":5147:5156   */\n      mul\n        /* \"#utility.yul\":5176:5206   */\n      tag_228\n        /* \"#utility.yul\":5194:5205   */\n      dup2\n        /* \"#utility.yul\":5176:5206   */\n      tag_156\n      jump\t// in\n    tag_228:\n        /* \"#utility.yul\":5165:5206   */\n      swap2\n      pop\n        /* \"#utility.yul\":5355:5356   */\n      dup3\n        /* \"#utility.yul\":5346:5353   */\n      dup3\n        /* \"#utility.yul\":5342:5357   */\n      div\n        /* \"#utility.yul\":5339:5340   */\n      dup5\n        /* \"#utility.yul\":5336:5358   */\n      eq\n        /* \"#utility.yul\":5316:5317   */\n      dup4\n        /* \"#utility.yul\":5309:5318   */\n      iszero\n        /* \"#utility.yul\":5289:5372   */\n      or\n        /* \"#utility.yul\":5266:5405   */\n      tag_229\n      jumpi\n        /* \"#utility.yul\":5385:5403   */\n      tag_230\n      tag_164\n      jump\t// in\n    tag_230:\n        /* \"#utility.yul\":5266:5405   */\n    tag_229:\n        /* \"#utility.yul\":5050:5412   */\n      pop\n        /* \"#utility.yul\":5002:5412   */\n      swap3\n      swap2\n      pop\n      pop\n      jump\t// out\n        /* \"#utility.yul\":5418:5598   */\n    tag_44:\n        /* \"#utility.yul\":5466:5543   */\n      0x4e487b7100000000000000000000000000000000000000000000000000000000\n        /* \"#utility.yul\":5463:5464   */\n      0x00\n        /* \"#utility.yul\":5456:5544   */\n      mstore\n        /* \"#utility.yul\":5563:5567   */\n      0x32\n        /* \"#utility.yul\":5560:5561   */\n      0x04\n        /* \"#utility.yul\":5553:5568   */\n      mstore\n        /* \"#utility.yul\":5587:5591   */\n      0x24\n        /* \"#utility.yul\":5584:5585   */\n      0x00\n        /* \"#utility.yul\":5577:5592   */\n      revert\n\n    auxdata: 0xa2646970667358221220d7554d99f3fea7970080a08543ccdabe3bc282ecdca76aee2108431ebb32d1e864736f6c63430008150033\n}\n",
				"bytecode": {
					"linkReferences": {},
					"object": "608060405234801561000f575f80fd5b50610a618061001d5f395ff3fe608060405234801561000f575f80fd5b506004361061003f575f3560e01c806384178c2d146100435780638cc151e81461004d578063f846a67714610069575b5f80fd5b61004b61009e565b005b6100676004803603810190610062919061074e565b6101c7565b005b610083600480360381019061007e91906107ac565b6102b7565b604051610095969594939291906107f9565b60405180910390f35b5f8054906101000a900473ffffffffffffffffffffffffffffffffffffffff1673ffffffffffffffffffffffffffffffffffffffff163373ffffffffffffffffffffffffffffffffffffffff161461012b576040517f08c379a0000000000000000000000000000000000000000000000000000000008152600401610122906108b2565b60405180910390fd5b5f6107b26301e187e04261013f919061092a565b610149919061095a565b90505f6001600c622820a84261015f919061092a565b610169919061098d565b610173919061095a565b90505f81600c8461018491906109bd565b61018e919061095a565b90505f60035f8381526020019081526020015f209050600181601f015f6101000a81548160ff021916908360ff16021790555050505050565b5f8054906101000a900473ffffffffffffffffffffffffffffffffffffffff1673ffffffffffffffffffffffffffffffffffffffff163373ffffffffffffffffffffffffffffffffffffffff1614610254576040517f08c379a000000000000000000000000000000000000000000000000000000000815260040161024b906108b2565b60405180910390fd5b600181908060018154018082558091505060019003905f5260205f20015f9091909190916101000a81548173ffffffffffffffffffffffffffffffffffffffff021916908373ffffffffffffffffffffffffffffffffffffffff16021790555050565b5f805f805f805f87600c8a6102cc91906109bd565b6102d6919061095a565b90505f60035f8381526020019081526020015f2090505f815f016008015f60028110610305576103046109fe565b5b0154825f016006015f6002811061031f5761031e6109fe565b5b0154835f016004015f60028110610339576103386109fe565b5b0154845f016002015f60028110610353576103526109fe565b5b0154855f015f015f6002811061036c5761036b6109fe565b5b0154610378919061095a565b610382919061095a565b61038c919061095a565b610396919061095a565b90505f825f016008016001600281106103b2576103b16109fe565b5b0154835f016006016001600281106103cd576103cc6109fe565b5b0154845f016004016001600281106103e8576103e76109fe565b5b0154855f01600201600160028110610403576104026109fe565b5b0154865f015f0160016002811061041d5761041c6109fe565b5b0154610429919061095a565b610433919061095a565b61043d919061095a565b610447919061095a565b90505f83600a016008015f60028110610463576104626109fe565b5b015484600a016006015f6002811061047e5761047d6109fe565b5b015485600a016004015f60028110610499576104986109fe565b5b015486600a016002015f600281106104b4576104b36109fe565b5b015487600a015f015f600281106104ce576104cd6109fe565b5b01546104da919061095a565b6104e4919061095a565b6104ee919061095a565b6104f8919061095a565b90505f84600a01600801600160028110610515576105146109fe565b5b015485600a01600601600160028110610531576105306109fe565b5b015486600a0160040160016002811061054d5761054c6109fe565b5b015487600a01600201600160028110610569576105686109fe565b5b015488600a015f01600160028110610584576105836109fe565b5b0154610590919061095a565b61059a919061095a565b6105a4919061095a565b6105ae919061095a565b90505f856014016002015f600281106105ca576105c96109fe565b5b0154866014016004015f600281106105e5576105e46109fe565b5b0154876014016002015f60028110610600576105ff6109fe565b5b0154886014015f015f6002811061061a576106196109fe565b5b0154610626919061095a565b610630919061095a565b61063a919061095a565b90505f86601401600201600160028110610657576106566109fe565b5b015487601401600401600160028110610673576106726109fe565b5b01548860140160020160016002811061068f5761068e6109fe565b5b0154896014015f016001600281106106aa576106a96109fe565b5b01546106b6919061095a565b6106c0919061095a565b6106ca919061095a565b90508585858585859d509d509d509d509d509d5050505050505050509295509295509295565b5f80fd5b5f73ffffffffffffffffffffffffffffffffffffffff82169050919050565b5f61071d826106f4565b9050919050565b61072d81610713565b8114610737575f80fd5b50565b5f8135905061074881610724565b92915050565b5f60208284031215610763576107626106f0565b5b5f6107708482850161073a565b91505092915050565b5f819050919050565b61078b81610779565b8114610795575f80fd5b50565b5f813590506107a681610782565b92915050565b5f80604083850312156107c2576107c16106f0565b5b5f6107cf85828601610798565b92505060206107e085828601610798565b9150509250929050565b6107f381610779565b82525050565b5f60c08201905061080c5f8301896107ea565b61081960208301886107ea565b61082660408301876107ea565b61083360608301866107ea565b61084060808301856107ea565b61084d60a08301846107ea565b979650505050505050565b5f82825260208201905092915050565b7f50686169206c61207175616e206c7900000000000000000000000000000000005f82015250565b5f61089c600f83610858565b91506108a782610868565b602082019050919050565b5f6020820190508181035f8301526108c981610890565b9050919050565b7f4e487b71000000000000000000000000000000000000000000000000000000005f52601260045260245ffd5b7f4e487b71000000000000000000000000000000000000000000000000000000005f52601160045260245ffd5b5f61093482610779565b915061093f83610779565b92508261094f5761094e6108d0565b5b828204905092915050565b5f61096482610779565b915061096f83610779565b9250828201905080821115610987576109866108fd565b5b92915050565b5f61099782610779565b91506109a283610779565b9250826109b2576109b16108d0565b5b828206905092915050565b5f6109c782610779565b91506109d283610779565b92508282026109e081610779565b915082820484148315176109f7576109f66108fd565b5b5092915050565b7f4e487b71000000000000000000000000000000000000000000000000000000005f52603260045260245ffdfea2646970667358221220d7554d99f3fea7970080a08543ccdabe3bc282ecdca76aee2108431ebb32d1e864736f6c63430008150033",
					"opcodes": "PUSH1 0x80 PUSH1 0x40 MSTORE CALLVALUE DUP1 ISZERO PUSH2 0xF JUMPI PUSH0 DUP1 REVERT JUMPDEST POP PUSH2 0xA61 DUP1 PUSH2 0x1D PUSH0 CODECOPY PUSH0 RETURN INVALID PUSH1 0x80 PUSH1 0x40 MSTORE CALLVALUE DUP1 ISZERO PUSH2 0xF JUMPI PUSH0 DUP1 REVERT JUMPDEST POP PUSH1 0x4 CALLDATASIZE LT PUSH2 0x3F JUMPI PUSH0 CALLDATALOAD PUSH1 0xE0 SHR DUP1 PUSH4 0x84178C2D EQ PUSH2 0x43 JUMPI DUP1 PUSH4 0x8CC151E8 EQ PUSH2 0x4D JUMPI DUP1 PUSH4 0xF846A677 EQ PUSH2 0x69 JUMPI JUMPDEST PUSH0 DUP1 REVERT JUMPDEST PUSH2 0x4B PUSH2 0x9E JUMP JUMPDEST STOP JUMPDEST PUSH2 0x67 PUSH1 0x4 DUP1 CALLDATASIZE SUB DUP2 ADD SWAP1 PUSH2 0x62 SWAP2 SWAP1 PUSH2 0x74E JUMP JUMPDEST PUSH2 0x1C7 JUMP JUMPDEST STOP JUMPDEST PUSH2 0x83 PUSH1 0x4 DUP1 CALLDATASIZE SUB DUP2 ADD SWAP1 PUSH2 0x7E SWAP2 SWAP1 PUSH2 0x7AC JUMP JUMPDEST PUSH2 0x2B7 JUMP JUMPDEST PUSH1 0x40 MLOAD PUSH2 0x95 SWAP7 SWAP6 SWAP5 SWAP4 SWAP3 SWAP2 SWAP1 PUSH2 0x7F9 JUMP JUMPDEST PUSH1 0x40 MLOAD DUP1 SWAP2 SUB SWAP1 RETURN JUMPDEST PUSH0 DUP1 SLOAD SWAP1 PUSH2 0x100 EXP SWAP1 DIV PUSH20 0xFFFFFFFFFFFFFFFFFFFFFFFFFFFFFFFFFFFFFFFF AND PUSH20 0xFFFFFFFFFFFFFFFFFFFFFFFFFFFFFFFFFFFFFFFF AND CALLER PUSH20 0xFFFFFFFFFFFFFFFFFFFFFFFFFFFFFFFFFFFFFFFF AND EQ PUSH2 0x12B JUMPI PUSH1 0x40 MLOAD PUSH32 0x8C379A000000000000000000000000000000000000000000000000000000000 DUP2 MSTORE PUSH1 0x4 ADD PUSH2 0x122 SWAP1 PUSH2 0x8B2 JUMP JUMPDEST PUSH1 0x40 MLOAD DUP1 SWAP2 SUB SWAP1 REVERT JUMPDEST PUSH0 PUSH2 0x7B2 PUSH4 0x1E187E0 TIMESTAMP PUSH2 0x13F SWAP2 SWAP1 PUSH2 0x92A JUMP JUMPDEST PUSH2 0x149 SWAP2 SWAP1 PUSH2 0x95A JUMP JUMPDEST SWAP1 POP PUSH0 PUSH1 0x1 PUSH1 0xC PUSH3 0x2820A8 TIMESTAMP PUSH2 0x15F SWAP2 SWAP1 PUSH2 0x92A JUMP JUMPDEST PUSH2 0x169 SWAP2 SWAP1 PUSH2 0x98D JUMP JUMPDEST PUSH2 0x173 SWAP2 SWAP1 PUSH2 0x95A JUMP JUMPDEST SWAP1 POP PUSH0 DUP2 PUSH1 0xC DUP5 PUSH2 0x184 SWAP2 SWAP1 PUSH2 0x9BD JUMP JUMPDEST PUSH2 0x18E SWAP2 SWAP1 PUSH2 0x95A JUMP JUMPDEST SWAP1 POP PUSH0 PUSH1 0x3 PUSH0 DUP4 DUP2 MSTORE PUSH1 0x20 ADD SWAP1 DUP2 MSTORE PUSH1 0x20 ADD PUSH0 KECCAK256 SWAP1 POP PUSH1 0x1 DUP2 PUSH1 0x1F ADD PUSH0 PUSH2 0x100 EXP DUP2 SLOAD DUP2 PUSH1 0xFF MUL NOT AND SWAP1 DUP4 PUSH1 0xFF AND MUL OR SWAP1 SSTORE POP POP POP POP POP JUMP JUMPDEST PUSH0 DUP1 SLOAD SWAP1 PUSH2 0x100 EXP SWAP1 DIV PUSH20 0xFFFFFFFFFFFFFFFFFFFFFFFFFFFFFFFFFFFFFFFF AND PUSH20 0xFFFFFFFFFFFFFFFFFFFFFFFFFFFFFFFFFFFFFFFF AND CALLER PUSH20 0xFFFFFFFFFFFFFFFFFFFFFFFFFFFFFFFFFFFFFFFF AND EQ PUSH2 0x254 JUMPI PUSH1 0x40 MLOAD PUSH32 0x8C379A000000000000000000000000000000000000000000000000000000000 DUP2 MSTORE PUSH1 0x4 ADD PUSH2 0x24B SWAP1 PUSH2 0x8B2 JUMP JUMPDEST PUSH1 0x40 MLOAD DUP1 SWAP2 SUB SWAP1 REVERT JUMPDEST PUSH1 0x1 DUP2 SWAP1 DUP1 PUSH1 0x1 DUP2 SLOAD ADD DUP1 DUP3 SSTORE DUP1 SWAP2 POP POP PUSH1 0x1 SWAP1 SUB SWAP1 PUSH0 MSTORE PUSH1 0x20 PUSH0 KECCAK256 ADD PUSH0 SWAP1 SWAP2 SWAP1 SWAP2 SWAP1 SWAP2 PUSH2 0x100 EXP DUP2 SLOAD DUP2 PUSH20 0xFFFFFFFFFFFFFFFFFFFFFFFFFFFFFFFFFFFFFFFF MUL NOT AND SWAP1 DUP4 PUSH20 0xFFFFFFFFFFFFFFFFFFFFFFFFFFFFFFFFFFFFFFFF AND MUL OR SWAP1 SSTORE POP POP JUMP JUMPDEST PUSH0 DUP1 PUSH0 DUP1 PUSH0 DUP1 PUSH0 DUP8 PUSH1 0xC DUP11 PUSH2 0x2CC SWAP2 SWAP1 PUSH2 0x9BD JUMP JUMPDEST PUSH2 0x2D6 SWAP2 SWAP1 PUSH2 0x95A JUMP JUMPDEST SWAP1 POP PUSH0 PUSH1 0x3 PUSH0 DUP4 DUP2 MSTORE PUSH1 0x20 ADD SWAP1 DUP2 MSTORE PUSH1 0x20 ADD PUSH0 KECCAK256 SWAP1 POP PUSH0 DUP2 PUSH0 ADD PUSH1 0x8 ADD PUSH0 PUSH1 0x2 DUP2 LT PUSH2 0x305 JUMPI PUSH2 0x304 PUSH2 0x9FE JUMP JUMPDEST JUMPDEST ADD SLOAD DUP3 PUSH0 ADD PUSH1 0x6 ADD PUSH0 PUSH1 0x2 DUP2 LT PUSH2 0x31F JUMPI PUSH2 0x31E PUSH2 0x9FE JUMP JUMPDEST JUMPDEST ADD SLOAD DUP4 PUSH0 ADD PUSH1 0x4 ADD PUSH0 PUSH1 0x2 DUP2 LT PUSH2 0x339 JUMPI PUSH2 0x338 PUSH2 0x9FE JUMP JUMPDEST JUMPDEST ADD SLOAD DUP5 PUSH0 ADD PUSH1 0x2 ADD PUSH0 PUSH1 0x2 DUP2 LT PUSH2 0x353 JUMPI PUSH2 0x352 PUSH2 0x9FE JUMP JUMPDEST JUMPDEST ADD SLOAD DUP6 PUSH0 ADD PUSH0 ADD PUSH0 PUSH1 0x2 DUP2 LT PUSH2 0x36C JUMPI PUSH2 0x36B PUSH2 0x9FE JUMP JUMPDEST JUMPDEST ADD SLOAD PUSH2 0x378 SWAP2 SWAP1 PUSH2 0x95A JUMP JUMPDEST PUSH2 0x382 SWAP2 SWAP1 PUSH2 0x95A JUMP JUMPDEST PUSH2 0x38C SWAP2 SWAP1 PUSH2 0x95A JUMP JUMPDEST PUSH2 0x396 SWAP2 SWAP1 PUSH2 0x95A JUMP JUMPDEST SWAP1 POP PUSH0 DUP3 PUSH0 ADD PUSH1 0x8 ADD PUSH1 0x1 PUSH1 0x2 DUP2 LT PUSH2 0x3B2 JUMPI PUSH2 0x3B1 PUSH2 0x9FE JUMP JUMPDEST JUMPDEST ADD SLOAD DUP4 PUSH0 ADD PUSH1 0x6 ADD PUSH1 0x1 PUSH1 0x2 DUP2 LT PUSH2 0x3CD JUMPI PUSH2 0x3CC PUSH2 0x9FE JUMP JUMPDEST JUMPDEST ADD SLOAD DUP5 PUSH0 ADD PUSH1 0x4 ADD PUSH1 0x1 PUSH1 0x2 DUP2 LT PUSH2 0x3E8 JUMPI PUSH2 0x3E7 PUSH2 0x9FE JUMP JUMPDEST JUMPDEST ADD SLOAD DUP6 PUSH0 ADD PUSH1 0x2 ADD PUSH1 0x1 PUSH1 0x2 DUP2 LT PUSH2 0x403 JUMPI PUSH2 0x402 PUSH2 0x9FE JUMP JUMPDEST JUMPDEST ADD SLOAD DUP7 PUSH0 ADD PUSH0 ADD PUSH1 0x1 PUSH1 0x2 DUP2 LT PUSH2 0x41D JUMPI PUSH2 0x41C PUSH2 0x9FE JUMP JUMPDEST JUMPDEST ADD SLOAD PUSH2 0x429 SWAP2 SWAP1 PUSH2 0x95A JUMP JUMPDEST PUSH2 0x433 SWAP2 SWAP1 PUSH2 0x95A JUMP JUMPDEST PUSH2 0x43D SWAP2 SWAP1 PUSH2 0x95A JUMP JUMPDEST PUSH2 0x447 SWAP2 SWAP1 PUSH2 0x95A JUMP JUMPDEST SWAP1 POP PUSH0 DUP4 PUSH1 0xA ADD PUSH1 0x8 ADD PUSH0 PUSH1 0x2 DUP2 LT PUSH2 0x463 JUMPI PUSH2 0x462 PUSH2 0x9FE JUMP JUMPDEST JUMPDEST ADD SLOAD DUP5 PUSH1 0xA ADD PUSH1 0x6 ADD PUSH0 PUSH1 0x2 DUP2 LT PUSH2 0x47E JUMPI PUSH2 0x47D PUSH2 0x9FE JUMP JUMPDEST JUMPDEST ADD SLOAD DUP6 PUSH1 0xA ADD PUSH1 0x4 ADD PUSH0 PUSH1 0x2 DUP2 LT PUSH2 0x499 JUMPI PUSH2 0x498 PUSH2 0x9FE JUMP JUMPDEST JUMPDEST ADD SLOAD DUP7 PUSH1 0xA ADD PUSH1 0x2 ADD PUSH0 PUSH1 0x2 DUP2 LT PUSH2 0x4B4 JUMPI PUSH2 0x4B3 PUSH2 0x9FE JUMP JUMPDEST JUMPDEST ADD SLOAD DUP8 PUSH1 0xA ADD PUSH0 ADD PUSH0 PUSH1 0x2 DUP2 LT PUSH2 0x4CE JUMPI PUSH2 0x4CD PUSH2 0x9FE JUMP JUMPDEST JUMPDEST ADD SLOAD PUSH2 0x4DA SWAP2 SWAP1 PUSH2 0x95A JUMP JUMPDEST PUSH2 0x4E4 SWAP2 SWAP1 PUSH2 0x95A JUMP JUMPDEST PUSH2 0x4EE SWAP2 SWAP1 PUSH2 0x95A JUMP JUMPDEST PUSH2 0x4F8 SWAP2 SWAP1 PUSH2 0x95A JUMP JUMPDEST SWAP1 POP PUSH0 DUP5 PUSH1 0xA ADD PUSH1 0x8 ADD PUSH1 0x1 PUSH1 0x2 DUP2 LT PUSH2 0x515 JUMPI PUSH2 0x514 PUSH2 0x9FE JUMP JUMPDEST JUMPDEST ADD SLOAD DUP6 PUSH1 0xA ADD PUSH1 0x6 ADD PUSH1 0x1 PUSH1 0x2 DUP2 LT PUSH2 0x531 JUMPI PUSH2 0x530 PUSH2 0x9FE JUMP JUMPDEST JUMPDEST ADD SLOAD DUP7 PUSH1 0xA ADD PUSH1 0x4 ADD PUSH1 0x1 PUSH1 0x2 DUP2 LT PUSH2 0x54D JUMPI PUSH2 0x54C PUSH2 0x9FE JUMP JUMPDEST JUMPDEST ADD SLOAD DUP8 PUSH1 0xA ADD PUSH1 0x2 ADD PUSH1 0x1 PUSH1 0x2 DUP2 LT PUSH2 0x569 JUMPI PUSH2 0x568 PUSH2 0x9FE JUMP JUMPDEST JUMPDEST ADD SLOAD DUP9 PUSH1 0xA ADD PUSH0 ADD PUSH1 0x1 PUSH1 0x2 DUP2 LT PUSH2 0x584 JUMPI PUSH2 0x583 PUSH2 0x9FE JUMP JUMPDEST JUMPDEST ADD SLOAD PUSH2 0x590 SWAP2 SWAP1 PUSH2 0x95A JUMP JUMPDEST PUSH2 0x59A SWAP2 SWAP1 PUSH2 0x95A JUMP JUMPDEST PUSH2 0x5A4 SWAP2 SWAP1 PUSH2 0x95A JUMP JUMPDEST PUSH2 0x5AE SWAP2 SWAP1 PUSH2 0x95A JUMP JUMPDEST SWAP1 POP PUSH0 DUP6 PUSH1 0x14 ADD PUSH1 0x2 ADD PUSH0 PUSH1 0x2 DUP2 LT PUSH2 0x5CA JUMPI PUSH2 0x5C9 PUSH2 0x9FE JUMP JUMPDEST JUMPDEST ADD SLOAD DUP7 PUSH1 0x14 ADD PUSH1 0x4 ADD PUSH0 PUSH1 0x2 DUP2 LT PUSH2 0x5E5 JUMPI PUSH2 0x5E4 PUSH2 0x9FE JUMP JUMPDEST JUMPDEST ADD SLOAD DUP8 PUSH1 0x14 ADD PUSH1 0x2 ADD PUSH0 PUSH1 0x2 DUP2 LT PUSH2 0x600 JUMPI PUSH2 0x5FF PUSH2 0x9FE JUMP JUMPDEST JUMPDEST ADD SLOAD DUP9 PUSH1 0x14 ADD PUSH0 ADD PUSH0 PUSH1 0x2 DUP2 LT PUSH2 0x61A JUMPI PUSH2 0x619 PUSH2 0x9FE JUMP JUMPDEST JUMPDEST ADD SLOAD PUSH2 0x626 SWAP2 SWAP1 PUSH2 0x95A JUMP JUMPDEST PUSH2 0x630 SWAP2 SWAP1 PUSH2 0x95A JUMP JUMPDEST PUSH2 0x63A SWAP2 SWAP1 PUSH2 0x95A JUMP JUMPDEST SWAP1 POP PUSH0 DUP7 PUSH1 0x14 ADD PUSH1 0x2 ADD PUSH1 0x1 PUSH1 0x2 DUP2 LT PUSH2 0x657 JUMPI PUSH2 0x656 PUSH2 0x9FE JUMP JUMPDEST JUMPDEST ADD SLOAD DUP8 PUSH1 0x14 ADD PUSH1 0x4 ADD PUSH1 0x1 PUSH1 0x2 DUP2 LT PUSH2 0x673 JUMPI PUSH2 0x672 PUSH2 0x9FE JUMP JUMPDEST JUMPDEST ADD SLOAD DUP9 PUSH1 0x14 ADD PUSH1 0x2 ADD PUSH1 0x1 PUSH1 0x2 DUP2 LT PUSH2 0x68F JUMPI PUSH2 0x68E PUSH2 0x9FE JUMP JUMPDEST JUMPDEST ADD SLOAD DUP10 PUSH1 0x14 ADD PUSH0 ADD PUSH1 0x1 PUSH1 0x2 DUP2 LT PUSH2 0x6AA JUMPI PUSH2 0x6A9 PUSH2 0x9FE JUMP JUMPDEST JUMPDEST ADD SLOAD PUSH2 0x6B6 SWAP2 SWAP1 PUSH2 0x95A JUMP JUMPDEST PUSH2 0x6C0 SWAP2 SWAP1 PUSH2 0x95A JUMP JUMPDEST PUSH2 0x6CA SWAP2 SWAP1 PUSH2 0x95A JUMP JUMPDEST SWAP1 POP DUP6 DUP6 DUP6 DUP6 DUP6 DUP6 SWAP14 POP SWAP14 POP SWAP14 POP SWAP14 POP SWAP14 POP SWAP14 POP POP POP POP POP POP POP POP POP SWAP3 SWAP6 POP SWAP3 SWAP6 POP SWAP3 SWAP6 JUMP JUMPDEST PUSH0 DUP1 REVERT JUMPDEST PUSH0 PUSH20 0xFFFFFFFFFFFFFFFFFFFFFFFFFFFFFFFFFFFFFFFF DUP3 AND SWAP1 POP SWAP2 SWAP1 POP JUMP JUMPDEST PUSH0 PUSH2 0x71D DUP3 PUSH2 0x6F4 JUMP JUMPDEST SWAP1 POP SWAP2 SWAP1 POP JUMP JUMPDEST PUSH2 0x72D DUP2 PUSH2 0x713 JUMP JUMPDEST DUP2 EQ PUSH2 0x737 JUMPI PUSH0 DUP1 REVERT JUMPDEST POP JUMP JUMPDEST PUSH0 DUP2 CALLDATALOAD SWAP1 POP PUSH2 0x748 DUP2 PUSH2 0x724 JUMP JUMPDEST SWAP3 SWAP2 POP POP JUMP JUMPDEST PUSH0 PUSH1 0x20 DUP3 DUP5 SUB SLT ISZERO PUSH2 0x763 JUMPI PUSH2 0x762 PUSH2 0x6F0 JUMP JUMPDEST JUMPDEST PUSH0 PUSH2 0x770 DUP5 DUP3 DUP6 ADD PUSH2 0x73A JUMP JUMPDEST SWAP2 POP POP SWAP3 SWAP2 POP POP JUMP JUMPDEST PUSH0 DUP2 SWAP1 POP SWAP2 SWAP1 POP JUMP JUMPDEST PUSH2 0x78B DUP2 PUSH2 0x779 JUMP JUMPDEST DUP2 EQ PUSH2 0x795 JUMPI PUSH0 DUP1 REVERT JUMPDEST POP JUMP JUMPDEST PUSH0 DUP2 CALLDATALOAD SWAP1 POP PUSH2 0x7A6 DUP2 PUSH2 0x782 JUMP JUMPDEST SWAP3 SWAP2 POP POP JUMP JUMPDEST PUSH0 DUP1 PUSH1 0x40 DUP4 DUP6 SUB SLT ISZERO PUSH2 0x7C2 JUMPI PUSH2 0x7C1 PUSH2 0x6F0 JUMP JUMPDEST JUMPDEST PUSH0 PUSH2 0x7CF DUP6 DUP3 DUP7 ADD PUSH2 0x798 JUMP JUMPDEST SWAP3 POP POP PUSH1 0x20 PUSH2 0x7E0 DUP6 DUP3 DUP7 ADD PUSH2 0x798 JUMP JUMPDEST SWAP2 POP POP SWAP3 POP SWAP3 SWAP1 POP JUMP JUMPDEST PUSH2 0x7F3 DUP2 PUSH2 0x779 JUMP JUMPDEST DUP3 MSTORE POP POP JUMP JUMPDEST PUSH0 PUSH1 0xC0 DUP3 ADD SWAP1 POP PUSH2 0x80C PUSH0 DUP4 ADD DUP10 PUSH2 0x7EA JUMP JUMPDEST PUSH2 0x819 PUSH1 0x20 DUP4 ADD DUP9 PUSH2 0x7EA JUMP JUMPDEST PUSH2 0x826 PUSH1 0x40 DUP4 ADD DUP8 PUSH2 0x7EA JUMP JUMPDEST PUSH2 0x833 PUSH1 0x60 DUP4 ADD DUP7 PUSH2 0x7EA JUMP JUMPDEST PUSH2 0x840 PUSH1 0x80 DUP4 ADD DUP6 PUSH2 0x7EA JUMP JUMPDEST PUSH2 0x84D PUSH1 0xA0 DUP4 ADD DUP5 PUSH2 0x7EA JUMP JUMPDEST SWAP8 SWAP7 POP POP POP POP POP POP POP JUMP JUMPDEST PUSH0 DUP3 DUP3 MSTORE PUSH1 0x20 DUP3 ADD SWAP1 POP SWAP3 SWAP2 POP POP JUMP JUMPDEST PUSH32 0x50686169206C61207175616E206C790000000000000000000000000000000000 PUSH0 DUP3 ADD MSTORE POP JUMP JUMPDEST PUSH0 PUSH2 0x89C PUSH1 0xF DUP4 PUSH2 0x858 JUMP JUMPDEST SWAP2 POP PUSH2 0x8A7 DUP3 PUSH2 0x868 JUMP JUMPDEST PUSH1 0x20 DUP3 ADD SWAP1 POP SWAP2 SWAP1 POP JUMP JUMPDEST PUSH0 PUSH1 0x20 DUP3 ADD SWAP1 POP DUP2 DUP2 SUB PUSH0 DUP4 ADD MSTORE PUSH2 0x8C9 DUP2 PUSH2 0x890 JUMP JUMPDEST SWAP1 POP SWAP2 SWAP1 POP JUMP JUMPDEST PUSH32 0x4E487B7100000000000000000000000000000000000000000000000000000000 PUSH0 MSTORE PUSH1 0x12 PUSH1 0x4 MSTORE PUSH1 0x24 PUSH0 REVERT JUMPDEST PUSH32 0x4E487B7100000000000000000000000000000000000000000000000000000000 PUSH0 MSTORE PUSH1 0x11 PUSH1 0x4 MSTORE PUSH1 0x24 PUSH0 REVERT JUMPDEST PUSH0 PUSH2 0x934 DUP3 PUSH2 0x779 JUMP JUMPDEST SWAP2 POP PUSH2 0x93F DUP4 PUSH2 0x779 JUMP JUMPDEST SWAP3 POP DUP3 PUSH2 0x94F JUMPI PUSH2 0x94E PUSH2 0x8D0 JUMP JUMPDEST JUMPDEST DUP3 DUP3 DIV SWAP1 POP SWAP3 SWAP2 POP POP JUMP JUMPDEST PUSH0 PUSH2 0x964 DUP3 PUSH2 0x779 JUMP JUMPDEST SWAP2 POP PUSH2 0x96F DUP4 PUSH2 0x779 JUMP JUMPDEST SWAP3 POP DUP3 DUP3 ADD SWAP1 POP DUP1 DUP3 GT ISZERO PUSH2 0x987 JUMPI PUSH2 0x986 PUSH2 0x8FD JUMP JUMPDEST JUMPDEST SWAP3 SWAP2 POP POP JUMP JUMPDEST PUSH0 PUSH2 0x997 DUP3 PUSH2 0x779 JUMP JUMPDEST SWAP2 POP PUSH2 0x9A2 DUP4 PUSH2 0x779 JUMP JUMPDEST SWAP3 POP DUP3 PUSH2 0x9B2 JUMPI PUSH2 0x9B1 PUSH2 0x8D0 JUMP JUMPDEST JUMPDEST DUP3 DUP3 MOD SWAP1 POP SWAP3 SWAP2 POP POP JUMP JUMPDEST PUSH0 PUSH2 0x9C7 DUP3 PUSH2 0x779 JUMP JUMPDEST SWAP2 POP PUSH2 0x9D2 DUP4 PUSH2 0x779 JUMP JUMPDEST SWAP3 POP DUP3 DUP3 MUL PUSH2 0x9E0 DUP2 PUSH2 0x779 JUMP JUMPDEST SWAP2 POP DUP3 DUP3 DIV DUP5 EQ DUP4 ISZERO OR PUSH2 0x9F7 JUMPI PUSH2 0x9F6 PUSH2 0x8FD JUMP JUMPDEST JUMPDEST POP SWAP3 SWAP2 POP POP JUMP JUMPDEST PUSH32 0x4E487B7100000000000000000000000000000000000000000000000000000000 PUSH0 MSTORE PUSH1 0x32 PUSH1 0x4 MSTORE PUSH1 0x24 PUSH0 REVERT INVALID LOG2 PUSH5 0x6970667358 0x22 SLT KECCAK256 0xD7 SSTORE 0x4D SWAP10 RETURN INVALID 0xA7 SWAP8 STOP DUP1 LOG0 DUP6 NUMBER 0xCC 0xDA 0xBE EXTCODESIZE 0xC2 DUP3 0xEC 0xDC 0xA7 PUSH11 0xEE2108431EBB32D1E86473 PUSH16 0x6C634300081500330000000000000000 "
				},
				"gasEstimates": {
					"creation": {
						"codeDepositCost": "531400",
						"executionCost": "566",
						"totalCost": "531966"
					},
					"external": {
						"layBaoCao(uint256,uint256)": "infinite",
						"themBaoCao()": "infinite",
						"themKeToan(address)": "51191"
					}
				},
				"methodIdentifiers": {
					"layBaoCao(uint256,uint256)": "f846a677",
					"themBaoCao()": "84178c2d",
					"themKeToan(address)": "8cc151e8"
				}
			},
			"storageLayout": {
				"storage": [
					{
						"astId": 80,
						"contract": "contract/HoaDon.sol:DanhSachBaoCaoTaiChinh",
						"label": "quanLy",
						"offset": 0,
						"slot": "0",
						"type": "t_address"
					},
					{
						"astId": 83,
						"contract": "contract/HoaDon.sol:DanhSachBaoCaoTaiChinh",
						"label": "keToan",
						"offset": 0,
						"slot": "1",
						"type": "t_array(t_address)dyn_storage"
					},
					{
						"astId": 86,
						"contract": "contract/HoaDon.sol:DanhSachBaoCaoTaiChinh",
						"label": "BCTCID",
						"offset": 0,
						"slot": "2",
						"type": "t_array(t_uint256)dyn_storage"
					},
					{
						"astId": 91,
						"contract": "contract/HoaDon.sol:DanhSachBaoCaoTaiChinh",
						"label": "danhSachBCTC",
						"offset": 0,
						"slot": "3",
						"type": "t_mapping(t_uint256,t_struct(BaoCaoTaiChinh)78_storage)"
					}
				],
				"types": {
					"t_address": {
						"encoding": "inplace",
						"label": "address",
						"numberOfBytes": "20"
					},
					"t_array(t_address)dyn_storage": {
						"base": "t_address",
						"encoding": "dynamic_array",
						"label": "address[]",
						"numberOfBytes": "32"
					},
					"t_array(t_uint256)2_storage": {
						"base": "t_uint256",
						"encoding": "inplace",
						"label": "uint256[2]",
						"numberOfBytes": "64"
					},
					"t_array(t_uint256)dyn_storage": {
						"base": "t_uint256",
						"encoding": "dynamic_array",
						"label": "uint256[]",
						"numberOfBytes": "32"
					},
					"t_mapping(t_uint256,t_struct(BaoCaoTaiChinh)78_storage)": {
						"encoding": "mapping",
						"key": "t_uint256",
						"label": "mapping(uint256 => struct BaoCaoTaiChinh)",
						"numberOfBytes": "32",
						"value": "t_struct(BaoCaoTaiChinh)78_storage"
					},
					"t_struct(BaoCaoTaiChinh)78_storage": {
						"encoding": "inplace",
						"label": "struct BaoCaoTaiChinh",
						"members": [
							{
								"astId": 63,
								"contract": "contract/HoaDon.sol:DanhSachBaoCaoTaiChinh",
								"label": "taiSanNganHan",
								"offset": 0,
								"slot": "0",
								"type": "t_struct(TaiSanNganHan)22_storage"
							},
							{
								"astId": 66,
								"contract": "contract/HoaDon.sol:DanhSachBaoCaoTaiChinh",
								"label": "taiSanDaiHan",
								"offset": 0,
								"slot": "10",
								"type": "t_struct(TaiSanDaiHan)43_storage"
							},
							{
								"astId": 69,
								"contract": "contract/HoaDon.sol:DanhSachBaoCaoTaiChinh",
								"label": "vongVon",
								"offset": 0,
								"slot": "20",
								"type": "t_struct(VongVon)60_storage"
							},
							{
								"astId": 71,
								"contract": "contract/HoaDon.sol:DanhSachBaoCaoTaiChinh",
								"label": "id",
								"offset": 0,
								"slot": "28",
								"type": "t_uint256"
							},
							{
								"astId": 73,
								"contract": "contract/HoaDon.sol:DanhSachBaoCaoTaiChinh",
								"label": "year",
								"offset": 0,
								"slot": "29",
								"type": "t_uint256"
							},
							{
								"astId": 75,
								"contract": "contract/HoaDon.sol:DanhSachBaoCaoTaiChinh",
								"label": "month",
								"offset": 0,
								"slot": "30",
								"type": "t_uint256"
							},
							{
								"astId": 77,
								"contract": "contract/HoaDon.sol:DanhSachBaoCaoTaiChinh",
								"label": "notNull",
								"offset": 0,
								"slot": "31",
								"type": "t_uint8"
							}
						],
						"numberOfBytes": "1024"
					},
					"t_struct(TaiSanDaiHan)43_storage": {
						"encoding": "inplace",
						"label": "struct TaiSanDaiHan",
						"members": [
							{
								"astId": 26,
								"contract": "contract/HoaDon.sol:DanhSachBaoCaoTaiChinh",
								"label": "PhaiThuDaiHan",
								"offset": 0,
								"slot": "0",
								"type": "t_array(t_uint256)2_storage"
							},
							{
								"astId": 30,
								"contract": "contract/HoaDon.sol:DanhSachBaoCaoTaiChinh",
								"label": "TaiSanCoDinh",
								"offset": 0,
								"slot": "2",
								"type": "t_array(t_uint256)2_storage"
							},
							{
								"astId": 34,
								"contract": "contract/HoaDon.sol:DanhSachBaoCaoTaiChinh",
								"label": "BatDongSanDauTu",
								"offset": 0,
								"slot": "4",
								"type": "t_array(t_uint256)2_storage"
							},
							{
								"astId": 38,
								"contract": "contract/HoaDon.sol:DanhSachBaoCaoTaiChinh",
								"label": "TaiSanDoDangDaiHan",
								"offset": 0,
								"slot": "6",
								"type": "t_array(t_uint256)2_storage"
							},
							{
								"astId": 42,
								"contract": "contract/HoaDon.sol:DanhSachBaoCaoTaiChinh",
								"label": "TaiSanDaiHanKhac",
								"offset": 0,
								"slot": "8",
								"type": "t_array(t_uint256)2_storage"
							}
						],
						"numberOfBytes": "320"
					},
					"t_struct(TaiSanNganHan)22_storage": {
						"encoding": "inplace",
						"label": "struct TaiSanNganHan",
						"members": [
							{
								"astId": 5,
								"contract": "contract/HoaDon.sol:DanhSachBaoCaoTaiChinh",
								"label": "TienMatVaTuongDuong",
								"offset": 0,
								"slot": "0",
								"type": "t_array(t_uint256)2_storage"
							},
							{
								"astId": 9,
								"contract": "contract/HoaDon.sol:DanhSachBaoCaoTaiChinh",
								"label": "DauTuTaiChinh",
								"offset": 0,
								"slot": "2",
								"type": "t_array(t_uint256)2_storage"
							},
							{
								"astId": 13,
								"contract": "contract/HoaDon.sol:DanhSachBaoCaoTaiChinh",
								"label": "PhaiThuNganHan",
								"offset": 0,
								"slot": "4",
								"type": "t_array(t_uint256)2_storage"
							},
							{
								"astId": 17,
								"contract": "contract/HoaDon.sol:DanhSachBaoCaoTaiChinh",
								"label": "HangTonKhoDauNam",
								"offset": 0,
								"slot": "6",
								"type": "t_array(t_uint256)2_storage"
							},
							{
								"astId": 21,
								"contract": "contract/HoaDon.sol:DanhSachBaoCaoTaiChinh",
								"label": "TaiSanNganHangKhac",
								"offset": 0,
								"slot": "8",
								"type": "t_array(t_uint256)2_storage"
							}
						],
						"numberOfBytes": "320"
					},
					"t_struct(VongVon)60_storage": {
						"encoding": "inplace",
						"label": "struct VongVon",
						"members": [
							{
								"astId": 47,
								"contract": "contract/HoaDon.sol:DanhSachBaoCaoTaiChinh",
								"label": "NoNganHan",
								"offset": 0,
								"slot": "0",
								"type": "t_array(t_uint256)2_storage"
							},
							{
								"astId": 51,
								"contract": "contract/HoaDon.sol:DanhSachBaoCaoTaiChinh",
								"label": "PhaiTraNganHan",
								"offset": 0,
								"slot": "2",
								"type": "t_array(t_uint256)2_storage"
							},
							{
								"astId": 55,
								"contract": "contract/HoaDon.sol:DanhSachBaoCaoTaiChinh",
								"label": "NoDaiHan",
								"offset": 0,
								"slot": "4",
								"type": "t_array(t_uint256)2_storage"
							},
							{
								"astId": 59,
								"contract": "contract/HoaDon.sol:DanhSachBaoCaoTaiChinh",
								"label": "VongVonChuSoHuu",
								"offset": 0,
								"slot": "6",
								"type": "t_array(t_uint256)2_storage"
							}
						],
						"numberOfBytes": "256"
					},
					"t_uint256": {
						"encoding": "inplace",
						"label": "uint256",
						"numberOfBytes": "32"
					},
					"t_uint8": {
						"encoding": "inplace",
						"label": "uint8",
						"numberOfBytes": "1"
					}
				}
			},
			"userdoc": {
				"kind": "user",
				"methods": {},
				"version": 1
			}
		}
	}
}