{
	"contract/BaoCaoTaiChinh.sol": {
		"DanhSachBaoCaoTaiChinh": {
			"abi": [
				{
					"inputs": [],
					"stateMutability": "nonpayable",
					"type": "constructor"
				},
				{
					"inputs": [
						{
							"internalType": "uint256",
							"name": "year",
							"type": "uint256"
						},
						{
							"internalType": "uint256",
							"name": "month",
							"type": "uint256"
						}
					],
					"name": "layBaoCao",
					"outputs": [
						{
							"internalType": "uint256",
							"name": "",
							"type": "uint256"
						},
						{
							"internalType": "uint256",
							"name": "",
							"type": "uint256"
						},
						{
							"internalType": "uint256",
							"name": "",
							"type": "uint256"
						},
						{
							"internalType": "uint256",
							"name": "",
							"type": "uint256"
						},
						{
							"internalType": "uint256",
							"name": "",
							"type": "uint256"
						},
						{
							"internalType": "uint256",
							"name": "",
							"type": "uint256"
						}
					],
					"stateMutability": "view",
					"type": "function"
				},
				{
					"inputs": [
						{
							"components": [
								{
									"internalType": "uint256[2]",
									"name": "TienMatVaTuongDuong",
									"type": "uint256[2]"
								},
								{
									"internalType": "uint256[2]",
									"name": "DauTuTaiChinh",
									"type": "uint256[2]"
								},
								{
									"internalType": "uint256[2]",
									"name": "PhaiThuNganHan",
									"type": "uint256[2]"
								},
								{
									"internalType": "uint256[2]",
									"name": "HangTonKhoDauNam",
									"type": "uint256[2]"
								},
								{
									"internalType": "uint256[2]",
									"name": "TaiSanNganHangKhac",
									"type": "uint256[2]"
								}
							],
							"internalType": "struct TaiSanNganHan",
							"name": "_taiSanNganHan",
							"type": "tuple"
						},
						{
							"components": [
								{
									"internalType": "uint256[2]",
									"name": "PhaiThuDaiHan",
									"type": "uint256[2]"
								},
								{
									"internalType": "uint256[2]",
									"name": "TaiSanCoDinh",
									"type": "uint256[2]"
								},
								{
									"internalType": "uint256[2]",
									"name": "BatDongSanDauTu",
									"type": "uint256[2]"
								},
								{
									"internalType": "uint256[2]",
									"name": "TaiSanDoDangDaiHan",
									"type": "uint256[2]"
								},
								{
									"internalType": "uint256[2]",
									"name": "TaiSanDaiHanKhac",
									"type": "uint256[2]"
								}
							],
							"internalType": "struct TaiSanDaiHan",
							"name": "_taiSanDaiHan",
							"type": "tuple"
						},
						{
							"components": [
								{
									"internalType": "uint256[2]",
									"name": "NoNganHan",
									"type": "uint256[2]"
								},
								{
									"internalType": "uint256[2]",
									"name": "PhaiTraNganHan",
									"type": "uint256[2]"
								},
								{
									"internalType": "uint256[2]",
									"name": "NoDaiHan",
									"type": "uint256[2]"
								},
								{
									"internalType": "uint256[2]",
									"name": "VongVonChuSoHuu",
									"type": "uint256[2]"
								}
							],
							"internalType": "struct VongVon",
							"name": "_vongVon",
							"type": "tuple"
						}
					],
					"name": "themBaoCao",
					"outputs": [],
					"stateMutability": "nonpayable",
					"type": "function"
				},
				{
					"inputs": [
						{
							"internalType": "address",
							"name": "newKeToan",
							"type": "address"
						}
					],
					"name": "themKeToan",
					"outputs": [],
					"stateMutability": "nonpayable",
					"type": "function"
				}
			],
			"devdoc": {
				"kind": "dev",
				"methods": {},
				"version": 1
			},
			"evm": {
				"assembly": "    /* \"contract/BaoCaoTaiChinh.sol\":945:4535  contract DanhSachBaoCaoTaiChinh {... */\n  mstore(0x40, 0x80)\n    /* \"contract/BaoCaoTaiChinh.sol\":1118:1170  constructor() {... */\n  callvalue\n  dup1\n  iszero\n  tag_1\n  jumpi\n  0x00\n  dup1\n  revert\ntag_1:\n  pop\n    /* \"contract/BaoCaoTaiChinh.sol\":1152:1162  msg.sender */\n  caller\n    /* \"contract/BaoCaoTaiChinh.sol\":1143:1149  quanLy */\n  0x00\n  dup1\n    /* \"contract/BaoCaoTaiChinh.sol\":1143:1162  quanLy = msg.sender */\n  0x0100\n  exp\n  dup2\n  sload\n  dup2\n  0xffffffffffffffffffffffffffffffffffffffff\n  mul\n  not\n  and\n  swap1\n  dup4\n  0xffffffffffffffffffffffffffffffffffffffff\n  and\n  mul\n  or\n  swap1\n  sstore\n  pop\n    /* \"contract/BaoCaoTaiChinh.sol\":945:4535  contract DanhSachBaoCaoTaiChinh {... */\n  dataSize(sub_0)\n  dup1\n  dataOffset(sub_0)\n  0x00\n  codecopy\n  0x00\n  return\nstop\n\nsub_0: assembly {\n        /* \"contract/BaoCaoTaiChinh.sol\":945:4535  contract DanhSachBaoCaoTaiChinh {... */\n      mstore(0x40, 0x80)\n      callvalue\n      dup1\n      iszero\n      tag_1\n      jumpi\n      0x00\n      dup1\n      revert\n    tag_1:\n      pop\n      jumpi(tag_2, lt(calldatasize, 0x04))\n      shr(0xe0, calldataload(0x00))\n      dup1\n      0x0e108d71\n      eq\n      tag_3\n      jumpi\n      dup1\n      0x8cc151e8\n      eq\n      tag_4\n      jumpi\n      dup1\n      0xf846a677\n      eq\n      tag_5\n      jumpi\n    tag_2:\n      0x00\n      dup1\n      revert\n        /* \"contract/BaoCaoTaiChinh.sol\":1643:2232  function themBaoCao(TaiSanNganHan memory _taiSanNganHan,... */\n    tag_3:\n      tag_6\n      0x04\n      dup1\n      calldatasize\n      sub\n      dup2\n      add\n      swap1\n      tag_7\n      swap2\n      swap1\n      tag_8\n      jump\t// in\n    tag_7:\n      tag_9\n      jump\t// in\n    tag_6:\n      stop\n        /* \"contract/BaoCaoTaiChinh.sol\":1537:1635  function themKeToan(address newKeToan) external chiQuanLy{... */\n    tag_4:\n      tag_10\n      0x04\n      dup1\n      calldatasize\n      sub\n      dup2\n      add\n      swap1\n      tag_11\n      swap2\n      swap1\n      tag_12\n      jump\t// in\n    tag_11:\n      tag_13\n      jump\t// in\n    tag_10:\n      stop\n        /* \"contract/BaoCaoTaiChinh.sol\":2240:4532  function layBaoCao(uint year, uint month) external view chiKeToan chiQuanLy returns (uint, uint, uint, uint, uint, uint){... */\n    tag_5:\n      tag_14\n      0x04\n      dup1\n      calldatasize\n      sub\n      dup2\n      add\n      swap1\n      tag_15\n      swap2\n      swap1\n      tag_16\n      jump\t// in\n    tag_15:\n      tag_17\n      jump\t// in\n    tag_14:\n      mload(0x40)\n      tag_18\n      swap7\n      swap6\n      swap5\n      swap4\n      swap3\n      swap2\n      swap1\n      tag_19\n      jump\t// in\n    tag_18:\n      mload(0x40)\n      dup1\n      swap2\n      sub\n      swap1\n      return\n        /* \"contract/BaoCaoTaiChinh.sol\":1643:2232  function themBaoCao(TaiSanNganHan memory _taiSanNganHan,... */\n    tag_9:\n        /* \"contract/BaoCaoTaiChinh.sol\":1232:1238  quanLy */\n      0x00\n      dup1\n      sload\n      swap1\n      0x0100\n      exp\n      swap1\n      div\n      0xffffffffffffffffffffffffffffffffffffffff\n      and\n        /* \"contract/BaoCaoTaiChinh.sol\":1218:1238  msg.sender == quanLy */\n      0xffffffffffffffffffffffffffffffffffffffff\n      and\n        /* \"contract/BaoCaoTaiChinh.sol\":1218:1228  msg.sender */\n      caller\n        /* \"contract/BaoCaoTaiChinh.sol\":1218:1238  msg.sender == quanLy */\n      0xffffffffffffffffffffffffffffffffffffffff\n      and\n      eq\n        /* \"contract/BaoCaoTaiChinh.sol\":1210:1258  require(msg.sender == quanLy, \"Phai la quan ly\") */\n      tag_21\n      jumpi\n      mload(0x40)\n      0x08c379a000000000000000000000000000000000000000000000000000000000\n      dup2\n      mstore\n      0x04\n      add\n      tag_22\n      swap1\n      tag_23\n      jump\t// in\n    tag_22:\n      mload(0x40)\n      dup1\n      swap2\n      sub\n      swap1\n      revert\n    tag_21:\n        /* \"contract/BaoCaoTaiChinh.sol\":1846:1855  uint year */\n      0x00\n        /* \"contract/BaoCaoTaiChinh.sol\":1889:1893  1970 */\n      0x07b2\n        /* \"contract/BaoCaoTaiChinh.sol\":1877:1885  31557600 */\n      0x01e187e0\n        /* \"contract/BaoCaoTaiChinh.sol\":1859:1874  block.timestamp */\n      timestamp\n        /* \"contract/BaoCaoTaiChinh.sol\":1859:1885  block.timestamp / 31557600 */\n      tag_25\n      swap2\n      swap1\n      tag_26\n      jump\t// in\n    tag_25:\n        /* \"contract/BaoCaoTaiChinh.sol\":1858:1893  (block.timestamp / 31557600) + 1970 */\n      tag_27\n      swap2\n      swap1\n      tag_28\n      jump\t// in\n    tag_27:\n        /* \"contract/BaoCaoTaiChinh.sol\":1846:1893  uint year = (block.timestamp / 31557600) + 1970 */\n      swap1\n      pop\n        /* \"contract/BaoCaoTaiChinh.sol\":1904:1914  uint month */\n      0x00\n        /* \"contract/BaoCaoTaiChinh.sol\":1952:1953  1 */\n      0x01\n        /* \"contract/BaoCaoTaiChinh.sol\":1947:1949  12 */\n      0x0c\n        /* \"contract/BaoCaoTaiChinh.sol\":1936:1943  2629800 */\n      0x2820a8\n        /* \"contract/BaoCaoTaiChinh.sol\":1918:1933  block.timestamp */\n      timestamp\n        /* \"contract/BaoCaoTaiChinh.sol\":1918:1943  block.timestamp / 2629800 */\n      tag_29\n      swap2\n      swap1\n      tag_26\n      jump\t// in\n    tag_29:\n        /* \"contract/BaoCaoTaiChinh.sol\":1917:1949  (block.timestamp / 2629800) % 12 */\n      tag_30\n      swap2\n      swap1\n      tag_31\n      jump\t// in\n    tag_30:\n        /* \"contract/BaoCaoTaiChinh.sol\":1917:1953  (block.timestamp / 2629800) % 12 + 1 */\n      tag_32\n      swap2\n      swap1\n      tag_28\n      jump\t// in\n    tag_32:\n        /* \"contract/BaoCaoTaiChinh.sol\":1904:1953  uint month = (block.timestamp / 2629800) % 12 + 1 */\n      swap1\n      pop\n        /* \"contract/BaoCaoTaiChinh.sol\":1964:1971  uint id */\n      0x00\n        /* \"contract/BaoCaoTaiChinh.sol\":1986:1991  month */\n      dup2\n        /* \"contract/BaoCaoTaiChinh.sol\":1981:1983  12 */\n      0x0c\n        /* \"contract/BaoCaoTaiChinh.sol\":1974:1978  year */\n      dup5\n        /* \"contract/BaoCaoTaiChinh.sol\":1974:1983  year * 12 */\n      tag_33\n      swap2\n      swap1\n      tag_34\n      jump\t// in\n    tag_33:\n        /* \"contract/BaoCaoTaiChinh.sol\":1974:1991  year * 12 + month */\n      tag_35\n      swap2\n      swap1\n      tag_28\n      jump\t// in\n    tag_35:\n        /* \"contract/BaoCaoTaiChinh.sol\":1964:1991  uint id = year * 12 + month */\n      swap1\n      pop\n        /* \"contract/BaoCaoTaiChinh.sol\":2002:2034  BaoCaoTaiChinh storage baoCaoMoi */\n      0x00\n        /* \"contract/BaoCaoTaiChinh.sol\":2037:2049  danhSachBCTC */\n      0x03\n        /* \"contract/BaoCaoTaiChinh.sol\":2037:2053  danhSachBCTC[id] */\n      0x00\n        /* \"contract/BaoCaoTaiChinh.sol\":2050:2052  id */\n      dup4\n        /* \"contract/BaoCaoTaiChinh.sol\":2037:2053  danhSachBCTC[id] */\n      dup2\n      mstore\n      0x20\n      add\n      swap1\n      dup2\n      mstore\n      0x20\n      add\n      0x00\n      keccak256\n        /* \"contract/BaoCaoTaiChinh.sol\":2002:2053  BaoCaoTaiChinh storage baoCaoMoi = danhSachBCTC[id] */\n      swap1\n      pop\n        /* \"contract/BaoCaoTaiChinh.sol\":2084:2085  1 */\n      0x01\n        /* \"contract/BaoCaoTaiChinh.sol\":2064:2073  baoCaoMoi */\n      dup2\n        /* \"contract/BaoCaoTaiChinh.sol\":2064:2081  baoCaoMoi.notNull */\n      0x1f\n      add\n      0x00\n        /* \"contract/BaoCaoTaiChinh.sol\":2064:2085  baoCaoMoi.notNull = 1 */\n      0x0100\n      exp\n      dup2\n      sload\n      dup2\n      0xff\n      mul\n      not\n      and\n      swap1\n      dup4\n      0xff\n      and\n      mul\n      or\n      swap1\n      sstore\n      pop\n        /* \"contract/BaoCaoTaiChinh.sol\":2121:2134  _taiSanDaiHan */\n      dup6\n        /* \"contract/BaoCaoTaiChinh.sol\":2096:2105  baoCaoMoi */\n      dup2\n        /* \"contract/BaoCaoTaiChinh.sol\":2096:2118  baoCaoMoi.taiSanDaiHan */\n      0x0a\n      add\n        /* \"contract/BaoCaoTaiChinh.sol\":2096:2134  baoCaoMoi.taiSanDaiHan = _taiSanDaiHan */\n      0x00\n      dup3\n      add\n      mload\n      dup2\n      0x00\n      add\n      swap1\n      0x02\n      tag_36\n      swap3\n      swap2\n      swap1\n      tag_37\n      jump\t// in\n    tag_36:\n      pop\n      0x20\n      dup3\n      add\n      mload\n      dup2\n      0x02\n      add\n      swap1\n      0x02\n      tag_38\n      swap3\n      swap2\n      swap1\n      tag_37\n      jump\t// in\n    tag_38:\n      pop\n      0x40\n      dup3\n      add\n      mload\n      dup2\n      0x04\n      add\n      swap1\n      0x02\n      tag_39\n      swap3\n      swap2\n      swap1\n      tag_37\n      jump\t// in\n    tag_39:\n      pop\n      0x60\n      dup3\n      add\n      mload\n      dup2\n      0x06\n      add\n      swap1\n      0x02\n      tag_40\n      swap3\n      swap2\n      swap1\n      tag_37\n      jump\t// in\n    tag_40:\n      pop\n      0x80\n      dup3\n      add\n      mload\n      dup2\n      0x08\n      add\n      swap1\n      0x02\n      tag_41\n      swap3\n      swap2\n      swap1\n      tag_37\n      jump\t// in\n    tag_41:\n      pop\n      swap1\n      pop\n      pop\n        /* \"contract/BaoCaoTaiChinh.sol\":2171:2185  _taiSanNganHan */\n      dup7\n        /* \"contract/BaoCaoTaiChinh.sol\":2145:2154  baoCaoMoi */\n      dup2\n        /* \"contract/BaoCaoTaiChinh.sol\":2145:2168  baoCaoMoi.taiSanNganHan */\n      0x00\n      add\n        /* \"contract/BaoCaoTaiChinh.sol\":2145:2185  baoCaoMoi.taiSanNganHan = _taiSanNganHan */\n      0x00\n      dup3\n      add\n      mload\n      dup2\n      0x00\n      add\n      swap1\n      0x02\n      tag_42\n      swap3\n      swap2\n      swap1\n      tag_37\n      jump\t// in\n    tag_42:\n      pop\n      0x20\n      dup3\n      add\n      mload\n      dup2\n      0x02\n      add\n      swap1\n      0x02\n      tag_43\n      swap3\n      swap2\n      swap1\n      tag_37\n      jump\t// in\n    tag_43:\n      pop\n      0x40\n      dup3\n      add\n      mload\n      dup2\n      0x04\n      add\n      swap1\n      0x02\n      tag_44\n      swap3\n      swap2\n      swap1\n      tag_37\n      jump\t// in\n    tag_44:\n      pop\n      0x60\n      dup3\n      add\n      mload\n      dup2\n      0x06\n      add\n      swap1\n      0x02\n      tag_45\n      swap3\n      swap2\n      swap1\n      tag_37\n      jump\t// in\n    tag_45:\n      pop\n      0x80\n      dup3\n      add\n      mload\n      dup2\n      0x08\n      add\n      swap1\n      0x02\n      tag_46\n      swap3\n      swap2\n      swap1\n      tag_37\n      jump\t// in\n    tag_46:\n      pop\n      swap1\n      pop\n      pop\n        /* \"contract/BaoCaoTaiChinh.sol\":2216:2224  _vongVon */\n      dup5\n        /* \"contract/BaoCaoTaiChinh.sol\":2196:2205  baoCaoMoi */\n      dup2\n        /* \"contract/BaoCaoTaiChinh.sol\":2196:2213  baoCaoMoi.vongVon */\n      0x14\n      add\n        /* \"contract/BaoCaoTaiChinh.sol\":2196:2224  baoCaoMoi.vongVon = _vongVon */\n      0x00\n      dup3\n      add\n      mload\n      dup2\n      0x00\n      add\n      swap1\n      0x02\n      tag_47\n      swap3\n      swap2\n      swap1\n      tag_37\n      jump\t// in\n    tag_47:\n      pop\n      0x20\n      dup3\n      add\n      mload\n      dup2\n      0x02\n      add\n      swap1\n      0x02\n      tag_48\n      swap3\n      swap2\n      swap1\n      tag_37\n      jump\t// in\n    tag_48:\n      pop\n      0x40\n      dup3\n      add\n      mload\n      dup2\n      0x04\n      add\n      swap1\n      0x02\n      tag_49\n      swap3\n      swap2\n      swap1\n      tag_37\n      jump\t// in\n    tag_49:\n      pop\n      0x60\n      dup3\n      add\n      mload\n      dup2\n      0x06\n      add\n      swap1\n      0x02\n      tag_50\n      swap3\n      swap2\n      swap1\n      tag_37\n      jump\t// in\n    tag_50:\n      pop\n      swap1\n      pop\n      pop\n        /* \"contract/BaoCaoTaiChinh.sol\":1835:2232  {... */\n      pop\n      pop\n      pop\n      pop\n        /* \"contract/BaoCaoTaiChinh.sol\":1643:2232  function themBaoCao(TaiSanNganHan memory _taiSanNganHan,... */\n      pop\n      pop\n      pop\n      jump\t// out\n        /* \"contract/BaoCaoTaiChinh.sol\":1537:1635  function themKeToan(address newKeToan) external chiQuanLy{... */\n    tag_13:\n        /* \"contract/BaoCaoTaiChinh.sol\":1232:1238  quanLy */\n      0x00\n      dup1\n      sload\n      swap1\n      0x0100\n      exp\n      swap1\n      div\n      0xffffffffffffffffffffffffffffffffffffffff\n      and\n        /* \"contract/BaoCaoTaiChinh.sol\":1218:1238  msg.sender == quanLy */\n      0xffffffffffffffffffffffffffffffffffffffff\n      and\n        /* \"contract/BaoCaoTaiChinh.sol\":1218:1228  msg.sender */\n      caller\n        /* \"contract/BaoCaoTaiChinh.sol\":1218:1238  msg.sender == quanLy */\n      0xffffffffffffffffffffffffffffffffffffffff\n      and\n      eq\n        /* \"contract/BaoCaoTaiChinh.sol\":1210:1258  require(msg.sender == quanLy, \"Phai la quan ly\") */\n      tag_52\n      jumpi\n      mload(0x40)\n      0x08c379a000000000000000000000000000000000000000000000000000000000\n      dup2\n      mstore\n      0x04\n      add\n      tag_53\n      swap1\n      tag_23\n      jump\t// in\n    tag_53:\n      mload(0x40)\n      dup1\n      swap2\n      sub\n      swap1\n      revert\n    tag_52:\n        /* \"contract/BaoCaoTaiChinh.sol\":1605:1611  keToan */\n      0x01\n        /* \"contract/BaoCaoTaiChinh.sol\":1617:1626  newKeToan */\n      dup2\n        /* \"contract/BaoCaoTaiChinh.sol\":1605:1627  keToan.push(newKeToan) */\n      swap1\n      dup1\n      0x01\n      dup2\n      sload\n      add\n      dup1\n      dup3\n      sstore\n      dup1\n      swap2\n      pop\n      pop\n      0x01\n      swap1\n      sub\n      swap1\n      0x00\n      mstore\n      keccak256(0x00, 0x20)\n      add\n      0x00\n      swap1\n      swap2\n      swap1\n      swap2\n      swap1\n      swap2\n      0x0100\n      exp\n      dup2\n      sload\n      dup2\n      0xffffffffffffffffffffffffffffffffffffffff\n      mul\n      not\n      and\n      swap1\n      dup4\n      0xffffffffffffffffffffffffffffffffffffffff\n      and\n      mul\n      or\n      swap1\n      sstore\n      pop\n        /* \"contract/BaoCaoTaiChinh.sol\":1537:1635  function themKeToan(address newKeToan) external chiQuanLy{... */\n      pop\n      jump\t// out\n        /* \"contract/BaoCaoTaiChinh.sol\":2240:4532  function layBaoCao(uint year, uint month) external view chiKeToan chiQuanLy returns (uint, uint, uint, uint, uint, uint){... */\n    tag_17:\n        /* \"contract/BaoCaoTaiChinh.sol\":2325:2329  uint */\n      0x00\n        /* \"contract/BaoCaoTaiChinh.sol\":2331:2335  uint */\n      dup1\n        /* \"contract/BaoCaoTaiChinh.sol\":2337:2341  uint */\n      0x00\n        /* \"contract/BaoCaoTaiChinh.sol\":2343:2347  uint */\n      dup1\n        /* \"contract/BaoCaoTaiChinh.sol\":2349:2353  uint */\n      0x00\n        /* \"contract/BaoCaoTaiChinh.sol\":2355:2359  uint */\n      dup1\n        /* \"contract/BaoCaoTaiChinh.sol\":1318:1328  bool check */\n      0x00\n        /* \"contract/BaoCaoTaiChinh.sol\":1352:1358  uint i */\n      dup1\n        /* \"contract/BaoCaoTaiChinh.sol\":1347:1456  for (uint i = 0; i < keToan.length; i++) {... */\n    tag_57:\n        /* \"contract/BaoCaoTaiChinh.sol\":1368:1374  keToan */\n      0x01\n        /* \"contract/BaoCaoTaiChinh.sol\":1368:1381  keToan.length */\n      dup1\n      sload\n      swap1\n      pop\n        /* \"contract/BaoCaoTaiChinh.sol\":1364:1365  i */\n      dup2\n        /* \"contract/BaoCaoTaiChinh.sol\":1364:1381  i < keToan.length */\n      lt\n        /* \"contract/BaoCaoTaiChinh.sol\":1347:1456  for (uint i = 0; i < keToan.length; i++) {... */\n      iszero\n      tag_58\n      jumpi\n        /* \"contract/BaoCaoTaiChinh.sol\":1421:1427  keToan */\n      0x01\n        /* \"contract/BaoCaoTaiChinh.sol\":1428:1429  i */\n      dup2\n        /* \"contract/BaoCaoTaiChinh.sol\":1421:1430  keToan[i] */\n      dup2\n      sload\n      dup2\n      lt\n      tag_60\n      jumpi\n      tag_61\n      tag_62\n      jump\t// in\n    tag_61:\n    tag_60:\n      swap1\n      0x00\n      mstore\n      keccak256(0x00, 0x20)\n      add\n      0x00\n      swap1\n      sload\n      swap1\n      0x0100\n      exp\n      swap1\n      div\n      0xffffffffffffffffffffffffffffffffffffffff\n      and\n        /* \"contract/BaoCaoTaiChinh.sol\":1407:1430  msg.sender == keToan[i] */\n      0xffffffffffffffffffffffffffffffffffffffff\n      and\n        /* \"contract/BaoCaoTaiChinh.sol\":1407:1417  msg.sender */\n      caller\n        /* \"contract/BaoCaoTaiChinh.sol\":1407:1430  msg.sender == keToan[i] */\n      0xffffffffffffffffffffffffffffffffffffffff\n      and\n      sub\n        /* \"contract/BaoCaoTaiChinh.sol\":1403:1444  if (msg.sender == keToan[i]) check = true */\n      tag_64\n      jumpi\n        /* \"contract/BaoCaoTaiChinh.sol\":1440:1444  true */\n      0x01\n        /* \"contract/BaoCaoTaiChinh.sol\":1432:1444  check = true */\n      swap2\n      pop\n        /* \"contract/BaoCaoTaiChinh.sol\":1403:1444  if (msg.sender == keToan[i]) check = true */\n    tag_64:\n        /* \"contract/BaoCaoTaiChinh.sol\":1383:1386  i++ */\n      dup1\n      dup1\n      tag_65\n      swap1\n      tag_66\n      jump\t// in\n    tag_65:\n      swap2\n      pop\n      pop\n        /* \"contract/BaoCaoTaiChinh.sol\":1347:1456  for (uint i = 0; i < keToan.length; i++) {... */\n      jump(tag_57)\n    tag_58:\n      pop\n        /* \"contract/BaoCaoTaiChinh.sol\":1483:1487  true */\n      0x01\n        /* \"contract/BaoCaoTaiChinh.sol\":1474:1487  check == true */\n      iszero\n      iszero\n        /* \"contract/BaoCaoTaiChinh.sol\":1474:1479  check */\n      dup2\n        /* \"contract/BaoCaoTaiChinh.sol\":1474:1487  check == true */\n      iszero\n      iszero\n      eq\n        /* \"contract/BaoCaoTaiChinh.sol\":1466:1507  require(check == true, \"Phai la ke toan\") */\n      tag_67\n      jumpi\n      mload(0x40)\n      0x08c379a000000000000000000000000000000000000000000000000000000000\n      dup2\n      mstore\n      0x04\n      add\n      tag_68\n      swap1\n      tag_69\n      jump\t// in\n    tag_68:\n      mload(0x40)\n      dup1\n      swap2\n      sub\n      swap1\n      revert\n    tag_67:\n        /* \"contract/BaoCaoTaiChinh.sol\":1232:1238  quanLy */\n      0x00\n      dup1\n      sload\n      swap1\n      0x0100\n      exp\n      swap1\n      div\n      0xffffffffffffffffffffffffffffffffffffffff\n      and\n        /* \"contract/BaoCaoTaiChinh.sol\":1218:1238  msg.sender == quanLy */\n      0xffffffffffffffffffffffffffffffffffffffff\n      and\n        /* \"contract/BaoCaoTaiChinh.sol\":1218:1228  msg.sender */\n      caller\n        /* \"contract/BaoCaoTaiChinh.sol\":1218:1238  msg.sender == quanLy */\n      0xffffffffffffffffffffffffffffffffffffffff\n      and\n      eq\n        /* \"contract/BaoCaoTaiChinh.sol\":1210:1258  require(msg.sender == quanLy, \"Phai la quan ly\") */\n      tag_71\n      jumpi\n      mload(0x40)\n      0x08c379a000000000000000000000000000000000000000000000000000000000\n      dup2\n      mstore\n      0x04\n      add\n      tag_72\n      swap1\n      tag_23\n      jump\t// in\n    tag_72:\n      mload(0x40)\n      dup1\n      swap2\n      sub\n      swap1\n      revert\n    tag_71:\n        /* \"contract/BaoCaoTaiChinh.sol\":2371:2378  uint id */\n      0x00\n        /* \"contract/BaoCaoTaiChinh.sol\":2393:2398  month */\n      dup9\n        /* \"contract/BaoCaoTaiChinh.sol\":2388:2390  12 */\n      0x0c\n        /* \"contract/BaoCaoTaiChinh.sol\":2381:2385  year */\n      dup12\n        /* \"contract/BaoCaoTaiChinh.sol\":2381:2390  year * 12 */\n      tag_74\n      swap2\n      swap1\n      tag_34\n      jump\t// in\n    tag_74:\n        /* \"contract/BaoCaoTaiChinh.sol\":2381:2398  year * 12 + month */\n      tag_75\n      swap2\n      swap1\n      tag_28\n      jump\t// in\n    tag_75:\n        /* \"contract/BaoCaoTaiChinh.sol\":2371:2398  uint id = year * 12 + month */\n      swap1\n      pop\n        /* \"contract/BaoCaoTaiChinh.sol\":2409:2436  BaoCaoTaiChinh storage temp */\n      0x00\n        /* \"contract/BaoCaoTaiChinh.sol\":2439:2451  danhSachBCTC */\n      0x03\n        /* \"contract/BaoCaoTaiChinh.sol\":2439:2455  danhSachBCTC[id] */\n      0x00\n        /* \"contract/BaoCaoTaiChinh.sol\":2452:2454  id */\n      dup4\n        /* \"contract/BaoCaoTaiChinh.sol\":2439:2455  danhSachBCTC[id] */\n      dup2\n      mstore\n      0x20\n      add\n      swap1\n      dup2\n      mstore\n      0x20\n      add\n      0x00\n      keccak256\n        /* \"contract/BaoCaoTaiChinh.sol\":2409:2455  BaoCaoTaiChinh storage temp = danhSachBCTC[id] */\n      swap1\n      pop\n        /* \"contract/BaoCaoTaiChinh.sol\":2466:2484  uint nganHanDauNam */\n      0x00\n        /* \"contract/BaoCaoTaiChinh.sol\":2707:2711  temp */\n      dup2\n        /* \"contract/BaoCaoTaiChinh.sol\":2707:2725  temp.taiSanNganHan */\n      0x00\n      add\n        /* \"contract/BaoCaoTaiChinh.sol\":2707:2744  temp.taiSanNganHan.TaiSanNganHangKhac */\n      0x08\n      add\n        /* \"contract/BaoCaoTaiChinh.sol\":2745:2746  0 */\n      0x00\n        /* \"contract/BaoCaoTaiChinh.sol\":2707:2747  temp.taiSanNganHan.TaiSanNganHangKhac[0] */\n      0x02\n      dup2\n      lt\n      tag_76\n      jumpi\n      tag_77\n      tag_62\n      jump\t// in\n    tag_77:\n    tag_76:\n      add\n      sload\n        /* \"contract/BaoCaoTaiChinh.sol\":2637:2641  temp */\n      dup3\n        /* \"contract/BaoCaoTaiChinh.sol\":2637:2655  temp.taiSanNganHan */\n      0x00\n      add\n        /* \"contract/BaoCaoTaiChinh.sol\":2637:2672  temp.taiSanNganHan.HangTonKhoDauNam */\n      0x06\n      add\n        /* \"contract/BaoCaoTaiChinh.sol\":2673:2674  0 */\n      0x00\n        /* \"contract/BaoCaoTaiChinh.sol\":2637:2675  temp.taiSanNganHan.HangTonKhoDauNam[0] */\n      0x02\n      dup2\n      lt\n      tag_79\n      jumpi\n      tag_80\n      tag_62\n      jump\t// in\n    tag_80:\n    tag_79:\n      add\n      sload\n        /* \"contract/BaoCaoTaiChinh.sol\":2598:2602  temp */\n      dup4\n        /* \"contract/BaoCaoTaiChinh.sol\":2598:2616  temp.taiSanNganHan */\n      0x00\n      add\n        /* \"contract/BaoCaoTaiChinh.sol\":2598:2631  temp.taiSanNganHan.PhaiThuNganHan */\n      0x04\n      add\n        /* \"contract/BaoCaoTaiChinh.sol\":2632:2633  0 */\n      0x00\n        /* \"contract/BaoCaoTaiChinh.sol\":2598:2634  temp.taiSanNganHan.PhaiThuNganHan[0] */\n      0x02\n      dup2\n      lt\n      tag_82\n      jumpi\n      tag_83\n      tag_62\n      jump\t// in\n    tag_83:\n    tag_82:\n      add\n      sload\n        /* \"contract/BaoCaoTaiChinh.sol\":2531:2535  temp */\n      dup5\n        /* \"contract/BaoCaoTaiChinh.sol\":2531:2549  temp.taiSanNganHan */\n      0x00\n      add\n        /* \"contract/BaoCaoTaiChinh.sol\":2531:2563  temp.taiSanNganHan.DauTuTaiChinh */\n      0x02\n      add\n        /* \"contract/BaoCaoTaiChinh.sol\":2564:2565  0 */\n      0x00\n        /* \"contract/BaoCaoTaiChinh.sol\":2531:2566  temp.taiSanNganHan.DauTuTaiChinh[0] */\n      0x02\n      dup2\n      lt\n      tag_85\n      jumpi\n      tag_86\n      tag_62\n      jump\t// in\n    tag_86:\n    tag_85:\n      add\n      sload\n        /* \"contract/BaoCaoTaiChinh.sol\":2487:2491  temp */\n      dup6\n        /* \"contract/BaoCaoTaiChinh.sol\":2487:2505  temp.taiSanNganHan */\n      0x00\n      add\n        /* \"contract/BaoCaoTaiChinh.sol\":2487:2525  temp.taiSanNganHan.TienMatVaTuongDuong */\n      0x00\n      add\n        /* \"contract/BaoCaoTaiChinh.sol\":2526:2527  0 */\n      0x00\n        /* \"contract/BaoCaoTaiChinh.sol\":2487:2528  temp.taiSanNganHan.TienMatVaTuongDuong[0] */\n      0x02\n      dup2\n      lt\n      tag_88\n      jumpi\n      tag_89\n      tag_62\n      jump\t// in\n    tag_89:\n    tag_88:\n      add\n      sload\n        /* \"contract/BaoCaoTaiChinh.sol\":2487:2566  temp.taiSanNganHan.TienMatVaTuongDuong[0] + temp.taiSanNganHan.DauTuTaiChinh[0] */\n      tag_91\n      swap2\n      swap1\n      tag_28\n      jump\t// in\n    tag_91:\n        /* \"contract/BaoCaoTaiChinh.sol\":2487:2634  temp.taiSanNganHan.TienMatVaTuongDuong[0] + temp.taiSanNganHan.DauTuTaiChinh[0]... */\n      tag_92\n      swap2\n      swap1\n      tag_28\n      jump\t// in\n    tag_92:\n        /* \"contract/BaoCaoTaiChinh.sol\":2487:2675  temp.taiSanNganHan.TienMatVaTuongDuong[0] + temp.taiSanNganHan.DauTuTaiChinh[0]... */\n      tag_93\n      swap2\n      swap1\n      tag_28\n      jump\t// in\n    tag_93:\n        /* \"contract/BaoCaoTaiChinh.sol\":2487:2747  temp.taiSanNganHan.TienMatVaTuongDuong[0] + temp.taiSanNganHan.DauTuTaiChinh[0]... */\n      tag_94\n      swap2\n      swap1\n      tag_28\n      jump\t// in\n    tag_94:\n        /* \"contract/BaoCaoTaiChinh.sol\":2466:2747  uint nganHanDauNam = temp.taiSanNganHan.TienMatVaTuongDuong[0] + temp.taiSanNganHan.DauTuTaiChinh[0]... */\n      swap1\n      pop\n        /* \"contract/BaoCaoTaiChinh.sol\":2768:2787  uint nganHanCuoiNam */\n      0x00\n        /* \"contract/BaoCaoTaiChinh.sol\":3010:3014  temp */\n      dup3\n        /* \"contract/BaoCaoTaiChinh.sol\":3010:3028  temp.taiSanNganHan */\n      0x00\n      add\n        /* \"contract/BaoCaoTaiChinh.sol\":3010:3047  temp.taiSanNganHan.TaiSanNganHangKhac */\n      0x08\n      add\n        /* \"contract/BaoCaoTaiChinh.sol\":3048:3049  1 */\n      0x01\n        /* \"contract/BaoCaoTaiChinh.sol\":3010:3050  temp.taiSanNganHan.TaiSanNganHangKhac[1] */\n      0x02\n      dup2\n      lt\n      tag_95\n      jumpi\n      tag_96\n      tag_62\n      jump\t// in\n    tag_96:\n    tag_95:\n      add\n      sload\n        /* \"contract/BaoCaoTaiChinh.sol\":2940:2944  temp */\n      dup4\n        /* \"contract/BaoCaoTaiChinh.sol\":2940:2958  temp.taiSanNganHan */\n      0x00\n      add\n        /* \"contract/BaoCaoTaiChinh.sol\":2940:2975  temp.taiSanNganHan.HangTonKhoDauNam */\n      0x06\n      add\n        /* \"contract/BaoCaoTaiChinh.sol\":2976:2977  1 */\n      0x01\n        /* \"contract/BaoCaoTaiChinh.sol\":2940:2978  temp.taiSanNganHan.HangTonKhoDauNam[1] */\n      0x02\n      dup2\n      lt\n      tag_98\n      jumpi\n      tag_99\n      tag_62\n      jump\t// in\n    tag_99:\n    tag_98:\n      add\n      sload\n        /* \"contract/BaoCaoTaiChinh.sol\":2901:2905  temp */\n      dup5\n        /* \"contract/BaoCaoTaiChinh.sol\":2901:2919  temp.taiSanNganHan */\n      0x00\n      add\n        /* \"contract/BaoCaoTaiChinh.sol\":2901:2934  temp.taiSanNganHan.PhaiThuNganHan */\n      0x04\n      add\n        /* \"contract/BaoCaoTaiChinh.sol\":2935:2936  1 */\n      0x01\n        /* \"contract/BaoCaoTaiChinh.sol\":2901:2937  temp.taiSanNganHan.PhaiThuNganHan[1] */\n      0x02\n      dup2\n      lt\n      tag_101\n      jumpi\n      tag_102\n      tag_62\n      jump\t// in\n    tag_102:\n    tag_101:\n      add\n      sload\n        /* \"contract/BaoCaoTaiChinh.sol\":2834:2838  temp */\n      dup6\n        /* \"contract/BaoCaoTaiChinh.sol\":2834:2852  temp.taiSanNganHan */\n      0x00\n      add\n        /* \"contract/BaoCaoTaiChinh.sol\":2834:2866  temp.taiSanNganHan.DauTuTaiChinh */\n      0x02\n      add\n        /* \"contract/BaoCaoTaiChinh.sol\":2867:2868  1 */\n      0x01\n        /* \"contract/BaoCaoTaiChinh.sol\":2834:2869  temp.taiSanNganHan.DauTuTaiChinh[1] */\n      0x02\n      dup2\n      lt\n      tag_104\n      jumpi\n      tag_105\n      tag_62\n      jump\t// in\n    tag_105:\n    tag_104:\n      add\n      sload\n        /* \"contract/BaoCaoTaiChinh.sol\":2790:2794  temp */\n      dup7\n        /* \"contract/BaoCaoTaiChinh.sol\":2790:2808  temp.taiSanNganHan */\n      0x00\n      add\n        /* \"contract/BaoCaoTaiChinh.sol\":2790:2828  temp.taiSanNganHan.TienMatVaTuongDuong */\n      0x00\n      add\n        /* \"contract/BaoCaoTaiChinh.sol\":2829:2830  1 */\n      0x01\n        /* \"contract/BaoCaoTaiChinh.sol\":2790:2831  temp.taiSanNganHan.TienMatVaTuongDuong[1] */\n      0x02\n      dup2\n      lt\n      tag_107\n      jumpi\n      tag_108\n      tag_62\n      jump\t// in\n    tag_108:\n    tag_107:\n      add\n      sload\n        /* \"contract/BaoCaoTaiChinh.sol\":2790:2869  temp.taiSanNganHan.TienMatVaTuongDuong[1] + temp.taiSanNganHan.DauTuTaiChinh[1] */\n      tag_110\n      swap2\n      swap1\n      tag_28\n      jump\t// in\n    tag_110:\n        /* \"contract/BaoCaoTaiChinh.sol\":2790:2937  temp.taiSanNganHan.TienMatVaTuongDuong[1] + temp.taiSanNganHan.DauTuTaiChinh[1]... */\n      tag_111\n      swap2\n      swap1\n      tag_28\n      jump\t// in\n    tag_111:\n        /* \"contract/BaoCaoTaiChinh.sol\":2790:2978  temp.taiSanNganHan.TienMatVaTuongDuong[1] + temp.taiSanNganHan.DauTuTaiChinh[1]... */\n      tag_112\n      swap2\n      swap1\n      tag_28\n      jump\t// in\n    tag_112:\n        /* \"contract/BaoCaoTaiChinh.sol\":2790:3050  temp.taiSanNganHan.TienMatVaTuongDuong[1] + temp.taiSanNganHan.DauTuTaiChinh[1]... */\n      tag_113\n      swap2\n      swap1\n      tag_28\n      jump\t// in\n    tag_113:\n        /* \"contract/BaoCaoTaiChinh.sol\":2768:3050  uint nganHanCuoiNam = temp.taiSanNganHan.TienMatVaTuongDuong[1] + temp.taiSanNganHan.DauTuTaiChinh[1]... */\n      swap1\n      pop\n        /* \"contract/BaoCaoTaiChinh.sol\":3277:3294  uint daiHanDauNam */\n      0x00\n        /* \"contract/BaoCaoTaiChinh.sol\":3519:3523  temp */\n      dup4\n        /* \"contract/BaoCaoTaiChinh.sol\":3519:3536  temp.taiSanDaiHan */\n      0x0a\n      add\n        /* \"contract/BaoCaoTaiChinh.sol\":3519:3553  temp.taiSanDaiHan.TaiSanDaiHanKhac */\n      0x08\n      add\n        /* \"contract/BaoCaoTaiChinh.sol\":3554:3555  0 */\n      0x00\n        /* \"contract/BaoCaoTaiChinh.sol\":3519:3556  temp.taiSanDaiHan.TaiSanDaiHanKhac[0] */\n      0x02\n      dup2\n      lt\n      tag_114\n      jumpi\n      tag_115\n      tag_62\n      jump\t// in\n    tag_115:\n    tag_114:\n      add\n      sload\n        /* \"contract/BaoCaoTaiChinh.sol\":3443:3447  temp */\n      dup5\n        /* \"contract/BaoCaoTaiChinh.sol\":3443:3460  temp.taiSanDaiHan */\n      0x0a\n      add\n        /* \"contract/BaoCaoTaiChinh.sol\":3443:3479  temp.taiSanDaiHan.TaiSanDoDangDaiHan */\n      0x06\n      add\n        /* \"contract/BaoCaoTaiChinh.sol\":3480:3481  0 */\n      0x00\n        /* \"contract/BaoCaoTaiChinh.sol\":3443:3482  temp.taiSanDaiHan.TaiSanDoDangDaiHan[0] */\n      0x02\n      dup2\n      lt\n      tag_117\n      jumpi\n      tag_118\n      tag_62\n      jump\t// in\n    tag_118:\n    tag_117:\n      add\n      sload\n        /* \"contract/BaoCaoTaiChinh.sol\":3404:3408  temp */\n      dup6\n        /* \"contract/BaoCaoTaiChinh.sol\":3404:3421  temp.taiSanDaiHan */\n      0x0a\n      add\n        /* \"contract/BaoCaoTaiChinh.sol\":3404:3437  temp.taiSanDaiHan.BatDongSanDauTu */\n      0x04\n      add\n        /* \"contract/BaoCaoTaiChinh.sol\":3438:3439  0 */\n      0x00\n        /* \"contract/BaoCaoTaiChinh.sol\":3404:3440  temp.taiSanDaiHan.BatDongSanDauTu[0] */\n      0x02\n      dup2\n      lt\n      tag_120\n      jumpi\n      tag_121\n      tag_62\n      jump\t// in\n    tag_121:\n    tag_120:\n      add\n      sload\n        /* \"contract/BaoCaoTaiChinh.sol\":3334:3338  temp */\n      dup7\n        /* \"contract/BaoCaoTaiChinh.sol\":3334:3351  temp.taiSanDaiHan */\n      0x0a\n      add\n        /* \"contract/BaoCaoTaiChinh.sol\":3334:3364  temp.taiSanDaiHan.TaiSanCoDinh */\n      0x02\n      add\n        /* \"contract/BaoCaoTaiChinh.sol\":3365:3366  0 */\n      0x00\n        /* \"contract/BaoCaoTaiChinh.sol\":3334:3367  temp.taiSanDaiHan.TaiSanCoDinh[0] */\n      0x02\n      dup2\n      lt\n      tag_123\n      jumpi\n      tag_124\n      tag_62\n      jump\t// in\n    tag_124:\n    tag_123:\n      add\n      sload\n        /* \"contract/BaoCaoTaiChinh.sol\":3297:3301  temp */\n      dup8\n        /* \"contract/BaoCaoTaiChinh.sol\":3297:3314  temp.taiSanDaiHan */\n      0x0a\n      add\n        /* \"contract/BaoCaoTaiChinh.sol\":3297:3328  temp.taiSanDaiHan.PhaiThuDaiHan */\n      0x00\n      add\n        /* \"contract/BaoCaoTaiChinh.sol\":3329:3330  0 */\n      0x00\n        /* \"contract/BaoCaoTaiChinh.sol\":3297:3331  temp.taiSanDaiHan.PhaiThuDaiHan[0] */\n      0x02\n      dup2\n      lt\n      tag_126\n      jumpi\n      tag_127\n      tag_62\n      jump\t// in\n    tag_127:\n    tag_126:\n      add\n      sload\n        /* \"contract/BaoCaoTaiChinh.sol\":3297:3367  temp.taiSanDaiHan.PhaiThuDaiHan[0] + temp.taiSanDaiHan.TaiSanCoDinh[0] */\n      tag_129\n      swap2\n      swap1\n      tag_28\n      jump\t// in\n    tag_129:\n        /* \"contract/BaoCaoTaiChinh.sol\":3297:3440  temp.taiSanDaiHan.PhaiThuDaiHan[0] + temp.taiSanDaiHan.TaiSanCoDinh[0] + ... */\n      tag_130\n      swap2\n      swap1\n      tag_28\n      jump\t// in\n    tag_130:\n        /* \"contract/BaoCaoTaiChinh.sol\":3297:3482  temp.taiSanDaiHan.PhaiThuDaiHan[0] + temp.taiSanDaiHan.TaiSanCoDinh[0] + ... */\n      tag_131\n      swap2\n      swap1\n      tag_28\n      jump\t// in\n    tag_131:\n        /* \"contract/BaoCaoTaiChinh.sol\":3297:3556  temp.taiSanDaiHan.PhaiThuDaiHan[0] + temp.taiSanDaiHan.TaiSanCoDinh[0] + ... */\n      tag_132\n      swap2\n      swap1\n      tag_28\n      jump\t// in\n    tag_132:\n        /* \"contract/BaoCaoTaiChinh.sol\":3277:3556  uint daiHanDauNam = temp.taiSanDaiHan.PhaiThuDaiHan[0] + temp.taiSanDaiHan.TaiSanCoDinh[0] + ... */\n      swap1\n      pop\n        /* \"contract/BaoCaoTaiChinh.sol\":3569:3587  uint daiHanCuoiNam */\n      0x00\n        /* \"contract/BaoCaoTaiChinh.sol\":3812:3816  temp */\n      dup5\n        /* \"contract/BaoCaoTaiChinh.sol\":3812:3829  temp.taiSanDaiHan */\n      0x0a\n      add\n        /* \"contract/BaoCaoTaiChinh.sol\":3812:3846  temp.taiSanDaiHan.TaiSanDaiHanKhac */\n      0x08\n      add\n        /* \"contract/BaoCaoTaiChinh.sol\":3847:3848  1 */\n      0x01\n        /* \"contract/BaoCaoTaiChinh.sol\":3812:3849  temp.taiSanDaiHan.TaiSanDaiHanKhac[1] */\n      0x02\n      dup2\n      lt\n      tag_133\n      jumpi\n      tag_134\n      tag_62\n      jump\t// in\n    tag_134:\n    tag_133:\n      add\n      sload\n        /* \"contract/BaoCaoTaiChinh.sol\":3736:3740  temp */\n      dup6\n        /* \"contract/BaoCaoTaiChinh.sol\":3736:3753  temp.taiSanDaiHan */\n      0x0a\n      add\n        /* \"contract/BaoCaoTaiChinh.sol\":3736:3772  temp.taiSanDaiHan.TaiSanDoDangDaiHan */\n      0x06\n      add\n        /* \"contract/BaoCaoTaiChinh.sol\":3773:3774  1 */\n      0x01\n        /* \"contract/BaoCaoTaiChinh.sol\":3736:3775  temp.taiSanDaiHan.TaiSanDoDangDaiHan[1] */\n      0x02\n      dup2\n      lt\n      tag_136\n      jumpi\n      tag_137\n      tag_62\n      jump\t// in\n    tag_137:\n    tag_136:\n      add\n      sload\n        /* \"contract/BaoCaoTaiChinh.sol\":3697:3701  temp */\n      dup7\n        /* \"contract/BaoCaoTaiChinh.sol\":3697:3714  temp.taiSanDaiHan */\n      0x0a\n      add\n        /* \"contract/BaoCaoTaiChinh.sol\":3697:3730  temp.taiSanDaiHan.BatDongSanDauTu */\n      0x04\n      add\n        /* \"contract/BaoCaoTaiChinh.sol\":3731:3732  1 */\n      0x01\n        /* \"contract/BaoCaoTaiChinh.sol\":3697:3733  temp.taiSanDaiHan.BatDongSanDauTu[1] */\n      0x02\n      dup2\n      lt\n      tag_139\n      jumpi\n      tag_140\n      tag_62\n      jump\t// in\n    tag_140:\n    tag_139:\n      add\n      sload\n        /* \"contract/BaoCaoTaiChinh.sol\":3627:3631  temp */\n      dup8\n        /* \"contract/BaoCaoTaiChinh.sol\":3627:3644  temp.taiSanDaiHan */\n      0x0a\n      add\n        /* \"contract/BaoCaoTaiChinh.sol\":3627:3657  temp.taiSanDaiHan.TaiSanCoDinh */\n      0x02\n      add\n        /* \"contract/BaoCaoTaiChinh.sol\":3658:3659  1 */\n      0x01\n        /* \"contract/BaoCaoTaiChinh.sol\":3627:3660  temp.taiSanDaiHan.TaiSanCoDinh[1] */\n      0x02\n      dup2\n      lt\n      tag_142\n      jumpi\n      tag_143\n      tag_62\n      jump\t// in\n    tag_143:\n    tag_142:\n      add\n      sload\n        /* \"contract/BaoCaoTaiChinh.sol\":3590:3594  temp */\n      dup9\n        /* \"contract/BaoCaoTaiChinh.sol\":3590:3607  temp.taiSanDaiHan */\n      0x0a\n      add\n        /* \"contract/BaoCaoTaiChinh.sol\":3590:3621  temp.taiSanDaiHan.PhaiThuDaiHan */\n      0x00\n      add\n        /* \"contract/BaoCaoTaiChinh.sol\":3622:3623  1 */\n      0x01\n        /* \"contract/BaoCaoTaiChinh.sol\":3590:3624  temp.taiSanDaiHan.PhaiThuDaiHan[1] */\n      0x02\n      dup2\n      lt\n      tag_145\n      jumpi\n      tag_146\n      tag_62\n      jump\t// in\n    tag_146:\n    tag_145:\n      add\n      sload\n        /* \"contract/BaoCaoTaiChinh.sol\":3590:3660  temp.taiSanDaiHan.PhaiThuDaiHan[1] + temp.taiSanDaiHan.TaiSanCoDinh[1] */\n      tag_148\n      swap2\n      swap1\n      tag_28\n      jump\t// in\n    tag_148:\n        /* \"contract/BaoCaoTaiChinh.sol\":3590:3733  temp.taiSanDaiHan.PhaiThuDaiHan[1] + temp.taiSanDaiHan.TaiSanCoDinh[1] + ... */\n      tag_149\n      swap2\n      swap1\n      tag_28\n      jump\t// in\n    tag_149:\n        /* \"contract/BaoCaoTaiChinh.sol\":3590:3775  temp.taiSanDaiHan.PhaiThuDaiHan[1] + temp.taiSanDaiHan.TaiSanCoDinh[1] + ... */\n      tag_150\n      swap2\n      swap1\n      tag_28\n      jump\t// in\n    tag_150:\n        /* \"contract/BaoCaoTaiChinh.sol\":3590:3849  temp.taiSanDaiHan.PhaiThuDaiHan[1] + temp.taiSanDaiHan.TaiSanCoDinh[1] + ... */\n      tag_151\n      swap2\n      swap1\n      tag_28\n      jump\t// in\n    tag_151:\n        /* \"contract/BaoCaoTaiChinh.sol\":3569:3849  uint daiHanCuoiNam = temp.taiSanDaiHan.PhaiThuDaiHan[1] + temp.taiSanDaiHan.TaiSanCoDinh[1] + ... */\n      swap1\n      pop\n        /* \"contract/BaoCaoTaiChinh.sol\":4059:4077  uint vongVonDauNam */\n      0x00\n        /* \"contract/BaoCaoTaiChinh.sol\":4203:4207  temp */\n      dup6\n        /* \"contract/BaoCaoTaiChinh.sol\":4203:4215  temp.vongVon */\n      0x14\n      add\n        /* \"contract/BaoCaoTaiChinh.sol\":4203:4230  temp.vongVon.PhaiTraNganHan */\n      0x02\n      add\n        /* \"contract/BaoCaoTaiChinh.sol\":4231:4232  0 */\n      0x00\n        /* \"contract/BaoCaoTaiChinh.sol\":4203:4233  temp.vongVon.PhaiTraNganHan[0] */\n      0x02\n      dup2\n      lt\n      tag_152\n      jumpi\n      tag_153\n      tag_62\n      jump\t// in\n    tag_153:\n    tag_152:\n      add\n      sload\n        /* \"contract/BaoCaoTaiChinh.sol\":4142:4146  temp */\n      dup7\n        /* \"contract/BaoCaoTaiChinh.sol\":4142:4154  temp.vongVon */\n      0x14\n      add\n        /* \"contract/BaoCaoTaiChinh.sol\":4142:4163  temp.vongVon.NoDaiHan */\n      0x04\n      add\n        /* \"contract/BaoCaoTaiChinh.sol\":4164:4165  0 */\n      0x00\n        /* \"contract/BaoCaoTaiChinh.sol\":4142:4166  temp.vongVon.NoDaiHan[0] */\n      0x02\n      dup2\n      lt\n      tag_155\n      jumpi\n      tag_156\n      tag_62\n      jump\t// in\n    tag_156:\n    tag_155:\n      add\n      sload\n        /* \"contract/BaoCaoTaiChinh.sol\":4109:4113  temp */\n      dup8\n        /* \"contract/BaoCaoTaiChinh.sol\":4109:4121  temp.vongVon */\n      0x14\n      add\n        /* \"contract/BaoCaoTaiChinh.sol\":4109:4136  temp.vongVon.PhaiTraNganHan */\n      0x02\n      add\n        /* \"contract/BaoCaoTaiChinh.sol\":4137:4138  0 */\n      0x00\n        /* \"contract/BaoCaoTaiChinh.sol\":4109:4139  temp.vongVon.PhaiTraNganHan[0] */\n      0x02\n      dup2\n      lt\n      tag_158\n      jumpi\n      tag_159\n      tag_62\n      jump\t// in\n    tag_159:\n    tag_158:\n      add\n      sload\n        /* \"contract/BaoCaoTaiChinh.sol\":4080:4084  temp */\n      dup9\n        /* \"contract/BaoCaoTaiChinh.sol\":4080:4092  temp.vongVon */\n      0x14\n      add\n        /* \"contract/BaoCaoTaiChinh.sol\":4080:4102  temp.vongVon.NoNganHan */\n      0x00\n      add\n        /* \"contract/BaoCaoTaiChinh.sol\":4103:4104  0 */\n      0x00\n        /* \"contract/BaoCaoTaiChinh.sol\":4080:4105  temp.vongVon.NoNganHan[0] */\n      0x02\n      dup2\n      lt\n      tag_161\n      jumpi\n      tag_162\n      tag_62\n      jump\t// in\n    tag_162:\n    tag_161:\n      add\n      sload\n        /* \"contract/BaoCaoTaiChinh.sol\":4080:4139  temp.vongVon.NoNganHan[0] +  temp.vongVon.PhaiTraNganHan[0] */\n      tag_164\n      swap2\n      swap1\n      tag_28\n      jump\t// in\n    tag_164:\n        /* \"contract/BaoCaoTaiChinh.sol\":4080:4166  temp.vongVon.NoNganHan[0] +  temp.vongVon.PhaiTraNganHan[0] + temp.vongVon.NoDaiHan[0] */\n      tag_165\n      swap2\n      swap1\n      tag_28\n      jump\t// in\n    tag_165:\n        /* \"contract/BaoCaoTaiChinh.sol\":4080:4233  temp.vongVon.NoNganHan[0] +  temp.vongVon.PhaiTraNganHan[0] + temp.vongVon.NoDaiHan[0] + ... */\n      tag_166\n      swap2\n      swap1\n      tag_28\n      jump\t// in\n    tag_166:\n        /* \"contract/BaoCaoTaiChinh.sol\":4059:4233  uint vongVonDauNam = temp.vongVon.NoNganHan[0] +  temp.vongVon.PhaiTraNganHan[0] + temp.vongVon.NoDaiHan[0] + ... */\n      swap1\n      pop\n        /* \"contract/BaoCaoTaiChinh.sol\":4244:4263  uint vongVonCuoiNam */\n      0x00\n        /* \"contract/BaoCaoTaiChinh.sol\":4389:4393  temp */\n      dup7\n        /* \"contract/BaoCaoTaiChinh.sol\":4389:4401  temp.vongVon */\n      0x14\n      add\n        /* \"contract/BaoCaoTaiChinh.sol\":4389:4416  temp.vongVon.PhaiTraNganHan */\n      0x02\n      add\n        /* \"contract/BaoCaoTaiChinh.sol\":4417:4418  1 */\n      0x01\n        /* \"contract/BaoCaoTaiChinh.sol\":4389:4419  temp.vongVon.PhaiTraNganHan[1] */\n      0x02\n      dup2\n      lt\n      tag_167\n      jumpi\n      tag_168\n      tag_62\n      jump\t// in\n    tag_168:\n    tag_167:\n      add\n      sload\n        /* \"contract/BaoCaoTaiChinh.sol\":4328:4332  temp */\n      dup8\n        /* \"contract/BaoCaoTaiChinh.sol\":4328:4340  temp.vongVon */\n      0x14\n      add\n        /* \"contract/BaoCaoTaiChinh.sol\":4328:4349  temp.vongVon.NoDaiHan */\n      0x04\n      add\n        /* \"contract/BaoCaoTaiChinh.sol\":4350:4351  1 */\n      0x01\n        /* \"contract/BaoCaoTaiChinh.sol\":4328:4352  temp.vongVon.NoDaiHan[1] */\n      0x02\n      dup2\n      lt\n      tag_170\n      jumpi\n      tag_171\n      tag_62\n      jump\t// in\n    tag_171:\n    tag_170:\n      add\n      sload\n        /* \"contract/BaoCaoTaiChinh.sol\":4295:4299  temp */\n      dup9\n        /* \"contract/BaoCaoTaiChinh.sol\":4295:4307  temp.vongVon */\n      0x14\n      add\n        /* \"contract/BaoCaoTaiChinh.sol\":4295:4322  temp.vongVon.PhaiTraNganHan */\n      0x02\n      add\n        /* \"contract/BaoCaoTaiChinh.sol\":4323:4324  1 */\n      0x01\n        /* \"contract/BaoCaoTaiChinh.sol\":4295:4325  temp.vongVon.PhaiTraNganHan[1] */\n      0x02\n      dup2\n      lt\n      tag_173\n      jumpi\n      tag_174\n      tag_62\n      jump\t// in\n    tag_174:\n    tag_173:\n      add\n      sload\n        /* \"contract/BaoCaoTaiChinh.sol\":4266:4270  temp */\n      dup10\n        /* \"contract/BaoCaoTaiChinh.sol\":4266:4278  temp.vongVon */\n      0x14\n      add\n        /* \"contract/BaoCaoTaiChinh.sol\":4266:4288  temp.vongVon.NoNganHan */\n      0x00\n      add\n        /* \"contract/BaoCaoTaiChinh.sol\":4289:4290  1 */\n      0x01\n        /* \"contract/BaoCaoTaiChinh.sol\":4266:4291  temp.vongVon.NoNganHan[1] */\n      0x02\n      dup2\n      lt\n      tag_176\n      jumpi\n      tag_177\n      tag_62\n      jump\t// in\n    tag_177:\n    tag_176:\n      add\n      sload\n        /* \"contract/BaoCaoTaiChinh.sol\":4266:4325  temp.vongVon.NoNganHan[1] +  temp.vongVon.PhaiTraNganHan[1] */\n      tag_179\n      swap2\n      swap1\n      tag_28\n      jump\t// in\n    tag_179:\n        /* \"contract/BaoCaoTaiChinh.sol\":4266:4352  temp.vongVon.NoNganHan[1] +  temp.vongVon.PhaiTraNganHan[1] + temp.vongVon.NoDaiHan[1] */\n      tag_180\n      swap2\n      swap1\n      tag_28\n      jump\t// in\n    tag_180:\n        /* \"contract/BaoCaoTaiChinh.sol\":4266:4419  temp.vongVon.NoNganHan[1] +  temp.vongVon.PhaiTraNganHan[1] + temp.vongVon.NoDaiHan[1] + ... */\n      tag_181\n      swap2\n      swap1\n      tag_28\n      jump\t// in\n    tag_181:\n        /* \"contract/BaoCaoTaiChinh.sol\":4244:4419  uint vongVonCuoiNam = temp.vongVon.NoNganHan[1] +  temp.vongVon.PhaiTraNganHan[1] + temp.vongVon.NoDaiHan[1] + ... */\n      swap1\n      pop\n        /* \"contract/BaoCaoTaiChinh.sol\":4438:4451  nganHanDauNam */\n      dup6\n        /* \"contract/BaoCaoTaiChinh.sol\":4453:4467  nganHanCuoiNam */\n      dup6\n        /* \"contract/BaoCaoTaiChinh.sol\":4468:4480  daiHanDauNam */\n      dup6\n        /* \"contract/BaoCaoTaiChinh.sol\":4481:4494  daiHanCuoiNam */\n      dup6\n        /* \"contract/BaoCaoTaiChinh.sol\":4495:4508  vongVonDauNam */\n      dup6\n        /* \"contract/BaoCaoTaiChinh.sol\":4509:4523  vongVonCuoiNam */\n      dup6\n        /* \"contract/BaoCaoTaiChinh.sol\":4430:4524  return (nganHanDauNam, nganHanCuoiNam,daiHanDauNam,daiHanCuoiNam,vongVonDauNam,vongVonCuoiNam) */\n      swap15\n      pop\n      swap15\n      pop\n      swap15\n      pop\n      swap15\n      pop\n      swap15\n      pop\n      swap15\n      pop\n      pop\n      pop\n      pop\n      pop\n      pop\n      pop\n      pop\n      pop\n        /* \"contract/BaoCaoTaiChinh.sol\":1307:1527  {... */\n      pop\n        /* \"contract/BaoCaoTaiChinh.sol\":2240:4532  function layBaoCao(uint year, uint month) external view chiKeToan chiQuanLy returns (uint, uint, uint, uint, uint, uint){... */\n      swap3\n      swap6\n      pop\n      swap3\n      swap6\n      pop\n      swap3\n      swap6\n      jump\t// out\n    tag_37:\n      dup3\n      0x02\n      dup2\n      add\n      swap3\n      dup3\n      iszero\n      tag_182\n      jumpi\n      swap2\n      0x20\n      mul\n      dup3\n      add\n    tag_183:\n      dup3\n      dup2\n      gt\n      iszero\n      tag_184\n      jumpi\n      dup3\n      mload\n      dup3\n      sstore\n      swap2\n      0x20\n      add\n      swap2\n      swap1\n      0x01\n      add\n      swap1\n      jump(tag_183)\n    tag_184:\n    tag_182:\n      pop\n      swap1\n      pop\n      tag_185\n      swap2\n      swap1\n      tag_186\n      jump\t// in\n    tag_185:\n      pop\n      swap1\n      jump\t// out\n    tag_186:\n    tag_187:\n      dup1\n      dup3\n      gt\n      iszero\n      tag_188\n      jumpi\n      0x00\n      dup2\n      0x00\n      swap1\n      sstore\n      pop\n      0x01\n      add\n      jump(tag_187)\n    tag_188:\n      pop\n      swap1\n      jump\t// out\n        /* \"#utility.yul\":7:82   */\n    tag_189:\n        /* \"#utility.yul\":40:46   */\n      0x00\n        /* \"#utility.yul\":73:75   */\n      0x40\n        /* \"#utility.yul\":67:76   */\n      mload\n        /* \"#utility.yul\":57:76   */\n      swap1\n      pop\n        /* \"#utility.yul\":7:82   */\n      swap1\n      jump\t// out\n        /* \"#utility.yul\":88:205   */\n    tag_190:\n        /* \"#utility.yul\":197:198   */\n      0x00\n        /* \"#utility.yul\":194:195   */\n      dup1\n        /* \"#utility.yul\":187:199   */\n      revert\n        /* \"#utility.yul\":334:451   */\n    tag_192:\n        /* \"#utility.yul\":443:444   */\n      0x00\n        /* \"#utility.yul\":440:441   */\n      dup1\n        /* \"#utility.yul\":433:445   */\n      revert\n        /* \"#utility.yul\":457:559   */\n    tag_193:\n        /* \"#utility.yul\":498:504   */\n      0x00\n        /* \"#utility.yul\":549:551   */\n      0x1f\n        /* \"#utility.yul\":545:552   */\n      not\n        /* \"#utility.yul\":540:542   */\n      0x1f\n        /* \"#utility.yul\":533:538   */\n      dup4\n        /* \"#utility.yul\":529:543   */\n      add\n        /* \"#utility.yul\":525:553   */\n      and\n        /* \"#utility.yul\":515:553   */\n      swap1\n      pop\n        /* \"#utility.yul\":457:559   */\n      swap2\n      swap1\n      pop\n      jump\t// out\n        /* \"#utility.yul\":565:745   */\n    tag_194:\n        /* \"#utility.yul\":613:690   */\n      0x4e487b7100000000000000000000000000000000000000000000000000000000\n        /* \"#utility.yul\":610:611   */\n      0x00\n        /* \"#utility.yul\":603:691   */\n      mstore\n        /* \"#utility.yul\":710:714   */\n      0x41\n        /* \"#utility.yul\":707:708   */\n      0x04\n        /* \"#utility.yul\":700:715   */\n      mstore\n        /* \"#utility.yul\":734:738   */\n      0x24\n        /* \"#utility.yul\":731:732   */\n      0x00\n        /* \"#utility.yul\":724:739   */\n      revert\n        /* \"#utility.yul\":751:1032   */\n    tag_195:\n        /* \"#utility.yul\":834:861   */\n      tag_229\n        /* \"#utility.yul\":856:860   */\n      dup3\n        /* \"#utility.yul\":834:861   */\n      tag_193\n      jump\t// in\n    tag_229:\n        /* \"#utility.yul\":826:832   */\n      dup2\n        /* \"#utility.yul\":822:862   */\n      add\n        /* \"#utility.yul\":964:970   */\n      dup2\n        /* \"#utility.yul\":952:962   */\n      dup2\n        /* \"#utility.yul\":949:971   */\n      lt\n        /* \"#utility.yul\":928:946   */\n      0xffffffffffffffff\n        /* \"#utility.yul\":916:926   */\n      dup3\n        /* \"#utility.yul\":913:947   */\n      gt\n        /* \"#utility.yul\":910:972   */\n      or\n        /* \"#utility.yul\":907:995   */\n      iszero\n      tag_230\n      jumpi\n        /* \"#utility.yul\":975:993   */\n      tag_231\n      tag_194\n      jump\t// in\n    tag_231:\n        /* \"#utility.yul\":907:995   */\n    tag_230:\n        /* \"#utility.yul\":1015:1025   */\n      dup1\n        /* \"#utility.yul\":1011:1013   */\n      0x40\n        /* \"#utility.yul\":1004:1026   */\n      mstore\n        /* \"#utility.yul\":794:1032   */\n      pop\n        /* \"#utility.yul\":751:1032   */\n      pop\n      pop\n      jump\t// out\n        /* \"#utility.yul\":1038:1167   */\n    tag_196:\n        /* \"#utility.yul\":1072:1078   */\n      0x00\n        /* \"#utility.yul\":1099:1119   */\n      tag_233\n      tag_189\n      jump\t// in\n    tag_233:\n        /* \"#utility.yul\":1089:1119   */\n      swap1\n      pop\n        /* \"#utility.yul\":1128:1161   */\n      tag_234\n        /* \"#utility.yul\":1156:1160   */\n      dup3\n        /* \"#utility.yul\":1148:1154   */\n      dup3\n        /* \"#utility.yul\":1128:1161   */\n      tag_195\n      jump\t// in\n    tag_234:\n        /* \"#utility.yul\":1038:1167   */\n      swap2\n      swap1\n      pop\n      jump\t// out\n        /* \"#utility.yul\":1296:1413   */\n    tag_198:\n        /* \"#utility.yul\":1405:1406   */\n      0x00\n        /* \"#utility.yul\":1402:1403   */\n      dup1\n        /* \"#utility.yul\":1395:1407   */\n      revert\n        /* \"#utility.yul\":1419:1668   */\n    tag_199:\n        /* \"#utility.yul\":1494:1498   */\n      0x00\n        /* \"#utility.yul\":1584:1602   */\n      0xffffffffffffffff\n        /* \"#utility.yul\":1576:1582   */\n      dup3\n        /* \"#utility.yul\":1573:1603   */\n      gt\n        /* \"#utility.yul\":1570:1626   */\n      iszero\n      tag_238\n      jumpi\n        /* \"#utility.yul\":1606:1624   */\n      tag_239\n      tag_194\n      jump\t// in\n    tag_239:\n        /* \"#utility.yul\":1570:1626   */\n    tag_238:\n        /* \"#utility.yul\":1656:1660   */\n      0x20\n        /* \"#utility.yul\":1648:1654   */\n      dup3\n        /* \"#utility.yul\":1644:1661   */\n      mul\n        /* \"#utility.yul\":1636:1661   */\n      swap1\n      pop\n        /* \"#utility.yul\":1419:1668   */\n      swap2\n      swap1\n      pop\n      jump\t// out\n        /* \"#utility.yul\":1674:1791   */\n    tag_200:\n        /* \"#utility.yul\":1783:1784   */\n      0x00\n        /* \"#utility.yul\":1780:1781   */\n      dup1\n        /* \"#utility.yul\":1773:1785   */\n      revert\n        /* \"#utility.yul\":1797:1874   */\n    tag_201:\n        /* \"#utility.yul\":1834:1841   */\n      0x00\n        /* \"#utility.yul\":1863:1868   */\n      dup2\n        /* \"#utility.yul\":1852:1868   */\n      swap1\n      pop\n        /* \"#utility.yul\":1797:1874   */\n      swap2\n      swap1\n      pop\n      jump\t// out\n        /* \"#utility.yul\":1880:2002   */\n    tag_202:\n        /* \"#utility.yul\":1953:1977   */\n      tag_243\n        /* \"#utility.yul\":1971:1976   */\n      dup2\n        /* \"#utility.yul\":1953:1977   */\n      tag_201\n      jump\t// in\n    tag_243:\n        /* \"#utility.yul\":1946:1951   */\n      dup2\n        /* \"#utility.yul\":1943:1978   */\n      eq\n        /* \"#utility.yul\":1933:1996   */\n      tag_244\n      jumpi\n        /* \"#utility.yul\":1992:1993   */\n      0x00\n        /* \"#utility.yul\":1989:1990   */\n      dup1\n        /* \"#utility.yul\":1982:1994   */\n      revert\n        /* \"#utility.yul\":1933:1996   */\n    tag_244:\n        /* \"#utility.yul\":1880:2002   */\n      pop\n      jump\t// out\n        /* \"#utility.yul\":2008:2147   */\n    tag_203:\n        /* \"#utility.yul\":2054:2059   */\n      0x00\n        /* \"#utility.yul\":2092:2098   */\n      dup2\n        /* \"#utility.yul\":2079:2099   */\n      calldataload\n        /* \"#utility.yul\":2070:2099   */\n      swap1\n      pop\n        /* \"#utility.yul\":2108:2141   */\n      tag_246\n        /* \"#utility.yul\":2135:2140   */\n      dup2\n        /* \"#utility.yul\":2108:2141   */\n      tag_202\n      jump\t// in\n    tag_246:\n        /* \"#utility.yul\":2008:2147   */\n      swap3\n      swap2\n      pop\n      pop\n      jump\t// out\n        /* \"#utility.yul\":2171:2814   */\n    tag_204:\n        /* \"#utility.yul\":2265:2270   */\n      0x00\n        /* \"#utility.yul\":2290:2369   */\n      tag_248\n        /* \"#utility.yul\":2306:2368   */\n      tag_249\n        /* \"#utility.yul\":2361:2367   */\n      dup5\n        /* \"#utility.yul\":2306:2368   */\n      tag_199\n      jump\t// in\n    tag_249:\n        /* \"#utility.yul\":2290:2369   */\n      tag_196\n      jump\t// in\n    tag_248:\n        /* \"#utility.yul\":2281:2369   */\n      swap1\n      pop\n        /* \"#utility.yul\":2389:2394   */\n      dup1\n        /* \"#utility.yul\":2442:2446   */\n      0x20\n        /* \"#utility.yul\":2434:2440   */\n      dup5\n        /* \"#utility.yul\":2430:2447   */\n      mul\n        /* \"#utility.yul\":2422:2428   */\n      dup4\n        /* \"#utility.yul\":2418:2448   */\n      add\n        /* \"#utility.yul\":2471:2474   */\n      dup6\n        /* \"#utility.yul\":2463:2469   */\n      dup2\n        /* \"#utility.yul\":2460:2475   */\n      gt\n        /* \"#utility.yul\":2457:2579   */\n      iszero\n      tag_250\n      jumpi\n        /* \"#utility.yul\":2490:2569   */\n      tag_251\n      tag_200\n      jump\t// in\n    tag_251:\n        /* \"#utility.yul\":2457:2579   */\n    tag_250:\n        /* \"#utility.yul\":2605:2611   */\n      dup4\n        /* \"#utility.yul\":2588:2808   */\n    tag_252:\n        /* \"#utility.yul\":2622:2628   */\n      dup2\n        /* \"#utility.yul\":2617:2620   */\n      dup2\n        /* \"#utility.yul\":2614:2629   */\n      lt\n        /* \"#utility.yul\":2588:2808   */\n      iszero\n      tag_254\n      jumpi\n        /* \"#utility.yul\":2697:2700   */\n      dup1\n        /* \"#utility.yul\":2726:2763   */\n      tag_255\n        /* \"#utility.yul\":2759:2762   */\n      dup9\n        /* \"#utility.yul\":2747:2757   */\n      dup3\n        /* \"#utility.yul\":2726:2763   */\n      tag_203\n      jump\t// in\n    tag_255:\n        /* \"#utility.yul\":2721:2724   */\n      dup5\n        /* \"#utility.yul\":2714:2764   */\n      mstore\n        /* \"#utility.yul\":2793:2797   */\n      0x20\n        /* \"#utility.yul\":2788:2791   */\n      dup5\n        /* \"#utility.yul\":2784:2798   */\n      add\n        /* \"#utility.yul\":2777:2798   */\n      swap4\n      pop\n        /* \"#utility.yul\":2664:2808   */\n      pop\n        /* \"#utility.yul\":2648:2652   */\n      0x20\n        /* \"#utility.yul\":2643:2646   */\n      dup2\n        /* \"#utility.yul\":2639:2653   */\n      add\n        /* \"#utility.yul\":2632:2653   */\n      swap1\n      pop\n        /* \"#utility.yul\":2588:2808   */\n      jump(tag_252)\n    tag_254:\n        /* \"#utility.yul\":2592:2613   */\n      pop\n        /* \"#utility.yul\":2271:2814   */\n      pop\n      pop\n        /* \"#utility.yul\":2171:2814   */\n      swap4\n      swap3\n      pop\n      pop\n      pop\n      jump\t// out\n        /* \"#utility.yul\":2838:3177   */\n    tag_205:\n        /* \"#utility.yul\":2907:2912   */\n      0x00\n        /* \"#utility.yul\":2956:2959   */\n      dup3\n        /* \"#utility.yul\":2949:2953   */\n      0x1f\n        /* \"#utility.yul\":2941:2947   */\n      dup4\n        /* \"#utility.yul\":2937:2954   */\n      add\n        /* \"#utility.yul\":2933:2960   */\n      slt\n        /* \"#utility.yul\":2923:3045   */\n      tag_257\n      jumpi\n        /* \"#utility.yul\":2964:3043   */\n      tag_258\n      tag_198\n      jump\t// in\n    tag_258:\n        /* \"#utility.yul\":2923:3045   */\n    tag_257:\n        /* \"#utility.yul\":3068:3072   */\n      0x02\n        /* \"#utility.yul\":3090:3171   */\n      tag_259\n        /* \"#utility.yul\":3167:3170   */\n      dup5\n        /* \"#utility.yul\":3159:3165   */\n      dup3\n        /* \"#utility.yul\":3151:3157   */\n      dup6\n        /* \"#utility.yul\":3090:3171   */\n      tag_204\n      jump\t// in\n    tag_259:\n        /* \"#utility.yul\":3081:3171   */\n      swap2\n      pop\n        /* \"#utility.yul\":2913:3177   */\n      pop\n        /* \"#utility.yul\":2838:3177   */\n      swap3\n      swap2\n      pop\n      pop\n      jump\t// out\n        /* \"#utility.yul\":3211:4452   */\n    tag_206:\n        /* \"#utility.yul\":3289:3294   */\n      0x00\n        /* \"#utility.yul\":3333:3339   */\n      0x0140\n        /* \"#utility.yul\":3321:3330   */\n      dup3\n        /* \"#utility.yul\":3316:3319   */\n      dup5\n        /* \"#utility.yul\":3312:3331   */\n      sub\n        /* \"#utility.yul\":3308:3340   */\n      slt\n        /* \"#utility.yul\":3305:3424   */\n      iszero\n      tag_261\n      jumpi\n        /* \"#utility.yul\":3343:3422   */\n      tag_262\n      tag_192\n      jump\t// in\n    tag_262:\n        /* \"#utility.yul\":3305:3424   */\n    tag_261:\n        /* \"#utility.yul\":3442:3463   */\n      tag_263\n        /* \"#utility.yul\":3458:3462   */\n      0xa0\n        /* \"#utility.yul\":3442:3463   */\n      tag_196\n      jump\t// in\n    tag_263:\n        /* \"#utility.yul\":3433:3463   */\n      swap1\n      pop\n        /* \"#utility.yul\":3537:3538   */\n      0x00\n        /* \"#utility.yul\":3577:3649   */\n      tag_264\n        /* \"#utility.yul\":3645:3648   */\n      dup5\n        /* \"#utility.yul\":3636:3642   */\n      dup3\n        /* \"#utility.yul\":3625:3634   */\n      dup6\n        /* \"#utility.yul\":3621:3643   */\n      add\n        /* \"#utility.yul\":3577:3649   */\n      tag_205\n      jump\t// in\n    tag_264:\n        /* \"#utility.yul\":3570:3574   */\n      0x00\n        /* \"#utility.yul\":3563:3568   */\n      dup4\n        /* \"#utility.yul\":3559:3575   */\n      add\n        /* \"#utility.yul\":3552:3650   */\n      mstore\n        /* \"#utility.yul\":3473:3661   */\n      pop\n        /* \"#utility.yul\":3729:3731   */\n      0x40\n        /* \"#utility.yul\":3770:3842   */\n      tag_265\n        /* \"#utility.yul\":3838:3841   */\n      dup5\n        /* \"#utility.yul\":3829:3835   */\n      dup3\n        /* \"#utility.yul\":3818:3827   */\n      dup6\n        /* \"#utility.yul\":3814:3836   */\n      add\n        /* \"#utility.yul\":3770:3842   */\n      tag_205\n      jump\t// in\n    tag_265:\n        /* \"#utility.yul\":3763:3767   */\n      0x20\n        /* \"#utility.yul\":3756:3761   */\n      dup4\n        /* \"#utility.yul\":3752:3768   */\n      add\n        /* \"#utility.yul\":3745:3843   */\n      mstore\n        /* \"#utility.yul\":3671:3854   */\n      pop\n        /* \"#utility.yul\":3923:3926   */\n      0x80\n        /* \"#utility.yul\":3965:4037   */\n      tag_266\n        /* \"#utility.yul\":4033:4036   */\n      dup5\n        /* \"#utility.yul\":4024:4030   */\n      dup3\n        /* \"#utility.yul\":4013:4022   */\n      dup6\n        /* \"#utility.yul\":4009:4031   */\n      add\n        /* \"#utility.yul\":3965:4037   */\n      tag_205\n      jump\t// in\n    tag_266:\n        /* \"#utility.yul\":3958:3962   */\n      0x40\n        /* \"#utility.yul\":3951:3956   */\n      dup4\n        /* \"#utility.yul\":3947:3963   */\n      add\n        /* \"#utility.yul\":3940:4038   */\n      mstore\n        /* \"#utility.yul\":3864:4049   */\n      pop\n        /* \"#utility.yul\":4120:4123   */\n      0xc0\n        /* \"#utility.yul\":4162:4234   */\n      tag_267\n        /* \"#utility.yul\":4230:4233   */\n      dup5\n        /* \"#utility.yul\":4221:4227   */\n      dup3\n        /* \"#utility.yul\":4210:4219   */\n      dup6\n        /* \"#utility.yul\":4206:4228   */\n      add\n        /* \"#utility.yul\":4162:4234   */\n      tag_205\n      jump\t// in\n    tag_267:\n        /* \"#utility.yul\":4155:4159   */\n      0x60\n        /* \"#utility.yul\":4148:4153   */\n      dup4\n        /* \"#utility.yul\":4144:4160   */\n      add\n        /* \"#utility.yul\":4137:4235   */\n      mstore\n        /* \"#utility.yul\":4059:4246   */\n      pop\n        /* \"#utility.yul\":4319:4322   */\n      0x0100\n        /* \"#utility.yul\":4361:4433   */\n      tag_268\n        /* \"#utility.yul\":4429:4432   */\n      dup5\n        /* \"#utility.yul\":4420:4426   */\n      dup3\n        /* \"#utility.yul\":4409:4418   */\n      dup6\n        /* \"#utility.yul\":4405:4427   */\n      add\n        /* \"#utility.yul\":4361:4433   */\n      tag_205\n      jump\t// in\n    tag_268:\n        /* \"#utility.yul\":4354:4358   */\n      0x80\n        /* \"#utility.yul\":4347:4352   */\n      dup4\n        /* \"#utility.yul\":4343:4359   */\n      add\n        /* \"#utility.yul\":4336:4434   */\n      mstore\n        /* \"#utility.yul\":4256:4445   */\n      pop\n        /* \"#utility.yul\":3211:4452   */\n      swap3\n      swap2\n      pop\n      pop\n      jump\t// out\n        /* \"#utility.yul\":4485:5719   */\n    tag_207:\n        /* \"#utility.yul\":4562:4567   */\n      0x00\n        /* \"#utility.yul\":4606:4612   */\n      0x0140\n        /* \"#utility.yul\":4594:4603   */\n      dup3\n        /* \"#utility.yul\":4589:4592   */\n      dup5\n        /* \"#utility.yul\":4585:4604   */\n      sub\n        /* \"#utility.yul\":4581:4613   */\n      slt\n        /* \"#utility.yul\":4578:4697   */\n      iszero\n      tag_270\n      jumpi\n        /* \"#utility.yul\":4616:4695   */\n      tag_271\n      tag_192\n      jump\t// in\n    tag_271:\n        /* \"#utility.yul\":4578:4697   */\n    tag_270:\n        /* \"#utility.yul\":4715:4736   */\n      tag_272\n        /* \"#utility.yul\":4731:4735   */\n      0xa0\n        /* \"#utility.yul\":4715:4736   */\n      tag_196\n      jump\t// in\n    tag_272:\n        /* \"#utility.yul\":4706:4736   */\n      swap1\n      pop\n        /* \"#utility.yul\":4804:4805   */\n      0x00\n        /* \"#utility.yul\":4844:4916   */\n      tag_273\n        /* \"#utility.yul\":4912:4915   */\n      dup5\n        /* \"#utility.yul\":4903:4909   */\n      dup3\n        /* \"#utility.yul\":4892:4901   */\n      dup6\n        /* \"#utility.yul\":4888:4910   */\n      add\n        /* \"#utility.yul\":4844:4916   */\n      tag_205\n      jump\t// in\n    tag_273:\n        /* \"#utility.yul\":4837:4841   */\n      0x00\n        /* \"#utility.yul\":4830:4835   */\n      dup4\n        /* \"#utility.yul\":4826:4842   */\n      add\n        /* \"#utility.yul\":4819:4917   */\n      mstore\n        /* \"#utility.yul\":4746:4928   */\n      pop\n        /* \"#utility.yul\":4995:4997   */\n      0x40\n        /* \"#utility.yul\":5036:5108   */\n      tag_274\n        /* \"#utility.yul\":5104:5107   */\n      dup5\n        /* \"#utility.yul\":5095:5101   */\n      dup3\n        /* \"#utility.yul\":5084:5093   */\n      dup6\n        /* \"#utility.yul\":5080:5102   */\n      add\n        /* \"#utility.yul\":5036:5108   */\n      tag_205\n      jump\t// in\n    tag_274:\n        /* \"#utility.yul\":5029:5033   */\n      0x20\n        /* \"#utility.yul\":5022:5027   */\n      dup4\n        /* \"#utility.yul\":5018:5034   */\n      add\n        /* \"#utility.yul\":5011:5109   */\n      mstore\n        /* \"#utility.yul\":4938:5120   */\n      pop\n        /* \"#utility.yul\":5190:5193   */\n      0x80\n        /* \"#utility.yul\":5232:5304   */\n      tag_275\n        /* \"#utility.yul\":5300:5303   */\n      dup5\n        /* \"#utility.yul\":5291:5297   */\n      dup3\n        /* \"#utility.yul\":5280:5289   */\n      dup6\n        /* \"#utility.yul\":5276:5298   */\n      add\n        /* \"#utility.yul\":5232:5304   */\n      tag_205\n      jump\t// in\n    tag_275:\n        /* \"#utility.yul\":5225:5229   */\n      0x40\n        /* \"#utility.yul\":5218:5223   */\n      dup4\n        /* \"#utility.yul\":5214:5230   */\n      add\n        /* \"#utility.yul\":5207:5305   */\n      mstore\n        /* \"#utility.yul\":5130:5316   */\n      pop\n        /* \"#utility.yul\":5389:5392   */\n      0xc0\n        /* \"#utility.yul\":5431:5503   */\n      tag_276\n        /* \"#utility.yul\":5499:5502   */\n      dup5\n        /* \"#utility.yul\":5490:5496   */\n      dup3\n        /* \"#utility.yul\":5479:5488   */\n      dup6\n        /* \"#utility.yul\":5475:5497   */\n      add\n        /* \"#utility.yul\":5431:5503   */\n      tag_205\n      jump\t// in\n    tag_276:\n        /* \"#utility.yul\":5424:5428   */\n      0x60\n        /* \"#utility.yul\":5417:5422   */\n      dup4\n        /* \"#utility.yul\":5413:5429   */\n      add\n        /* \"#utility.yul\":5406:5504   */\n      mstore\n        /* \"#utility.yul\":5326:5515   */\n      pop\n        /* \"#utility.yul\":5586:5589   */\n      0x0100\n        /* \"#utility.yul\":5628:5700   */\n      tag_277\n        /* \"#utility.yul\":5696:5699   */\n      dup5\n        /* \"#utility.yul\":5687:5693   */\n      dup3\n        /* \"#utility.yul\":5676:5685   */\n      dup6\n        /* \"#utility.yul\":5672:5694   */\n      add\n        /* \"#utility.yul\":5628:5700   */\n      tag_205\n      jump\t// in\n    tag_277:\n        /* \"#utility.yul\":5621:5625   */\n      0x80\n        /* \"#utility.yul\":5614:5619   */\n      dup4\n        /* \"#utility.yul\":5610:5626   */\n      add\n        /* \"#utility.yul\":5603:5701   */\n      mstore\n        /* \"#utility.yul\":5525:5712   */\n      pop\n        /* \"#utility.yul\":4485:5719   */\n      swap3\n      swap2\n      pop\n      pop\n      jump\t// out\n        /* \"#utility.yul\":5747:6767   */\n    tag_208:\n        /* \"#utility.yul\":5819:5824   */\n      0x00\n        /* \"#utility.yul\":5863:5869   */\n      0x0100\n        /* \"#utility.yul\":5851:5860   */\n      dup3\n        /* \"#utility.yul\":5846:5849   */\n      dup5\n        /* \"#utility.yul\":5842:5861   */\n      sub\n        /* \"#utility.yul\":5838:5870   */\n      slt\n        /* \"#utility.yul\":5835:5954   */\n      iszero\n      tag_279\n      jumpi\n        /* \"#utility.yul\":5873:5952   */\n      tag_280\n      tag_192\n      jump\t// in\n    tag_280:\n        /* \"#utility.yul\":5835:5954   */\n    tag_279:\n        /* \"#utility.yul\":5972:5993   */\n      tag_281\n        /* \"#utility.yul\":5988:5992   */\n      0x80\n        /* \"#utility.yul\":5972:5993   */\n      tag_196\n      jump\t// in\n    tag_281:\n        /* \"#utility.yul\":5963:5993   */\n      swap1\n      pop\n        /* \"#utility.yul\":6057:6058   */\n      0x00\n        /* \"#utility.yul\":6097:6169   */\n      tag_282\n        /* \"#utility.yul\":6165:6168   */\n      dup5\n        /* \"#utility.yul\":6156:6162   */\n      dup3\n        /* \"#utility.yul\":6145:6154   */\n      dup6\n        /* \"#utility.yul\":6141:6163   */\n      add\n        /* \"#utility.yul\":6097:6169   */\n      tag_205\n      jump\t// in\n    tag_282:\n        /* \"#utility.yul\":6090:6094   */\n      0x00\n        /* \"#utility.yul\":6083:6088   */\n      dup4\n        /* \"#utility.yul\":6079:6095   */\n      add\n        /* \"#utility.yul\":6072:6170   */\n      mstore\n        /* \"#utility.yul\":6003:6181   */\n      pop\n        /* \"#utility.yul\":6250:6252   */\n      0x40\n        /* \"#utility.yul\":6291:6363   */\n      tag_283\n        /* \"#utility.yul\":6359:6362   */\n      dup5\n        /* \"#utility.yul\":6350:6356   */\n      dup3\n        /* \"#utility.yul\":6339:6348   */\n      dup6\n        /* \"#utility.yul\":6335:6357   */\n      add\n        /* \"#utility.yul\":6291:6363   */\n      tag_205\n      jump\t// in\n    tag_283:\n        /* \"#utility.yul\":6284:6288   */\n      0x20\n        /* \"#utility.yul\":6277:6282   */\n      dup4\n        /* \"#utility.yul\":6273:6289   */\n      add\n        /* \"#utility.yul\":6266:6364   */\n      mstore\n        /* \"#utility.yul\":6191:6375   */\n      pop\n        /* \"#utility.yul\":6438:6441   */\n      0x80\n        /* \"#utility.yul\":6480:6552   */\n      tag_284\n        /* \"#utility.yul\":6548:6551   */\n      dup5\n        /* \"#utility.yul\":6539:6545   */\n      dup3\n        /* \"#utility.yul\":6528:6537   */\n      dup6\n        /* \"#utility.yul\":6524:6546   */\n      add\n        /* \"#utility.yul\":6480:6552   */\n      tag_205\n      jump\t// in\n    tag_284:\n        /* \"#utility.yul\":6473:6477   */\n      0x40\n        /* \"#utility.yul\":6466:6471   */\n      dup4\n        /* \"#utility.yul\":6462:6478   */\n      add\n        /* \"#utility.yul\":6455:6553   */\n      mstore\n        /* \"#utility.yul\":6385:6564   */\n      pop\n        /* \"#utility.yul\":6634:6637   */\n      0xc0\n        /* \"#utility.yul\":6676:6748   */\n      tag_285\n        /* \"#utility.yul\":6744:6747   */\n      dup5\n        /* \"#utility.yul\":6735:6741   */\n      dup3\n        /* \"#utility.yul\":6724:6733   */\n      dup6\n        /* \"#utility.yul\":6720:6742   */\n      add\n        /* \"#utility.yul\":6676:6748   */\n      tag_205\n      jump\t// in\n    tag_285:\n        /* \"#utility.yul\":6669:6673   */\n      0x60\n        /* \"#utility.yul\":6662:6667   */\n      dup4\n        /* \"#utility.yul\":6658:6674   */\n      add\n        /* \"#utility.yul\":6651:6749   */\n      mstore\n        /* \"#utility.yul\":6574:6760   */\n      pop\n        /* \"#utility.yul\":5747:6767   */\n      swap3\n      swap2\n      pop\n      pop\n      jump\t// out\n        /* \"#utility.yul\":6773:7555   */\n    tag_8:\n        /* \"#utility.yul\":6930:6936   */\n      0x00\n        /* \"#utility.yul\":6938:6944   */\n      dup1\n        /* \"#utility.yul\":6946:6952   */\n      0x00\n        /* \"#utility.yul\":6995:6998   */\n      0x0380\n        /* \"#utility.yul\":6983:6992   */\n      dup5\n        /* \"#utility.yul\":6974:6981   */\n      dup7\n        /* \"#utility.yul\":6970:6993   */\n      sub\n        /* \"#utility.yul\":6966:6999   */\n      slt\n        /* \"#utility.yul\":6963:7083   */\n      iszero\n      tag_287\n      jumpi\n        /* \"#utility.yul\":7002:7081   */\n      tag_288\n      tag_190\n      jump\t// in\n    tag_288:\n        /* \"#utility.yul\":6963:7083   */\n    tag_287:\n        /* \"#utility.yul\":7122:7123   */\n      0x00\n        /* \"#utility.yul\":7147:7229   */\n      tag_289\n        /* \"#utility.yul\":7221:7228   */\n      dup7\n        /* \"#utility.yul\":7212:7218   */\n      dup3\n        /* \"#utility.yul\":7201:7210   */\n      dup8\n        /* \"#utility.yul\":7197:7219   */\n      add\n        /* \"#utility.yul\":7147:7229   */\n      tag_206\n      jump\t// in\n    tag_289:\n        /* \"#utility.yul\":7137:7229   */\n      swap4\n      pop\n        /* \"#utility.yul\":7093:7239   */\n      pop\n        /* \"#utility.yul\":7278:7281   */\n      0x0140\n        /* \"#utility.yul\":7305:7386   */\n      tag_290\n        /* \"#utility.yul\":7378:7385   */\n      dup7\n        /* \"#utility.yul\":7369:7375   */\n      dup3\n        /* \"#utility.yul\":7358:7367   */\n      dup8\n        /* \"#utility.yul\":7354:7376   */\n      add\n        /* \"#utility.yul\":7305:7386   */\n      tag_207\n      jump\t// in\n    tag_290:\n        /* \"#utility.yul\":7295:7386   */\n      swap3\n      pop\n        /* \"#utility.yul\":7249:7396   */\n      pop\n        /* \"#utility.yul\":7435:7438   */\n      0x0280\n        /* \"#utility.yul\":7462:7538   */\n      tag_291\n        /* \"#utility.yul\":7530:7537   */\n      dup7\n        /* \"#utility.yul\":7521:7527   */\n      dup3\n        /* \"#utility.yul\":7510:7519   */\n      dup8\n        /* \"#utility.yul\":7506:7528   */\n      add\n        /* \"#utility.yul\":7462:7538   */\n      tag_208\n      jump\t// in\n    tag_291:\n        /* \"#utility.yul\":7452:7538   */\n      swap2\n      pop\n        /* \"#utility.yul\":7406:7548   */\n      pop\n        /* \"#utility.yul\":6773:7555   */\n      swap3\n      pop\n      swap3\n      pop\n      swap3\n      jump\t// out\n        /* \"#utility.yul\":7561:7687   */\n    tag_209:\n        /* \"#utility.yul\":7598:7605   */\n      0x00\n        /* \"#utility.yul\":7638:7680   */\n      0xffffffffffffffffffffffffffffffffffffffff\n        /* \"#utility.yul\":7631:7636   */\n      dup3\n        /* \"#utility.yul\":7627:7681   */\n      and\n        /* \"#utility.yul\":7616:7681   */\n      swap1\n      pop\n        /* \"#utility.yul\":7561:7687   */\n      swap2\n      swap1\n      pop\n      jump\t// out\n        /* \"#utility.yul\":7693:7789   */\n    tag_210:\n        /* \"#utility.yul\":7730:7737   */\n      0x00\n        /* \"#utility.yul\":7759:7783   */\n      tag_294\n        /* \"#utility.yul\":7777:7782   */\n      dup3\n        /* \"#utility.yul\":7759:7783   */\n      tag_209\n      jump\t// in\n    tag_294:\n        /* \"#utility.yul\":7748:7783   */\n      swap1\n      pop\n        /* \"#utility.yul\":7693:7789   */\n      swap2\n      swap1\n      pop\n      jump\t// out\n        /* \"#utility.yul\":7795:7917   */\n    tag_211:\n        /* \"#utility.yul\":7868:7892   */\n      tag_296\n        /* \"#utility.yul\":7886:7891   */\n      dup2\n        /* \"#utility.yul\":7868:7892   */\n      tag_210\n      jump\t// in\n    tag_296:\n        /* \"#utility.yul\":7861:7866   */\n      dup2\n        /* \"#utility.yul\":7858:7893   */\n      eq\n        /* \"#utility.yul\":7848:7911   */\n      tag_297\n      jumpi\n        /* \"#utility.yul\":7907:7908   */\n      0x00\n        /* \"#utility.yul\":7904:7905   */\n      dup1\n        /* \"#utility.yul\":7897:7909   */\n      revert\n        /* \"#utility.yul\":7848:7911   */\n    tag_297:\n        /* \"#utility.yul\":7795:7917   */\n      pop\n      jump\t// out\n        /* \"#utility.yul\":7923:8062   */\n    tag_212:\n        /* \"#utility.yul\":7969:7974   */\n      0x00\n        /* \"#utility.yul\":8007:8013   */\n      dup2\n        /* \"#utility.yul\":7994:8014   */\n      calldataload\n        /* \"#utility.yul\":7985:8014   */\n      swap1\n      pop\n        /* \"#utility.yul\":8023:8056   */\n      tag_299\n        /* \"#utility.yul\":8050:8055   */\n      dup2\n        /* \"#utility.yul\":8023:8056   */\n      tag_211\n      jump\t// in\n    tag_299:\n        /* \"#utility.yul\":7923:8062   */\n      swap3\n      swap2\n      pop\n      pop\n      jump\t// out\n        /* \"#utility.yul\":8068:8397   */\n    tag_12:\n        /* \"#utility.yul\":8127:8133   */\n      0x00\n        /* \"#utility.yul\":8176:8178   */\n      0x20\n        /* \"#utility.yul\":8164:8173   */\n      dup3\n        /* \"#utility.yul\":8155:8162   */\n      dup5\n        /* \"#utility.yul\":8151:8174   */\n      sub\n        /* \"#utility.yul\":8147:8179   */\n      slt\n        /* \"#utility.yul\":8144:8263   */\n      iszero\n      tag_301\n      jumpi\n        /* \"#utility.yul\":8182:8261   */\n      tag_302\n      tag_190\n      jump\t// in\n    tag_302:\n        /* \"#utility.yul\":8144:8263   */\n    tag_301:\n        /* \"#utility.yul\":8302:8303   */\n      0x00\n        /* \"#utility.yul\":8327:8380   */\n      tag_303\n        /* \"#utility.yul\":8372:8379   */\n      dup5\n        /* \"#utility.yul\":8363:8369   */\n      dup3\n        /* \"#utility.yul\":8352:8361   */\n      dup6\n        /* \"#utility.yul\":8348:8370   */\n      add\n        /* \"#utility.yul\":8327:8380   */\n      tag_212\n      jump\t// in\n    tag_303:\n        /* \"#utility.yul\":8317:8380   */\n      swap2\n      pop\n        /* \"#utility.yul\":8273:8390   */\n      pop\n        /* \"#utility.yul\":8068:8397   */\n      swap3\n      swap2\n      pop\n      pop\n      jump\t// out\n        /* \"#utility.yul\":8403:8877   */\n    tag_16:\n        /* \"#utility.yul\":8471:8477   */\n      0x00\n        /* \"#utility.yul\":8479:8485   */\n      dup1\n        /* \"#utility.yul\":8528:8530   */\n      0x40\n        /* \"#utility.yul\":8516:8525   */\n      dup4\n        /* \"#utility.yul\":8507:8514   */\n      dup6\n        /* \"#utility.yul\":8503:8526   */\n      sub\n        /* \"#utility.yul\":8499:8531   */\n      slt\n        /* \"#utility.yul\":8496:8615   */\n      iszero\n      tag_305\n      jumpi\n        /* \"#utility.yul\":8534:8613   */\n      tag_306\n      tag_190\n      jump\t// in\n    tag_306:\n        /* \"#utility.yul\":8496:8615   */\n    tag_305:\n        /* \"#utility.yul\":8654:8655   */\n      0x00\n        /* \"#utility.yul\":8679:8732   */\n      tag_307\n        /* \"#utility.yul\":8724:8731   */\n      dup6\n        /* \"#utility.yul\":8715:8721   */\n      dup3\n        /* \"#utility.yul\":8704:8713   */\n      dup7\n        /* \"#utility.yul\":8700:8722   */\n      add\n        /* \"#utility.yul\":8679:8732   */\n      tag_203\n      jump\t// in\n    tag_307:\n        /* \"#utility.yul\":8669:8732   */\n      swap3\n      pop\n        /* \"#utility.yul\":8625:8742   */\n      pop\n        /* \"#utility.yul\":8781:8783   */\n      0x20\n        /* \"#utility.yul\":8807:8860   */\n      tag_308\n        /* \"#utility.yul\":8852:8859   */\n      dup6\n        /* \"#utility.yul\":8843:8849   */\n      dup3\n        /* \"#utility.yul\":8832:8841   */\n      dup7\n        /* \"#utility.yul\":8828:8850   */\n      add\n        /* \"#utility.yul\":8807:8860   */\n      tag_203\n      jump\t// in\n    tag_308:\n        /* \"#utility.yul\":8797:8860   */\n      swap2\n      pop\n        /* \"#utility.yul\":8752:8870   */\n      pop\n        /* \"#utility.yul\":8403:8877   */\n      swap3\n      pop\n      swap3\n      swap1\n      pop\n      jump\t// out\n        /* \"#utility.yul\":8883:9001   */\n    tag_213:\n        /* \"#utility.yul\":8970:8994   */\n      tag_310\n        /* \"#utility.yul\":8988:8993   */\n      dup2\n        /* \"#utility.yul\":8970:8994   */\n      tag_201\n      jump\t// in\n    tag_310:\n        /* \"#utility.yul\":8965:8968   */\n      dup3\n        /* \"#utility.yul\":8958:8995   */\n      mstore\n        /* \"#utility.yul\":8883:9001   */\n      pop\n      pop\n      jump\t// out\n        /* \"#utility.yul\":9007:9782   */\n    tag_19:\n        /* \"#utility.yul\":9240:9244   */\n      0x00\n        /* \"#utility.yul\":9278:9281   */\n      0xc0\n        /* \"#utility.yul\":9267:9276   */\n      dup3\n        /* \"#utility.yul\":9263:9282   */\n      add\n        /* \"#utility.yul\":9255:9282   */\n      swap1\n      pop\n        /* \"#utility.yul\":9292:9363   */\n      tag_312\n        /* \"#utility.yul\":9360:9361   */\n      0x00\n        /* \"#utility.yul\":9349:9358   */\n      dup4\n        /* \"#utility.yul\":9345:9362   */\n      add\n        /* \"#utility.yul\":9336:9342   */\n      dup10\n        /* \"#utility.yul\":9292:9363   */\n      tag_213\n      jump\t// in\n    tag_312:\n        /* \"#utility.yul\":9373:9445   */\n      tag_313\n        /* \"#utility.yul\":9441:9443   */\n      0x20\n        /* \"#utility.yul\":9430:9439   */\n      dup4\n        /* \"#utility.yul\":9426:9444   */\n      add\n        /* \"#utility.yul\":9417:9423   */\n      dup9\n        /* \"#utility.yul\":9373:9445   */\n      tag_213\n      jump\t// in\n    tag_313:\n        /* \"#utility.yul\":9455:9527   */\n      tag_314\n        /* \"#utility.yul\":9523:9525   */\n      0x40\n        /* \"#utility.yul\":9512:9521   */\n      dup4\n        /* \"#utility.yul\":9508:9526   */\n      add\n        /* \"#utility.yul\":9499:9505   */\n      dup8\n        /* \"#utility.yul\":9455:9527   */\n      tag_213\n      jump\t// in\n    tag_314:\n        /* \"#utility.yul\":9537:9609   */\n      tag_315\n        /* \"#utility.yul\":9605:9607   */\n      0x60\n        /* \"#utility.yul\":9594:9603   */\n      dup4\n        /* \"#utility.yul\":9590:9608   */\n      add\n        /* \"#utility.yul\":9581:9587   */\n      dup7\n        /* \"#utility.yul\":9537:9609   */\n      tag_213\n      jump\t// in\n    tag_315:\n        /* \"#utility.yul\":9619:9692   */\n      tag_316\n        /* \"#utility.yul\":9687:9690   */\n      0x80\n        /* \"#utility.yul\":9676:9685   */\n      dup4\n        /* \"#utility.yul\":9672:9691   */\n      add\n        /* \"#utility.yul\":9663:9669   */\n      dup6\n        /* \"#utility.yul\":9619:9692   */\n      tag_213\n      jump\t// in\n    tag_316:\n        /* \"#utility.yul\":9702:9775   */\n      tag_317\n        /* \"#utility.yul\":9770:9773   */\n      0xa0\n        /* \"#utility.yul\":9759:9768   */\n      dup4\n        /* \"#utility.yul\":9755:9774   */\n      add\n        /* \"#utility.yul\":9746:9752   */\n      dup5\n        /* \"#utility.yul\":9702:9775   */\n      tag_213\n      jump\t// in\n    tag_317:\n        /* \"#utility.yul\":9007:9782   */\n      swap8\n      swap7\n      pop\n      pop\n      pop\n      pop\n      pop\n      pop\n      pop\n      jump\t// out\n        /* \"#utility.yul\":9788:9957   */\n    tag_214:\n        /* \"#utility.yul\":9872:9883   */\n      0x00\n        /* \"#utility.yul\":9906:9912   */\n      dup3\n        /* \"#utility.yul\":9901:9904   */\n      dup3\n        /* \"#utility.yul\":9894:9913   */\n      mstore\n        /* \"#utility.yul\":9946:9950   */\n      0x20\n        /* \"#utility.yul\":9941:9944   */\n      dup3\n        /* \"#utility.yul\":9937:9951   */\n      add\n        /* \"#utility.yul\":9922:9951   */\n      swap1\n      pop\n        /* \"#utility.yul\":9788:9957   */\n      swap3\n      swap2\n      pop\n      pop\n      jump\t// out\n        /* \"#utility.yul\":9963:10128   */\n    tag_215:\n        /* \"#utility.yul\":10103:10120   */\n      0x50686169206c61207175616e206c790000000000000000000000000000000000\n        /* \"#utility.yul\":10099:10100   */\n      0x00\n        /* \"#utility.yul\":10091:10097   */\n      dup3\n        /* \"#utility.yul\":10087:10101   */\n      add\n        /* \"#utility.yul\":10080:10121   */\n      mstore\n        /* \"#utility.yul\":9963:10128   */\n      pop\n      jump\t// out\n        /* \"#utility.yul\":10134:10500   */\n    tag_216:\n        /* \"#utility.yul\":10276:10279   */\n      0x00\n        /* \"#utility.yul\":10297:10364   */\n      tag_321\n        /* \"#utility.yul\":10361:10363   */\n      0x0f\n        /* \"#utility.yul\":10356:10359   */\n      dup4\n        /* \"#utility.yul\":10297:10364   */\n      tag_214\n      jump\t// in\n    tag_321:\n        /* \"#utility.yul\":10290:10364   */\n      swap2\n      pop\n        /* \"#utility.yul\":10373:10466   */\n      tag_322\n        /* \"#utility.yul\":10462:10465   */\n      dup3\n        /* \"#utility.yul\":10373:10466   */\n      tag_215\n      jump\t// in\n    tag_322:\n        /* \"#utility.yul\":10491:10493   */\n      0x20\n        /* \"#utility.yul\":10486:10489   */\n      dup3\n        /* \"#utility.yul\":10482:10494   */\n      add\n        /* \"#utility.yul\":10475:10494   */\n      swap1\n      pop\n        /* \"#utility.yul\":10134:10500   */\n      swap2\n      swap1\n      pop\n      jump\t// out\n        /* \"#utility.yul\":10506:10925   */\n    tag_23:\n        /* \"#utility.yul\":10672:10676   */\n      0x00\n        /* \"#utility.yul\":10710:10712   */\n      0x20\n        /* \"#utility.yul\":10699:10708   */\n      dup3\n        /* \"#utility.yul\":10695:10713   */\n      add\n        /* \"#utility.yul\":10687:10713   */\n      swap1\n      pop\n        /* \"#utility.yul\":10759:10768   */\n      dup2\n        /* \"#utility.yul\":10753:10757   */\n      dup2\n        /* \"#utility.yul\":10749:10769   */\n      sub\n        /* \"#utility.yul\":10745:10746   */\n      0x00\n        /* \"#utility.yul\":10734:10743   */\n      dup4\n        /* \"#utility.yul\":10730:10747   */\n      add\n        /* \"#utility.yul\":10723:10770   */\n      mstore\n        /* \"#utility.yul\":10787:10918   */\n      tag_324\n        /* \"#utility.yul\":10913:10917   */\n      dup2\n        /* \"#utility.yul\":10787:10918   */\n      tag_216\n      jump\t// in\n    tag_324:\n        /* \"#utility.yul\":10779:10918   */\n      swap1\n      pop\n        /* \"#utility.yul\":10506:10925   */\n      swap2\n      swap1\n      pop\n      jump\t// out\n        /* \"#utility.yul\":10931:11111   */\n    tag_217:\n        /* \"#utility.yul\":10979:11056   */\n      0x4e487b7100000000000000000000000000000000000000000000000000000000\n        /* \"#utility.yul\":10976:10977   */\n      0x00\n        /* \"#utility.yul\":10969:11057   */\n      mstore\n        /* \"#utility.yul\":11076:11080   */\n      0x12\n        /* \"#utility.yul\":11073:11074   */\n      0x04\n        /* \"#utility.yul\":11066:11081   */\n      mstore\n        /* \"#utility.yul\":11100:11104   */\n      0x24\n        /* \"#utility.yul\":11097:11098   */\n      0x00\n        /* \"#utility.yul\":11090:11105   */\n      revert\n        /* \"#utility.yul\":11117:11297   */\n    tag_218:\n        /* \"#utility.yul\":11165:11242   */\n      0x4e487b7100000000000000000000000000000000000000000000000000000000\n        /* \"#utility.yul\":11162:11163   */\n      0x00\n        /* \"#utility.yul\":11155:11243   */\n      mstore\n        /* \"#utility.yul\":11262:11266   */\n      0x11\n        /* \"#utility.yul\":11259:11260   */\n      0x04\n        /* \"#utility.yul\":11252:11267   */\n      mstore\n        /* \"#utility.yul\":11286:11290   */\n      0x24\n        /* \"#utility.yul\":11283:11284   */\n      0x00\n        /* \"#utility.yul\":11276:11291   */\n      revert\n        /* \"#utility.yul\":11303:11488   */\n    tag_26:\n        /* \"#utility.yul\":11343:11344   */\n      0x00\n        /* \"#utility.yul\":11360:11380   */\n      tag_328\n        /* \"#utility.yul\":11378:11379   */\n      dup3\n        /* \"#utility.yul\":11360:11380   */\n      tag_201\n      jump\t// in\n    tag_328:\n        /* \"#utility.yul\":11355:11380   */\n      swap2\n      pop\n        /* \"#utility.yul\":11394:11414   */\n      tag_329\n        /* \"#utility.yul\":11412:11413   */\n      dup4\n        /* \"#utility.yul\":11394:11414   */\n      tag_201\n      jump\t// in\n    tag_329:\n        /* \"#utility.yul\":11389:11414   */\n      swap3\n      pop\n        /* \"#utility.yul\":11433:11434   */\n      dup3\n        /* \"#utility.yul\":11423:11458   */\n      tag_330\n      jumpi\n        /* \"#utility.yul\":11438:11456   */\n      tag_331\n      tag_217\n      jump\t// in\n    tag_331:\n        /* \"#utility.yul\":11423:11458   */\n    tag_330:\n        /* \"#utility.yul\":11480:11481   */\n      dup3\n        /* \"#utility.yul\":11477:11478   */\n      dup3\n        /* \"#utility.yul\":11473:11482   */\n      div\n        /* \"#utility.yul\":11468:11482   */\n      swap1\n      pop\n        /* \"#utility.yul\":11303:11488   */\n      swap3\n      swap2\n      pop\n      pop\n      jump\t// out\n        /* \"#utility.yul\":11494:11685   */\n    tag_28:\n        /* \"#utility.yul\":11534:11537   */\n      0x00\n        /* \"#utility.yul\":11553:11573   */\n      tag_333\n        /* \"#utility.yul\":11571:11572   */\n      dup3\n        /* \"#utility.yul\":11553:11573   */\n      tag_201\n      jump\t// in\n    tag_333:\n        /* \"#utility.yul\":11548:11573   */\n      swap2\n      pop\n        /* \"#utility.yul\":11587:11607   */\n      tag_334\n        /* \"#utility.yul\":11605:11606   */\n      dup4\n        /* \"#utility.yul\":11587:11607   */\n      tag_201\n      jump\t// in\n    tag_334:\n        /* \"#utility.yul\":11582:11607   */\n      swap3\n      pop\n        /* \"#utility.yul\":11630:11631   */\n      dup3\n        /* \"#utility.yul\":11627:11628   */\n      dup3\n        /* \"#utility.yul\":11623:11632   */\n      add\n        /* \"#utility.yul\":11616:11632   */\n      swap1\n      pop\n        /* \"#utility.yul\":11651:11654   */\n      dup1\n        /* \"#utility.yul\":11648:11649   */\n      dup3\n        /* \"#utility.yul\":11645:11655   */\n      gt\n        /* \"#utility.yul\":11642:11678   */\n      iszero\n      tag_335\n      jumpi\n        /* \"#utility.yul\":11658:11676   */\n      tag_336\n      tag_218\n      jump\t// in\n    tag_336:\n        /* \"#utility.yul\":11642:11678   */\n    tag_335:\n        /* \"#utility.yul\":11494:11685   */\n      swap3\n      swap2\n      pop\n      pop\n      jump\t// out\n        /* \"#utility.yul\":11691:11867   */\n    tag_31:\n        /* \"#utility.yul\":11723:11724   */\n      0x00\n        /* \"#utility.yul\":11740:11760   */\n      tag_338\n        /* \"#utility.yul\":11758:11759   */\n      dup3\n        /* \"#utility.yul\":11740:11760   */\n      tag_201\n      jump\t// in\n    tag_338:\n        /* \"#utility.yul\":11735:11760   */\n      swap2\n      pop\n        /* \"#utility.yul\":11774:11794   */\n      tag_339\n        /* \"#utility.yul\":11792:11793   */\n      dup4\n        /* \"#utility.yul\":11774:11794   */\n      tag_201\n      jump\t// in\n    tag_339:\n        /* \"#utility.yul\":11769:11794   */\n      swap3\n      pop\n        /* \"#utility.yul\":11813:11814   */\n      dup3\n        /* \"#utility.yul\":11803:11838   */\n      tag_340\n      jumpi\n        /* \"#utility.yul\":11818:11836   */\n      tag_341\n      tag_217\n      jump\t// in\n    tag_341:\n        /* \"#utility.yul\":11803:11838   */\n    tag_340:\n        /* \"#utility.yul\":11859:11860   */\n      dup3\n        /* \"#utility.yul\":11856:11857   */\n      dup3\n        /* \"#utility.yul\":11852:11861   */\n      mod\n        /* \"#utility.yul\":11847:11861   */\n      swap1\n      pop\n        /* \"#utility.yul\":11691:11867   */\n      swap3\n      swap2\n      pop\n      pop\n      jump\t// out\n        /* \"#utility.yul\":11873:12283   */\n    tag_34:\n        /* \"#utility.yul\":11913:11920   */\n      0x00\n        /* \"#utility.yul\":11936:11956   */\n      tag_343\n        /* \"#utility.yul\":11954:11955   */\n      dup3\n        /* \"#utility.yul\":11936:11956   */\n      tag_201\n      jump\t// in\n    tag_343:\n        /* \"#utility.yul\":11931:11956   */\n      swap2\n      pop\n        /* \"#utility.yul\":11970:11990   */\n      tag_344\n        /* \"#utility.yul\":11988:11989   */\n      dup4\n        /* \"#utility.yul\":11970:11990   */\n      tag_201\n      jump\t// in\n    tag_344:\n        /* \"#utility.yul\":11965:11990   */\n      swap3\n      pop\n        /* \"#utility.yul\":12025:12026   */\n      dup3\n        /* \"#utility.yul\":12022:12023   */\n      dup3\n        /* \"#utility.yul\":12018:12027   */\n      mul\n        /* \"#utility.yul\":12047:12077   */\n      tag_345\n        /* \"#utility.yul\":12065:12076   */\n      dup2\n        /* \"#utility.yul\":12047:12077   */\n      tag_201\n      jump\t// in\n    tag_345:\n        /* \"#utility.yul\":12036:12077   */\n      swap2\n      pop\n        /* \"#utility.yul\":12226:12227   */\n      dup3\n        /* \"#utility.yul\":12217:12224   */\n      dup3\n        /* \"#utility.yul\":12213:12228   */\n      div\n        /* \"#utility.yul\":12210:12211   */\n      dup5\n        /* \"#utility.yul\":12207:12229   */\n      eq\n        /* \"#utility.yul\":12187:12188   */\n      dup4\n        /* \"#utility.yul\":12180:12189   */\n      iszero\n        /* \"#utility.yul\":12160:12243   */\n      or\n        /* \"#utility.yul\":12137:12276   */\n      tag_346\n      jumpi\n        /* \"#utility.yul\":12256:12274   */\n      tag_347\n      tag_218\n      jump\t// in\n    tag_347:\n        /* \"#utility.yul\":12137:12276   */\n    tag_346:\n        /* \"#utility.yul\":11921:12283   */\n      pop\n        /* \"#utility.yul\":11873:12283   */\n      swap3\n      swap2\n      pop\n      pop\n      jump\t// out\n        /* \"#utility.yul\":12289:12469   */\n    tag_62:\n        /* \"#utility.yul\":12337:12414   */\n      0x4e487b7100000000000000000000000000000000000000000000000000000000\n        /* \"#utility.yul\":12334:12335   */\n      0x00\n        /* \"#utility.yul\":12327:12415   */\n      mstore\n        /* \"#utility.yul\":12434:12438   */\n      0x32\n        /* \"#utility.yul\":12431:12432   */\n      0x04\n        /* \"#utility.yul\":12424:12439   */\n      mstore\n        /* \"#utility.yul\":12458:12462   */\n      0x24\n        /* \"#utility.yul\":12455:12456   */\n      0x00\n        /* \"#utility.yul\":12448:12463   */\n      revert\n        /* \"#utility.yul\":12475:12708   */\n    tag_66:\n        /* \"#utility.yul\":12514:12517   */\n      0x00\n        /* \"#utility.yul\":12537:12561   */\n      tag_350\n        /* \"#utility.yul\":12555:12560   */\n      dup3\n        /* \"#utility.yul\":12537:12561   */\n      tag_201\n      jump\t// in\n    tag_350:\n        /* \"#utility.yul\":12528:12561   */\n      swap2\n      pop\n        /* \"#utility.yul\":12583:12649   */\n      0xffffffffffffffffffffffffffffffffffffffffffffffffffffffffffffffff\n        /* \"#utility.yul\":12576:12581   */\n      dup3\n        /* \"#utility.yul\":12573:12650   */\n      sub\n        /* \"#utility.yul\":12570:12673   */\n      tag_351\n      jumpi\n        /* \"#utility.yul\":12653:12671   */\n      tag_352\n      tag_218\n      jump\t// in\n    tag_352:\n        /* \"#utility.yul\":12570:12673   */\n    tag_351:\n        /* \"#utility.yul\":12700:12701   */\n      0x01\n        /* \"#utility.yul\":12693:12698   */\n      dup3\n        /* \"#utility.yul\":12689:12702   */\n      add\n        /* \"#utility.yul\":12682:12702   */\n      swap1\n      pop\n        /* \"#utility.yul\":12475:12708   */\n      swap2\n      swap1\n      pop\n      jump\t// out\n        /* \"#utility.yul\":12714:12879   */\n    tag_219:\n        /* \"#utility.yul\":12854:12871   */\n      0x50686169206c61206b6520746f616e0000000000000000000000000000000000\n        /* \"#utility.yul\":12850:12851   */\n      0x00\n        /* \"#utility.yul\":12842:12848   */\n      dup3\n        /* \"#utility.yul\":12838:12852   */\n      add\n        /* \"#utility.yul\":12831:12872   */\n      mstore\n        /* \"#utility.yul\":12714:12879   */\n      pop\n      jump\t// out\n        /* \"#utility.yul\":12885:13251   */\n    tag_220:\n        /* \"#utility.yul\":13027:13030   */\n      0x00\n        /* \"#utility.yul\":13048:13115   */\n      tag_355\n        /* \"#utility.yul\":13112:13114   */\n      0x0f\n        /* \"#utility.yul\":13107:13110   */\n      dup4\n        /* \"#utility.yul\":13048:13115   */\n      tag_214\n      jump\t// in\n    tag_355:\n        /* \"#utility.yul\":13041:13115   */\n      swap2\n      pop\n        /* \"#utility.yul\":13124:13217   */\n      tag_356\n        /* \"#utility.yul\":13213:13216   */\n      dup3\n        /* \"#utility.yul\":13124:13217   */\n      tag_219\n      jump\t// in\n    tag_356:\n        /* \"#utility.yul\":13242:13244   */\n      0x20\n        /* \"#utility.yul\":13237:13240   */\n      dup3\n        /* \"#utility.yul\":13233:13245   */\n      add\n        /* \"#utility.yul\":13226:13245   */\n      swap1\n      pop\n        /* \"#utility.yul\":12885:13251   */\n      swap2\n      swap1\n      pop\n      jump\t// out\n        /* \"#utility.yul\":13257:13676   */\n    tag_69:\n        /* \"#utility.yul\":13423:13427   */\n      0x00\n        /* \"#utility.yul\":13461:13463   */\n      0x20\n        /* \"#utility.yul\":13450:13459   */\n      dup3\n        /* \"#utility.yul\":13446:13464   */\n      add\n        /* \"#utility.yul\":13438:13464   */\n      swap1\n      pop\n        /* \"#utility.yul\":13510:13519   */\n      dup2\n        /* \"#utility.yul\":13504:13508   */\n      dup2\n        /* \"#utility.yul\":13500:13520   */\n      sub\n        /* \"#utility.yul\":13496:13497   */\n      0x00\n        /* \"#utility.yul\":13485:13494   */\n      dup4\n        /* \"#utility.yul\":13481:13498   */\n      add\n        /* \"#utility.yul\":13474:13521   */\n      mstore\n        /* \"#utility.yul\":13538:13669   */\n      tag_358\n        /* \"#utility.yul\":13664:13668   */\n      dup2\n        /* \"#utility.yul\":13538:13669   */\n      tag_220\n      jump\t// in\n    tag_358:\n        /* \"#utility.yul\":13530:13669   */\n      swap1\n      pop\n        /* \"#utility.yul\":13257:13676   */\n      swap2\n      swap1\n      pop\n      jump\t// out\n\n    auxdata: 0xa264697066735822122053a8a8d0006dca96b2c9a8a72582e93ff150c534f15d40612de31e733b00cc7c64736f6c63430008150033\n}\n",
				"bytecode": {
					"linkReferences": {},
					"object": "608060405234801561000f575f80fd5b50335f806101000a81548173ffffffffffffffffffffffffffffffffffffffff021916908373ffffffffffffffffffffffffffffffffffffffff1602179055506111778061005c5f395ff3fe608060405234801561000f575f80fd5b506004361061003f575f3560e01c80630e108d71146100435780638cc151e81461005f578063f846a6771461007b575b5f80fd5b61005d60048036038101906100589190610d3b565b6100b0565b005b61007960048036038101906100749190610de8565b61033d565b005b61009560048036038101906100909190610e13565b61042d565b6040516100a796959493929190610e60565b60405180910390f35b5f8054906101000a900473ffffffffffffffffffffffffffffffffffffffff1673ffffffffffffffffffffffffffffffffffffffff163373ffffffffffffffffffffffffffffffffffffffff161461013d576040517f08c379a000000000000000000000000000000000000000000000000000000000815260040161013490610f19565b60405180910390fd5b5f6107b26301e187e0426101519190610f91565b61015b9190610fc1565b90505f6001600c622820a8426101719190610f91565b61017b9190610ff4565b6101859190610fc1565b90505f81600c846101969190611024565b6101a09190610fc1565b90505f60035f8381526020019081526020015f209050600181601f015f6101000a81548160ff021916908360ff1602179055508581600a015f820151815f019060026101ed9291906109d2565b506020820151816002019060026102059291906109d2565b5060408201518160040190600261021d9291906109d2565b506060820151816006019060026102359291906109d2565b5060808201518160080190600261024d9291906109d2565b5090505086815f015f820151815f0190600261026a9291906109d2565b506020820151816002019060026102829291906109d2565b5060408201518160040190600261029a9291906109d2565b506060820151816006019060026102b29291906109d2565b506080820151816008019060026102ca9291906109d2565b5090505084816014015f820151815f019060026102e89291906109d2565b506020820151816002019060026103009291906109d2565b506040820151816004019060026103189291906109d2565b506060820151816006019060026103309291906109d2565b5090505050505050505050565b5f8054906101000a900473ffffffffffffffffffffffffffffffffffffffff1673ffffffffffffffffffffffffffffffffffffffff163373ffffffffffffffffffffffffffffffffffffffff16146103ca576040517f08c379a00000000000000000000000000000000000000000000000000000000081526004016103c190610f19565b60405180910390fd5b600181908060018154018082558091505060019003905f5260205f20015f9091909190916101000a81548173ffffffffffffffffffffffffffffffffffffffff021916908373ffffffffffffffffffffffffffffffffffffffff16021790555050565b5f805f805f805f805b6001805490508110156104c9576001818154811061045757610456611065565b5b905f5260205f20015f9054906101000a900473ffffffffffffffffffffffffffffffffffffffff1673ffffffffffffffffffffffffffffffffffffffff163373ffffffffffffffffffffffffffffffffffffffff16036104b657600191505b80806104c190611092565b915050610436565b506001151581151514610511576040517f08c379a000000000000000000000000000000000000000000000000000000000815260040161050890611123565b60405180910390fd5b5f8054906101000a900473ffffffffffffffffffffffffffffffffffffffff1673ffffffffffffffffffffffffffffffffffffffff163373ffffffffffffffffffffffffffffffffffffffff161461059e576040517f08c379a000000000000000000000000000000000000000000000000000000000815260040161059590610f19565b60405180910390fd5b5f88600c8b6105ad9190611024565b6105b79190610fc1565b90505f60035f8381526020019081526020015f2090505f815f016008015f600281106105e6576105e5611065565b5b0154825f016006015f60028110610600576105ff611065565b5b0154835f016004015f6002811061061a57610619611065565b5b0154845f016002015f6002811061063457610633611065565b5b0154855f015f015f6002811061064d5761064c611065565b5b01546106599190610fc1565b6106639190610fc1565b61066d9190610fc1565b6106779190610fc1565b90505f825f0160080160016002811061069357610692611065565b5b0154835f016006016001600281106106ae576106ad611065565b5b0154845f016004016001600281106106c9576106c8611065565b5b0154855f016002016001600281106106e4576106e3611065565b5b0154865f015f016001600281106106fe576106fd611065565b5b015461070a9190610fc1565b6107149190610fc1565b61071e9190610fc1565b6107289190610fc1565b90505f83600a016008015f6002811061074457610743611065565b5b015484600a016006015f6002811061075f5761075e611065565b5b015485600a016004015f6002811061077a57610779611065565b5b015486600a016002015f6002811061079557610794611065565b5b015487600a015f015f600281106107af576107ae611065565b5b01546107bb9190610fc1565b6107c59190610fc1565b6107cf9190610fc1565b6107d99190610fc1565b90505f84600a016008016001600281106107f6576107f5611065565b5b015485600a0160060160016002811061081257610811611065565b5b015486600a0160040160016002811061082e5761082d611065565b5b015487600a0160020160016002811061084a57610849611065565b5b015488600a015f0160016002811061086557610864611065565b5b01546108719190610fc1565b61087b9190610fc1565b6108859190610fc1565b61088f9190610fc1565b90505f856014016002015f600281106108ab576108aa611065565b5b0154866014016004015f600281106108c6576108c5611065565b5b0154876014016002015f600281106108e1576108e0611065565b5b0154886014015f015f600281106108fb576108fa611065565b5b01546109079190610fc1565b6109119190610fc1565b61091b9190610fc1565b90505f8660140160020160016002811061093857610937611065565b5b01548760140160040160016002811061095457610953611065565b5b0154886014016002016001600281106109705761096f611065565b5b0154896014015f0160016002811061098b5761098a611065565b5b01546109979190610fc1565b6109a19190610fc1565b6109ab9190610fc1565b90508585858585859e509e509e509e509e509e505050505050505050509295509295509295565b8260028101928215610a01579160200282015b82811115610a005782518255916020019190600101906109e5565b5b509050610a0e9190610a12565b5090565b5b80821115610a29575f815f905550600101610a13565b5090565b5f604051905090565b5f80fd5b5f80fd5b5f601f19601f8301169050919050565b7f4e487b71000000000000000000000000000000000000000000000000000000005f52604160045260245ffd5b610a8482610a3e565b810181811067ffffffffffffffff82111715610aa357610aa2610a4e565b5b80604052505050565b5f610ab5610a2d565b9050610ac18282610a7b565b919050565b5f80fd5b5f67ffffffffffffffff821115610ae457610ae3610a4e565b5b602082029050919050565b5f80fd5b5f819050919050565b610b0581610af3565b8114610b0f575f80fd5b50565b5f81359050610b2081610afc565b92915050565b5f610b38610b3384610aca565b610aac565b90508060208402830185811115610b5257610b51610aef565b5b835b81811015610b7b5780610b678882610b12565b845260208401935050602081019050610b54565b5050509392505050565b5f82601f830112610b9957610b98610ac6565b5b6002610ba6848285610b26565b91505092915050565b5f6101408284031215610bc557610bc4610a3a565b5b610bcf60a0610aac565b90505f610bde84828501610b85565b5f830152506040610bf184828501610b85565b6020830152506080610c0584828501610b85565b60408301525060c0610c1984828501610b85565b606083015250610100610c2e84828501610b85565b60808301525092915050565b5f6101408284031215610c5057610c4f610a3a565b5b610c5a60a0610aac565b90505f610c6984828501610b85565b5f830152506040610c7c84828501610b85565b6020830152506080610c9084828501610b85565b60408301525060c0610ca484828501610b85565b606083015250610100610cb984828501610b85565b60808301525092915050565b5f6101008284031215610cdb57610cda610a3a565b5b610ce56080610aac565b90505f610cf484828501610b85565b5f830152506040610d0784828501610b85565b6020830152506080610d1b84828501610b85565b60408301525060c0610d2f84828501610b85565b60608301525092915050565b5f805f6103808486031215610d5357610d52610a36565b5b5f610d6086828701610baf565b935050610140610d7286828701610c3a565b925050610280610d8486828701610cc5565b9150509250925092565b5f73ffffffffffffffffffffffffffffffffffffffff82169050919050565b5f610db782610d8e565b9050919050565b610dc781610dad565b8114610dd1575f80fd5b50565b5f81359050610de281610dbe565b92915050565b5f60208284031215610dfd57610dfc610a36565b5b5f610e0a84828501610dd4565b91505092915050565b5f8060408385031215610e2957610e28610a36565b5b5f610e3685828601610b12565b9250506020610e4785828601610b12565b9150509250929050565b610e5a81610af3565b82525050565b5f60c082019050610e735f830189610e51565b610e806020830188610e51565b610e8d6040830187610e51565b610e9a6060830186610e51565b610ea76080830185610e51565b610eb460a0830184610e51565b979650505050505050565b5f82825260208201905092915050565b7f50686169206c61207175616e206c7900000000000000000000000000000000005f82015250565b5f610f03600f83610ebf565b9150610f0e82610ecf565b602082019050919050565b5f6020820190508181035f830152610f3081610ef7565b9050919050565b7f4e487b71000000000000000000000000000000000000000000000000000000005f52601260045260245ffd5b7f4e487b71000000000000000000000000000000000000000000000000000000005f52601160045260245ffd5b5f610f9b82610af3565b9150610fa683610af3565b925082610fb657610fb5610f37565b5b828204905092915050565b5f610fcb82610af3565b9150610fd683610af3565b9250828201905080821115610fee57610fed610f64565b5b92915050565b5f610ffe82610af3565b915061100983610af3565b92508261101957611018610f37565b5b828206905092915050565b5f61102e82610af3565b915061103983610af3565b925082820261104781610af3565b9150828204841483151761105e5761105d610f64565b5b5092915050565b7f4e487b71000000000000000000000000000000000000000000000000000000005f52603260045260245ffd5b5f61109c82610af3565b91507fffffffffffffffffffffffffffffffffffffffffffffffffffffffffffffffff82036110ce576110cd610f64565b5b600182019050919050565b7f50686169206c61206b6520746f616e00000000000000000000000000000000005f82015250565b5f61110d600f83610ebf565b9150611118826110d9565b602082019050919050565b5f6020820190508181035f83015261113a81611101565b905091905056fea264697066735822122053a8a8d0006dca96b2c9a8a72582e93ff150c534f15d40612de31e733b00cc7c64736f6c63430008150033",
					"opcodes": "PUSH1 0x80 PUSH1 0x40 MSTORE CALLVALUE DUP1 ISZERO PUSH2 0xF JUMPI PUSH0 DUP1 REVERT JUMPDEST POP CALLER PUSH0 DUP1 PUSH2 0x100 EXP DUP2 SLOAD DUP2 PUSH20 0xFFFFFFFFFFFFFFFFFFFFFFFFFFFFFFFFFFFFFFFF MUL NOT AND SWAP1 DUP4 PUSH20 0xFFFFFFFFFFFFFFFFFFFFFFFFFFFFFFFFFFFFFFFF AND MUL OR SWAP1 SSTORE POP PUSH2 0x1177 DUP1 PUSH2 0x5C PUSH0 CODECOPY PUSH0 RETURN INVALID PUSH1 0x80 PUSH1 0x40 MSTORE CALLVALUE DUP1 ISZERO PUSH2 0xF JUMPI PUSH0 DUP1 REVERT JUMPDEST POP PUSH1 0x4 CALLDATASIZE LT PUSH2 0x3F JUMPI PUSH0 CALLDATALOAD PUSH1 0xE0 SHR DUP1 PUSH4 0xE108D71 EQ PUSH2 0x43 JUMPI DUP1 PUSH4 0x8CC151E8 EQ PUSH2 0x5F JUMPI DUP1 PUSH4 0xF846A677 EQ PUSH2 0x7B JUMPI JUMPDEST PUSH0 DUP1 REVERT JUMPDEST PUSH2 0x5D PUSH1 0x4 DUP1 CALLDATASIZE SUB DUP2 ADD SWAP1 PUSH2 0x58 SWAP2 SWAP1 PUSH2 0xD3B JUMP JUMPDEST PUSH2 0xB0 JUMP JUMPDEST STOP JUMPDEST PUSH2 0x79 PUSH1 0x4 DUP1 CALLDATASIZE SUB DUP2 ADD SWAP1 PUSH2 0x74 SWAP2 SWAP1 PUSH2 0xDE8 JUMP JUMPDEST PUSH2 0x33D JUMP JUMPDEST STOP JUMPDEST PUSH2 0x95 PUSH1 0x4 DUP1 CALLDATASIZE SUB DUP2 ADD SWAP1 PUSH2 0x90 SWAP2 SWAP1 PUSH2 0xE13 JUMP JUMPDEST PUSH2 0x42D JUMP JUMPDEST PUSH1 0x40 MLOAD PUSH2 0xA7 SWAP7 SWAP6 SWAP5 SWAP4 SWAP3 SWAP2 SWAP1 PUSH2 0xE60 JUMP JUMPDEST PUSH1 0x40 MLOAD DUP1 SWAP2 SUB SWAP1 RETURN JUMPDEST PUSH0 DUP1 SLOAD SWAP1 PUSH2 0x100 EXP SWAP1 DIV PUSH20 0xFFFFFFFFFFFFFFFFFFFFFFFFFFFFFFFFFFFFFFFF AND PUSH20 0xFFFFFFFFFFFFFFFFFFFFFFFFFFFFFFFFFFFFFFFF AND CALLER PUSH20 0xFFFFFFFFFFFFFFFFFFFFFFFFFFFFFFFFFFFFFFFF AND EQ PUSH2 0x13D JUMPI PUSH1 0x40 MLOAD PUSH32 0x8C379A000000000000000000000000000000000000000000000000000000000 DUP2 MSTORE PUSH1 0x4 ADD PUSH2 0x134 SWAP1 PUSH2 0xF19 JUMP JUMPDEST PUSH1 0x40 MLOAD DUP1 SWAP2 SUB SWAP1 REVERT JUMPDEST PUSH0 PUSH2 0x7B2 PUSH4 0x1E187E0 TIMESTAMP PUSH2 0x151 SWAP2 SWAP1 PUSH2 0xF91 JUMP JUMPDEST PUSH2 0x15B SWAP2 SWAP1 PUSH2 0xFC1 JUMP JUMPDEST SWAP1 POP PUSH0 PUSH1 0x1 PUSH1 0xC PUSH3 0x2820A8 TIMESTAMP PUSH2 0x171 SWAP2 SWAP1 PUSH2 0xF91 JUMP JUMPDEST PUSH2 0x17B SWAP2 SWAP1 PUSH2 0xFF4 JUMP JUMPDEST PUSH2 0x185 SWAP2 SWAP1 PUSH2 0xFC1 JUMP JUMPDEST SWAP1 POP PUSH0 DUP2 PUSH1 0xC DUP5 PUSH2 0x196 SWAP2 SWAP1 PUSH2 0x1024 JUMP JUMPDEST PUSH2 0x1A0 SWAP2 SWAP1 PUSH2 0xFC1 JUMP JUMPDEST SWAP1 POP PUSH0 PUSH1 0x3 PUSH0 DUP4 DUP2 MSTORE PUSH1 0x20 ADD SWAP1 DUP2 MSTORE PUSH1 0x20 ADD PUSH0 KECCAK256 SWAP1 POP PUSH1 0x1 DUP2 PUSH1 0x1F ADD PUSH0 PUSH2 0x100 EXP DUP2 SLOAD DUP2 PUSH1 0xFF MUL NOT AND SWAP1 DUP4 PUSH1 0xFF AND MUL OR SWAP1 SSTORE POP DUP6 DUP2 PUSH1 0xA ADD PUSH0 DUP3 ADD MLOAD DUP2 PUSH0 ADD SWAP1 PUSH1 0x2 PUSH2 0x1ED SWAP3 SWAP2 SWAP1 PUSH2 0x9D2 JUMP JUMPDEST POP PUSH1 0x20 DUP3 ADD MLOAD DUP2 PUSH1 0x2 ADD SWAP1 PUSH1 0x2 PUSH2 0x205 SWAP3 SWAP2 SWAP1 PUSH2 0x9D2 JUMP JUMPDEST POP PUSH1 0x40 DUP3 ADD MLOAD DUP2 PUSH1 0x4 ADD SWAP1 PUSH1 0x2 PUSH2 0x21D SWAP3 SWAP2 SWAP1 PUSH2 0x9D2 JUMP JUMPDEST POP PUSH1 0x60 DUP3 ADD MLOAD DUP2 PUSH1 0x6 ADD SWAP1 PUSH1 0x2 PUSH2 0x235 SWAP3 SWAP2 SWAP1 PUSH2 0x9D2 JUMP JUMPDEST POP PUSH1 0x80 DUP3 ADD MLOAD DUP2 PUSH1 0x8 ADD SWAP1 PUSH1 0x2 PUSH2 0x24D SWAP3 SWAP2 SWAP1 PUSH2 0x9D2 JUMP JUMPDEST POP SWAP1 POP POP DUP7 DUP2 PUSH0 ADD PUSH0 DUP3 ADD MLOAD DUP2 PUSH0 ADD SWAP1 PUSH1 0x2 PUSH2 0x26A SWAP3 SWAP2 SWAP1 PUSH2 0x9D2 JUMP JUMPDEST POP PUSH1 0x20 DUP3 ADD MLOAD DUP2 PUSH1 0x2 ADD SWAP1 PUSH1 0x2 PUSH2 0x282 SWAP3 SWAP2 SWAP1 PUSH2 0x9D2 JUMP JUMPDEST POP PUSH1 0x40 DUP3 ADD MLOAD DUP2 PUSH1 0x4 ADD SWAP1 PUSH1 0x2 PUSH2 0x29A SWAP3 SWAP2 SWAP1 PUSH2 0x9D2 JUMP JUMPDEST POP PUSH1 0x60 DUP3 ADD MLOAD DUP2 PUSH1 0x6 ADD SWAP1 PUSH1 0x2 PUSH2 0x2B2 SWAP3 SWAP2 SWAP1 PUSH2 0x9D2 JUMP JUMPDEST POP PUSH1 0x80 DUP3 ADD MLOAD DUP2 PUSH1 0x8 ADD SWAP1 PUSH1 0x2 PUSH2 0x2CA SWAP3 SWAP2 SWAP1 PUSH2 0x9D2 JUMP JUMPDEST POP SWAP1 POP POP DUP5 DUP2 PUSH1 0x14 ADD PUSH0 DUP3 ADD MLOAD DUP2 PUSH0 ADD SWAP1 PUSH1 0x2 PUSH2 0x2E8 SWAP3 SWAP2 SWAP1 PUSH2 0x9D2 JUMP JUMPDEST POP PUSH1 0x20 DUP3 ADD MLOAD DUP2 PUSH1 0x2 ADD SWAP1 PUSH1 0x2 PUSH2 0x300 SWAP3 SWAP2 SWAP1 PUSH2 0x9D2 JUMP JUMPDEST POP PUSH1 0x40 DUP3 ADD MLOAD DUP2 PUSH1 0x4 ADD SWAP1 PUSH1 0x2 PUSH2 0x318 SWAP3 SWAP2 SWAP1 PUSH2 0x9D2 JUMP JUMPDEST POP PUSH1 0x60 DUP3 ADD MLOAD DUP2 PUSH1 0x6 ADD SWAP1 PUSH1 0x2 PUSH2 0x330 SWAP3 SWAP2 SWAP1 PUSH2 0x9D2 JUMP JUMPDEST POP SWAP1 POP POP POP POP POP POP POP POP POP JUMP JUMPDEST PUSH0 DUP1 SLOAD SWAP1 PUSH2 0x100 EXP SWAP1 DIV PUSH20 0xFFFFFFFFFFFFFFFFFFFFFFFFFFFFFFFFFFFFFFFF AND PUSH20 0xFFFFFFFFFFFFFFFFFFFFFFFFFFFFFFFFFFFFFFFF AND CALLER PUSH20 0xFFFFFFFFFFFFFFFFFFFFFFFFFFFFFFFFFFFFFFFF AND EQ PUSH2 0x3CA JUMPI PUSH1 0x40 MLOAD PUSH32 0x8C379A000000000000000000000000000000000000000000000000000000000 DUP2 MSTORE PUSH1 0x4 ADD PUSH2 0x3C1 SWAP1 PUSH2 0xF19 JUMP JUMPDEST PUSH1 0x40 MLOAD DUP1 SWAP2 SUB SWAP1 REVERT JUMPDEST PUSH1 0x1 DUP2 SWAP1 DUP1 PUSH1 0x1 DUP2 SLOAD ADD DUP1 DUP3 SSTORE DUP1 SWAP2 POP POP PUSH1 0x1 SWAP1 SUB SWAP1 PUSH0 MSTORE PUSH1 0x20 PUSH0 KECCAK256 ADD PUSH0 SWAP1 SWAP2 SWAP1 SWAP2 SWAP1 SWAP2 PUSH2 0x100 EXP DUP2 SLOAD DUP2 PUSH20 0xFFFFFFFFFFFFFFFFFFFFFFFFFFFFFFFFFFFFFFFF MUL NOT AND SWAP1 DUP4 PUSH20 0xFFFFFFFFFFFFFFFFFFFFFFFFFFFFFFFFFFFFFFFF AND MUL OR SWAP1 SSTORE POP POP JUMP JUMPDEST PUSH0 DUP1 PUSH0 DUP1 PUSH0 DUP1 PUSH0 DUP1 JUMPDEST PUSH1 0x1 DUP1 SLOAD SWAP1 POP DUP2 LT ISZERO PUSH2 0x4C9 JUMPI PUSH1 0x1 DUP2 DUP2 SLOAD DUP2 LT PUSH2 0x457 JUMPI PUSH2 0x456 PUSH2 0x1065 JUMP JUMPDEST JUMPDEST SWAP1 PUSH0 MSTORE PUSH1 0x20 PUSH0 KECCAK256 ADD PUSH0 SWAP1 SLOAD SWAP1 PUSH2 0x100 EXP SWAP1 DIV PUSH20 0xFFFFFFFFFFFFFFFFFFFFFFFFFFFFFFFFFFFFFFFF AND PUSH20 0xFFFFFFFFFFFFFFFFFFFFFFFFFFFFFFFFFFFFFFFF AND CALLER PUSH20 0xFFFFFFFFFFFFFFFFFFFFFFFFFFFFFFFFFFFFFFFF AND SUB PUSH2 0x4B6 JUMPI PUSH1 0x1 SWAP2 POP JUMPDEST DUP1 DUP1 PUSH2 0x4C1 SWAP1 PUSH2 0x1092 JUMP JUMPDEST SWAP2 POP POP PUSH2 0x436 JUMP JUMPDEST POP PUSH1 0x1 ISZERO ISZERO DUP2 ISZERO ISZERO EQ PUSH2 0x511 JUMPI PUSH1 0x40 MLOAD PUSH32 0x8C379A000000000000000000000000000000000000000000000000000000000 DUP2 MSTORE PUSH1 0x4 ADD PUSH2 0x508 SWAP1 PUSH2 0x1123 JUMP JUMPDEST PUSH1 0x40 MLOAD DUP1 SWAP2 SUB SWAP1 REVERT JUMPDEST PUSH0 DUP1 SLOAD SWAP1 PUSH2 0x100 EXP SWAP1 DIV PUSH20 0xFFFFFFFFFFFFFFFFFFFFFFFFFFFFFFFFFFFFFFFF AND PUSH20 0xFFFFFFFFFFFFFFFFFFFFFFFFFFFFFFFFFFFFFFFF AND CALLER PUSH20 0xFFFFFFFFFFFFFFFFFFFFFFFFFFFFFFFFFFFFFFFF AND EQ PUSH2 0x59E JUMPI PUSH1 0x40 MLOAD PUSH32 0x8C379A000000000000000000000000000000000000000000000000000000000 DUP2 MSTORE PUSH1 0x4 ADD PUSH2 0x595 SWAP1 PUSH2 0xF19 JUMP JUMPDEST PUSH1 0x40 MLOAD DUP1 SWAP2 SUB SWAP1 REVERT JUMPDEST PUSH0 DUP9 PUSH1 0xC DUP12 PUSH2 0x5AD SWAP2 SWAP1 PUSH2 0x1024 JUMP JUMPDEST PUSH2 0x5B7 SWAP2 SWAP1 PUSH2 0xFC1 JUMP JUMPDEST SWAP1 POP PUSH0 PUSH1 0x3 PUSH0 DUP4 DUP2 MSTORE PUSH1 0x20 ADD SWAP1 DUP2 MSTORE PUSH1 0x20 ADD PUSH0 KECCAK256 SWAP1 POP PUSH0 DUP2 PUSH0 ADD PUSH1 0x8 ADD PUSH0 PUSH1 0x2 DUP2 LT PUSH2 0x5E6 JUMPI PUSH2 0x5E5 PUSH2 0x1065 JUMP JUMPDEST JUMPDEST ADD SLOAD DUP3 PUSH0 ADD PUSH1 0x6 ADD PUSH0 PUSH1 0x2 DUP2 LT PUSH2 0x600 JUMPI PUSH2 0x5FF PUSH2 0x1065 JUMP JUMPDEST JUMPDEST ADD SLOAD DUP4 PUSH0 ADD PUSH1 0x4 ADD PUSH0 PUSH1 0x2 DUP2 LT PUSH2 0x61A JUMPI PUSH2 0x619 PUSH2 0x1065 JUMP JUMPDEST JUMPDEST ADD SLOAD DUP5 PUSH0 ADD PUSH1 0x2 ADD PUSH0 PUSH1 0x2 DUP2 LT PUSH2 0x634 JUMPI PUSH2 0x633 PUSH2 0x1065 JUMP JUMPDEST JUMPDEST ADD SLOAD DUP6 PUSH0 ADD PUSH0 ADD PUSH0 PUSH1 0x2 DUP2 LT PUSH2 0x64D JUMPI PUSH2 0x64C PUSH2 0x1065 JUMP JUMPDEST JUMPDEST ADD SLOAD PUSH2 0x659 SWAP2 SWAP1 PUSH2 0xFC1 JUMP JUMPDEST PUSH2 0x663 SWAP2 SWAP1 PUSH2 0xFC1 JUMP JUMPDEST PUSH2 0x66D SWAP2 SWAP1 PUSH2 0xFC1 JUMP JUMPDEST PUSH2 0x677 SWAP2 SWAP1 PUSH2 0xFC1 JUMP JUMPDEST SWAP1 POP PUSH0 DUP3 PUSH0 ADD PUSH1 0x8 ADD PUSH1 0x1 PUSH1 0x2 DUP2 LT PUSH2 0x693 JUMPI PUSH2 0x692 PUSH2 0x1065 JUMP JUMPDEST JUMPDEST ADD SLOAD DUP4 PUSH0 ADD PUSH1 0x6 ADD PUSH1 0x1 PUSH1 0x2 DUP2 LT PUSH2 0x6AE JUMPI PUSH2 0x6AD PUSH2 0x1065 JUMP JUMPDEST JUMPDEST ADD SLOAD DUP5 PUSH0 ADD PUSH1 0x4 ADD PUSH1 0x1 PUSH1 0x2 DUP2 LT PUSH2 0x6C9 JUMPI PUSH2 0x6C8 PUSH2 0x1065 JUMP JUMPDEST JUMPDEST ADD SLOAD DUP6 PUSH0 ADD PUSH1 0x2 ADD PUSH1 0x1 PUSH1 0x2 DUP2 LT PUSH2 0x6E4 JUMPI PUSH2 0x6E3 PUSH2 0x1065 JUMP JUMPDEST JUMPDEST ADD SLOAD DUP7 PUSH0 ADD PUSH0 ADD PUSH1 0x1 PUSH1 0x2 DUP2 LT PUSH2 0x6FE JUMPI PUSH2 0x6FD PUSH2 0x1065 JUMP JUMPDEST JUMPDEST ADD SLOAD PUSH2 0x70A SWAP2 SWAP1 PUSH2 0xFC1 JUMP JUMPDEST PUSH2 0x714 SWAP2 SWAP1 PUSH2 0xFC1 JUMP JUMPDEST PUSH2 0x71E SWAP2 SWAP1 PUSH2 0xFC1 JUMP JUMPDEST PUSH2 0x728 SWAP2 SWAP1 PUSH2 0xFC1 JUMP JUMPDEST SWAP1 POP PUSH0 DUP4 PUSH1 0xA ADD PUSH1 0x8 ADD PUSH0 PUSH1 0x2 DUP2 LT PUSH2 0x744 JUMPI PUSH2 0x743 PUSH2 0x1065 JUMP JUMPDEST JUMPDEST ADD SLOAD DUP5 PUSH1 0xA ADD PUSH1 0x6 ADD PUSH0 PUSH1 0x2 DUP2 LT PUSH2 0x75F JUMPI PUSH2 0x75E PUSH2 0x1065 JUMP JUMPDEST JUMPDEST ADD SLOAD DUP6 PUSH1 0xA ADD PUSH1 0x4 ADD PUSH0 PUSH1 0x2 DUP2 LT PUSH2 0x77A JUMPI PUSH2 0x779 PUSH2 0x1065 JUMP JUMPDEST JUMPDEST ADD SLOAD DUP7 PUSH1 0xA ADD PUSH1 0x2 ADD PUSH0 PUSH1 0x2 DUP2 LT PUSH2 0x795 JUMPI PUSH2 0x794 PUSH2 0x1065 JUMP JUMPDEST JUMPDEST ADD SLOAD DUP8 PUSH1 0xA ADD PUSH0 ADD PUSH0 PUSH1 0x2 DUP2 LT PUSH2 0x7AF JUMPI PUSH2 0x7AE PUSH2 0x1065 JUMP JUMPDEST JUMPDEST ADD SLOAD PUSH2 0x7BB SWAP2 SWAP1 PUSH2 0xFC1 JUMP JUMPDEST PUSH2 0x7C5 SWAP2 SWAP1 PUSH2 0xFC1 JUMP JUMPDEST PUSH2 0x7CF SWAP2 SWAP1 PUSH2 0xFC1 JUMP JUMPDEST PUSH2 0x7D9 SWAP2 SWAP1 PUSH2 0xFC1 JUMP JUMPDEST SWAP1 POP PUSH0 DUP5 PUSH1 0xA ADD PUSH1 0x8 ADD PUSH1 0x1 PUSH1 0x2 DUP2 LT PUSH2 0x7F6 JUMPI PUSH2 0x7F5 PUSH2 0x1065 JUMP JUMPDEST JUMPDEST ADD SLOAD DUP6 PUSH1 0xA ADD PUSH1 0x6 ADD PUSH1 0x1 PUSH1 0x2 DUP2 LT PUSH2 0x812 JUMPI PUSH2 0x811 PUSH2 0x1065 JUMP JUMPDEST JUMPDEST ADD SLOAD DUP7 PUSH1 0xA ADD PUSH1 0x4 ADD PUSH1 0x1 PUSH1 0x2 DUP2 LT PUSH2 0x82E JUMPI PUSH2 0x82D PUSH2 0x1065 JUMP JUMPDEST JUMPDEST ADD SLOAD DUP8 PUSH1 0xA ADD PUSH1 0x2 ADD PUSH1 0x1 PUSH1 0x2 DUP2 LT PUSH2 0x84A JUMPI PUSH2 0x849 PUSH2 0x1065 JUMP JUMPDEST JUMPDEST ADD SLOAD DUP9 PUSH1 0xA ADD PUSH0 ADD PUSH1 0x1 PUSH1 0x2 DUP2 LT PUSH2 0x865 JUMPI PUSH2 0x864 PUSH2 0x1065 JUMP JUMPDEST JUMPDEST ADD SLOAD PUSH2 0x871 SWAP2 SWAP1 PUSH2 0xFC1 JUMP JUMPDEST PUSH2 0x87B SWAP2 SWAP1 PUSH2 0xFC1 JUMP JUMPDEST PUSH2 0x885 SWAP2 SWAP1 PUSH2 0xFC1 JUMP JUMPDEST PUSH2 0x88F SWAP2 SWAP1 PUSH2 0xFC1 JUMP JUMPDEST SWAP1 POP PUSH0 DUP6 PUSH1 0x14 ADD PUSH1 0x2 ADD PUSH0 PUSH1 0x2 DUP2 LT PUSH2 0x8AB JUMPI PUSH2 0x8AA PUSH2 0x1065 JUMP JUMPDEST JUMPDEST ADD SLOAD DUP7 PUSH1 0x14 ADD PUSH1 0x4 ADD PUSH0 PUSH1 0x2 DUP2 LT PUSH2 0x8C6 JUMPI PUSH2 0x8C5 PUSH2 0x1065 JUMP JUMPDEST JUMPDEST ADD SLOAD DUP8 PUSH1 0x14 ADD PUSH1 0x2 ADD PUSH0 PUSH1 0x2 DUP2 LT PUSH2 0x8E1 JUMPI PUSH2 0x8E0 PUSH2 0x1065 JUMP JUMPDEST JUMPDEST ADD SLOAD DUP9 PUSH1 0x14 ADD PUSH0 ADD PUSH0 PUSH1 0x2 DUP2 LT PUSH2 0x8FB JUMPI PUSH2 0x8FA PUSH2 0x1065 JUMP JUMPDEST JUMPDEST ADD SLOAD PUSH2 0x907 SWAP2 SWAP1 PUSH2 0xFC1 JUMP JUMPDEST PUSH2 0x911 SWAP2 SWAP1 PUSH2 0xFC1 JUMP JUMPDEST PUSH2 0x91B SWAP2 SWAP1 PUSH2 0xFC1 JUMP JUMPDEST SWAP1 POP PUSH0 DUP7 PUSH1 0x14 ADD PUSH1 0x2 ADD PUSH1 0x1 PUSH1 0x2 DUP2 LT PUSH2 0x938 JUMPI PUSH2 0x937 PUSH2 0x1065 JUMP JUMPDEST JUMPDEST ADD SLOAD DUP8 PUSH1 0x14 ADD PUSH1 0x4 ADD PUSH1 0x1 PUSH1 0x2 DUP2 LT PUSH2 0x954 JUMPI PUSH2 0x953 PUSH2 0x1065 JUMP JUMPDEST JUMPDEST ADD SLOAD DUP9 PUSH1 0x14 ADD PUSH1 0x2 ADD PUSH1 0x1 PUSH1 0x2 DUP2 LT PUSH2 0x970 JUMPI PUSH2 0x96F PUSH2 0x1065 JUMP JUMPDEST JUMPDEST ADD SLOAD DUP10 PUSH1 0x14 ADD PUSH0 ADD PUSH1 0x1 PUSH1 0x2 DUP2 LT PUSH2 0x98B JUMPI PUSH2 0x98A PUSH2 0x1065 JUMP JUMPDEST JUMPDEST ADD SLOAD PUSH2 0x997 SWAP2 SWAP1 PUSH2 0xFC1 JUMP JUMPDEST PUSH2 0x9A1 SWAP2 SWAP1 PUSH2 0xFC1 JUMP JUMPDEST PUSH2 0x9AB SWAP2 SWAP1 PUSH2 0xFC1 JUMP JUMPDEST SWAP1 POP DUP6 DUP6 DUP6 DUP6 DUP6 DUP6 SWAP15 POP SWAP15 POP SWAP15 POP SWAP15 POP SWAP15 POP SWAP15 POP POP POP POP POP POP POP POP POP POP SWAP3 SWAP6 POP SWAP3 SWAP6 POP SWAP3 SWAP6 JUMP JUMPDEST DUP3 PUSH1 0x2 DUP2 ADD SWAP3 DUP3 ISZERO PUSH2 0xA01 JUMPI SWAP2 PUSH1 0x20 MUL DUP3 ADD JUMPDEST DUP3 DUP2 GT ISZERO PUSH2 0xA00 JUMPI DUP3 MLOAD DUP3 SSTORE SWAP2 PUSH1 0x20 ADD SWAP2 SWAP1 PUSH1 0x1 ADD SWAP1 PUSH2 0x9E5 JUMP JUMPDEST JUMPDEST POP SWAP1 POP PUSH2 0xA0E SWAP2 SWAP1 PUSH2 0xA12 JUMP JUMPDEST POP SWAP1 JUMP JUMPDEST JUMPDEST DUP1 DUP3 GT ISZERO PUSH2 0xA29 JUMPI PUSH0 DUP2 PUSH0 SWAP1 SSTORE POP PUSH1 0x1 ADD PUSH2 0xA13 JUMP JUMPDEST POP SWAP1 JUMP JUMPDEST PUSH0 PUSH1 0x40 MLOAD SWAP1 POP SWAP1 JUMP JUMPDEST PUSH0 DUP1 REVERT JUMPDEST PUSH0 DUP1 REVERT JUMPDEST PUSH0 PUSH1 0x1F NOT PUSH1 0x1F DUP4 ADD AND SWAP1 POP SWAP2 SWAP1 POP JUMP JUMPDEST PUSH32 0x4E487B7100000000000000000000000000000000000000000000000000000000 PUSH0 MSTORE PUSH1 0x41 PUSH1 0x4 MSTORE PUSH1 0x24 PUSH0 REVERT JUMPDEST PUSH2 0xA84 DUP3 PUSH2 0xA3E JUMP JUMPDEST DUP2 ADD DUP2 DUP2 LT PUSH8 0xFFFFFFFFFFFFFFFF DUP3 GT OR ISZERO PUSH2 0xAA3 JUMPI PUSH2 0xAA2 PUSH2 0xA4E JUMP JUMPDEST JUMPDEST DUP1 PUSH1 0x40 MSTORE POP POP POP JUMP JUMPDEST PUSH0 PUSH2 0xAB5 PUSH2 0xA2D JUMP JUMPDEST SWAP1 POP PUSH2 0xAC1 DUP3 DUP3 PUSH2 0xA7B JUMP JUMPDEST SWAP2 SWAP1 POP JUMP JUMPDEST PUSH0 DUP1 REVERT JUMPDEST PUSH0 PUSH8 0xFFFFFFFFFFFFFFFF DUP3 GT ISZERO PUSH2 0xAE4 JUMPI PUSH2 0xAE3 PUSH2 0xA4E JUMP JUMPDEST JUMPDEST PUSH1 0x20 DUP3 MUL SWAP1 POP SWAP2 SWAP1 POP JUMP JUMPDEST PUSH0 DUP1 REVERT JUMPDEST PUSH0 DUP2 SWAP1 POP SWAP2 SWAP1 POP JUMP JUMPDEST PUSH2 0xB05 DUP2 PUSH2 0xAF3 JUMP JUMPDEST DUP2 EQ PUSH2 0xB0F JUMPI PUSH0 DUP1 REVERT JUMPDEST POP JUMP JUMPDEST PUSH0 DUP2 CALLDATALOAD SWAP1 POP PUSH2 0xB20 DUP2 PUSH2 0xAFC JUMP JUMPDEST SWAP3 SWAP2 POP POP JUMP JUMPDEST PUSH0 PUSH2 0xB38 PUSH2 0xB33 DUP5 PUSH2 0xACA JUMP JUMPDEST PUSH2 0xAAC JUMP JUMPDEST SWAP1 POP DUP1 PUSH1 0x20 DUP5 MUL DUP4 ADD DUP6 DUP2 GT ISZERO PUSH2 0xB52 JUMPI PUSH2 0xB51 PUSH2 0xAEF JUMP JUMPDEST JUMPDEST DUP4 JUMPDEST DUP2 DUP2 LT ISZERO PUSH2 0xB7B JUMPI DUP1 PUSH2 0xB67 DUP9 DUP3 PUSH2 0xB12 JUMP JUMPDEST DUP5 MSTORE PUSH1 0x20 DUP5 ADD SWAP4 POP POP PUSH1 0x20 DUP2 ADD SWAP1 POP PUSH2 0xB54 JUMP JUMPDEST POP POP POP SWAP4 SWAP3 POP POP POP JUMP JUMPDEST PUSH0 DUP3 PUSH1 0x1F DUP4 ADD SLT PUSH2 0xB99 JUMPI PUSH2 0xB98 PUSH2 0xAC6 JUMP JUMPDEST JUMPDEST PUSH1 0x2 PUSH2 0xBA6 DUP5 DUP3 DUP6 PUSH2 0xB26 JUMP JUMPDEST SWAP2 POP POP SWAP3 SWAP2 POP POP JUMP JUMPDEST PUSH0 PUSH2 0x140 DUP3 DUP5 SUB SLT ISZERO PUSH2 0xBC5 JUMPI PUSH2 0xBC4 PUSH2 0xA3A JUMP JUMPDEST JUMPDEST PUSH2 0xBCF PUSH1 0xA0 PUSH2 0xAAC JUMP JUMPDEST SWAP1 POP PUSH0 PUSH2 0xBDE DUP5 DUP3 DUP6 ADD PUSH2 0xB85 JUMP JUMPDEST PUSH0 DUP4 ADD MSTORE POP PUSH1 0x40 PUSH2 0xBF1 DUP5 DUP3 DUP6 ADD PUSH2 0xB85 JUMP JUMPDEST PUSH1 0x20 DUP4 ADD MSTORE POP PUSH1 0x80 PUSH2 0xC05 DUP5 DUP3 DUP6 ADD PUSH2 0xB85 JUMP JUMPDEST PUSH1 0x40 DUP4 ADD MSTORE POP PUSH1 0xC0 PUSH2 0xC19 DUP5 DUP3 DUP6 ADD PUSH2 0xB85 JUMP JUMPDEST PUSH1 0x60 DUP4 ADD MSTORE POP PUSH2 0x100 PUSH2 0xC2E DUP5 DUP3 DUP6 ADD PUSH2 0xB85 JUMP JUMPDEST PUSH1 0x80 DUP4 ADD MSTORE POP SWAP3 SWAP2 POP POP JUMP JUMPDEST PUSH0 PUSH2 0x140 DUP3 DUP5 SUB SLT ISZERO PUSH2 0xC50 JUMPI PUSH2 0xC4F PUSH2 0xA3A JUMP JUMPDEST JUMPDEST PUSH2 0xC5A PUSH1 0xA0 PUSH2 0xAAC JUMP JUMPDEST SWAP1 POP PUSH0 PUSH2 0xC69 DUP5 DUP3 DUP6 ADD PUSH2 0xB85 JUMP JUMPDEST PUSH0 DUP4 ADD MSTORE POP PUSH1 0x40 PUSH2 0xC7C DUP5 DUP3 DUP6 ADD PUSH2 0xB85 JUMP JUMPDEST PUSH1 0x20 DUP4 ADD MSTORE POP PUSH1 0x80 PUSH2 0xC90 DUP5 DUP3 DUP6 ADD PUSH2 0xB85 JUMP JUMPDEST PUSH1 0x40 DUP4 ADD MSTORE POP PUSH1 0xC0 PUSH2 0xCA4 DUP5 DUP3 DUP6 ADD PUSH2 0xB85 JUMP JUMPDEST PUSH1 0x60 DUP4 ADD MSTORE POP PUSH2 0x100 PUSH2 0xCB9 DUP5 DUP3 DUP6 ADD PUSH2 0xB85 JUMP JUMPDEST PUSH1 0x80 DUP4 ADD MSTORE POP SWAP3 SWAP2 POP POP JUMP JUMPDEST PUSH0 PUSH2 0x100 DUP3 DUP5 SUB SLT ISZERO PUSH2 0xCDB JUMPI PUSH2 0xCDA PUSH2 0xA3A JUMP JUMPDEST JUMPDEST PUSH2 0xCE5 PUSH1 0x80 PUSH2 0xAAC JUMP JUMPDEST SWAP1 POP PUSH0 PUSH2 0xCF4 DUP5 DUP3 DUP6 ADD PUSH2 0xB85 JUMP JUMPDEST PUSH0 DUP4 ADD MSTORE POP PUSH1 0x40 PUSH2 0xD07 DUP5 DUP3 DUP6 ADD PUSH2 0xB85 JUMP JUMPDEST PUSH1 0x20 DUP4 ADD MSTORE POP PUSH1 0x80 PUSH2 0xD1B DUP5 DUP3 DUP6 ADD PUSH2 0xB85 JUMP JUMPDEST PUSH1 0x40 DUP4 ADD MSTORE POP PUSH1 0xC0 PUSH2 0xD2F DUP5 DUP3 DUP6 ADD PUSH2 0xB85 JUMP JUMPDEST PUSH1 0x60 DUP4 ADD MSTORE POP SWAP3 SWAP2 POP POP JUMP JUMPDEST PUSH0 DUP1 PUSH0 PUSH2 0x380 DUP5 DUP7 SUB SLT ISZERO PUSH2 0xD53 JUMPI PUSH2 0xD52 PUSH2 0xA36 JUMP JUMPDEST JUMPDEST PUSH0 PUSH2 0xD60 DUP7 DUP3 DUP8 ADD PUSH2 0xBAF JUMP JUMPDEST SWAP4 POP POP PUSH2 0x140 PUSH2 0xD72 DUP7 DUP3 DUP8 ADD PUSH2 0xC3A JUMP JUMPDEST SWAP3 POP POP PUSH2 0x280 PUSH2 0xD84 DUP7 DUP3 DUP8 ADD PUSH2 0xCC5 JUMP JUMPDEST SWAP2 POP POP SWAP3 POP SWAP3 POP SWAP3 JUMP JUMPDEST PUSH0 PUSH20 0xFFFFFFFFFFFFFFFFFFFFFFFFFFFFFFFFFFFFFFFF DUP3 AND SWAP1 POP SWAP2 SWAP1 POP JUMP JUMPDEST PUSH0 PUSH2 0xDB7 DUP3 PUSH2 0xD8E JUMP JUMPDEST SWAP1 POP SWAP2 SWAP1 POP JUMP JUMPDEST PUSH2 0xDC7 DUP2 PUSH2 0xDAD JUMP JUMPDEST DUP2 EQ PUSH2 0xDD1 JUMPI PUSH0 DUP1 REVERT JUMPDEST POP JUMP JUMPDEST PUSH0 DUP2 CALLDATALOAD SWAP1 POP PUSH2 0xDE2 DUP2 PUSH2 0xDBE JUMP JUMPDEST SWAP3 SWAP2 POP POP JUMP JUMPDEST PUSH0 PUSH1 0x20 DUP3 DUP5 SUB SLT ISZERO PUSH2 0xDFD JUMPI PUSH2 0xDFC PUSH2 0xA36 JUMP JUMPDEST JUMPDEST PUSH0 PUSH2 0xE0A DUP5 DUP3 DUP6 ADD PUSH2 0xDD4 JUMP JUMPDEST SWAP2 POP POP SWAP3 SWAP2 POP POP JUMP JUMPDEST PUSH0 DUP1 PUSH1 0x40 DUP4 DUP6 SUB SLT ISZERO PUSH2 0xE29 JUMPI PUSH2 0xE28 PUSH2 0xA36 JUMP JUMPDEST JUMPDEST PUSH0 PUSH2 0xE36 DUP6 DUP3 DUP7 ADD PUSH2 0xB12 JUMP JUMPDEST SWAP3 POP POP PUSH1 0x20 PUSH2 0xE47 DUP6 DUP3 DUP7 ADD PUSH2 0xB12 JUMP JUMPDEST SWAP2 POP POP SWAP3 POP SWAP3 SWAP1 POP JUMP JUMPDEST PUSH2 0xE5A DUP2 PUSH2 0xAF3 JUMP JUMPDEST DUP3 MSTORE POP POP JUMP JUMPDEST PUSH0 PUSH1 0xC0 DUP3 ADD SWAP1 POP PUSH2 0xE73 PUSH0 DUP4 ADD DUP10 PUSH2 0xE51 JUMP JUMPDEST PUSH2 0xE80 PUSH1 0x20 DUP4 ADD DUP9 PUSH2 0xE51 JUMP JUMPDEST PUSH2 0xE8D PUSH1 0x40 DUP4 ADD DUP8 PUSH2 0xE51 JUMP JUMPDEST PUSH2 0xE9A PUSH1 0x60 DUP4 ADD DUP7 PUSH2 0xE51 JUMP JUMPDEST PUSH2 0xEA7 PUSH1 0x80 DUP4 ADD DUP6 PUSH2 0xE51 JUMP JUMPDEST PUSH2 0xEB4 PUSH1 0xA0 DUP4 ADD DUP5 PUSH2 0xE51 JUMP JUMPDEST SWAP8 SWAP7 POP POP POP POP POP POP POP JUMP JUMPDEST PUSH0 DUP3 DUP3 MSTORE PUSH1 0x20 DUP3 ADD SWAP1 POP SWAP3 SWAP2 POP POP JUMP JUMPDEST PUSH32 0x50686169206C61207175616E206C790000000000000000000000000000000000 PUSH0 DUP3 ADD MSTORE POP JUMP JUMPDEST PUSH0 PUSH2 0xF03 PUSH1 0xF DUP4 PUSH2 0xEBF JUMP JUMPDEST SWAP2 POP PUSH2 0xF0E DUP3 PUSH2 0xECF JUMP JUMPDEST PUSH1 0x20 DUP3 ADD SWAP1 POP SWAP2 SWAP1 POP JUMP JUMPDEST PUSH0 PUSH1 0x20 DUP3 ADD SWAP1 POP DUP2 DUP2 SUB PUSH0 DUP4 ADD MSTORE PUSH2 0xF30 DUP2 PUSH2 0xEF7 JUMP JUMPDEST SWAP1 POP SWAP2 SWAP1 POP JUMP JUMPDEST PUSH32 0x4E487B7100000000000000000000000000000000000000000000000000000000 PUSH0 MSTORE PUSH1 0x12 PUSH1 0x4 MSTORE PUSH1 0x24 PUSH0 REVERT JUMPDEST PUSH32 0x4E487B7100000000000000000000000000000000000000000000000000000000 PUSH0 MSTORE PUSH1 0x11 PUSH1 0x4 MSTORE PUSH1 0x24 PUSH0 REVERT JUMPDEST PUSH0 PUSH2 0xF9B DUP3 PUSH2 0xAF3 JUMP JUMPDEST SWAP2 POP PUSH2 0xFA6 DUP4 PUSH2 0xAF3 JUMP JUMPDEST SWAP3 POP DUP3 PUSH2 0xFB6 JUMPI PUSH2 0xFB5 PUSH2 0xF37 JUMP JUMPDEST JUMPDEST DUP3 DUP3 DIV SWAP1 POP SWAP3 SWAP2 POP POP JUMP JUMPDEST PUSH0 PUSH2 0xFCB DUP3 PUSH2 0xAF3 JUMP JUMPDEST SWAP2 POP PUSH2 0xFD6 DUP4 PUSH2 0xAF3 JUMP JUMPDEST SWAP3 POP DUP3 DUP3 ADD SWAP1 POP DUP1 DUP3 GT ISZERO PUSH2 0xFEE JUMPI PUSH2 0xFED PUSH2 0xF64 JUMP JUMPDEST JUMPDEST SWAP3 SWAP2 POP POP JUMP JUMPDEST PUSH0 PUSH2 0xFFE DUP3 PUSH2 0xAF3 JUMP JUMPDEST SWAP2 POP PUSH2 0x1009 DUP4 PUSH2 0xAF3 JUMP JUMPDEST SWAP3 POP DUP3 PUSH2 0x1019 JUMPI PUSH2 0x1018 PUSH2 0xF37 JUMP JUMPDEST JUMPDEST DUP3 DUP3 MOD SWAP1 POP SWAP3 SWAP2 POP POP JUMP JUMPDEST PUSH0 PUSH2 0x102E DUP3 PUSH2 0xAF3 JUMP JUMPDEST SWAP2 POP PUSH2 0x1039 DUP4 PUSH2 0xAF3 JUMP JUMPDEST SWAP3 POP DUP3 DUP3 MUL PUSH2 0x1047 DUP2 PUSH2 0xAF3 JUMP JUMPDEST SWAP2 POP DUP3 DUP3 DIV DUP5 EQ DUP4 ISZERO OR PUSH2 0x105E JUMPI PUSH2 0x105D PUSH2 0xF64 JUMP JUMPDEST JUMPDEST POP SWAP3 SWAP2 POP POP JUMP JUMPDEST PUSH32 0x4E487B7100000000000000000000000000000000000000000000000000000000 PUSH0 MSTORE PUSH1 0x32 PUSH1 0x4 MSTORE PUSH1 0x24 PUSH0 REVERT JUMPDEST PUSH0 PUSH2 0x109C DUP3 PUSH2 0xAF3 JUMP JUMPDEST SWAP2 POP PUSH32 0xFFFFFFFFFFFFFFFFFFFFFFFFFFFFFFFFFFFFFFFFFFFFFFFFFFFFFFFFFFFFFFFF DUP3 SUB PUSH2 0x10CE JUMPI PUSH2 0x10CD PUSH2 0xF64 JUMP JUMPDEST JUMPDEST PUSH1 0x1 DUP3 ADD SWAP1 POP SWAP2 SWAP1 POP JUMP JUMPDEST PUSH32 0x50686169206C61206B6520746F616E0000000000000000000000000000000000 PUSH0 DUP3 ADD MSTORE POP JUMP JUMPDEST PUSH0 PUSH2 0x110D PUSH1 0xF DUP4 PUSH2 0xEBF JUMP JUMPDEST SWAP2 POP PUSH2 0x1118 DUP3 PUSH2 0x10D9 JUMP JUMPDEST PUSH1 0x20 DUP3 ADD SWAP1 POP SWAP2 SWAP1 POP JUMP JUMPDEST PUSH0 PUSH1 0x20 DUP3 ADD SWAP1 POP DUP2 DUP2 SUB PUSH0 DUP4 ADD MSTORE PUSH2 0x113A DUP2 PUSH2 0x1101 JUMP JUMPDEST SWAP1 POP SWAP2 SWAP1 POP JUMP INVALID LOG2 PUSH5 0x6970667358 0x22 SLT KECCAK256 MSTORE8 0xA8 0xA8 0xD0 STOP PUSH14 0xCA96B2C9A8A72582E93FF150C534 CALL 0x5D BLOCKHASH PUSH2 0x2DE3 0x1E PUSH20 0x3B00CC7C64736F6C634300081500330000000000 "
				},
				"gasEstimates": {
					"creation": {
						"codeDepositCost": "894200",
						"executionCost": "25192",
						"totalCost": "919392"
					},
					"external": {
						"layBaoCao(uint256,uint256)": "infinite",
						"themBaoCao((uint256[2],uint256[2],uint256[2],uint256[2],uint256[2]),(uint256[2],uint256[2],uint256[2],uint256[2],uint256[2]),(uint256[2],uint256[2],uint256[2],uint256[2]))": "infinite",
						"themKeToan(address)": "51191"
					}
				},
				"methodIdentifiers": {
					"layBaoCao(uint256,uint256)": "f846a677",
					"themBaoCao((uint256[2],uint256[2],uint256[2],uint256[2],uint256[2]),(uint256[2],uint256[2],uint256[2],uint256[2],uint256[2]),(uint256[2],uint256[2],uint256[2],uint256[2]))": "0e108d71",
					"themKeToan(address)": "8cc151e8"
				}
			},
			"storageLayout": {
				"storage": [
					{
						"astId": 80,
						"contract": "contract/BaoCaoTaiChinh.sol:DanhSachBaoCaoTaiChinh",
						"label": "quanLy",
						"offset": 0,
						"slot": "0",
						"type": "t_address"
					},
					{
						"astId": 83,
						"contract": "contract/BaoCaoTaiChinh.sol:DanhSachBaoCaoTaiChinh",
						"label": "keToan",
						"offset": 0,
						"slot": "1",
						"type": "t_array(t_address)dyn_storage"
					},
					{
						"astId": 86,
						"contract": "contract/BaoCaoTaiChinh.sol:DanhSachBaoCaoTaiChinh",
						"label": "BCTCID",
						"offset": 0,
						"slot": "2",
						"type": "t_array(t_uint256)dyn_storage"
					},
					{
						"astId": 91,
						"contract": "contract/BaoCaoTaiChinh.sol:DanhSachBaoCaoTaiChinh",
						"label": "danhSachBCTC",
						"offset": 0,
						"slot": "3",
						"type": "t_mapping(t_uint256,t_struct(BaoCaoTaiChinh)78_storage)"
					}
				],
				"types": {
					"t_address": {
						"encoding": "inplace",
						"label": "address",
						"numberOfBytes": "20"
					},
					"t_array(t_address)dyn_storage": {
						"base": "t_address",
						"encoding": "dynamic_array",
						"label": "address[]",
						"numberOfBytes": "32"
					},
					"t_array(t_uint256)2_storage": {
						"base": "t_uint256",
						"encoding": "inplace",
						"label": "uint256[2]",
						"numberOfBytes": "64"
					},
					"t_array(t_uint256)dyn_storage": {
						"base": "t_uint256",
						"encoding": "dynamic_array",
						"label": "uint256[]",
						"numberOfBytes": "32"
					},
					"t_mapping(t_uint256,t_struct(BaoCaoTaiChinh)78_storage)": {
						"encoding": "mapping",
						"key": "t_uint256",
						"label": "mapping(uint256 => struct BaoCaoTaiChinh)",
						"numberOfBytes": "32",
						"value": "t_struct(BaoCaoTaiChinh)78_storage"
					},
					"t_struct(BaoCaoTaiChinh)78_storage": {
						"encoding": "inplace",
						"label": "struct BaoCaoTaiChinh",
						"members": [
							{
								"astId": 63,
								"contract": "contract/BaoCaoTaiChinh.sol:DanhSachBaoCaoTaiChinh",
								"label": "taiSanNganHan",
								"offset": 0,
								"slot": "0",
								"type": "t_struct(TaiSanNganHan)22_storage"
							},
							{
								"astId": 66,
								"contract": "contract/BaoCaoTaiChinh.sol:DanhSachBaoCaoTaiChinh",
								"label": "taiSanDaiHan",
								"offset": 0,
								"slot": "10",
								"type": "t_struct(TaiSanDaiHan)43_storage"
							},
							{
								"astId": 69,
								"contract": "contract/BaoCaoTaiChinh.sol:DanhSachBaoCaoTaiChinh",
								"label": "vongVon",
								"offset": 0,
								"slot": "20",
								"type": "t_struct(VongVon)60_storage"
							},
							{
								"astId": 71,
								"contract": "contract/BaoCaoTaiChinh.sol:DanhSachBaoCaoTaiChinh",
								"label": "id",
								"offset": 0,
								"slot": "28",
								"type": "t_uint256"
							},
							{
								"astId": 73,
								"contract": "contract/BaoCaoTaiChinh.sol:DanhSachBaoCaoTaiChinh",
								"label": "year",
								"offset": 0,
								"slot": "29",
								"type": "t_uint256"
							},
							{
								"astId": 75,
								"contract": "contract/BaoCaoTaiChinh.sol:DanhSachBaoCaoTaiChinh",
								"label": "month",
								"offset": 0,
								"slot": "30",
								"type": "t_uint256"
							},
							{
								"astId": 77,
								"contract": "contract/BaoCaoTaiChinh.sol:DanhSachBaoCaoTaiChinh",
								"label": "notNull",
								"offset": 0,
								"slot": "31",
								"type": "t_uint8"
							}
						],
						"numberOfBytes": "1024"
					},
					"t_struct(TaiSanDaiHan)43_storage": {
						"encoding": "inplace",
						"label": "struct TaiSanDaiHan",
						"members": [
							{
								"astId": 26,
								"contract": "contract/BaoCaoTaiChinh.sol:DanhSachBaoCaoTaiChinh",
								"label": "PhaiThuDaiHan",
								"offset": 0,
								"slot": "0",
								"type": "t_array(t_uint256)2_storage"
							},
							{
								"astId": 30,
								"contract": "contract/BaoCaoTaiChinh.sol:DanhSachBaoCaoTaiChinh",
								"label": "TaiSanCoDinh",
								"offset": 0,
								"slot": "2",
								"type": "t_array(t_uint256)2_storage"
							},
							{
								"astId": 34,
								"contract": "contract/BaoCaoTaiChinh.sol:DanhSachBaoCaoTaiChinh",
								"label": "BatDongSanDauTu",
								"offset": 0,
								"slot": "4",
								"type": "t_array(t_uint256)2_storage"
							},
							{
								"astId": 38,
								"contract": "contract/BaoCaoTaiChinh.sol:DanhSachBaoCaoTaiChinh",
								"label": "TaiSanDoDangDaiHan",
								"offset": 0,
								"slot": "6",
								"type": "t_array(t_uint256)2_storage"
							},
							{
								"astId": 42,
								"contract": "contract/BaoCaoTaiChinh.sol:DanhSachBaoCaoTaiChinh",
								"label": "TaiSanDaiHanKhac",
								"offset": 0,
								"slot": "8",
								"type": "t_array(t_uint256)2_storage"
							}
						],
						"numberOfBytes": "320"
					},
					"t_struct(TaiSanNganHan)22_storage": {
						"encoding": "inplace",
						"label": "struct TaiSanNganHan",
						"members": [
							{
								"astId": 5,
								"contract": "contract/BaoCaoTaiChinh.sol:DanhSachBaoCaoTaiChinh",
								"label": "TienMatVaTuongDuong",
								"offset": 0,
								"slot": "0",
								"type": "t_array(t_uint256)2_storage"
							},
							{
								"astId": 9,
								"contract": "contract/BaoCaoTaiChinh.sol:DanhSachBaoCaoTaiChinh",
								"label": "DauTuTaiChinh",
								"offset": 0,
								"slot": "2",
								"type": "t_array(t_uint256)2_storage"
							},
							{
								"astId": 13,
								"contract": "contract/BaoCaoTaiChinh.sol:DanhSachBaoCaoTaiChinh",
								"label": "PhaiThuNganHan",
								"offset": 0,
								"slot": "4",
								"type": "t_array(t_uint256)2_storage"
							},
							{
								"astId": 17,
								"contract": "contract/BaoCaoTaiChinh.sol:DanhSachBaoCaoTaiChinh",
								"label": "HangTonKhoDauNam",
								"offset": 0,
								"slot": "6",
								"type": "t_array(t_uint256)2_storage"
							},
							{
								"astId": 21,
								"contract": "contract/BaoCaoTaiChinh.sol:DanhSachBaoCaoTaiChinh",
								"label": "TaiSanNganHangKhac",
								"offset": 0,
								"slot": "8",
								"type": "t_array(t_uint256)2_storage"
							}
						],
						"numberOfBytes": "320"
					},
					"t_struct(VongVon)60_storage": {
						"encoding": "inplace",
						"label": "struct VongVon",
						"members": [
							{
								"astId": 47,
								"contract": "contract/BaoCaoTaiChinh.sol:DanhSachBaoCaoTaiChinh",
								"label": "NoNganHan",
								"offset": 0,
								"slot": "0",
								"type": "t_array(t_uint256)2_storage"
							},
							{
								"astId": 51,
								"contract": "contract/BaoCaoTaiChinh.sol:DanhSachBaoCaoTaiChinh",
								"label": "PhaiTraNganHan",
								"offset": 0,
								"slot": "2",
								"type": "t_array(t_uint256)2_storage"
							},
							{
								"astId": 55,
								"contract": "contract/BaoCaoTaiChinh.sol:DanhSachBaoCaoTaiChinh",
								"label": "NoDaiHan",
								"offset": 0,
								"slot": "4",
								"type": "t_array(t_uint256)2_storage"
							},
							{
								"astId": 59,
								"contract": "contract/BaoCaoTaiChinh.sol:DanhSachBaoCaoTaiChinh",
								"label": "VongVonChuSoHuu",
								"offset": 0,
								"slot": "6",
								"type": "t_array(t_uint256)2_storage"
							}
						],
						"numberOfBytes": "256"
					},
					"t_uint256": {
						"encoding": "inplace",
						"label": "uint256",
						"numberOfBytes": "32"
					},
					"t_uint8": {
						"encoding": "inplace",
						"label": "uint8",
						"numberOfBytes": "1"
					}
				}
			},
			"userdoc": {
				"kind": "user",
				"methods": {},
				"version": 1
			}
		}
	}
}